{
  "_format": "hh-sol-artifact-1",
  "contractName": "PriceSaigonMarket",
  "sourceName": "contracts/PriceFeed/PriceSaigonMarket.sol",
  "abi": [
    {
      "inputs": [],
      "stateMutability": "nonpayable",
      "type": "constructor"
    },
    {
      "inputs": [],
      "name": "getLatestPrice",
      "outputs": [
        {
          "internalType": "int256",
          "name": "",
          "type": "int256"
        }
      ],
      "stateMutability": "view",
      "type": "function"
    },
    {
      "inputs": [],
      "name": "usdToWeiExchangeRate",
      "outputs": [
        {
          "internalType": "uint256",
          "name": "",
          "type": "uint256"
        }
      ],
      "stateMutability": "view",
      "type": "function"
    }
  ],
  "bytecode": "0x608060405234801561001057600080fd5b50600080546001600160a01b03191673d4a33860578de61dbabdc8bfdb98fd742fa7028e179055610575806100466000396000f3fe608060405234801561001057600080fd5b50600436106100365760003560e01c80635903b0d81461003b5780638e15f47314610055575b600080fd5b61004361005d565b60405190815260200160405180910390f35b610043610190565b6000805460408051633fabe5a360e21b8152905183926001600160a01b03169163feaf968c9160048083019260a09291908290030181865afa1580156100a7573d6000803e3d6000fd5b505050506040513d601f19601f820116820180604052508101906100cb9190610322565b50505091505060008060009054906101000a90046001600160a01b03166001600160a01b031663313ce5676040518163ffffffff1660e01b8152600401602060405180830381865afa158015610125573d6000803e3d6000fd5b505050506040513d601f19601f820116820180604052508101906101499190610372565b905061015482610279565b600061018883610182670de0b6b3a76400006101716002876103b2565b61017c90600a6104b9565b906102c1565b906102d6565b949350505050565b60008060008060008060008054906101000a90046001600160a01b03166001600160a01b031663feaf968c6040518163ffffffff1660e01b815260040160a060405180830381865afa1580156101ea573d6000803e3d6000fd5b505050506040513d601f19601f8201168201806040525081019061020e9190610322565b94509450945094509450600082116102615760405162461bcd60e51b8152602060048201526012602482015271526f756e64206e6f7420636f6d706c65746560701b604482015260640160405180910390fd5b61026f6305f5e100856104de565b9550505050505090565b6102be8160405160240161028f91815260200190565b60408051601f198184030181529190526020810180516001600160e01b031663f82c50f160e01b1790526102e2565b50565b60006102cd828461050c565b90505b92915050565b60006102cd828461052b565b80516a636f6e736f6c652e6c6f67602083016000808483855afa5050505050565b805169ffffffffffffffffffff8116811461031d57600080fd5b919050565b600080600080600060a0868803121561033a57600080fd5b61034386610303565b945060208601519350604086015192506060860151915061036660808701610303565b90509295509295909350565b60006020828403121561038457600080fd5b815160ff8116811461039557600080fd5b9392505050565b634e487b7160e01b600052601160045260246000fd5b600060ff821660ff8416808210156103cc576103cc61039c565b90039392505050565b600181815b808511156104105781600019048211156103f6576103f661039c565b8085161561040357918102915b93841c93908002906103da565b509250929050565b600082610427575060016102d0565b81610434575060006102d0565b816001811461044a576002811461045457610470565b60019150506102d0565b60ff8411156104655761046561039c565b50506001821b6102d0565b5060208310610133831016604e8410600b8410161715610493575081810a6102d0565b61049d83836103d5565b80600019048211156104b1576104b161039c565b029392505050565b60006102cd60ff841683610418565b634e487b7160e01b600052601260045260246000fd5b6000826104ed576104ed6104c8565b600160ff1b8214600019841416156105075761050761039c565b500590565b60008160001904831182151516156105265761052661039c565b500290565b60008261053a5761053a6104c8565b50049056fea264697066735822122017eb63ceb71f2d3c07e9ecdfa8f34bcf65d9a23d2e830d55e9b9b1d672071ec964736f6c634300080c0033",
  "linkReferences": {},
  "deployedLinkReferences": {}
}