{
  "_format": "hh-sol-artifact-1",
  "contractName": "SaigonMarket",
  "sourceName": "contracts/SaigonMarket.sol",
  "abi": [
    {
      "inputs": [
        {
          "internalType": "uint256",
          "name": "_feePercent",
          "type": "uint256"
        }
      ],
      "stateMutability": "nonpayable",
      "type": "constructor"
    },
    {
      "inputs": [],
      "name": "InvalidNftAddress",
      "type": "error"
    },
    {
      "inputs": [],
      "name": "ListingDoesNotExist",
      "type": "error"
    },
    {
      "inputs": [],
      "name": "ListingNotAvailable",
      "type": "error"
    },
    {
      "inputs": [],
      "name": "NotApprovedForMarketplace",
      "type": "error"
    },
    {
      "inputs": [],
      "name": "NotOwner",
      "type": "error"
    },
    {
      "inputs": [],
      "name": "PaymentAmountUnmatched",
      "type": "error"
    },
    {
      "inputs": [],
      "name": "TransferFailed",
      "type": "error"
    },
    {
      "anonymous": false,
      "inputs": [
        {
          "indexed": true,
          "internalType": "address",
          "name": "nft",
          "type": "address"
        },
        {
          "indexed": false,
          "internalType": "uint256",
          "name": "tokenId",
          "type": "uint256"
        }
      ],
      "name": "ListingCancelled",
      "type": "event"
    },
    {
      "anonymous": false,
      "inputs": [
        {
          "indexed": true,
          "internalType": "address",
          "name": "seller",
          "type": "address"
        },
        {
          "indexed": true,
          "internalType": "address",
          "name": "buyer",
          "type": "address"
        },
        {
          "indexed": true,
          "internalType": "address",
          "name": "nft",
          "type": "address"
        },
        {
          "indexed": false,
          "internalType": "uint256",
          "name": "tokenId",
          "type": "uint256"
        },
        {
          "indexed": false,
          "internalType": "uint256",
          "name": "listingId",
          "type": "uint256"
        },
        {
          "indexed": false,
          "internalType": "uint256",
          "name": "pricePerItem",
          "type": "uint256"
        },
        {
          "indexed": false,
          "internalType": "bool",
          "name": "sold",
          "type": "bool"
        }
      ],
      "name": "ListingSold",
      "type": "event"
    },
    {
      "anonymous": false,
      "inputs": [
        {
          "indexed": false,
          "internalType": "address",
          "name": "creator",
          "type": "address"
        },
        {
          "indexed": false,
          "internalType": "address",
          "name": "nft",
          "type": "address"
        }
      ],
      "name": "NFTCreated",
      "type": "event"
    },
    {
      "anonymous": false,
      "inputs": [
        {
          "indexed": true,
          "internalType": "uint256",
          "name": "listingId",
          "type": "uint256"
        },
        {
          "indexed": true,
          "internalType": "address",
          "name": "nftAddress",
          "type": "address"
        },
        {
          "indexed": true,
          "internalType": "uint256",
          "name": "tokenId",
          "type": "uint256"
        },
        {
          "indexed": false,
          "internalType": "address",
          "name": "seller",
          "type": "address"
        },
        {
          "indexed": false,
          "internalType": "address",
          "name": "owner",
          "type": "address"
        },
        {
          "indexed": false,
          "internalType": "uint256",
          "name": "pricePerItem",
          "type": "uint256"
        },
        {
          "indexed": false,
          "internalType": "bool",
          "name": "sold",
          "type": "bool"
        }
      ],
      "name": "NFTListed",
      "type": "event"
    },
    {
      "inputs": [
        {
          "internalType": "uint256",
          "name": "_listingId",
          "type": "uint256"
        }
      ],
      "name": "createMarketSale",
      "outputs": [],
      "stateMutability": "payable",
      "type": "function"
    },
    {
      "inputs": [
        {
          "internalType": "contract IERC721",
          "name": "_nft",
          "type": "address"
        },
        {
          "internalType": "uint256",
          "name": "_tokenId",
          "type": "uint256"
        },
        {
          "internalType": "uint256",
          "name": "_pricePerItem",
          "type": "uint256"
        }
      ],
      "name": "createNFTListing",
      "outputs": [],
      "stateMutability": "payable",
      "type": "function"
    },
    {
      "inputs": [],
      "name": "feePercent",
      "outputs": [
        {
          "internalType": "uint256",
          "name": "",
          "type": "uint256"
        }
      ],
      "stateMutability": "view",
      "type": "function"
    },
    {
      "inputs": [],
      "name": "feeReceiver",
      "outputs": [
        {
          "internalType": "address payable",
          "name": "",
          "type": "address"
        }
      ],
      "stateMutability": "view",
      "type": "function"
    },
    {
      "inputs": [],
      "name": "fetchMarketListings",
      "outputs": [
        {
          "components": [
            {
              "internalType": "address payable",
              "name": "seller",
              "type": "address"
            },
            {
              "internalType": "address payable",
              "name": "owner",
              "type": "address"
            },
            {
              "internalType": "contract IERC721",
              "name": "nft",
              "type": "address"
            },
            {
              "internalType": "uint256",
              "name": "listingId",
              "type": "uint256"
            },
            {
              "internalType": "uint256",
              "name": "tokenId",
              "type": "uint256"
            },
            {
              "internalType": "uint256",
              "name": "pricePerItem",
              "type": "uint256"
            },
            {
              "internalType": "bool",
              "name": "sold",
              "type": "bool"
            }
          ],
          "internalType": "struct SaigonMarket.Listing[]",
          "name": "",
          "type": "tuple[]"
        }
      ],
      "stateMutability": "view",
      "type": "function"
    },
    {
      "inputs": [],
      "name": "fetchMyNFTs",
      "outputs": [
        {
          "components": [
            {
              "internalType": "address payable",
              "name": "seller",
              "type": "address"
            },
            {
              "internalType": "address payable",
              "name": "owner",
              "type": "address"
            },
            {
              "internalType": "contract IERC721",
              "name": "nft",
              "type": "address"
            },
            {
              "internalType": "uint256",
              "name": "listingId",
              "type": "uint256"
            },
            {
              "internalType": "uint256",
              "name": "tokenId",
              "type": "uint256"
            },
            {
              "internalType": "uint256",
              "name": "pricePerItem",
              "type": "uint256"
            },
            {
              "internalType": "bool",
              "name": "sold",
              "type": "bool"
            }
          ],
          "internalType": "struct SaigonMarket.Listing[]",
          "name": "",
          "type": "tuple[]"
        }
      ],
      "stateMutability": "view",
      "type": "function"
    },
    {
      "inputs": [],
      "name": "fetchOwnedListings",
      "outputs": [
        {
          "components": [
            {
              "internalType": "address payable",
              "name": "seller",
              "type": "address"
            },
            {
              "internalType": "address payable",
              "name": "owner",
              "type": "address"
            },
            {
              "internalType": "contract IERC721",
              "name": "nft",
              "type": "address"
            },
            {
              "internalType": "uint256",
              "name": "listingId",
              "type": "uint256"
            },
            {
              "internalType": "uint256",
              "name": "tokenId",
              "type": "uint256"
            },
            {
              "internalType": "uint256",
              "name": "pricePerItem",
              "type": "uint256"
            },
            {
              "internalType": "bool",
              "name": "sold",
              "type": "bool"
            }
          ],
          "internalType": "struct SaigonMarket.Listing[]",
          "name": "",
          "type": "tuple[]"
        }
      ],
      "stateMutability": "view",
      "type": "function"
    },
    {
      "inputs": [
        {
          "internalType": "uint256",
          "name": "_listingId",
          "type": "uint256"
        }
      ],
      "name": "getFinalPrice",
      "outputs": [
        {
          "internalType": "uint256",
          "name": "",
          "type": "uint256"
        }
      ],
      "stateMutability": "view",
      "type": "function"
    },
    {
      "inputs": [
        {
          "internalType": "address",
          "name": "_nftAddress",
          "type": "address"
        },
        {
          "internalType": "uint256",
          "name": "_tokenId",
          "type": "uint256"
        },
        {
          "internalType": "uint256",
          "name": "_listingId",
          "type": "uint256"
        },
        {
          "internalType": "uint256",
          "name": "_pricePerItem",
          "type": "uint256"
        }
      ],
      "name": "listNFT",
      "outputs": [],
      "stateMutability": "nonpayable",
      "type": "function"
    },
    {
      "inputs": [
        {
          "internalType": "uint256",
          "name": "",
          "type": "uint256"
        }
      ],
      "name": "listings",
      "outputs": [
        {
          "internalType": "address payable",
          "name": "seller",
          "type": "address"
        },
        {
          "internalType": "address payable",
          "name": "owner",
          "type": "address"
        },
        {
          "internalType": "contract IERC721",
          "name": "nft",
          "type": "address"
        },
        {
          "internalType": "uint256",
          "name": "listingId",
          "type": "uint256"
        },
        {
          "internalType": "uint256",
          "name": "tokenId",
          "type": "uint256"
        },
        {
          "internalType": "uint256",
          "name": "pricePerItem",
          "type": "uint256"
        },
        {
          "internalType": "bool",
          "name": "sold",
          "type": "bool"
        }
      ],
      "stateMutability": "view",
      "type": "function"
    },
    {
      "inputs": [
        {
          "internalType": "uint256",
          "name": "",
          "type": "uint256"
        }
      ],
      "name": "offers",
      "outputs": [
        {
          "internalType": "contract IERC20",
          "name": "payToken",
          "type": "address"
        },
        {
          "internalType": "uint256",
          "name": "quantity",
          "type": "uint256"
        },
        {
          "internalType": "uint256",
          "name": "pricePerItem",
          "type": "uint256"
        },
        {
          "internalType": "uint256",
          "name": "deadline",
          "type": "uint256"
        }
      ],
      "stateMutability": "view",
      "type": "function"
    },
    {
      "inputs": [
        {
          "internalType": "uint256",
          "name": "_listingId",
          "type": "uint256"
        },
        {
          "internalType": "uint256",
          "name": "_pricePerItem",
          "type": "uint256"
        }
      ],
      "name": "resellToken",
      "outputs": [],
      "stateMutability": "payable",
      "type": "function"
    }
  ],
  "bytecode": "0x60c060405234801561001057600080fd5b5060405161163b38038061163b83398101604081905261002f91610054565b6001600055600380546001600160a01b0319163390811790915560805260a05261006d565b60006020828403121561006657600080fd5b5051919050565b60805160a05161159b6100a06000396000818161013901526109b40152600081816101e30152610c3e015261159b6000f3fe6080604052600436106100a75760003560e01c8063be9af53611610064578063be9af5361461021d578063db80135a14610230578063de74e57b14610243578063e219fc75146102f2578063e75db0d014610305578063f654fc4f1461031a57600080fd5b8063202e3740146100ac5780633c44a5f0146100d75780634b554954146100f95780637fd6f15c146101275780638a72ea6a1461015b578063b3f00674146101d1575b600080fd5b3480156100b857600080fd5b506100c161032f565b6040516100ce91906112c6565b60405180910390f35b3480156100e357600080fd5b506100f76100f2366004611370565b6104fd565b005b34801561010557600080fd5b506101196101143660046113ab565b6109ab565b6040519081526020016100ce565b34801561013357600080fd5b506101197f000000000000000000000000000000000000000000000000000000000000000081565b34801561016757600080fd5b506101a76101763660046113ab565b60056020526000908152604090208054600182015460028301546003909301546001600160a01b0390921692909184565b604080516001600160a01b03909516855260208501939093529183015260608201526080016100ce565b3480156101dd57600080fd5b506102057f000000000000000000000000000000000000000000000000000000000000000081565b6040516001600160a01b0390911681526020016100ce565b6100f761022b3660046113ab565b610a05565b6100f761023e3660046113c4565b610cdd565b34801561024f57600080fd5b506102ac61025e3660046113ab565b600460208190526000918252604090912080546001820154600283015460038401549484015460058501546006909501546001600160a01b0394851696938516959490921693909160ff1687565b604080516001600160a01b039889168152968816602088015294909616938501939093526060840191909152608083015260a082015290151560c082015260e0016100ce565b6100f76103003660046113f9565b610d7a565b34801561031157600080fd5b506100c1610eed565b34801561032657600080fd5b506100c16110b2565b6060600061033c60015490565b905060008060005b8381101561039c57336004600061035c846001611431565b81526020810191909152604001600020546001600160a01b0316141561038a57610387600184611431565b92505b8061039481611449565b915050610344565b5060008267ffffffffffffffff8111156103b8576103b8611464565b6040519080825280602002602001820160405280156103f157816020015b6103de61128a565b8152602001906001900390816103d65790505b50905060005b848110156104f457336004600061040f846001611431565b81526020810191909152604001600020546001600160a01b031614156104e257600061043c826001611431565b600081815260046020818152604092839020835160e08101855281546001600160a01b039081168252600183015481169382019390935260028201549092169382019390935260038301546060820152908201546080820152600582015460a0820152600682015460ff16151560c0820152855192935090918590879081106104c7576104c761147a565b60209081029190910101526104dd600186611431565b945050505b806104ec81611449565b9150506103f7565b50949350505050565b6040516301ffc9a760e01b81526380ac58cd60e01b60048201526001600160a01b038516906301ffc9a790602401602060405180830381865afa158015610548573d6000803e3d6000fd5b505050506040513d601f19601f8201168201806040525081019061056c9190611490565b15610696576040516331a9108f60e11b815260048101849052849033906001600160a01b03831690636352211e90602401602060405180830381865afa1580156105ba573d6000803e3d6000fd5b505050506040513d601f19601f820116820180604052508101906105de91906114b9565b6001600160a01b031614610605576040516330cd747160e01b815260040160405180910390fd5b60405163e985e9c560e01b81523360048201523060248201526001600160a01b0382169063e985e9c590604401602060405180830381865afa15801561064f573d6000803e3d6000fd5b505050506040513d601f19601f820116820180604052508101906106739190611490565b61069057604051634be3a2c560e01b815260040160405180910390fd5b506106af565b6040516341b7742560e01b815260040160405180910390fd5b6040518060e00160405280336001600160a01b0316815260200160006001600160a01b03168152602001856001600160a01b03168152602001838152602001848152602001828152602001600015158152506004600084815260200190815260200160002060008201518160000160006101000a8154816001600160a01b0302191690836001600160a01b0316021790555060208201518160010160006101000a8154816001600160a01b0302191690836001600160a01b0316021790555060408201518160020160006101000a8154816001600160a01b0302191690836001600160a01b03160217905550606082015181600301556080820151816004015560a0820151816005015560c08201518160060160006101000a81548160ff0219169083151502179055509050506000600460008481526020019081526020016000206040518060e00160405290816000820160009054906101000a90046001600160a01b03166001600160a01b03166001600160a01b031681526020016001820160009054906101000a90046001600160a01b03166001600160a01b03166001600160a01b031681526020016002820160009054906101000a90046001600160a01b03166001600160a01b03166001600160a01b031681526020016003820154815260200160048201548152602001600582015481526020016006820160009054906101000a900460ff161515151581525050905080604001516001600160a01b03166323b872dd333084608001516040518463ffffffff1660e01b815260040161091b939291906001600160a01b039384168152919092166020820152604081019190915260600190565b600060405180830381600087803b15801561093557600080fd5b505af1158015610949573d6000803e3d6000fd5b505060408051338152600060208201819052818301879052606082015290518793506001600160a01b038916925086917ff9b8a81a1bb3e12b4a9b295ae3f1d8b0255537c0feaafc43705b6954b5822d5c919081900360800190a45050505050565b600060646109d97f000000000000000000000000000000000000000000000000000000000000000082611431565b6000848152600460205260409020600501546109f591906114d6565b6109ff91906114f5565b92915050565b60026000541415610a315760405162461bcd60e51b8152600401610a2890611517565b60405180910390fd5b60026000908155610a41826109ab565b6000838152600460208181526040808420815160e08101835281546001600160a01b039081168252600183015481169482019490945260028201549093169183019190915260038101546060830152918201546080820152600582015460a0820181905260069092015460ff16151560c082015292935090610ac3828561154e565b835190915085158015610ad7575060015486115b15610af5576040516335aacf6560e11b815260040160405180910390fd5b843414610b1557604051631cbc6a9b60e01b815260040160405180910390fd5b8360c0015115610b385760405163df28fd7b60e01b815260040160405180910390fd5b50336020840152600160c08401526000610b56600280546001019055565b604080850151608086015191516323b872dd60e01b815230600482015233602482015260448101929092526001600160a01b0316906323b872dd90606401600060405180830381600087803b158015610bae57600080fd5b505af1158015610bc2573d6000803e3d6000fd5b505050506000816001600160a01b03168460405160006040518083038185875af1925050503d8060008114610c13576040519150601f19603f3d011682016040523d82523d6000602084013e610c18565b606091505b5050905080610c3a576040516312171d8360e31b815260040160405180910390fd5b60007f00000000000000000000000000000000000000000000000000000000000000006001600160a01b03168460405160006040518083038185875af1925050503d8060008114610ca7576040519150601f19603f3d011682016040523d82523d6000602084013e610cac565b606091505b5050905080610cce576040516312171d8360e31b815260040160405180910390fd5b50506001600055505050505050565b60026000541415610d005760405162461bcd60e51b8152600401610a2890611517565b6002600055610d13600180546001019055565b6000610d1e60015490565b905083610d2d818584866104fd565b604080513381526001600160a01b03831660208201527fe4944a5f0bf5ee82c3c6769e53000a678b52be77b461a2e8f7b3434eff94670e910160405180910390a150506001600055505050565b60026000541415610d9d5760405162461bcd60e51b8152600401610a2890611517565b60026000908155610dad836109ab565b600084815260046020818152604092839020835160e08101855281546001600160a01b039081168252600183015481169382018490526002830154169481019490945260038101546060850152918201546080840152600582015460a084015260069091015460ff16151560c0830152919250903314610e40576040516330cd747160e01b815260040160405180910390fd5b813414610e6057604051631cbc6a9b60e01b815260040160405180910390fd5b600060c082015260a08101839052338152306020820152610e816002611233565b604080820151608083015191516323b872dd60e01b815233600482015230602482015260448101929092526001600160a01b0316906323b872dd90606401600060405180830381600087803b158015610ed957600080fd5b505af1158015610cce573d6000803e3d6000fd5b60606000610efa60015490565b905060008060005b83811015610f5a573360046000610f1a846001611431565b81526020810191909152604001600020546001600160a01b03161415610f4857610f45600184611431565b92505b80610f5281611449565b915050610f02565b5060008267ffffffffffffffff811115610f7657610f76611464565b604051908082528060200260200182016040528015610faf57816020015b610f9c61128a565b815260200190600190039081610f945790505b50905060005b848110156104f4573360046000610fcd846001611431565b81526020810191909152604001600020546001600160a01b031614156110a0576000610ffa826001611431565b600081815260046020818152604092839020835160e08101855281546001600160a01b039081168252600183015481169382019390935260028201549092169382019390935260038301546060820152908201546080820152600582015460a0820152600682015460ff16151560c0820152855192935090918590879081106110855761108561147a565b602090810291909101015261109b600186611431565b945050505b806110aa81611449565b915050610fb5565b606060006110bf60015490565b905060006110cc60025490565b6001546110d9919061154e565b90506000808267ffffffffffffffff8111156110f7576110f7611464565b60405190808252806020026020018201604052801561113057816020015b61111d61128a565b8152602001906001900390816111155790505b50905060005b848110156104f457306004600061114e846001611431565b81526020810191909152604001600020546001600160a01b0316141561122157600061117b826001611431565b600081815260046020818152604092839020835160e08101855281546001600160a01b039081168252600183015481169382019390935260028201549092169382019390935260038301546060820152908201546080820152600582015460a0820152600682015460ff16151560c0820152855192935090918590849081106112065761120661147a565b602090810291909101015261121c600186611431565b945050505b8061122b81611449565b915050611136565b8054806112825760405162461bcd60e51b815260206004820152601b60248201527f436f756e7465723a2064656372656d656e74206f766572666c6f7700000000006044820152606401610a28565b600019019055565b6040805160e081018252600080825260208201819052918101829052606081018290526080810182905260a0810182905260c081019190915290565b602080825282518282018190526000919060409081850190868401855b8281101561134b57815180516001600160a01b03908116865287820151811688870152868201511686860152606080820151908601526080808201519086015260a0808201519086015260c09081015115159085015260e090930192908501906001016112e3565b5091979650505050505050565b6001600160a01b038116811461136d57600080fd5b50565b6000806000806080858703121561138657600080fd5b843561139181611358565b966020860135965060408601359560600135945092505050565b6000602082840312156113bd57600080fd5b5035919050565b6000806000606084860312156113d957600080fd5b83356113e481611358565b95602085013595506040909401359392505050565b6000806040838503121561140c57600080fd5b50508035926020909101359150565b634e487b7160e01b600052601160045260246000fd5b600082198211156114445761144461141b565b500190565b600060001982141561145d5761145d61141b565b5060010190565b634e487b7160e01b600052604160045260246000fd5b634e487b7160e01b600052603260045260246000fd5b6000602082840312156114a257600080fd5b815180151581146114b257600080fd5b9392505050565b6000602082840312156114cb57600080fd5b81516114b281611358565b60008160001904831182151516156114f0576114f061141b565b500290565b60008261151257634e487b7160e01b600052601260045260246000fd5b500490565b6020808252601f908201527f5265656e7472616e637947756172643a207265656e7472616e742063616c6c00604082015260600190565b6000828210156115605761156061141b565b50039056fea2646970667358221220c6d914650ae7625c3e68b8af52786a31032bf00fbf5cdf9357128502496bab9864736f6c634300080c0033",
  "linkReferences": {},
  "deployedLinkReferences": {}
}