{
  "_format": "hh-sol-artifact-1",
  "contractName": "SaigonMarket",
  "sourceName": "contracts/SaigonMarket.sol",
  "abi": [
    {
      "inputs": [
        {
          "internalType": "uint256",
          "name": "_feeBps",
          "type": "uint256"
        }
      ],
      "stateMutability": "nonpayable",
      "type": "constructor"
    },
    {
      "inputs": [],
      "name": "InvalidNftAddress",
      "type": "error"
    },
    {
      "inputs": [],
      "name": "ListingDoesNotExist",
      "type": "error"
    },
    {
      "inputs": [],
      "name": "ListingNotAvailable",
      "type": "error"
    },
    {
      "inputs": [],
      "name": "NotApprovedForMarketplace",
      "type": "error"
    },
    {
      "inputs": [],
      "name": "NotOwner",
      "type": "error"
    },
    {
      "inputs": [],
      "name": "PaymentAmountUnmatched",
      "type": "error"
    },
    {
      "inputs": [],
      "name": "TransferFailed",
      "type": "error"
    },
    {
      "anonymous": false,
      "inputs": [
        {
          "indexed": true,
          "internalType": "address",
          "name": "nft",
          "type": "address"
        },
        {
          "indexed": false,
          "internalType": "uint256",
          "name": "tokenId",
          "type": "uint256"
        }
      ],
      "name": "ListingCancelled",
      "type": "event"
    },
    {
      "anonymous": false,
      "inputs": [
        {
          "indexed": true,
          "internalType": "address",
          "name": "seller",
          "type": "address"
        },
        {
          "indexed": true,
          "internalType": "address",
          "name": "buyer",
          "type": "address"
        },
        {
          "indexed": true,
          "internalType": "address",
          "name": "nft",
          "type": "address"
        },
        {
          "indexed": false,
          "internalType": "uint256",
          "name": "tokenId",
          "type": "uint256"
        },
        {
          "indexed": false,
          "internalType": "uint256",
          "name": "listingId",
          "type": "uint256"
        },
        {
          "indexed": false,
          "internalType": "uint256",
          "name": "pricePerItem",
          "type": "uint256"
        },
        {
          "indexed": false,
          "internalType": "bool",
          "name": "sold",
          "type": "bool"
        }
      ],
      "name": "ListingSold",
      "type": "event"
    },
    {
      "anonymous": false,
      "inputs": [
        {
          "indexed": false,
          "internalType": "address",
          "name": "creator",
          "type": "address"
        },
        {
          "indexed": false,
          "internalType": "address",
          "name": "nft",
          "type": "address"
        }
      ],
      "name": "NFTCreated",
      "type": "event"
    },
    {
      "anonymous": false,
      "inputs": [
        {
          "indexed": true,
          "internalType": "uint256",
          "name": "listingId",
          "type": "uint256"
        },
        {
          "indexed": true,
          "internalType": "address",
          "name": "nftAddress",
          "type": "address"
        },
        {
          "indexed": true,
          "internalType": "uint256",
          "name": "tokenId",
          "type": "uint256"
        },
        {
          "indexed": false,
          "internalType": "address",
          "name": "seller",
          "type": "address"
        },
        {
          "indexed": false,
          "internalType": "address",
          "name": "owner",
          "type": "address"
        },
        {
          "indexed": false,
          "internalType": "uint256",
          "name": "pricePerItem",
          "type": "uint256"
        },
        {
          "indexed": false,
          "internalType": "bool",
          "name": "sold",
          "type": "bool"
        }
      ],
      "name": "NFTListed",
      "type": "event"
    },
    {
      "inputs": [
        {
          "internalType": "uint256",
          "name": "_listingId",
          "type": "uint256"
        }
      ],
      "name": "createMarketSale",
      "outputs": [],
      "stateMutability": "payable",
      "type": "function"
    },
    {
      "inputs": [
        {
          "internalType": "contract IERC721",
          "name": "_nft",
          "type": "address"
        },
        {
          "internalType": "uint256",
          "name": "_tokenId",
          "type": "uint256"
        },
        {
          "internalType": "uint256",
          "name": "_pricePerItem",
          "type": "uint256"
        }
      ],
      "name": "createNFTListing",
      "outputs": [],
      "stateMutability": "payable",
      "type": "function"
    },
    {
      "inputs": [],
      "name": "feeBps",
      "outputs": [
        {
          "internalType": "uint256",
          "name": "",
          "type": "uint256"
        }
      ],
      "stateMutability": "view",
      "type": "function"
    },
    {
      "inputs": [],
      "name": "feeReceiver",
      "outputs": [
        {
          "internalType": "address payable",
          "name": "",
          "type": "address"
        }
      ],
      "stateMutability": "view",
      "type": "function"
    },
    {
      "inputs": [],
      "name": "fetchMarketListings",
      "outputs": [
        {
          "components": [
            {
              "internalType": "address payable",
              "name": "seller",
              "type": "address"
            },
            {
              "internalType": "address payable",
              "name": "owner",
              "type": "address"
            },
            {
              "internalType": "contract IERC721",
              "name": "nft",
              "type": "address"
            },
            {
              "internalType": "uint256",
              "name": "listingId",
              "type": "uint256"
            },
            {
              "internalType": "uint256",
              "name": "tokenId",
              "type": "uint256"
            },
            {
              "internalType": "uint256",
              "name": "pricePerItem",
              "type": "uint256"
            },
            {
              "internalType": "bool",
              "name": "sold",
              "type": "bool"
            }
          ],
          "internalType": "struct SaigonMarket.Listing[]",
          "name": "",
          "type": "tuple[]"
        }
      ],
      "stateMutability": "view",
      "type": "function"
    },
    {
      "inputs": [],
      "name": "fetchMyNFTs",
      "outputs": [
        {
          "components": [
            {
              "internalType": "address payable",
              "name": "seller",
              "type": "address"
            },
            {
              "internalType": "address payable",
              "name": "owner",
              "type": "address"
            },
            {
              "internalType": "contract IERC721",
              "name": "nft",
              "type": "address"
            },
            {
              "internalType": "uint256",
              "name": "listingId",
              "type": "uint256"
            },
            {
              "internalType": "uint256",
              "name": "tokenId",
              "type": "uint256"
            },
            {
              "internalType": "uint256",
              "name": "pricePerItem",
              "type": "uint256"
            },
            {
              "internalType": "bool",
              "name": "sold",
              "type": "bool"
            }
          ],
          "internalType": "struct SaigonMarket.Listing[]",
          "name": "",
          "type": "tuple[]"
        }
      ],
      "stateMutability": "view",
      "type": "function"
    },
    {
      "inputs": [],
      "name": "fetchOwnedListings",
      "outputs": [
        {
          "components": [
            {
              "internalType": "address payable",
              "name": "seller",
              "type": "address"
            },
            {
              "internalType": "address payable",
              "name": "owner",
              "type": "address"
            },
            {
              "internalType": "contract IERC721",
              "name": "nft",
              "type": "address"
            },
            {
              "internalType": "uint256",
              "name": "listingId",
              "type": "uint256"
            },
            {
              "internalType": "uint256",
              "name": "tokenId",
              "type": "uint256"
            },
            {
              "internalType": "uint256",
              "name": "pricePerItem",
              "type": "uint256"
            },
            {
              "internalType": "bool",
              "name": "sold",
              "type": "bool"
            }
          ],
          "internalType": "struct SaigonMarket.Listing[]",
          "name": "",
          "type": "tuple[]"
        }
      ],
      "stateMutability": "view",
      "type": "function"
    },
    {
      "inputs": [
        {
          "internalType": "uint256",
          "name": "_listingId",
          "type": "uint256"
        }
      ],
      "name": "getFinalPrice",
      "outputs": [
        {
          "internalType": "uint256",
          "name": "",
          "type": "uint256"
        }
      ],
      "stateMutability": "view",
      "type": "function"
    },
    {
      "inputs": [
        {
          "internalType": "uint256",
          "name": "_listingId",
          "type": "uint256"
        }
      ],
      "name": "getPricePerItem",
      "outputs": [
        {
          "internalType": "uint256",
          "name": "",
          "type": "uint256"
        }
      ],
      "stateMutability": "view",
      "type": "function"
    },
    {
      "inputs": [
        {
          "internalType": "address",
          "name": "_nftAddress",
          "type": "address"
        },
        {
          "internalType": "uint256",
          "name": "_tokenId",
          "type": "uint256"
        },
        {
          "internalType": "uint256",
          "name": "_listingId",
          "type": "uint256"
        },
        {
          "internalType": "uint256",
          "name": "_pricePerItem",
          "type": "uint256"
        }
      ],
      "name": "listNFT",
      "outputs": [],
      "stateMutability": "nonpayable",
      "type": "function"
    },
    {
      "inputs": [
        {
          "internalType": "uint256",
          "name": "",
          "type": "uint256"
        }
      ],
      "name": "listings",
      "outputs": [
        {
          "internalType": "address payable",
          "name": "seller",
          "type": "address"
        },
        {
          "internalType": "address payable",
          "name": "owner",
          "type": "address"
        },
        {
          "internalType": "contract IERC721",
          "name": "nft",
          "type": "address"
        },
        {
          "internalType": "uint256",
          "name": "listingId",
          "type": "uint256"
        },
        {
          "internalType": "uint256",
          "name": "tokenId",
          "type": "uint256"
        },
        {
          "internalType": "uint256",
          "name": "pricePerItem",
          "type": "uint256"
        },
        {
          "internalType": "bool",
          "name": "sold",
          "type": "bool"
        }
      ],
      "stateMutability": "view",
      "type": "function"
    },
    {
      "inputs": [
        {
          "internalType": "uint256",
          "name": "",
          "type": "uint256"
        }
      ],
      "name": "offers",
      "outputs": [
        {
          "internalType": "contract IERC20",
          "name": "payToken",
          "type": "address"
        },
        {
          "internalType": "uint256",
          "name": "quantity",
          "type": "uint256"
        },
        {
          "internalType": "uint256",
          "name": "pricePerItem",
          "type": "uint256"
        },
        {
          "internalType": "uint256",
          "name": "deadline",
          "type": "uint256"
        }
      ],
      "stateMutability": "view",
      "type": "function"
    },
    {
      "inputs": [
        {
          "internalType": "uint256",
          "name": "_listingId",
          "type": "uint256"
        },
        {
          "internalType": "uint256",
          "name": "_pricePerItem",
          "type": "uint256"
        }
      ],
      "name": "resellToken",
      "outputs": [],
      "stateMutability": "payable",
      "type": "function"
    }
  ],
  "bytecode": "0x60c060405234801561001057600080fd5b5060405161168238038061168283398101604081905261002f91610054565b6001600055600380546001600160a01b0319163390811790915560805260a05261006d565b60006020828403121561006657600080fd5b5051919050565b60805160a0516115e26100a06000396000818161013e01526109fb01526000818161022a0152610c8501526115e26000f3fe6080604052600436106100c25760003560e01c8063b3f006741161007f578063de74e57b11610059578063de74e57b1461028a578063e219fc7514610339578063e75db0d01461034c578063f654fc4f1461036157600080fd5b8063b3f0067414610218578063be9af53614610264578063db80135a1461027757600080fd5b806313e2ba57146100c7578063202e37401461010a57806324a9d8531461012c5780633c44a5f0146101605780634b554954146101825780638a72ea6a146101a2575b600080fd5b3480156100d357600080fd5b506100f76100e236600461130d565b60009081526004602052604090206005015490565b6040519081526020015b60405180910390f35b34801561011657600080fd5b5061011f610376565b6040516101019190611326565b34801561013857600080fd5b506100f77f000000000000000000000000000000000000000000000000000000000000000081565b34801561016c57600080fd5b5061018061017b3660046113d0565b610544565b005b34801561018e57600080fd5b506100f761019d36600461130d565b6109f2565b3480156101ae57600080fd5b506101ee6101bd36600461130d565b60056020526000908152604090208054600182015460028301546003909301546001600160a01b0390921692909184565b604080516001600160a01b0390951685526020850193909352918301526060820152608001610101565b34801561022457600080fd5b5061024c7f000000000000000000000000000000000000000000000000000000000000000081565b6040516001600160a01b039091168152602001610101565b61018061027236600461130d565b610a4c565b61018061028536600461140b565b610d24565b34801561029657600080fd5b506102f36102a536600461130d565b600460208190526000918252604090912080546001820154600283015460038401549484015460058501546006909501546001600160a01b0394851696938516959490921693909160ff1687565b604080516001600160a01b039889168152968816602088015294909616938501939093526060840191909152608083015260a082015290151560c082015260e001610101565b610180610347366004611440565b610dc1565b34801561035857600080fd5b5061011f610f34565b34801561036d57600080fd5b5061011f6110f9565b6060600061038360015490565b905060008060005b838110156103e35733600460006103a3846001611478565b81526020810191909152604001600020546001600160a01b031614156103d1576103ce600184611478565b92505b806103db81611490565b91505061038b565b5060008267ffffffffffffffff8111156103ff576103ff6114ab565b60405190808252806020026020018201604052801561043857816020015b6104256112d1565b81526020019060019003908161041d5790505b50905060005b8481101561053b573360046000610456846001611478565b81526020810191909152604001600020546001600160a01b03161415610529576000610483826001611478565b600081815260046020818152604092839020835160e08101855281546001600160a01b039081168252600183015481169382019390935260028201549092169382019390935260038301546060820152908201546080820152600582015460a0820152600682015460ff16151560c08201528551929350909185908790811061050e5761050e6114c1565b6020908102919091010152610524600186611478565b945050505b8061053381611490565b91505061043e565b50949350505050565b6040516301ffc9a760e01b81526380ac58cd60e01b60048201526001600160a01b038516906301ffc9a790602401602060405180830381865afa15801561058f573d6000803e3d6000fd5b505050506040513d601f19601f820116820180604052508101906105b391906114d7565b156106dd576040516331a9108f60e11b815260048101849052849033906001600160a01b03831690636352211e90602401602060405180830381865afa158015610601573d6000803e3d6000fd5b505050506040513d601f19601f820116820180604052508101906106259190611500565b6001600160a01b03161461064c576040516330cd747160e01b815260040160405180910390fd5b60405163e985e9c560e01b81523360048201523060248201526001600160a01b0382169063e985e9c590604401602060405180830381865afa158015610696573d6000803e3d6000fd5b505050506040513d601f19601f820116820180604052508101906106ba91906114d7565b6106d757604051634be3a2c560e01b815260040160405180910390fd5b506106f6565b6040516341b7742560e01b815260040160405180910390fd5b6040518060e00160405280336001600160a01b0316815260200160006001600160a01b03168152602001856001600160a01b03168152602001838152602001848152602001828152602001600015158152506004600084815260200190815260200160002060008201518160000160006101000a8154816001600160a01b0302191690836001600160a01b0316021790555060208201518160010160006101000a8154816001600160a01b0302191690836001600160a01b0316021790555060408201518160020160006101000a8154816001600160a01b0302191690836001600160a01b03160217905550606082015181600301556080820151816004015560a0820151816005015560c08201518160060160006101000a81548160ff0219169083151502179055509050506000600460008481526020019081526020016000206040518060e00160405290816000820160009054906101000a90046001600160a01b03166001600160a01b03166001600160a01b031681526020016001820160009054906101000a90046001600160a01b03166001600160a01b03166001600160a01b031681526020016002820160009054906101000a90046001600160a01b03166001600160a01b03166001600160a01b031681526020016003820154815260200160048201548152602001600582015481526020016006820160009054906101000a900460ff161515151581525050905080604001516001600160a01b03166323b872dd333084608001516040518463ffffffff1660e01b8152600401610962939291906001600160a01b039384168152919092166020820152604081019190915260600190565b600060405180830381600087803b15801561097c57600080fd5b505af1158015610990573d6000803e3d6000fd5b505060408051338152600060208201819052818301879052606082015290518793506001600160a01b038916925086917ff9b8a81a1bb3e12b4a9b295ae3f1d8b0255537c0feaafc43705b6954b5822d5c919081900360800190a45050505050565b60006064610a207f000000000000000000000000000000000000000000000000000000000000000082611478565b600084815260046020526040902060050154610a3c919061151d565b610a46919061153c565b92915050565b60026000541415610a785760405162461bcd60e51b8152600401610a6f9061155e565b60405180910390fd5b60026000908155610a88826109f2565b6000838152600460208181526040808420815160e08101835281546001600160a01b039081168252600183015481169482019490945260028201549093169183019190915260038101546060830152918201546080820152600582015460a0820181905260069092015460ff16151560c082015292935090610b0a8285611595565b835190915085158015610b1e575060015486115b15610b3c576040516335aacf6560e11b815260040160405180910390fd5b843414610b5c57604051631cbc6a9b60e01b815260040160405180910390fd5b8360c0015115610b7f5760405163df28fd7b60e01b815260040160405180910390fd5b50336020840152600160c08401526000610b9d600280546001019055565b60408085015160808601519151632142170760e11b815230600482015233602482015260448101929092526001600160a01b0316906342842e0e90606401600060405180830381600087803b158015610bf557600080fd5b505af1158015610c09573d6000803e3d6000fd5b505050506000816001600160a01b03168460405160006040518083038185875af1925050503d8060008114610c5a576040519150601f19603f3d011682016040523d82523d6000602084013e610c5f565b606091505b5050905080610c81576040516312171d8360e31b815260040160405180910390fd5b60007f00000000000000000000000000000000000000000000000000000000000000006001600160a01b03168460405160006040518083038185875af1925050503d8060008114610cee576040519150601f19603f3d011682016040523d82523d6000602084013e610cf3565b606091505b5050905080610d15576040516312171d8360e31b815260040160405180910390fd5b50506001600055505050505050565b60026000541415610d475760405162461bcd60e51b8152600401610a6f9061155e565b6002600055610d5a600180546001019055565b6000610d6560015490565b905083610d7481858486610544565b604080513381526001600160a01b03831660208201527fe4944a5f0bf5ee82c3c6769e53000a678b52be77b461a2e8f7b3434eff94670e910160405180910390a150506001600055505050565b60026000541415610de45760405162461bcd60e51b8152600401610a6f9061155e565b60026000908155610df4836109f2565b600084815260046020818152604092839020835160e08101855281546001600160a01b039081168252600183015481169382018490526002830154169481019490945260038101546060850152918201546080840152600582015460a084015260069091015460ff16151560c0830152919250903314610e87576040516330cd747160e01b815260040160405180910390fd5b813414610ea757604051631cbc6a9b60e01b815260040160405180910390fd5b600060c082015260a08101839052338152306020820152610ec8600261127a565b604080820151608083015191516323b872dd60e01b815233600482015230602482015260448101929092526001600160a01b0316906323b872dd90606401600060405180830381600087803b158015610f2057600080fd5b505af1158015610d15573d6000803e3d6000fd5b60606000610f4160015490565b905060008060005b83811015610fa1573360046000610f61846001611478565b81526020810191909152604001600020546001600160a01b03161415610f8f57610f8c600184611478565b92505b80610f9981611490565b915050610f49565b5060008267ffffffffffffffff811115610fbd57610fbd6114ab565b604051908082528060200260200182016040528015610ff657816020015b610fe36112d1565b815260200190600190039081610fdb5790505b50905060005b8481101561053b573360046000611014846001611478565b81526020810191909152604001600020546001600160a01b031614156110e7576000611041826001611478565b600081815260046020818152604092839020835160e08101855281546001600160a01b039081168252600183015481169382019390935260028201549092169382019390935260038301546060820152908201546080820152600582015460a0820152600682015460ff16151560c0820152855192935090918590879081106110cc576110cc6114c1565b60209081029190910101526110e2600186611478565b945050505b806110f181611490565b915050610ffc565b6060600061110660015490565b9050600061111360025490565b6001546111209190611595565b90506000808267ffffffffffffffff81111561113e5761113e6114ab565b60405190808252806020026020018201604052801561117757816020015b6111646112d1565b81526020019060019003908161115c5790505b50905060005b8481101561053b573060046000611195846001611478565b81526020810191909152604001600020546001600160a01b031614156112685760006111c2826001611478565b600081815260046020818152604092839020835160e08101855281546001600160a01b039081168252600183015481169382019390935260028201549092169382019390935260038301546060820152908201546080820152600582015460a0820152600682015460ff16151560c08201528551929350909185908490811061124d5761124d6114c1565b6020908102919091010152611263600186611478565b945050505b8061127281611490565b91505061117d565b8054806112c95760405162461bcd60e51b815260206004820152601b60248201527f436f756e7465723a2064656372656d656e74206f766572666c6f7700000000006044820152606401610a6f565b600019019055565b6040805160e081018252600080825260208201819052918101829052606081018290526080810182905260a0810182905260c081019190915290565b60006020828403121561131f57600080fd5b5035919050565b602080825282518282018190526000919060409081850190868401855b828110156113ab57815180516001600160a01b03908116865287820151811688870152868201511686860152606080820151908601526080808201519086015260a0808201519086015260c09081015115159085015260e09093019290850190600101611343565b5091979650505050505050565b6001600160a01b03811681146113cd57600080fd5b50565b600080600080608085870312156113e657600080fd5b84356113f1816113b8565b966020860135965060408601359560600135945092505050565b60008060006060848603121561142057600080fd5b833561142b816113b8565b95602085013595506040909401359392505050565b6000806040838503121561145357600080fd5b50508035926020909101359150565b634e487b7160e01b600052601160045260246000fd5b6000821982111561148b5761148b611462565b500190565b60006000198214156114a4576114a4611462565b5060010190565b634e487b7160e01b600052604160045260246000fd5b634e487b7160e01b600052603260045260246000fd5b6000602082840312156114e957600080fd5b815180151581146114f957600080fd5b9392505050565b60006020828403121561151257600080fd5b81516114f9816113b8565b600081600019048311821515161561153757611537611462565b500290565b60008261155957634e487b7160e01b600052601260045260246000fd5b500490565b6020808252601f908201527f5265656e7472616e637947756172643a207265656e7472616e742063616c6c00604082015260600190565b6000828210156115a7576115a7611462565b50039056fea2646970667358221220539b78c2530ffe46468eae14dce3fc001eb8c5c7e4238de607f8c0189e8eb63e64736f6c634300080c0033",
  "linkReferences": {},
  "deployedLinkReferences": {}
}