{
  "_format": "hh-sol-artifact-1",
  "contractName": "SaigonMarket",
  "sourceName": "contracts/SaigonMarket.sol",
  "abi": [
    {
      "inputs": [
        {
          "internalType": "uint256",
          "name": "_feeBps",
          "type": "uint256"
        }
      ],
      "stateMutability": "nonpayable",
      "type": "constructor"
    },
    {
      "inputs": [],
      "name": "InvalidNftAddress",
      "type": "error"
    },
    {
      "inputs": [],
      "name": "ListingDoesNotExist",
      "type": "error"
    },
    {
      "inputs": [],
      "name": "ListingNotAvailable",
      "type": "error"
    },
    {
      "inputs": [],
      "name": "NotApprovedForMarketplace",
      "type": "error"
    },
    {
      "inputs": [],
      "name": "NotOwner",
      "type": "error"
    },
    {
      "inputs": [],
      "name": "PaymentAmountUnmatched",
      "type": "error"
    },
    {
      "inputs": [],
      "name": "TransferFailed",
      "type": "error"
    },
    {
      "anonymous": false,
      "inputs": [
        {
          "indexed": true,
          "internalType": "address",
          "name": "nft",
          "type": "address"
        },
        {
          "indexed": false,
          "internalType": "uint256",
          "name": "tokenId",
          "type": "uint256"
        }
      ],
      "name": "ListingCancelled",
      "type": "event"
    },
    {
      "anonymous": false,
      "inputs": [
        {
          "indexed": true,
          "internalType": "address",
          "name": "seller",
          "type": "address"
        },
        {
          "indexed": true,
          "internalType": "address",
          "name": "buyer",
          "type": "address"
        },
        {
          "indexed": true,
          "internalType": "address",
          "name": "nft",
          "type": "address"
        },
        {
          "indexed": false,
          "internalType": "uint256",
          "name": "tokenId",
          "type": "uint256"
        },
        {
          "indexed": false,
          "internalType": "uint256",
          "name": "listingId",
          "type": "uint256"
        },
        {
          "indexed": false,
          "internalType": "uint256",
          "name": "pricePerItem",
          "type": "uint256"
        },
        {
          "indexed": false,
          "internalType": "bool",
          "name": "sold",
          "type": "bool"
        }
      ],
      "name": "ListingSold",
      "type": "event"
    },
    {
      "anonymous": false,
      "inputs": [
        {
          "indexed": false,
          "internalType": "address",
          "name": "creator",
          "type": "address"
        },
        {
          "indexed": false,
          "internalType": "address",
          "name": "nft",
          "type": "address"
        }
      ],
      "name": "NFTCreated",
      "type": "event"
    },
    {
      "anonymous": false,
      "inputs": [
        {
          "indexed": true,
          "internalType": "uint256",
          "name": "listingId",
          "type": "uint256"
        },
        {
          "indexed": true,
          "internalType": "address",
          "name": "nftAddress",
          "type": "address"
        },
        {
          "indexed": true,
          "internalType": "uint256",
          "name": "tokenId",
          "type": "uint256"
        },
        {
          "indexed": false,
          "internalType": "address",
          "name": "seller",
          "type": "address"
        },
        {
          "indexed": false,
          "internalType": "address",
          "name": "owner",
          "type": "address"
        },
        {
          "indexed": false,
          "internalType": "uint256",
          "name": "pricePerItem",
          "type": "uint256"
        },
        {
          "indexed": false,
          "internalType": "bool",
          "name": "sold",
          "type": "bool"
        }
      ],
      "name": "NFTListed",
      "type": "event"
    },
    {
      "inputs": [
        {
          "internalType": "contract IERC721",
          "name": "_nft",
          "type": "address"
        },
        {
          "internalType": "uint256",
          "name": "_tokenId",
          "type": "uint256"
        },
        {
          "internalType": "uint256",
          "name": "_pricePerItem",
          "type": "uint256"
        }
      ],
      "name": "createListing",
      "outputs": [],
      "stateMutability": "payable",
      "type": "function"
    },
    {
      "inputs": [
        {
          "internalType": "uint256",
          "name": "_listingId",
          "type": "uint256"
        }
      ],
      "name": "createMarketSale",
      "outputs": [],
      "stateMutability": "payable",
      "type": "function"
    },
    {
      "inputs": [],
      "name": "feeBps",
      "outputs": [
        {
          "internalType": "uint256",
          "name": "",
          "type": "uint256"
        }
      ],
      "stateMutability": "view",
      "type": "function"
    },
    {
      "inputs": [],
      "name": "feeReceiver",
      "outputs": [
        {
          "internalType": "address payable",
          "name": "",
          "type": "address"
        }
      ],
      "stateMutability": "view",
      "type": "function"
    },
    {
      "inputs": [],
      "name": "fetchMarketListings",
      "outputs": [
        {
          "components": [
            {
              "internalType": "address payable",
              "name": "seller",
              "type": "address"
            },
            {
              "internalType": "address payable",
              "name": "owner",
              "type": "address"
            },
            {
              "internalType": "contract IERC721",
              "name": "nft",
              "type": "address"
            },
            {
              "internalType": "uint256",
              "name": "listingId",
              "type": "uint256"
            },
            {
              "internalType": "uint256",
              "name": "tokenId",
              "type": "uint256"
            },
            {
              "internalType": "uint256",
              "name": "pricePerItem",
              "type": "uint256"
            },
            {
              "internalType": "bool",
              "name": "sold",
              "type": "bool"
            }
          ],
          "internalType": "struct SaigonMarket.Listing[]",
          "name": "",
          "type": "tuple[]"
        }
      ],
      "stateMutability": "view",
      "type": "function"
    },
    {
      "inputs": [],
      "name": "fetchMyNFTs",
      "outputs": [
        {
          "components": [
            {
              "internalType": "address payable",
              "name": "seller",
              "type": "address"
            },
            {
              "internalType": "address payable",
              "name": "owner",
              "type": "address"
            },
            {
              "internalType": "contract IERC721",
              "name": "nft",
              "type": "address"
            },
            {
              "internalType": "uint256",
              "name": "listingId",
              "type": "uint256"
            },
            {
              "internalType": "uint256",
              "name": "tokenId",
              "type": "uint256"
            },
            {
              "internalType": "uint256",
              "name": "pricePerItem",
              "type": "uint256"
            },
            {
              "internalType": "bool",
              "name": "sold",
              "type": "bool"
            }
          ],
          "internalType": "struct SaigonMarket.Listing[]",
          "name": "",
          "type": "tuple[]"
        }
      ],
      "stateMutability": "view",
      "type": "function"
    },
    {
      "inputs": [],
      "name": "fetchOwnedListings",
      "outputs": [
        {
          "components": [
            {
              "internalType": "address payable",
              "name": "seller",
              "type": "address"
            },
            {
              "internalType": "address payable",
              "name": "owner",
              "type": "address"
            },
            {
              "internalType": "contract IERC721",
              "name": "nft",
              "type": "address"
            },
            {
              "internalType": "uint256",
              "name": "listingId",
              "type": "uint256"
            },
            {
              "internalType": "uint256",
              "name": "tokenId",
              "type": "uint256"
            },
            {
              "internalType": "uint256",
              "name": "pricePerItem",
              "type": "uint256"
            },
            {
              "internalType": "bool",
              "name": "sold",
              "type": "bool"
            }
          ],
          "internalType": "struct SaigonMarket.Listing[]",
          "name": "",
          "type": "tuple[]"
        }
      ],
      "stateMutability": "view",
      "type": "function"
    },
    {
      "inputs": [
        {
          "internalType": "uint256",
          "name": "_listingId",
          "type": "uint256"
        }
      ],
      "name": "getFinalPrice",
      "outputs": [
        {
          "internalType": "uint256",
          "name": "",
          "type": "uint256"
        }
      ],
      "stateMutability": "view",
      "type": "function"
    },
    {
      "inputs": [
        {
          "internalType": "uint256",
          "name": "_listingId",
          "type": "uint256"
        }
      ],
      "name": "getPricePerItem",
      "outputs": [
        {
          "internalType": "uint256",
          "name": "",
          "type": "uint256"
        }
      ],
      "stateMutability": "view",
      "type": "function"
    },
    {
      "inputs": [
        {
          "internalType": "address",
          "name": "_nftAddress",
          "type": "address"
        },
        {
          "internalType": "uint256",
          "name": "_tokenId",
          "type": "uint256"
        },
        {
          "internalType": "uint256",
          "name": "_listingId",
          "type": "uint256"
        },
        {
          "internalType": "uint256",
          "name": "_pricePerItem",
          "type": "uint256"
        }
      ],
      "name": "listNFT",
      "outputs": [],
      "stateMutability": "nonpayable",
      "type": "function"
    },
    {
      "inputs": [
        {
          "internalType": "uint256",
          "name": "",
          "type": "uint256"
        }
      ],
      "name": "listings",
      "outputs": [
        {
          "internalType": "address payable",
          "name": "seller",
          "type": "address"
        },
        {
          "internalType": "address payable",
          "name": "owner",
          "type": "address"
        },
        {
          "internalType": "contract IERC721",
          "name": "nft",
          "type": "address"
        },
        {
          "internalType": "uint256",
          "name": "listingId",
          "type": "uint256"
        },
        {
          "internalType": "uint256",
          "name": "tokenId",
          "type": "uint256"
        },
        {
          "internalType": "uint256",
          "name": "pricePerItem",
          "type": "uint256"
        },
        {
          "internalType": "bool",
          "name": "sold",
          "type": "bool"
        }
      ],
      "stateMutability": "view",
      "type": "function"
    },
    {
      "inputs": [
        {
          "internalType": "uint256",
          "name": "",
          "type": "uint256"
        }
      ],
      "name": "offers",
      "outputs": [
        {
          "internalType": "contract IERC20",
          "name": "payToken",
          "type": "address"
        },
        {
          "internalType": "uint256",
          "name": "quantity",
          "type": "uint256"
        },
        {
          "internalType": "uint256",
          "name": "pricePerItem",
          "type": "uint256"
        },
        {
          "internalType": "uint256",
          "name": "deadline",
          "type": "uint256"
        }
      ],
      "stateMutability": "view",
      "type": "function"
    },
    {
      "inputs": [
        {
          "internalType": "uint256",
          "name": "_listingId",
          "type": "uint256"
        },
        {
          "internalType": "uint256",
          "name": "_pricePerItem",
          "type": "uint256"
        }
      ],
      "name": "resellToken",
      "outputs": [],
      "stateMutability": "payable",
      "type": "function"
    }
  ],
  "bytecode": "0x60c060405234801561001057600080fd5b5060405161168238038061168283398101604081905261002f91610054565b6001600055600380546001600160a01b0319163390811790915560805260a05261006d565b60006020828403121561006657600080fd5b5051919050565b60805160a0516115e26100a0600039600081816101530152610aa101526000818161023d0152610d2201526115e26000f3fe6080604052600436106100c25760003560e01c80638a72ea6a1161007f578063de74e57b11610059578063de74e57b1461028a578063e219fc7514610339578063e75db0d01461034c578063f654fc4f1461036157600080fd5b80638a72ea6a146101b5578063b3f006741461022b578063be9af5361461027757600080fd5b806313e2ba57146100c7578063202e37401461010a57806324780c561461012c57806324a9d853146101415780633c44a5f0146101755780634b55495414610195575b600080fd5b3480156100d357600080fd5b506100f76100e236600461130d565b60009081526004602052604090206005015490565b6040519081526020015b60405180910390f35b34801561011657600080fd5b5061011f610376565b6040516101019190611326565b61013f61013a3660046113d0565b610544565b005b34801561014d57600080fd5b506100f77f000000000000000000000000000000000000000000000000000000000000000081565b34801561018157600080fd5b5061013f610190366004611405565b6105ea565b3480156101a157600080fd5b506100f76101b036600461130d565b610a98565b3480156101c157600080fd5b506102016101d036600461130d565b60056020526000908152604090208054600182015460028301546003909301546001600160a01b0390921692909184565b604080516001600160a01b0390951685526020850193909352918301526060820152608001610101565b34801561023757600080fd5b5061025f7f000000000000000000000000000000000000000000000000000000000000000081565b6040516001600160a01b039091168152602001610101565b61013f61028536600461130d565b610af2565b34801561029657600080fd5b506102f36102a536600461130d565b600460208190526000918252604090912080546001820154600283015460038401549484015460058501546006909501546001600160a01b0394851696938516959490921693909160ff1687565b604080516001600160a01b039889168152968816602088015294909616938501939093526060840191909152608083015260a082015290151560c082015260e001610101565b61013f610347366004611440565b610dc1565b34801561035857600080fd5b5061011f610f34565b34801561036d57600080fd5b5061011f6110f9565b6060600061038360015490565b905060008060005b838110156103e35733600460006103a3846001611478565b81526020810191909152604001600020546001600160a01b031614156103d1576103ce600184611478565b92505b806103db81611490565b91505061038b565b5060008267ffffffffffffffff8111156103ff576103ff6114ab565b60405190808252806020026020018201604052801561043857816020015b6104256112d1565b81526020019060019003908161041d5790505b50905060005b8481101561053b573360046000610456846001611478565b81526020810191909152604001600020546001600160a01b03161415610529576000610483826001611478565b600081815260046020818152604092839020835160e08101855281546001600160a01b039081168252600183015481169382019390935260028201549092169382019390935260038301546060820152908201546080820152600582015460a0820152600682015460ff16151560c08201528551929350909185908790811061050e5761050e6114c1565b6020908102919091010152610524600186611478565b945050505b8061053381611490565b91505061043e565b50949350505050565b600260005414156105705760405162461bcd60e51b8152600401610567906114d7565b60405180910390fd5b6002600055610583600180546001019055565b600061058e60015490565b90508361059d818584866105ea565b604080513381526001600160a01b03831660208201527fe4944a5f0bf5ee82c3c6769e53000a678b52be77b461a2e8f7b3434eff94670e910160405180910390a150506001600055505050565b6040516301ffc9a760e01b81526380ac58cd60e01b60048201526001600160a01b038516906301ffc9a790602401602060405180830381865afa158015610635573d6000803e3d6000fd5b505050506040513d601f19601f82011682018060405250810190610659919061150e565b15610783576040516331a9108f60e11b815260048101849052849033906001600160a01b03831690636352211e90602401602060405180830381865afa1580156106a7573d6000803e3d6000fd5b505050506040513d601f19601f820116820180604052508101906106cb9190611537565b6001600160a01b0316146106f2576040516330cd747160e01b815260040160405180910390fd5b60405163e985e9c560e01b81523360048201523060248201526001600160a01b0382169063e985e9c590604401602060405180830381865afa15801561073c573d6000803e3d6000fd5b505050506040513d601f19601f82011682018060405250810190610760919061150e565b61077d57604051634be3a2c560e01b815260040160405180910390fd5b5061079c565b6040516341b7742560e01b815260040160405180910390fd5b6040518060e00160405280336001600160a01b0316815260200160006001600160a01b03168152602001856001600160a01b03168152602001838152602001848152602001828152602001600015158152506004600084815260200190815260200160002060008201518160000160006101000a8154816001600160a01b0302191690836001600160a01b0316021790555060208201518160010160006101000a8154816001600160a01b0302191690836001600160a01b0316021790555060408201518160020160006101000a8154816001600160a01b0302191690836001600160a01b03160217905550606082015181600301556080820151816004015560a0820151816005015560c08201518160060160006101000a81548160ff0219169083151502179055509050506000600460008481526020019081526020016000206040518060e00160405290816000820160009054906101000a90046001600160a01b03166001600160a01b03166001600160a01b031681526020016001820160009054906101000a90046001600160a01b03166001600160a01b03166001600160a01b031681526020016002820160009054906101000a90046001600160a01b03166001600160a01b03166001600160a01b031681526020016003820154815260200160048201548152602001600582015481526020016006820160009054906101000a900460ff161515151581525050905080604001516001600160a01b03166323b872dd333084608001516040518463ffffffff1660e01b8152600401610a08939291906001600160a01b039384168152919092166020820152604081019190915260600190565b600060405180830381600087803b158015610a2257600080fd5b505af1158015610a36573d6000803e3d6000fd5b505060408051338152600060208201819052818301879052606082015290518793506001600160a01b038916925086917ff9b8a81a1bb3e12b4a9b295ae3f1d8b0255537c0feaafc43705b6954b5822d5c919081900360800190a45050505050565b60006064610ac67f000000000000000000000000000000000000000000000000000000000000000082611478565b600084815260046020526040902060050154610ae29190611554565b610aec9190611573565b92915050565b60026000541415610b155760405162461bcd60e51b8152600401610567906114d7565b60026000908155610b2582610a98565b6000838152600460208181526040808420815160e08101835281546001600160a01b039081168252600183015481169482019490945260028201549093169183019190915260038101546060830152918201546080820152600582015460a0820181905260069092015460ff16151560c082015292935090610ba78285611595565b835190915085158015610bbb575060015486115b15610bd9576040516335aacf6560e11b815260040160405180910390fd5b843414610bf957604051631cbc6a9b60e01b815260040160405180910390fd5b8360c0015115610c1c5760405163df28fd7b60e01b815260040160405180910390fd5b50336020840152600160c08401526000610c3a600280546001019055565b60408085015160808601519151632142170760e11b815230600482015233602482015260448101929092526001600160a01b0316906342842e0e90606401600060405180830381600087803b158015610c9257600080fd5b505af1158015610ca6573d6000803e3d6000fd5b505050506000816001600160a01b03168460405160006040518083038185875af1925050503d8060008114610cf7576040519150601f19603f3d011682016040523d82523d6000602084013e610cfc565b606091505b5050905080610d1e576040516312171d8360e31b815260040160405180910390fd5b60007f00000000000000000000000000000000000000000000000000000000000000006001600160a01b03168460405160006040518083038185875af1925050503d8060008114610d8b576040519150601f19603f3d011682016040523d82523d6000602084013e610d90565b606091505b5050905080610db2576040516312171d8360e31b815260040160405180910390fd5b50506001600055505050505050565b60026000541415610de45760405162461bcd60e51b8152600401610567906114d7565b60026000908155610df483610a98565b600084815260046020818152604092839020835160e08101855281546001600160a01b039081168252600183015481169382018490526002830154169481019490945260038101546060850152918201546080840152600582015460a084015260069091015460ff16151560c0830152919250903314610e87576040516330cd747160e01b815260040160405180910390fd5b813414610ea757604051631cbc6a9b60e01b815260040160405180910390fd5b600060c082015260a08101839052338152306020820152610ec8600261127a565b604080820151608083015191516323b872dd60e01b815233600482015230602482015260448101929092526001600160a01b0316906323b872dd90606401600060405180830381600087803b158015610f2057600080fd5b505af1158015610db2573d6000803e3d6000fd5b60606000610f4160015490565b905060008060005b83811015610fa1573360046000610f61846001611478565b81526020810191909152604001600020546001600160a01b03161415610f8f57610f8c600184611478565b92505b80610f9981611490565b915050610f49565b5060008267ffffffffffffffff811115610fbd57610fbd6114ab565b604051908082528060200260200182016040528015610ff657816020015b610fe36112d1565b815260200190600190039081610fdb5790505b50905060005b8481101561053b573360046000611014846001611478565b81526020810191909152604001600020546001600160a01b031614156110e7576000611041826001611478565b600081815260046020818152604092839020835160e08101855281546001600160a01b039081168252600183015481169382019390935260028201549092169382019390935260038301546060820152908201546080820152600582015460a0820152600682015460ff16151560c0820152855192935090918590879081106110cc576110cc6114c1565b60209081029190910101526110e2600186611478565b945050505b806110f181611490565b915050610ffc565b6060600061110660015490565b9050600061111360025490565b6001546111209190611595565b90506000808267ffffffffffffffff81111561113e5761113e6114ab565b60405190808252806020026020018201604052801561117757816020015b6111646112d1565b81526020019060019003908161115c5790505b50905060005b8481101561053b573060046000611195846001611478565b81526020810191909152604001600020546001600160a01b031614156112685760006111c2826001611478565b600081815260046020818152604092839020835160e08101855281546001600160a01b039081168252600183015481169382019390935260028201549092169382019390935260038301546060820152908201546080820152600582015460a0820152600682015460ff16151560c08201528551929350909185908490811061124d5761124d6114c1565b6020908102919091010152611263600186611478565b945050505b8061127281611490565b91505061117d565b8054806112c95760405162461bcd60e51b815260206004820152601b60248201527f436f756e7465723a2064656372656d656e74206f766572666c6f7700000000006044820152606401610567565b600019019055565b6040805160e081018252600080825260208201819052918101829052606081018290526080810182905260a0810182905260c081019190915290565b60006020828403121561131f57600080fd5b5035919050565b602080825282518282018190526000919060409081850190868401855b828110156113ab57815180516001600160a01b03908116865287820151811688870152868201511686860152606080820151908601526080808201519086015260a0808201519086015260c09081015115159085015260e09093019290850190600101611343565b5091979650505050505050565b6001600160a01b03811681146113cd57600080fd5b50565b6000806000606084860312156113e557600080fd5b83356113f0816113b8565b95602085013595506040909401359392505050565b6000806000806080858703121561141b57600080fd5b8435611426816113b8565b966020860135965060408601359560600135945092505050565b6000806040838503121561145357600080fd5b50508035926020909101359150565b634e487b7160e01b600052601160045260246000fd5b6000821982111561148b5761148b611462565b500190565b60006000198214156114a4576114a4611462565b5060010190565b634e487b7160e01b600052604160045260246000fd5b634e487b7160e01b600052603260045260246000fd5b6020808252601f908201527f5265656e7472616e637947756172643a207265656e7472616e742063616c6c00604082015260600190565b60006020828403121561152057600080fd5b8151801515811461153057600080fd5b9392505050565b60006020828403121561154957600080fd5b8151611530816113b8565b600081600019048311821515161561156e5761156e611462565b500290565b60008261159057634e487b7160e01b600052601260045260246000fd5b500490565b6000828210156115a7576115a7611462565b50039056fea26469706673582212206013f9c266250c6814307d40168715d048e3bf0d058663037eb796aa4762cc6e64736f6c634300080c0033",
  "linkReferences": {},
  "deployedLinkReferences": {}
}