{
  "_format": "hh-sol-artifact-1",
  "contractName": "SaigonMarket",
  "sourceName": "contracts/SaigonMarket.sol",
  "abi": [
    {
      "inputs": [
        {
          "internalType": "uint256",
          "name": "_feeBps",
          "type": "uint256"
        }
      ],
      "stateMutability": "nonpayable",
      "type": "constructor"
    },
    {
      "inputs": [],
      "name": "AlreadyListed",
      "type": "error"
    },
    {
      "inputs": [],
      "name": "InvalidNftAddress",
      "type": "error"
    },
    {
      "inputs": [],
      "name": "ListingNotExist",
      "type": "error"
    },
    {
      "inputs": [],
      "name": "ListingSold",
      "type": "error"
    },
    {
      "inputs": [],
      "name": "NFTNotApprovedForMarketplace",
      "type": "error"
    },
    {
      "inputs": [],
      "name": "NotOwner",
      "type": "error"
    },
    {
      "inputs": [],
      "name": "PriceMustBeAboveZero",
      "type": "error"
    },
    {
      "inputs": [
        {
          "internalType": "address",
          "name": "nftAddress",
          "type": "address"
        },
        {
          "internalType": "uint256",
          "name": "tokenId",
          "type": "uint256"
        },
        {
          "internalType": "uint256",
          "name": "price",
          "type": "uint256"
        }
      ],
      "name": "PriceNotMet",
      "type": "error"
    },
    {
      "inputs": [],
      "name": "TransferFailed",
      "type": "error"
    },
    {
      "anonymous": false,
      "inputs": [
        {
          "indexed": true,
          "internalType": "address",
          "name": "seller",
          "type": "address"
        },
        {
          "indexed": true,
          "internalType": "address",
          "name": "buyer",
          "type": "address"
        },
        {
          "indexed": false,
          "internalType": "uint256",
          "name": "tokenId",
          "type": "uint256"
        },
        {
          "indexed": false,
          "internalType": "uint256",
          "name": "pricePerItem",
          "type": "uint256"
        },
        {
          "indexed": false,
          "internalType": "bool",
          "name": "sold",
          "type": "bool"
        }
      ],
      "name": "ListingPurchased",
      "type": "event"
    },
    {
      "anonymous": false,
      "inputs": [
        {
          "indexed": true,
          "internalType": "address",
          "name": "nftAddress",
          "type": "address"
        },
        {
          "indexed": true,
          "internalType": "uint256",
          "name": "tokenId",
          "type": "uint256"
        },
        {
          "indexed": false,
          "internalType": "address",
          "name": "seller",
          "type": "address"
        },
        {
          "indexed": false,
          "internalType": "address",
          "name": "owner",
          "type": "address"
        },
        {
          "indexed": false,
          "internalType": "uint256",
          "name": "pricePerItem",
          "type": "uint256"
        },
        {
          "indexed": false,
          "internalType": "bool",
          "name": "sold",
          "type": "bool"
        }
      ],
      "name": "NFTListed",
      "type": "event"
    },
    {
      "anonymous": false,
      "inputs": [
        {
          "indexed": true,
          "internalType": "address",
          "name": "nftAddress",
          "type": "address"
        },
        {
          "indexed": true,
          "internalType": "uint256",
          "name": "tokenId",
          "type": "uint256"
        },
        {
          "indexed": false,
          "internalType": "address",
          "name": "seller",
          "type": "address"
        },
        {
          "indexed": false,
          "internalType": "address",
          "name": "owner",
          "type": "address"
        },
        {
          "indexed": false,
          "internalType": "uint256",
          "name": "pricePerItem",
          "type": "uint256"
        },
        {
          "indexed": false,
          "internalType": "bool",
          "name": "sold",
          "type": "bool"
        }
      ],
      "name": "NFTListedForResell",
      "type": "event"
    },
    {
      "anonymous": false,
      "inputs": [
        {
          "indexed": true,
          "internalType": "address",
          "name": "nftAddress",
          "type": "address"
        }
      ],
      "name": "TokenCreated",
      "type": "event"
    },
    {
      "inputs": [],
      "name": "_listingIds",
      "outputs": [
        {
          "internalType": "uint256",
          "name": "_value",
          "type": "uint256"
        }
      ],
      "stateMutability": "view",
      "type": "function"
    },
    {
      "inputs": [
        {
          "internalType": "uint256",
          "name": "_tokenId",
          "type": "uint256"
        },
        {
          "internalType": "uint256",
          "name": "_pricePerItem",
          "type": "uint256"
        }
      ],
      "name": "createListing",
      "outputs": [],
      "stateMutability": "payable",
      "type": "function"
    },
    {
      "inputs": [
        {
          "internalType": "uint256",
          "name": "_listingId",
          "type": "uint256"
        }
      ],
      "name": "createMarketSale",
      "outputs": [],
      "stateMutability": "payable",
      "type": "function"
    },
    {
      "inputs": [
        {
          "internalType": "string",
          "name": "_tokenURI",
          "type": "string"
        }
      ],
      "name": "createToken",
      "outputs": [
        {
          "internalType": "address",
          "name": "",
          "type": "address"
        }
      ],
      "stateMutability": "nonpayable",
      "type": "function"
    },
    {
      "inputs": [],
      "name": "feeBps",
      "outputs": [
        {
          "internalType": "uint256",
          "name": "",
          "type": "uint256"
        }
      ],
      "stateMutability": "view",
      "type": "function"
    },
    {
      "inputs": [
        {
          "internalType": "uint256",
          "name": "_listingId",
          "type": "uint256"
        }
      ],
      "name": "getFinalPrice",
      "outputs": [
        {
          "internalType": "uint256",
          "name": "",
          "type": "uint256"
        }
      ],
      "stateMutability": "view",
      "type": "function"
    },
    {
      "inputs": [
        {
          "internalType": "uint256",
          "name": "_listingId",
          "type": "uint256"
        }
      ],
      "name": "getPricePerItem",
      "outputs": [
        {
          "internalType": "uint256",
          "name": "",
          "type": "uint256"
        }
      ],
      "stateMutability": "view",
      "type": "function"
    },
    {
      "inputs": [
        {
          "internalType": "uint256",
          "name": "_tokenId",
          "type": "uint256"
        },
        {
          "internalType": "uint256",
          "name": "_listingId",
          "type": "uint256"
        },
        {
          "internalType": "uint256",
          "name": "_pricePerItem",
          "type": "uint256"
        }
      ],
      "name": "listNFT",
      "outputs": [],
      "stateMutability": "nonpayable",
      "type": "function"
    },
    {
      "inputs": [
        {
          "internalType": "address",
          "name": "",
          "type": "address"
        },
        {
          "internalType": "uint256",
          "name": "",
          "type": "uint256"
        }
      ],
      "name": "listings",
      "outputs": [
        {
          "internalType": "address payable",
          "name": "seller",
          "type": "address"
        },
        {
          "internalType": "address payable",
          "name": "owner",
          "type": "address"
        },
        {
          "internalType": "uint256",
          "name": "listingId",
          "type": "uint256"
        },
        {
          "internalType": "uint256",
          "name": "tokenId",
          "type": "uint256"
        },
        {
          "internalType": "uint256",
          "name": "pricePerItem",
          "type": "uint256"
        },
        {
          "internalType": "bool",
          "name": "sold",
          "type": "bool"
        }
      ],
      "stateMutability": "view",
      "type": "function"
    },
    {
      "inputs": [],
      "name": "operator",
      "outputs": [
        {
          "internalType": "address payable",
          "name": "",
          "type": "address"
        }
      ],
      "stateMutability": "view",
      "type": "function"
    },
    {
      "inputs": [
        {
          "internalType": "uint256",
          "name": "_listingId",
          "type": "uint256"
        },
        {
          "internalType": "uint256",
          "name": "_newPrice",
          "type": "uint256"
        }
      ],
      "name": "resellNFT",
      "outputs": [],
      "stateMutability": "payable",
      "type": "function"
    }
  ],
  "bytecode": "0x60c06040523480156200001157600080fd5b5060405162005a4038038062005a408339818101604052810190620000379190620000c2565b60016000819055503373ffffffffffffffffffffffffffffffffffffffff1660808173ffffffffffffffffffffffffffffffffffffffff16815250508060a0818152505050620000f4565b600080fd5b6000819050919050565b6200009c8162000087565b8114620000a857600080fd5b50565b600081519050620000bc8162000091565b92915050565b600060208284031215620000db57620000da62000082565b5b6000620000eb84828501620000ab565b91505092915050565b60805160a051615918620001286000396000818161040401526105b30152600081816106770152611a8201526159186000f3fe608060405260043610620000a95760003560e01c80634b554954116200006d5780634b55495414620001df578063570ca7351462000223578063a79123a91462000253578063ac3dfc731462000273578063b0136c8d1462000293578063be9af53614620002c157620000a9565b806207df3014620000ae57806305b826a814620000f757806313e2ba57146200012757806324a9d853146200016b57806345576f94146200019b575b600080fd5b348015620000bb57600080fd5b50620000da6004803603810190620000d4919062001d38565b620002e1565b604051620000ee9695949392919062001dd2565b60405180910390f35b3480156200010457600080fd5b506200010f62000377565b6040516200011e919062001e3f565b60405180910390f35b3480156200013457600080fd5b506200015360048036038101906200014d919062001e5c565b62000383565b60405162000162919062001e3f565b60405180910390f35b3480156200017857600080fd5b506200018362000402565b60405162000192919062001e3f565b60405180910390f35b348015620001a857600080fd5b50620001c76004803603810190620001c1919062001efc565b62000426565b604051620001d6919062001f62565b60405180910390f35b348015620001ec57600080fd5b506200020b600480360381019062000205919062001e5c565b620005ad565b6040516200021a919062001e3f565b60405180910390f35b3480156200023057600080fd5b506200023b62000675565b6040516200024a919062001f7f565b60405180910390f35b6200027160048036038101906200026b919062001f9c565b62000699565b005b6200029160048036038101906200028b919062001f9c565b62000c0b565b005b348015620002a057600080fd5b50620002bf6004803603810190620002b9919062001fe3565b6200125a565b005b620002df6004803603810190620002d9919062001e5c565b620016a6565b005b6004602052816000526040600020602052806000526040600020600091509150508060000160009054906101000a900473ffffffffffffffffffffffffffffffffffffffff16908060010160009054906101000a900473ffffffffffffffffffffffffffffffffffffffff16908060020154908060030154908060040154908060050160009054906101000a900460ff16905086565b60018060000154905081565b600060046000600360009054906101000a900473ffffffffffffffffffffffffffffffffffffffff1673ffffffffffffffffffffffffffffffffffffffff1673ffffffffffffffffffffffffffffffffffffffff1681526020019081526020016000206000838152602001908152602001600020600401549050919050565b7f000000000000000000000000000000000000000000000000000000000000000081565b600080604051620004379062001c80565b604051809103906000f08015801562000454573d6000803e3d6000fd5b5090508073ffffffffffffffffffffffffffffffffffffffff1663d85d3d2785856040518363ffffffff1660e01b815260040162000494929190620020a3565b6020604051808303816000875af1158015620004b4573d6000803e3d6000fd5b505050506040513d601f19601f82011682018060405250810190620004da9190620020e0565b5080600360006101000a81548173ffffffffffffffffffffffffffffffffffffffff021916908373ffffffffffffffffffffffffffffffffffffffff160217905550600360009054906101000a900473ffffffffffffffffffffffffffffffffffffffff1673ffffffffffffffffffffffffffffffffffffffff167f2e2b3f61b70d2d131b2a807371103cc98d51adcaa5e9a8f9c32658ad8426e74e60405160405180910390a2600360009054906101000a900473ffffffffffffffffffffffffffffffffffffffff1691505092915050565b600060647f00000000000000000000000000000000000000000000000000000000000000006064620005e0919062002141565b60046000600360009054906101000a900473ffffffffffffffffffffffffffffffffffffffff1673ffffffffffffffffffffffffffffffffffffffff1673ffffffffffffffffffffffffffffffffffffffff1681526020019081526020016000206000858152602001908152602001600020600401546200066291906200219e565b6200066e91906200222e565b9050919050565b7f000000000000000000000000000000000000000000000000000000000000000081565b81336000600360009054906101000a900473ffffffffffffffffffffffffffffffffffffffff16905060008173ffffffffffffffffffffffffffffffffffffffff16636352211e856040518263ffffffff1660e01b8152600401620006ff919062001e3f565b602060405180830381865afa1580156200071d573d6000803e3d6000fd5b505050506040513d601f19601f820116820180604052508101906200074391906200227d565b90508073ffffffffffffffffffffffffffffffffffffffff168373ffffffffffffffffffffffffffffffffffffffff1614620007ab576040517f30cd747100000000000000000000000000000000000000000000000000000000815260040160405180910390fd5b856000600360009054906101000a900473ffffffffffffffffffffffffffffffffffffffff16905060008173ffffffffffffffffffffffffffffffffffffffff16636352211e846040518263ffffffff1660e01b815260040162000810919062001e3f565b602060405180830381865afa1580156200082e573d6000803e3d6000fd5b505050506040513d601f19601f820116820180604052508101906200085491906200227d565b90508073ffffffffffffffffffffffffffffffffffffffff163073ffffffffffffffffffffffffffffffffffffffff161415620008bd576040517fa3d582ec00000000000000000000000000000000000000000000000000000000815260040160405180910390fd5b6002600054141562000906576040517f08c379a0000000000000000000000000000000000000000000000000000000008152600401620008fd90620022ff565b60405180910390fd5b60026000819055506000881162000949576040517fe1abbfc500000000000000000000000000000000000000000000000000000000815260040160405180910390fd5b62000955600162001bfd565b600062000963600162001c13565b9050620009728a828b6200125a565b600360009054906101000a900473ffffffffffffffffffffffffffffffffffffffff1673ffffffffffffffffffffffffffffffffffffffff166323b872dd33308d6040518463ffffffff1660e01b8152600401620009d39392919062002321565b600060405180830381600087803b158015620009ee57600080fd5b505af115801562000a03573d6000803e3d6000fd5b50505050600060046000600360009054906101000a900473ffffffffffffffffffffffffffffffffffffffff1673ffffffffffffffffffffffffffffffffffffffff1673ffffffffffffffffffffffffffffffffffffffff16815260200190815260200160002060008381526020019081526020016000206040518060c00160405290816000820160009054906101000a900473ffffffffffffffffffffffffffffffffffffffff1673ffffffffffffffffffffffffffffffffffffffff1673ffffffffffffffffffffffffffffffffffffffff1681526020016001820160009054906101000a900473ffffffffffffffffffffffffffffffffffffffff1673ffffffffffffffffffffffffffffffffffffffff1673ffffffffffffffffffffffffffffffffffffffff1681526020016002820154815260200160038201548152602001600482015481526020016005820160009054906101000a900460ff16151515158152505090508a600360009054906101000a900473ffffffffffffffffffffffffffffffffffffffff1673ffffffffffffffffffffffffffffffffffffffff167fa32537b3445e8d7bf368b526f53200c5a0f1cc087c14445c6386453febdb01098360000151846020015185608001518660a0015160405162000bee9493929190620023c9565b60405180910390a350506001600081905550505050505050505050565b60046000600360009054906101000a900473ffffffffffffffffffffffffffffffffffffffff1673ffffffffffffffffffffffffffffffffffffffff1673ffffffffffffffffffffffffffffffffffffffff168152602001908152602001600020600083815260200190815260200160002060030154336000600360009054906101000a900473ffffffffffffffffffffffffffffffffffffffff16905060008173ffffffffffffffffffffffffffffffffffffffff16636352211e856040518263ffffffff1660e01b815260040162000ce6919062001e3f565b602060405180830381865afa15801562000d04573d6000803e3d6000fd5b505050506040513d601f19601f8201168201806040525081019062000d2a91906200227d565b90508073ffffffffffffffffffffffffffffffffffffffff168373ffffffffffffffffffffffffffffffffffffffff161462000d92576040517f30cd747100000000000000000000000000000000000000000000000000000000815260040160405180910390fd5b60046000600360009054906101000a900473ffffffffffffffffffffffffffffffffffffffff1673ffffffffffffffffffffffffffffffffffffffff1673ffffffffffffffffffffffffffffffffffffffff1681526020019081526020016000206000878152602001908152602001600020600301546000600360009054906101000a900473ffffffffffffffffffffffffffffffffffffffff16905060008173ffffffffffffffffffffffffffffffffffffffff16636352211e846040518263ffffffff1660e01b815260040162000e6c919062001e3f565b602060405180830381865afa15801562000e8a573d6000803e3d6000fd5b505050506040513d601f19601f8201168201806040525081019062000eb091906200227d565b90508073ffffffffffffffffffffffffffffffffffffffff163073ffffffffffffffffffffffffffffffffffffffff16141562000f19576040517fa3d582ec00000000000000000000000000000000000000000000000000000000815260040160405180910390fd5b6002600054141562000f62576040517f08c379a000000000000000000000000000000000000000000000000000000000815260040162000f5990620022ff565b60405180910390fd5b60026000819055506000881162000fa5576040517fe1abbfc500000000000000000000000000000000000000000000000000000000815260040160405180910390fd5b600060046000600360009054906101000a900473ffffffffffffffffffffffffffffffffffffffff1673ffffffffffffffffffffffffffffffffffffffff1673ffffffffffffffffffffffffffffffffffffffff16815260200190815260200160002060008b8152602001908152602001600020905060008160050160006101000a81548160ff021916908315150217905550888160040181905550338160000160006101000a81548173ffffffffffffffffffffffffffffffffffffffff021916908373ffffffffffffffffffffffffffffffffffffffff160217905550308160010160006101000a81548173ffffffffffffffffffffffffffffffffffffffff021916908373ffffffffffffffffffffffffffffffffffffffff160217905550620010d3600262001c21565b600360009054906101000a900473ffffffffffffffffffffffffffffffffffffffff1673ffffffffffffffffffffffffffffffffffffffff166323b872dd333084600301546040518463ffffffff1660e01b8152600401620011389392919062002321565b600060405180830381600087803b1580156200115357600080fd5b505af115801562001168573d6000803e3d6000fd5b505050508060030154600360009054906101000a900473ffffffffffffffffffffffffffffffffffffffff1673ffffffffffffffffffffffffffffffffffffffff167fafd7b131c900b2911104a35c344bd27df9588e569fc4bd4d823f3602436b52158360000160009054906101000a900473ffffffffffffffffffffffffffffffffffffffff168460010160009054906101000a900473ffffffffffffffffffffffffffffffffffffffff1685600401548660050160009054906101000a900460ff166040516200123e9493929190620023c9565b60405180910390a3506001600081905550505050505050505050565b600360009054906101000a900473ffffffffffffffffffffffffffffffffffffffff1673ffffffffffffffffffffffffffffffffffffffff166301ffc9a76380ac58cd60e01b6040518263ffffffff1660e01b8152600401620012be919062002453565b602060405180830381865afa158015620012dc573d6000803e3d6000fd5b505050506040513d601f19601f82011682018060405250810190620013029190620024a1565b15620014d2576000600360009054906101000a900473ffffffffffffffffffffffffffffffffffffffff1690503373ffffffffffffffffffffffffffffffffffffffff168173ffffffffffffffffffffffffffffffffffffffff16636352211e866040518263ffffffff1660e01b815260040162001381919062001e3f565b602060405180830381865afa1580156200139f573d6000803e3d6000fd5b505050506040513d601f19601f82011682018060405250810190620013c591906200227d565b73ffffffffffffffffffffffffffffffffffffffff161462001413576040517f30cd747100000000000000000000000000000000000000000000000000000000815260040160405180910390fd5b8073ffffffffffffffffffffffffffffffffffffffff1663e985e9c533306040518363ffffffff1660e01b815260040162001450929190620024d3565b602060405180830381865afa1580156200146e573d6000803e3d6000fd5b505050506040513d601f19601f82011682018060405250810190620014949190620024a1565b620014cb576040517fc278fc7000000000000000000000000000000000000000000000000000000000815260040160405180910390fd5b5062001504565b6040517f41b7742500000000000000000000000000000000000000000000000000000000815260040160405180910390fd5b6040518060c001604052803373ffffffffffffffffffffffffffffffffffffffff1681526020013073ffffffffffffffffffffffffffffffffffffffff1681526020018381526020018481526020018281526020016000151581525060046000600360009054906101000a900473ffffffffffffffffffffffffffffffffffffffff1673ffffffffffffffffffffffffffffffffffffffff1673ffffffffffffffffffffffffffffffffffffffff168152602001908152602001600020600084815260200190815260200160002060008201518160000160006101000a81548173ffffffffffffffffffffffffffffffffffffffff021916908373ffffffffffffffffffffffffffffffffffffffff16021790555060208201518160010160006101000a81548173ffffffffffffffffffffffffffffffffffffffff021916908373ffffffffffffffffffffffffffffffffffffffff16021790555060408201518160020155606082015181600301556080820151816004015560a08201518160050160006101000a81548160ff021916908315150217905550905050505050565b8060008111158015620016c35750620016c0600162001c13565b81115b15620016fb576040517fbf8b3d3e00000000000000000000000000000000000000000000000000000000815260040160405180910390fd5b6002600054141562001744576040517f08c379a00000000000000000000000000000000000000000000000000000000081526004016200173b90620022ff565b60405180910390fd5b600260008190555060006200175983620005ad565b9050600060046000600360009054906101000a900473ffffffffffffffffffffffffffffffffffffffff1673ffffffffffffffffffffffffffffffffffffffff1673ffffffffffffffffffffffffffffffffffffffff1681526020019081526020016000206000858152602001908152602001600020905060008160040154905060008184620017ea919062002500565b905060008360000160009054906101000a900473ffffffffffffffffffffffffffffffffffffffff169050843410156200188757600360009054906101000a900473ffffffffffffffffffffffffffffffffffffffff168460030154866040517f7c9345650000000000000000000000000000000000000000000000000000000081526004016200187e939291906200253b565b60405180910390fd5b8360050160009054906101000a900460ff1615620018d1576040517fb413c50200000000000000000000000000000000000000000000000000000000815260040160405180910390fd5b338460010160006101000a81548173ffffffffffffffffffffffffffffffffffffffff021916908373ffffffffffffffffffffffffffffffffffffffff16021790555060018460050160006101000a81548160ff0219169083151502179055506200193d600262001bfd565b600360009054906101000a900473ffffffffffffffffffffffffffffffffffffffff1673ffffffffffffffffffffffffffffffffffffffff166342842e0e303387600301546040518463ffffffff1660e01b8152600401620019a29392919062002321565b600060405180830381600087803b158015620019bd57600080fd5b505af1158015620019d2573d6000803e3d6000fd5b5050505060008173ffffffffffffffffffffffffffffffffffffffff1684604051620019fe90620025ad565b60006040518083038185875af1925050503d806000811462001a3d576040519150601f19603f3d011682016040523d82523d6000602084013e62001a42565b606091505b505090508062001a7e576040517f90b8ec1800000000000000000000000000000000000000000000000000000000815260040160405180910390fd5b60007f000000000000000000000000000000000000000000000000000000000000000073ffffffffffffffffffffffffffffffffffffffff168460405162001ac690620025ad565b60006040518083038185875af1925050503d806000811462001b05576040519150601f19603f3d011682016040523d82523d6000602084013e62001b0a565b606091505b505090508062001b46576040517f90b8ec1800000000000000000000000000000000000000000000000000000000815260040160405180910390fd5b8560010160009054906101000a900473ffffffffffffffffffffffffffffffffffffffff1673ffffffffffffffffffffffffffffffffffffffff168373ffffffffffffffffffffffffffffffffffffffff167f7a294cf6442b01d7fdf4d752b780452e81d214cde05a4b638531a455fdc34c798860030154888a60050160009054906101000a900460ff1660405162001be293929190620025c4565b60405180910390a35050505050505060016000819055505050565b6001816000016000828254019250508190555050565b600081600001549050919050565b6000816000015490506000811162001c70576040517f08c379a000000000000000000000000000000000000000000000000000000000815260040162001c679062002651565b60405180910390fd5b6001810382600001819055505050565b61326f806200267483390190565b600080fd5b600080fd5b600073ffffffffffffffffffffffffffffffffffffffff82169050919050565b600062001cc58262001c98565b9050919050565b62001cd78162001cb8565b811462001ce357600080fd5b50565b60008135905062001cf78162001ccc565b92915050565b6000819050919050565b62001d128162001cfd565b811462001d1e57600080fd5b50565b60008135905062001d328162001d07565b92915050565b6000806040838503121562001d525762001d5162001c8e565b5b600062001d628582860162001ce6565b925050602062001d758582860162001d21565b9150509250929050565b600062001d8c8262001c98565b9050919050565b62001d9e8162001d7f565b82525050565b62001daf8162001cfd565b82525050565b60008115159050919050565b62001dcc8162001db5565b82525050565b600060c08201905062001de9600083018962001d93565b62001df8602083018862001d93565b62001e07604083018762001da4565b62001e16606083018662001da4565b62001e25608083018562001da4565b62001e3460a083018462001dc1565b979650505050505050565b600060208201905062001e56600083018462001da4565b92915050565b60006020828403121562001e755762001e7462001c8e565b5b600062001e858482850162001d21565b91505092915050565b600080fd5b600080fd5b600080fd5b60008083601f84011262001eb65762001eb562001e8e565b5b8235905067ffffffffffffffff81111562001ed65762001ed562001e93565b5b60208301915083600182028301111562001ef55762001ef462001e98565b5b9250929050565b6000806020838503121562001f165762001f1562001c8e565b5b600083013567ffffffffffffffff81111562001f375762001f3662001c93565b5b62001f458582860162001e9d565b92509250509250929050565b62001f5c8162001cb8565b82525050565b600060208201905062001f79600083018462001f51565b92915050565b600060208201905062001f96600083018462001d93565b92915050565b6000806040838503121562001fb65762001fb562001c8e565b5b600062001fc68582860162001d21565b925050602062001fd98582860162001d21565b9150509250929050565b60008060006060848603121562001fff5762001ffe62001c8e565b5b60006200200f8682870162001d21565b9350506020620020228682870162001d21565b9250506040620020358682870162001d21565b9150509250925092565b600082825260208201905092915050565b82818337600083830152505050565b6000601f19601f8301169050919050565b60006200207e83856200203f565b93506200208d83858462002050565b62002098836200205f565b840190509392505050565b60006020820190508181036000830152620020c081848662002070565b90509392505050565b600081519050620020da8162001d07565b92915050565b600060208284031215620020f957620020f862001c8e565b5b60006200210984828501620020c9565b91505092915050565b7f4e487b7100000000000000000000000000000000000000000000000000000000600052601160045260246000fd5b60006200214e8262001cfd565b91506200215b8362001cfd565b9250827fffffffffffffffffffffffffffffffffffffffffffffffffffffffffffffffff0382111562002193576200219262002112565b5b828201905092915050565b6000620021ab8262001cfd565b9150620021b88362001cfd565b9250817fffffffffffffffffffffffffffffffffffffffffffffffffffffffffffffffff0483118215151615620021f457620021f362002112565b5b828202905092915050565b7f4e487b7100000000000000000000000000000000000000000000000000000000600052601260045260246000fd5b60006200223b8262001cfd565b9150620022488362001cfd565b9250826200225b576200225a620021ff565b5b828204905092915050565b600081519050620022778162001ccc565b92915050565b60006020828403121562002296576200229562001c8e565b5b6000620022a68482850162002266565b91505092915050565b7f5265656e7472616e637947756172643a207265656e7472616e742063616c6c00600082015250565b6000620022e7601f836200203f565b9150620022f482620022af565b602082019050919050565b600060208201905081810360008301526200231a81620022d8565b9050919050565b600060608201905062002338600083018662001f51565b62002347602083018562001f51565b62002356604083018462001da4565b949350505050565b6000819050919050565b600062002389620023836200237d8462001c98565b6200235e565b62001c98565b9050919050565b60006200239d8262002368565b9050919050565b6000620023b18262002390565b9050919050565b620023c381620023a4565b82525050565b6000608082019050620023e06000830187620023b8565b620023ef6020830186620023b8565b620023fe604083018562001da4565b6200240d606083018462001dc1565b95945050505050565b60007fffffffff0000000000000000000000000000000000000000000000000000000082169050919050565b6200244d8162002416565b82525050565b60006020820190506200246a600083018462002442565b92915050565b6200247b8162001db5565b81146200248757600080fd5b50565b6000815190506200249b8162002470565b92915050565b600060208284031215620024ba57620024b962001c8e565b5b6000620024ca848285016200248a565b91505092915050565b6000604082019050620024ea600083018562001f51565b620024f9602083018462001f51565b9392505050565b60006200250d8262001cfd565b91506200251a8362001cfd565b92508282101562002530576200252f62002112565b5b828203905092915050565b600060608201905062002552600083018662001f51565b62002561602083018562001da4565b62002570604083018462001da4565b949350505050565b600081905092915050565b50565b60006200259560008362002578565b9150620025a28262002583565b600082019050919050565b6000620025ba8262002586565b9150819050919050565b6000606082019050620025db600083018662001da4565b620025ea602083018562001da4565b620025f9604083018462001dc1565b949350505050565b7f436f756e7465723a2064656372656d656e74206f766572666c6f770000000000600082015250565b600062002639601b836200203f565b9150620026468262002601565b602082019050919050565b600060208201905081810360008301526200266c816200262a565b905091905056fe60806040523480156200001157600080fd5b506040518060400160405280601081526020017f536169476f6e20446973747269637473000000000000000000000000000000008152506040518060400160405280600381526020017f53474e0000000000000000000000000000000000000000000000000000000000815250816000908051906020019062000096929190620000b8565b508060019080519060200190620000af929190620000b8565b505050620001cd565b828054620000c69062000197565b90600052602060002090601f016020900481019282620000ea576000855562000136565b82601f106200010557805160ff191683800117855562000136565b8280016001018555821562000136579182015b828111156200013557825182559160200191906001019062000118565b5b50905062000145919062000149565b5090565b5b80821115620001645760008160009055506001016200014a565b5090565b7f4e487b7100000000000000000000000000000000000000000000000000000000600052602260045260246000fd5b60006002820490506001821680620001b057607f821691505b60208210811415620001c757620001c662000168565b5b50919050565b61309280620001dd6000396000f3fe608060405234801561001057600080fd5b506004361061010b5760003560e01c80636352211e116100a2578063aa46a40011610071578063aa46a400146102c9578063b88d4fde146102e7578063c87b56dd14610303578063d85d3d2714610333578063e985e9c5146103635761010b565b80636352211e1461022f57806370a082311461025f57806395d89b411461028f578063a22cb465146102ad5761010b565b8063095ea7b3116100de578063095ea7b3146101aa57806323b872dd146101c65780632a55205a146101e257806342842e0e146102135761010b565b806301ffc9a71461011057806302fa7c471461014057806306fdde031461015c578063081812fc1461017a575b600080fd5b61012a60048036038101906101259190611e1c565b610393565b6040516101379190611e64565b60405180910390f35b61015a60048036038101906101559190611f21565b6103a5565b005b6101646103b3565b6040516101719190611ffa565b60405180910390f35b610194600480360381019061018f9190612052565b610445565b6040516101a1919061208e565b60405180910390f35b6101c460048036038101906101bf91906120a9565b61048b565b005b6101e060048036038101906101db91906120e9565b6105a3565b005b6101fc60048036038101906101f7919061213c565b610603565b60405161020a92919061218b565b60405180910390f35b61022d600480360381019061022891906120e9565b6107ee565b005b61024960048036038101906102449190612052565b61080e565b604051610256919061208e565b60405180910390f35b610279600480360381019061027491906121b4565b6108c0565b60405161028691906121e1565b60405180910390f35b610297610978565b6040516102a49190611ffa565b60405180910390f35b6102c760048036038101906102c29190612228565b610a0a565b005b6102d1610a20565b6040516102de91906121e1565b60405180910390f35b61030160048036038101906102fc919061239d565b610a2c565b005b61031d60048036038101906103189190612052565b610a8e565b60405161032a9190611ffa565b60405180910390f35b61034d60048036038101906103489190612480565b610ba1565b60405161035a91906121e1565b60405180910390f35b61037d600480360381019061037891906124cd565b610c56565b60405161038a9190611e64565b60405180910390f35b600061039e82610cea565b9050919050565b6103af8282610d64565b5050565b6060600080546103c29061253c565b80601f01602080910402602001604051908101604052809291908181526020018280546103ee9061253c565b801561043b5780601f106104105761010080835404028352916020019161043b565b820191906000526020600020905b81548152906001019060200180831161041e57829003601f168201915b5050505050905090565b600061045082610efa565b6004600083815260200190815260200160002060009054906101000a900473ffffffffffffffffffffffffffffffffffffffff169050919050565b60006104968261080e565b90508073ffffffffffffffffffffffffffffffffffffffff168373ffffffffffffffffffffffffffffffffffffffff161415610507576040517f08c379a00000000000000000000000000000000000000000000000000000000081526004016104fe906125e0565b60405180910390fd5b8073ffffffffffffffffffffffffffffffffffffffff16610526610f45565b73ffffffffffffffffffffffffffffffffffffffff16148061055557506105548161054f610f45565b610c56565b5b610594576040517f08c379a000000000000000000000000000000000000000000000000000000000815260040161058b90612672565b60405180910390fd5b61059e8383610f4d565b505050565b6105b46105ae610f45565b82611006565b6105f3576040517f08c379a00000000000000000000000000000000000000000000000000000000081526004016105ea90612704565b60405180910390fd5b6105fe83838361109b565b505050565b6000806000600860008681526020019081526020016000206040518060400160405290816000820160009054906101000a900473ffffffffffffffffffffffffffffffffffffffff1673ffffffffffffffffffffffffffffffffffffffff1673ffffffffffffffffffffffffffffffffffffffff1681526020016000820160149054906101000a90046bffffffffffffffffffffffff166bffffffffffffffffffffffff166bffffffffffffffffffffffff16815250509050600073ffffffffffffffffffffffffffffffffffffffff16816000015173ffffffffffffffffffffffffffffffffffffffff1614156107995760076040518060400160405290816000820160009054906101000a900473ffffffffffffffffffffffffffffffffffffffff1673ffffffffffffffffffffffffffffffffffffffff1673ffffffffffffffffffffffffffffffffffffffff1681526020016000820160149054906101000a90046bffffffffffffffffffffffff166bffffffffffffffffffffffff166bffffffffffffffffffffffff168152505090505b60006107a3611302565b6bffffffffffffffffffffffff1682602001516bffffffffffffffffffffffff16866107cf9190612753565b6107d991906127dc565b90508160000151819350935050509250929050565b61080983838360405180602001604052806000815250610a2c565b505050565b6000806002600084815260200190815260200160002060009054906101000a900473ffffffffffffffffffffffffffffffffffffffff169050600073ffffffffffffffffffffffffffffffffffffffff168173ffffffffffffffffffffffffffffffffffffffff1614156108b7576040517f08c379a00000000000000000000000000000000000000000000000000000000081526004016108ae90612859565b60405180910390fd5b80915050919050565b60008073ffffffffffffffffffffffffffffffffffffffff168273ffffffffffffffffffffffffffffffffffffffff161415610931576040517f08c379a0000000000000000000000000000000000000000000000000000000008152600401610928906128eb565b60405180910390fd5b600360008373ffffffffffffffffffffffffffffffffffffffff1673ffffffffffffffffffffffffffffffffffffffff168152602001908152602001600020549050919050565b6060600180546109879061253c565b80601f01602080910402602001604051908101604052809291908181526020018280546109b39061253c565b8015610a005780601f106109d557610100808354040283529160200191610a00565b820191906000526020600020905b8154815290600101906020018083116109e357829003601f168201915b5050505050905090565b610a1c610a15610f45565b838361130c565b5050565b60098060000154905081565b610a3d610a37610f45565b83611006565b610a7c576040517f08c379a0000000000000000000000000000000000000000000000000000000008152600401610a7390612704565b60405180910390fd5b610a8884848484611479565b50505050565b6060610a9982610efa565b6000600660008481526020019081526020016000208054610ab99061253c565b80601f0160208091040260200160405190810160405280929190818152602001828054610ae59061253c565b8015610b325780601f10610b0757610100808354040283529160200191610b32565b820191906000526020600020905b815481529060010190602001808311610b1557829003601f168201915b505050505090506000610b436114d5565b9050600081511415610b59578192505050610b9c565b600082511115610b8e578082604051602001610b76929190612947565b60405160208183030381529060405292505050610b9c565b610b97846114ec565b925050505b919050565b6000610bad6009611554565b6000610bb9600961156a565b9050610c098185858080601f016020809104026020016040519081016040528093929190818152602001838380828437600081840152601f19601f82011690508083019250505050505050611578565b7f845020906442ad0651b44a75d9767153912bfa586416784cf8ead41b37b1dbf58484604051610c3a929190612998565b60405180910390a1610c4c33826115ec565b8091505092915050565b6000600560008473ffffffffffffffffffffffffffffffffffffffff1673ffffffffffffffffffffffffffffffffffffffff16815260200190815260200160002060008373ffffffffffffffffffffffffffffffffffffffff1673ffffffffffffffffffffffffffffffffffffffff16815260200190815260200160002060009054906101000a900460ff16905092915050565b60007f2a55205a000000000000000000000000000000000000000000000000000000007bffffffffffffffffffffffffffffffffffffffffffffffffffffffff1916827bffffffffffffffffffffffffffffffffffffffffffffffffffffffff19161480610d5d5750610d5c8261160a565b5b9050919050565b610d6c611302565b6bffffffffffffffffffffffff16816bffffffffffffffffffffffff161115610dca576040517f08c379a0000000000000000000000000000000000000000000000000000000008152600401610dc190612a2e565b60405180910390fd5b600073ffffffffffffffffffffffffffffffffffffffff168273ffffffffffffffffffffffffffffffffffffffff161415610e3a576040517f08c379a0000000000000000000000000000000000000000000000000000000008152600401610e3190612a9a565b60405180910390fd5b60405180604001604052808373ffffffffffffffffffffffffffffffffffffffff168152602001826bffffffffffffffffffffffff16815250600760008201518160000160006101000a81548173ffffffffffffffffffffffffffffffffffffffff021916908373ffffffffffffffffffffffffffffffffffffffff16021790555060208201518160000160146101000a8154816bffffffffffffffffffffffff02191690836bffffffffffffffffffffffff1602179055509050505050565b610f03816116ec565b610f42576040517f08c379a0000000000000000000000000000000000000000000000000000000008152600401610f3990612859565b60405180910390fd5b50565b600033905090565b816004600083815260200190815260200160002060006101000a81548173ffffffffffffffffffffffffffffffffffffffff021916908373ffffffffffffffffffffffffffffffffffffffff160217905550808273ffffffffffffffffffffffffffffffffffffffff16610fc08361080e565b73ffffffffffffffffffffffffffffffffffffffff167f8c5be1e5ebec7d5bd14f71427d1e84f3dd0314c0f7b2291e5b200ac8c7c3b92560405160405180910390a45050565b6000806110128361080e565b90508073ffffffffffffffffffffffffffffffffffffffff168473ffffffffffffffffffffffffffffffffffffffff16148061105457506110538185610c56565b5b8061109257508373ffffffffffffffffffffffffffffffffffffffff1661107a84610445565b73ffffffffffffffffffffffffffffffffffffffff16145b91505092915050565b8273ffffffffffffffffffffffffffffffffffffffff166110bb8261080e565b73ffffffffffffffffffffffffffffffffffffffff1614611111576040517f08c379a000000000000000000000000000000000000000000000000000000000815260040161110890612b2c565b60405180910390fd5b600073ffffffffffffffffffffffffffffffffffffffff168273ffffffffffffffffffffffffffffffffffffffff161415611181576040517f08c379a000000000000000000000000000000000000000000000000000000000815260040161117890612bbe565b60405180910390fd5b61118c838383611758565b611197600082610f4d565b6001600360008573ffffffffffffffffffffffffffffffffffffffff1673ffffffffffffffffffffffffffffffffffffffff16815260200190815260200160002060008282546111e79190612bde565b925050819055506001600360008473ffffffffffffffffffffffffffffffffffffffff1673ffffffffffffffffffffffffffffffffffffffff168152602001908152602001600020600082825461123e9190612c12565b92505081905550816002600083815260200190815260200160002060006101000a81548173ffffffffffffffffffffffffffffffffffffffff021916908373ffffffffffffffffffffffffffffffffffffffff160217905550808273ffffffffffffffffffffffffffffffffffffffff168473ffffffffffffffffffffffffffffffffffffffff167fddf252ad1be2c89b69c2b068fc378daa952ba7f163c4a11628f55a4df523b3ef60405160405180910390a46112fd83838361175d565b505050565b6000612710905090565b8173ffffffffffffffffffffffffffffffffffffffff168373ffffffffffffffffffffffffffffffffffffffff16141561137b576040517f08c379a000000000000000000000000000000000000000000000000000000000815260040161137290612cb4565b60405180910390fd5b80600560008573ffffffffffffffffffffffffffffffffffffffff1673ffffffffffffffffffffffffffffffffffffffff16815260200190815260200160002060008473ffffffffffffffffffffffffffffffffffffffff1673ffffffffffffffffffffffffffffffffffffffff16815260200190815260200160002060006101000a81548160ff0219169083151502179055508173ffffffffffffffffffffffffffffffffffffffff168373ffffffffffffffffffffffffffffffffffffffff167f17307eab39ab6107e8899845ad3d59bd9653f200f220920489ca2b5937696c318360405161146c9190611e64565b60405180910390a3505050565b61148484848461109b565b61149084848484611762565b6114cf576040517f08c379a00000000000000000000000000000000000000000000000000000000081526004016114c690612d46565b60405180910390fd5b50505050565b606060405180602001604052806000815250905090565b60606114f782610efa565b60006115016114d5565b90506000815111611521576040518060200160405280600081525061154c565b8061152b846118ea565b60405160200161153c929190612947565b6040516020818303038152906040525b915050919050565b6001816000016000828254019250508190555050565b600081600001549050919050565b611581826116ec565b6115c0576040517f08c379a00000000000000000000000000000000000000000000000000000000081526004016115b790612dd8565b60405180910390fd5b806006600084815260200190815260200160002090805190602001906115e7929190611d0d565b505050565b611606828260405180602001604052806000815250611a4b565b5050565b60007f80ac58cd000000000000000000000000000000000000000000000000000000007bffffffffffffffffffffffffffffffffffffffffffffffffffffffff1916827bffffffffffffffffffffffffffffffffffffffffffffffffffffffff191614806116d557507f5b5e139f000000000000000000000000000000000000000000000000000000007bffffffffffffffffffffffffffffffffffffffffffffffffffffffff1916827bffffffffffffffffffffffffffffffffffffffffffffffffffffffff1916145b806116e557506116e482611aa6565b5b9050919050565b60008073ffffffffffffffffffffffffffffffffffffffff166002600084815260200190815260200160002060009054906101000a900473ffffffffffffffffffffffffffffffffffffffff1673ffffffffffffffffffffffffffffffffffffffff1614159050919050565b505050565b505050565b60006117838473ffffffffffffffffffffffffffffffffffffffff16611b10565b156118dd578373ffffffffffffffffffffffffffffffffffffffff1663150b7a026117ac610f45565b8786866040518563ffffffff1660e01b81526004016117ce9493929190612e4d565b6020604051808303816000875af192505050801561180a57506040513d601f19601f820116820180604052508101906118079190612eae565b60015b61188d573d806000811461183a576040519150601f19603f3d011682016040523d82523d6000602084013e61183f565b606091505b50600081511415611885576040517f08c379a000000000000000000000000000000000000000000000000000000000815260040161187c90612d46565b60405180910390fd5b805181602001fd5b63150b7a0260e01b7bffffffffffffffffffffffffffffffffffffffffffffffffffffffff1916817bffffffffffffffffffffffffffffffffffffffffffffffffffffffff1916149150506118e2565b600190505b949350505050565b60606000821415611932576040518060400160405280600181526020017f30000000000000000000000000000000000000000000000000000000000000008152509050611a46565b600082905060005b6000821461196457808061194d90612edb565b915050600a8261195d91906127dc565b915061193a565b60008167ffffffffffffffff8111156119805761197f612272565b5b6040519080825280601f01601f1916602001820160405280156119b25781602001600182028036833780820191505090505b5090505b60008514611a3f576001826119cb9190612bde565b9150600a856119da9190612f24565b60306119e69190612c12565b60f81b8183815181106119fc576119fb612f55565b5b60200101907effffffffffffffffffffffffffffffffffffffffffffffffffffffffffffff1916908160001a905350600a85611a3891906127dc565b94506119b6565b8093505050505b919050565b611a558383611b33565b611a626000848484611762565b611aa1576040517f08c379a0000000000000000000000000000000000000000000000000000000008152600401611a9890612d46565b60405180910390fd5b505050565b60007f01ffc9a7000000000000000000000000000000000000000000000000000000007bffffffffffffffffffffffffffffffffffffffffffffffffffffffff1916827bffffffffffffffffffffffffffffffffffffffffffffffffffffffff1916149050919050565b6000808273ffffffffffffffffffffffffffffffffffffffff163b119050919050565b600073ffffffffffffffffffffffffffffffffffffffff168273ffffffffffffffffffffffffffffffffffffffff161415611ba3576040517f08c379a0000000000000000000000000000000000000000000000000000000008152600401611b9a90612fd0565b60405180910390fd5b611bac816116ec565b15611bec576040517f08c379a0000000000000000000000000000000000000000000000000000000008152600401611be39061303c565b60405180910390fd5b611bf860008383611758565b6001600360008473ffffffffffffffffffffffffffffffffffffffff1673ffffffffffffffffffffffffffffffffffffffff1681526020019081526020016000206000828254611c489190612c12565b92505081905550816002600083815260200190815260200160002060006101000a81548173ffffffffffffffffffffffffffffffffffffffff021916908373ffffffffffffffffffffffffffffffffffffffff160217905550808273ffffffffffffffffffffffffffffffffffffffff16600073ffffffffffffffffffffffffffffffffffffffff167fddf252ad1be2c89b69c2b068fc378daa952ba7f163c4a11628f55a4df523b3ef60405160405180910390a4611d096000838361175d565b5050565b828054611d199061253c565b90600052602060002090601f016020900481019282611d3b5760008555611d82565b82601f10611d5457805160ff1916838001178555611d82565b82800160010185558215611d82579182015b82811115611d81578251825591602001919060010190611d66565b5b509050611d8f9190611d93565b5090565b5b80821115611dac576000816000905550600101611d94565b5090565b6000604051905090565b600080fd5b600080fd5b60007fffffffff0000000000000000000000000000000000000000000000000000000082169050919050565b611df981611dc4565b8114611e0457600080fd5b50565b600081359050611e1681611df0565b92915050565b600060208284031215611e3257611e31611dba565b5b6000611e4084828501611e07565b91505092915050565b60008115159050919050565b611e5e81611e49565b82525050565b6000602082019050611e796000830184611e55565b92915050565b600073ffffffffffffffffffffffffffffffffffffffff82169050919050565b6000611eaa82611e7f565b9050919050565b611eba81611e9f565b8114611ec557600080fd5b50565b600081359050611ed781611eb1565b92915050565b60006bffffffffffffffffffffffff82169050919050565b611efe81611edd565b8114611f0957600080fd5b50565b600081359050611f1b81611ef5565b92915050565b60008060408385031215611f3857611f37611dba565b5b6000611f4685828601611ec8565b9250506020611f5785828601611f0c565b9150509250929050565b600081519050919050565b600082825260208201905092915050565b60005b83811015611f9b578082015181840152602081019050611f80565b83811115611faa576000848401525b50505050565b6000601f19601f8301169050919050565b6000611fcc82611f61565b611fd68185611f6c565b9350611fe6818560208601611f7d565b611fef81611fb0565b840191505092915050565b600060208201905081810360008301526120148184611fc1565b905092915050565b6000819050919050565b61202f8161201c565b811461203a57600080fd5b50565b60008135905061204c81612026565b92915050565b60006020828403121561206857612067611dba565b5b60006120768482850161203d565b91505092915050565b61208881611e9f565b82525050565b60006020820190506120a3600083018461207f565b92915050565b600080604083850312156120c0576120bf611dba565b5b60006120ce85828601611ec8565b92505060206120df8582860161203d565b9150509250929050565b60008060006060848603121561210257612101611dba565b5b600061211086828701611ec8565b935050602061212186828701611ec8565b92505060406121328682870161203d565b9150509250925092565b6000806040838503121561215357612152611dba565b5b60006121618582860161203d565b92505060206121728582860161203d565b9150509250929050565b6121858161201c565b82525050565b60006040820190506121a0600083018561207f565b6121ad602083018461217c565b9392505050565b6000602082840312156121ca576121c9611dba565b5b60006121d884828501611ec8565b91505092915050565b60006020820190506121f6600083018461217c565b92915050565b61220581611e49565b811461221057600080fd5b50565b600081359050612222816121fc565b92915050565b6000806040838503121561223f5761223e611dba565b5b600061224d85828601611ec8565b925050602061225e85828601612213565b9150509250929050565b600080fd5b600080fd5b7f4e487b7100000000000000000000000000000000000000000000000000000000600052604160045260246000fd5b6122aa82611fb0565b810181811067ffffffffffffffff821117156122c9576122c8612272565b5b80604052505050565b60006122dc611db0565b90506122e882826122a1565b919050565b600067ffffffffffffffff82111561230857612307612272565b5b61231182611fb0565b9050602081019050919050565b82818337600083830152505050565b600061234061233b846122ed565b6122d2565b90508281526020810184848401111561235c5761235b61226d565b5b61236784828561231e565b509392505050565b600082601f83011261238457612383612268565b5b813561239484826020860161232d565b91505092915050565b600080600080608085870312156123b7576123b6611dba565b5b60006123c587828801611ec8565b94505060206123d687828801611ec8565b93505060406123e78782880161203d565b925050606085013567ffffffffffffffff81111561240857612407611dbf565b5b6124148782880161236f565b91505092959194509250565b600080fd5b600080fd5b60008083601f8401126124405761243f612268565b5b8235905067ffffffffffffffff81111561245d5761245c612420565b5b60208301915083600182028301111561247957612478612425565b5b9250929050565b6000806020838503121561249757612496611dba565b5b600083013567ffffffffffffffff8111156124b5576124b4611dbf565b5b6124c18582860161242a565b92509250509250929050565b600080604083850312156124e4576124e3611dba565b5b60006124f285828601611ec8565b925050602061250385828601611ec8565b9150509250929050565b7f4e487b7100000000000000000000000000000000000000000000000000000000600052602260045260246000fd5b6000600282049050600182168061255457607f821691505b602082108114156125685761256761250d565b5b50919050565b7f4552433732313a20617070726f76616c20746f2063757272656e74206f776e6560008201527f7200000000000000000000000000000000000000000000000000000000000000602082015250565b60006125ca602183611f6c565b91506125d58261256e565b604082019050919050565b600060208201905081810360008301526125f9816125bd565b9050919050565b7f4552433732313a20617070726f76652063616c6c6572206973206e6f7420746f60008201527f6b656e206f776e6572206e6f7220617070726f76656420666f7220616c6c0000602082015250565b600061265c603e83611f6c565b915061266782612600565b604082019050919050565b6000602082019050818103600083015261268b8161264f565b9050919050565b7f4552433732313a2063616c6c6572206973206e6f7420746f6b656e206f776e6560008201527f72206e6f7220617070726f766564000000000000000000000000000000000000602082015250565b60006126ee602e83611f6c565b91506126f982612692565b604082019050919050565b6000602082019050818103600083015261271d816126e1565b9050919050565b7f4e487b7100000000000000000000000000000000000000000000000000000000600052601160045260246000fd5b600061275e8261201c565b91506127698361201c565b9250817fffffffffffffffffffffffffffffffffffffffffffffffffffffffffffffffff04831182151516156127a2576127a1612724565b5b828202905092915050565b7f4e487b7100000000000000000000000000000000000000000000000000000000600052601260045260246000fd5b60006127e78261201c565b91506127f28361201c565b925082612802576128016127ad565b5b828204905092915050565b7f4552433732313a20696e76616c696420746f6b656e2049440000000000000000600082015250565b6000612843601883611f6c565b915061284e8261280d565b602082019050919050565b6000602082019050818103600083015261287281612836565b9050919050565b7f4552433732313a2061646472657373207a65726f206973206e6f74206120766160008201527f6c6964206f776e65720000000000000000000000000000000000000000000000602082015250565b60006128d5602983611f6c565b91506128e082612879565b604082019050919050565b60006020820190508181036000830152612904816128c8565b9050919050565b600081905092915050565b600061292182611f61565b61292b818561290b565b935061293b818560208601611f7d565b80840191505092915050565b60006129538285612916565b915061295f8284612916565b91508190509392505050565b60006129778385611f6c565b935061298483858461231e565b61298d83611fb0565b840190509392505050565b600060208201905081810360008301526129b381848661296b565b90509392505050565b7f455243323938313a20726f79616c7479206665652077696c6c2065786365656460008201527f2073616c65507269636500000000000000000000000000000000000000000000602082015250565b6000612a18602a83611f6c565b9150612a23826129bc565b604082019050919050565b60006020820190508181036000830152612a4781612a0b565b9050919050565b7f455243323938313a20696e76616c696420726563656976657200000000000000600082015250565b6000612a84601983611f6c565b9150612a8f82612a4e565b602082019050919050565b60006020820190508181036000830152612ab381612a77565b9050919050565b7f4552433732313a207472616e736665722066726f6d20696e636f72726563742060008201527f6f776e6572000000000000000000000000000000000000000000000000000000602082015250565b6000612b16602583611f6c565b9150612b2182612aba565b604082019050919050565b60006020820190508181036000830152612b4581612b09565b9050919050565b7f4552433732313a207472616e7366657220746f20746865207a65726f2061646460008201527f7265737300000000000000000000000000000000000000000000000000000000602082015250565b6000612ba8602483611f6c565b9150612bb382612b4c565b604082019050919050565b60006020820190508181036000830152612bd781612b9b565b9050919050565b6000612be98261201c565b9150612bf48361201c565b925082821015612c0757612c06612724565b5b828203905092915050565b6000612c1d8261201c565b9150612c288361201c565b9250827fffffffffffffffffffffffffffffffffffffffffffffffffffffffffffffffff03821115612c5d57612c5c612724565b5b828201905092915050565b7f4552433732313a20617070726f766520746f2063616c6c657200000000000000600082015250565b6000612c9e601983611f6c565b9150612ca982612c68565b602082019050919050565b60006020820190508181036000830152612ccd81612c91565b9050919050565b7f4552433732313a207472616e7366657220746f206e6f6e20455243373231526560008201527f63656976657220696d706c656d656e7465720000000000000000000000000000602082015250565b6000612d30603283611f6c565b9150612d3b82612cd4565b604082019050919050565b60006020820190508181036000830152612d5f81612d23565b9050919050565b7f45524337323155524953746f726167653a2055524920736574206f66206e6f6e60008201527f6578697374656e7420746f6b656e000000000000000000000000000000000000602082015250565b6000612dc2602e83611f6c565b9150612dcd82612d66565b604082019050919050565b60006020820190508181036000830152612df181612db5565b9050919050565b600081519050919050565b600082825260208201905092915050565b6000612e1f82612df8565b612e298185612e03565b9350612e39818560208601611f7d565b612e4281611fb0565b840191505092915050565b6000608082019050612e62600083018761207f565b612e6f602083018661207f565b612e7c604083018561217c565b8181036060830152612e8e8184612e14565b905095945050505050565b600081519050612ea881611df0565b92915050565b600060208284031215612ec457612ec3611dba565b5b6000612ed284828501612e99565b91505092915050565b6000612ee68261201c565b91507fffffffffffffffffffffffffffffffffffffffffffffffffffffffffffffffff821415612f1957612f18612724565b5b600182019050919050565b6000612f2f8261201c565b9150612f3a8361201c565b925082612f4a57612f496127ad565b5b828206905092915050565b7f4e487b7100000000000000000000000000000000000000000000000000000000600052603260045260246000fd5b7f4552433732313a206d696e7420746f20746865207a65726f2061646472657373600082015250565b6000612fba602083611f6c565b9150612fc582612f84565b602082019050919050565b60006020820190508181036000830152612fe981612fad565b9050919050565b7f4552433732313a20746f6b656e20616c7265616479206d696e74656400000000600082015250565b6000613026601c83611f6c565b915061303182612ff0565b602082019050919050565b6000602082019050818103600083015261305581613019565b905091905056fea26469706673582212204f81cf224698bebebcc753cc2ed0f5299d6d3781677da28028abf8520ecf7b7064736f6c634300080c0033a26469706673582212205e2aac65c02109398c8858981cbb22ab334fcab40240e55052c448eec11bfd5764736f6c634300080c0033",
  "linkReferences": {},
  "deployedLinkReferences": {}
}