{
  "_format": "hh-sol-artifact-1",
  "contractName": "SaigonMarket",
  "sourceName": "contracts/SaigonMarket.sol",
  "abi": [
    {
      "inputs": [
        {
          "internalType": "uint256",
          "name": "_feeBps",
          "type": "uint256"
        }
      ],
      "stateMutability": "nonpayable",
      "type": "constructor"
    },
    {
      "inputs": [
        {
          "internalType": "address",
          "name": "nftAddress",
          "type": "address"
        },
        {
          "internalType": "uint256",
          "name": "listingId",
          "type": "uint256"
        }
      ],
      "name": "AlreadyListed",
      "type": "error"
    },
    {
      "inputs": [],
      "name": "InvalidNftAddress",
      "type": "error"
    },
    {
      "inputs": [],
      "name": "ListingDoesNotExist",
      "type": "error"
    },
    {
      "inputs": [],
      "name": "ListingNotAvailable",
      "type": "error"
    },
    {
      "inputs": [],
      "name": "NFTNotApprovedForMarketplace",
      "type": "error"
    },
    {
      "inputs": [
        {
          "internalType": "address",
          "name": "nftAddress",
          "type": "address"
        },
        {
          "internalType": "uint256",
          "name": "listingId",
          "type": "uint256"
        }
      ],
      "name": "NotListed",
      "type": "error"
    },
    {
      "inputs": [],
      "name": "NotOwner",
      "type": "error"
    },
    {
      "inputs": [],
      "name": "PaymentAmountUnmatched",
      "type": "error"
    },
    {
      "inputs": [
        {
          "internalType": "address",
          "name": "nftAddress",
          "type": "address"
        },
        {
          "internalType": "uint256",
          "name": "tokenId",
          "type": "uint256"
        },
        {
          "internalType": "uint256",
          "name": "price",
          "type": "uint256"
        }
      ],
      "name": "PriceNotMet",
      "type": "error"
    },
    {
      "inputs": [],
      "name": "TransferFailed",
      "type": "error"
    },
    {
      "anonymous": false,
      "inputs": [
        {
          "indexed": true,
          "internalType": "address",
          "name": "nft",
          "type": "address"
        },
        {
          "indexed": false,
          "internalType": "uint256",
          "name": "tokenId",
          "type": "uint256"
        }
      ],
      "name": "ListingCancelled",
      "type": "event"
    },
    {
      "anonymous": false,
      "inputs": [
        {
          "indexed": true,
          "internalType": "address",
          "name": "seller",
          "type": "address"
        },
        {
          "indexed": true,
          "internalType": "address",
          "name": "buyer",
          "type": "address"
        },
        {
          "indexed": false,
          "internalType": "uint256",
          "name": "tokenId",
          "type": "uint256"
        },
        {
          "indexed": false,
          "internalType": "uint256",
          "name": "listingId",
          "type": "uint256"
        },
        {
          "indexed": false,
          "internalType": "uint256",
          "name": "pricePerItem",
          "type": "uint256"
        },
        {
          "indexed": false,
          "internalType": "bool",
          "name": "sold",
          "type": "bool"
        }
      ],
      "name": "ListingSold",
      "type": "event"
    },
    {
      "anonymous": false,
      "inputs": [
        {
          "indexed": true,
          "internalType": "uint256",
          "name": "listingId",
          "type": "uint256"
        },
        {
          "indexed": true,
          "internalType": "address",
          "name": "nftAddress",
          "type": "address"
        },
        {
          "indexed": true,
          "internalType": "uint256",
          "name": "tokenId",
          "type": "uint256"
        },
        {
          "indexed": false,
          "internalType": "address",
          "name": "seller",
          "type": "address"
        },
        {
          "indexed": false,
          "internalType": "address",
          "name": "owner",
          "type": "address"
        },
        {
          "indexed": false,
          "internalType": "uint256",
          "name": "pricePerItem",
          "type": "uint256"
        },
        {
          "indexed": false,
          "internalType": "bool",
          "name": "sold",
          "type": "bool"
        }
      ],
      "name": "NFTListed",
      "type": "event"
    },
    {
      "anonymous": false,
      "inputs": [
        {
          "indexed": true,
          "internalType": "uint256",
          "name": "listingId",
          "type": "uint256"
        },
        {
          "indexed": true,
          "internalType": "address",
          "name": "nftAddress",
          "type": "address"
        },
        {
          "indexed": true,
          "internalType": "uint256",
          "name": "tokenId",
          "type": "uint256"
        },
        {
          "indexed": false,
          "internalType": "address",
          "name": "seller",
          "type": "address"
        },
        {
          "indexed": false,
          "internalType": "address",
          "name": "owner",
          "type": "address"
        },
        {
          "indexed": false,
          "internalType": "uint256",
          "name": "pricePerItem",
          "type": "uint256"
        },
        {
          "indexed": false,
          "internalType": "bool",
          "name": "sold",
          "type": "bool"
        }
      ],
      "name": "NFTListedForResell",
      "type": "event"
    },
    {
      "inputs": [],
      "name": "_listingIds",
      "outputs": [
        {
          "internalType": "uint256",
          "name": "_value",
          "type": "uint256"
        }
      ],
      "stateMutability": "view",
      "type": "function"
    },
    {
      "inputs": [
        {
          "internalType": "contract IERC721",
          "name": "_nft",
          "type": "address"
        },
        {
          "internalType": "uint256",
          "name": "_tokenId",
          "type": "uint256"
        },
        {
          "internalType": "uint256",
          "name": "_pricePerItem",
          "type": "uint256"
        }
      ],
      "name": "createListing",
      "outputs": [],
      "stateMutability": "payable",
      "type": "function"
    },
    {
      "inputs": [
        {
          "internalType": "contract IERC721",
          "name": "_nft",
          "type": "address"
        },
        {
          "internalType": "uint256",
          "name": "_listingId",
          "type": "uint256"
        }
      ],
      "name": "createMarketSale",
      "outputs": [],
      "stateMutability": "payable",
      "type": "function"
    },
    {
      "inputs": [],
      "name": "feeBps",
      "outputs": [
        {
          "internalType": "uint256",
          "name": "",
          "type": "uint256"
        }
      ],
      "stateMutability": "view",
      "type": "function"
    },
    {
      "inputs": [],
      "name": "feeReceiver",
      "outputs": [
        {
          "internalType": "address payable",
          "name": "",
          "type": "address"
        }
      ],
      "stateMutability": "view",
      "type": "function"
    },
    {
      "inputs": [
        {
          "internalType": "address",
          "name": "_nftAddress",
          "type": "address"
        }
      ],
      "name": "fetchMarketListings",
      "outputs": [
        {
          "components": [
            {
              "internalType": "address payable",
              "name": "seller",
              "type": "address"
            },
            {
              "internalType": "address payable",
              "name": "owner",
              "type": "address"
            },
            {
              "internalType": "contract IERC721",
              "name": "nft",
              "type": "address"
            },
            {
              "internalType": "uint256",
              "name": "listingId",
              "type": "uint256"
            },
            {
              "internalType": "uint256",
              "name": "tokenId",
              "type": "uint256"
            },
            {
              "internalType": "uint256",
              "name": "pricePerItem",
              "type": "uint256"
            },
            {
              "internalType": "bool",
              "name": "sold",
              "type": "bool"
            }
          ],
          "internalType": "struct SaigonMarket.Listing[]",
          "name": "",
          "type": "tuple[]"
        }
      ],
      "stateMutability": "view",
      "type": "function"
    },
    {
      "inputs": [
        {
          "internalType": "address",
          "name": "_nftAddress",
          "type": "address"
        }
      ],
      "name": "fetchMyNFTs",
      "outputs": [
        {
          "components": [
            {
              "internalType": "address payable",
              "name": "seller",
              "type": "address"
            },
            {
              "internalType": "address payable",
              "name": "owner",
              "type": "address"
            },
            {
              "internalType": "contract IERC721",
              "name": "nft",
              "type": "address"
            },
            {
              "internalType": "uint256",
              "name": "listingId",
              "type": "uint256"
            },
            {
              "internalType": "uint256",
              "name": "tokenId",
              "type": "uint256"
            },
            {
              "internalType": "uint256",
              "name": "pricePerItem",
              "type": "uint256"
            },
            {
              "internalType": "bool",
              "name": "sold",
              "type": "bool"
            }
          ],
          "internalType": "struct SaigonMarket.Listing[]",
          "name": "",
          "type": "tuple[]"
        }
      ],
      "stateMutability": "view",
      "type": "function"
    },
    {
      "inputs": [
        {
          "internalType": "address",
          "name": "_nftAddress",
          "type": "address"
        }
      ],
      "name": "fetchOwnedListings",
      "outputs": [
        {
          "components": [
            {
              "internalType": "address payable",
              "name": "seller",
              "type": "address"
            },
            {
              "internalType": "address payable",
              "name": "owner",
              "type": "address"
            },
            {
              "internalType": "contract IERC721",
              "name": "nft",
              "type": "address"
            },
            {
              "internalType": "uint256",
              "name": "listingId",
              "type": "uint256"
            },
            {
              "internalType": "uint256",
              "name": "tokenId",
              "type": "uint256"
            },
            {
              "internalType": "uint256",
              "name": "pricePerItem",
              "type": "uint256"
            },
            {
              "internalType": "bool",
              "name": "sold",
              "type": "bool"
            }
          ],
          "internalType": "struct SaigonMarket.Listing[]",
          "name": "",
          "type": "tuple[]"
        }
      ],
      "stateMutability": "view",
      "type": "function"
    },
    {
      "inputs": [
        {
          "internalType": "address",
          "name": "_nftAddress",
          "type": "address"
        },
        {
          "internalType": "uint256",
          "name": "_listingId",
          "type": "uint256"
        }
      ],
      "name": "getFinalPrice",
      "outputs": [
        {
          "internalType": "uint256",
          "name": "",
          "type": "uint256"
        }
      ],
      "stateMutability": "view",
      "type": "function"
    },
    {
      "inputs": [
        {
          "internalType": "address",
          "name": "_nftAddress",
          "type": "address"
        },
        {
          "internalType": "uint256",
          "name": "_listingId",
          "type": "uint256"
        }
      ],
      "name": "getPricePerItem",
      "outputs": [
        {
          "internalType": "uint256",
          "name": "",
          "type": "uint256"
        }
      ],
      "stateMutability": "view",
      "type": "function"
    },
    {
      "inputs": [
        {
          "internalType": "address",
          "name": "_nftAddress",
          "type": "address"
        },
        {
          "internalType": "uint256",
          "name": "_tokenId",
          "type": "uint256"
        },
        {
          "internalType": "uint256",
          "name": "_listingId",
          "type": "uint256"
        },
        {
          "internalType": "uint256",
          "name": "_pricePerItem",
          "type": "uint256"
        }
      ],
      "name": "listNFT",
      "outputs": [],
      "stateMutability": "nonpayable",
      "type": "function"
    },
    {
      "inputs": [
        {
          "internalType": "address",
          "name": "",
          "type": "address"
        },
        {
          "internalType": "uint256",
          "name": "",
          "type": "uint256"
        }
      ],
      "name": "listings",
      "outputs": [
        {
          "internalType": "address payable",
          "name": "seller",
          "type": "address"
        },
        {
          "internalType": "address payable",
          "name": "owner",
          "type": "address"
        },
        {
          "internalType": "contract IERC721",
          "name": "nft",
          "type": "address"
        },
        {
          "internalType": "uint256",
          "name": "listingId",
          "type": "uint256"
        },
        {
          "internalType": "uint256",
          "name": "tokenId",
          "type": "uint256"
        },
        {
          "internalType": "uint256",
          "name": "pricePerItem",
          "type": "uint256"
        },
        {
          "internalType": "bool",
          "name": "sold",
          "type": "bool"
        }
      ],
      "stateMutability": "view",
      "type": "function"
    },
    {
      "inputs": [
        {
          "internalType": "address",
          "name": "",
          "type": "address"
        },
        {
          "internalType": "uint256",
          "name": "",
          "type": "uint256"
        }
      ],
      "name": "offers",
      "outputs": [
        {
          "internalType": "contract IERC20",
          "name": "payToken",
          "type": "address"
        },
        {
          "internalType": "uint256",
          "name": "quantity",
          "type": "uint256"
        },
        {
          "internalType": "uint256",
          "name": "pricePerItem",
          "type": "uint256"
        },
        {
          "internalType": "uint256",
          "name": "deadline",
          "type": "uint256"
        }
      ],
      "stateMutability": "view",
      "type": "function"
    },
    {
      "inputs": [],
      "name": "owner",
      "outputs": [
        {
          "internalType": "address payable",
          "name": "",
          "type": "address"
        }
      ],
      "stateMutability": "view",
      "type": "function"
    },
    {
      "inputs": [
        {
          "internalType": "contract IERC721",
          "name": "_nft",
          "type": "address"
        },
        {
          "internalType": "uint256",
          "name": "_listingId",
          "type": "uint256"
        },
        {
          "internalType": "uint256",
          "name": "_pricePerItem",
          "type": "uint256"
        }
      ],
      "name": "resellNFT",
      "outputs": [],
      "stateMutability": "payable",
      "type": "function"
    }
  ],
  "bytecode": "0x60e06040523480156200001157600080fd5b50604051620033cb380380620033cb8339818101604052810190620000379190620000f6565b60016000819055503373ffffffffffffffffffffffffffffffffffffffff1660808173ffffffffffffffffffffffffffffffffffffffff16815250503373ffffffffffffffffffffffffffffffffffffffff1660a08173ffffffffffffffffffffffffffffffffffffffff16815250508060c081815250505062000128565b600080fd5b6000819050919050565b620000d081620000bb565b8114620000dc57600080fd5b50565b600081519050620000f081620000c5565b92915050565b6000602082840312156200010f576200010e620000b6565b5b60006200011f84828501620000df565b91505092915050565b60805160a05160c0516132656200016660003960008181611114015261214a0152600081816119940152611fff0152600061191301526132656000f3fe6080604052600436106100e75760003560e01c80633f2c4e451161008a578063b3f0067411610059578063b3f0067414610308578063c23b139e14610333578063d9db220d1461034f578063f792d45d1461038c576100e7565b80633f2c4e4514610223578063631749cf146102605780638da5cb5b1461029d578063aa1a8411146102c8576100e7565b806310afee1e116100c657806310afee1e1461017657806324780c56146101b357806324a9d853146101cf5780633c44a5f0146101fa576100e7565b806207df30146100ec578063049356941461012f57806305b826a81461014b575b600080fd5b3480156100f857600080fd5b50610113600480360381019061010e9190612786565b6103c9565b6040516101269796959493929190612870565b60405180910390f35b6101496004803603810190610144919061291d565b610485565b005b34801561015757600080fd5b50610160610983565b60405161016d9190612970565b60405180910390f35b34801561018257600080fd5b5061019d6004803603810190610198919061298b565b61098f565b6040516101aa9190612b31565b60405180910390f35b6101cd60048036038101906101c8919061291d565b610d96565b005b3480156101db57600080fd5b506101e4611112565b6040516101f19190612970565b60405180910390f35b34801561020657600080fd5b50610221600480360381019061021c9190612b53565b611136565b005b34801561022f57600080fd5b5061024a60048036038101906102459190612786565b61156e565b6040516102579190612970565b60405180910390f35b34801561026c57600080fd5b506102876004803603810190610282919061298b565b6115cc565b6040516102949190612b31565b60405180910390f35b3480156102a957600080fd5b506102b2611911565b6040516102bf9190612bba565b60405180910390f35b3480156102d457600080fd5b506102ef60048036038101906102ea9190612786565b611935565b6040516102ff9493929190612bf6565b60405180910390f35b34801561031457600080fd5b5061031d611992565b60405161032a9190612bba565b60405180910390f35b61034d60048036038101906103489190612c3b565b6119b6565b005b34801561035b57600080fd5b5061037660048036038101906103719190612786565b612144565b6040516103839190612970565b60405180910390f35b34801561039857600080fd5b506103b360048036038101906103ae919061298b565b6121e5565b6040516103c09190612b31565b60405180910390f35b6003602052816000526040600020602052806000526040600020600091509150508060000160009054906101000a900473ffffffffffffffffffffffffffffffffffffffff16908060010160009054906101000a900473ffffffffffffffffffffffffffffffffffffffff16908060020160009054906101000a900473ffffffffffffffffffffffffffffffffffffffff16908060030154908060040154908060050154908060060160009054906101000a900460ff16905087565b828233600083905060008173ffffffffffffffffffffffffffffffffffffffff16636352211e856040518263ffffffff1660e01b81526004016104c89190612970565b602060405180830381865afa1580156104e5573d6000803e3d6000fd5b505050506040513d601f19601f820116820180604052508101906105099190612c90565b90508073ffffffffffffffffffffffffffffffffffffffff168373ffffffffffffffffffffffffffffffffffffffff1614610570576040517f30cd747100000000000000000000000000000000000000000000000000000000815260040160405180910390fd5b600260005414156105b6576040517f08c379a00000000000000000000000000000000000000000000000000000000081526004016105ad90612d1a565b60405180910390fd5b600260008190555060006105ca8989612144565b90506000600360008b73ffffffffffffffffffffffffffffffffffffffff1673ffffffffffffffffffffffffffffffffffffffff16815260200190815260200160002060008a81526020019081526020016000206040518060e00160405290816000820160009054906101000a900473ffffffffffffffffffffffffffffffffffffffff1673ffffffffffffffffffffffffffffffffffffffff1673ffffffffffffffffffffffffffffffffffffffff1681526020016001820160009054906101000a900473ffffffffffffffffffffffffffffffffffffffff1673ffffffffffffffffffffffffffffffffffffffff1673ffffffffffffffffffffffffffffffffffffffff1681526020016002820160009054906101000a900473ffffffffffffffffffffffffffffffffffffffff1673ffffffffffffffffffffffffffffffffffffffff1673ffffffffffffffffffffffffffffffffffffffff1681526020016003820154815260200160048201548152602001600582015481526020016006820160009054906101000a900460ff16151515158152505090503373ffffffffffffffffffffffffffffffffffffffff16816020015173ffffffffffffffffffffffffffffffffffffffff16146107cf576040517f30cd747100000000000000000000000000000000000000000000000000000000815260040160405180910390fd5b813414610808576040517f1cbc6a9b00000000000000000000000000000000000000000000000000000000815260040160405180910390fd5b60008160c0019015159081151581525050878160a001818152505033816000019073ffffffffffffffffffffffffffffffffffffffff16908173ffffffffffffffffffffffffffffffffffffffff168152505030816020019073ffffffffffffffffffffffffffffffffffffffff16908173ffffffffffffffffffffffffffffffffffffffff168152505061089d60026125ec565b806040015173ffffffffffffffffffffffffffffffffffffffff166323b872dd333084608001516040518463ffffffff1660e01b81526004016108e293929190612d49565b600060405180830381600087803b1580156108fc57600080fd5b505af1158015610910573d6000803e3d6000fd5b5050505080608001518a73ffffffffffffffffffffffffffffffffffffffff168a7fafa745cefe48ad6b09a475b39a7d7de6bc0ce4362170361986a04d2e7ede043933308d60006040516109679493929190612da1565b60405180910390a4505060016000819055505050505050505050565b60018060000154905081565b6060600061099d6001612648565b905060008060005b83811015610a83573373ffffffffffffffffffffffffffffffffffffffff16600360008873ffffffffffffffffffffffffffffffffffffffff1673ffffffffffffffffffffffffffffffffffffffff1681526020019081526020016000206000600184610a129190612e15565b815260200190815260200160002060000160009054906101000a900473ffffffffffffffffffffffffffffffffffffffff1673ffffffffffffffffffffffffffffffffffffffff161415610a7057600183610a6d9190612e15565b92505b8080610a7b90612e6b565b9150506109a5565b5060008267ffffffffffffffff811115610aa057610a9f612eb4565b5b604051908082528060200260200182016040528015610ad957816020015b610ac661266c565b815260200190600190039081610abe5790505b50905060005b84811015610d89573373ffffffffffffffffffffffffffffffffffffffff16600360008973ffffffffffffffffffffffffffffffffffffffff1673ffffffffffffffffffffffffffffffffffffffff1681526020019081526020016000206000600184610b4c9190612e15565b815260200190815260200160002060000160009054906101000a900473ffffffffffffffffffffffffffffffffffffffff1673ffffffffffffffffffffffffffffffffffffffff161415610d76576000600182610ba99190612e15565b90506000600360008a73ffffffffffffffffffffffffffffffffffffffff1673ffffffffffffffffffffffffffffffffffffffff16815260200190815260200160002060008381526020019081526020016000209050806040518060e00160405290816000820160009054906101000a900473ffffffffffffffffffffffffffffffffffffffff1673ffffffffffffffffffffffffffffffffffffffff1673ffffffffffffffffffffffffffffffffffffffff1681526020016001820160009054906101000a900473ffffffffffffffffffffffffffffffffffffffff1673ffffffffffffffffffffffffffffffffffffffff1673ffffffffffffffffffffffffffffffffffffffff1681526020016002820160009054906101000a900473ffffffffffffffffffffffffffffffffffffffff1673ffffffffffffffffffffffffffffffffffffffff1673ffffffffffffffffffffffffffffffffffffffff1681526020016003820154815260200160048201548152602001600582015481526020016006820160009054906101000a900460ff161515151581525050848681518110610d5957610d58612ee3565b5b6020026020010181905250600185610d719190612e15565b945050505b8080610d8190612e6b565b915050610adf565b5080945050505050919050565b8282336000600360008573ffffffffffffffffffffffffffffffffffffffff1673ffffffffffffffffffffffffffffffffffffffff16815260200190815260200160002060008481526020019081526020016000206040518060e00160405290816000820160009054906101000a900473ffffffffffffffffffffffffffffffffffffffff1673ffffffffffffffffffffffffffffffffffffffff1673ffffffffffffffffffffffffffffffffffffffff1681526020016001820160009054906101000a900473ffffffffffffffffffffffffffffffffffffffff1673ffffffffffffffffffffffffffffffffffffffff1673ffffffffffffffffffffffffffffffffffffffff1681526020016002820160009054906101000a900473ffffffffffffffffffffffffffffffffffffffff1673ffffffffffffffffffffffffffffffffffffffff1673ffffffffffffffffffffffffffffffffffffffff1681526020016003820154815260200160048201548152602001600582015481526020016006820160009054906101000a900460ff161515151581525050905060008160a001511115610f7f5783836040517f4a5568d5000000000000000000000000000000000000000000000000000000008152600401610f76929190612f12565b60405180910390fd5b60026000541415610fc5576040517f08c379a0000000000000000000000000000000000000000000000000000000008152600401610fbc90612d1a565b60405180910390fd5b600260008190555060008511611016578686866040517f7c93456500000000000000000000000000000000000000000000000000000000815260040161100d93929190612f3b565b60405180910390fd5b6110206001612656565b600061102c6001612648565b905061103a88888389611136565b8773ffffffffffffffffffffffffffffffffffffffff166323b872dd33308a6040518463ffffffff1660e01b815260040161107793929190612d49565b600060405180830381600087803b15801561109157600080fd5b505af11580156110a5573d6000803e3d6000fd5b50505050868873ffffffffffffffffffffffffffffffffffffffff16827ff9b8a81a1bb3e12b4a9b295ae3f1d8b0255537c0feaafc43705b6954b5822d5c33308b60006040516110f89493929190612da1565b60405180910390a450600160008190555050505050505050565b7f000000000000000000000000000000000000000000000000000000000000000081565b8373ffffffffffffffffffffffffffffffffffffffff166301ffc9a76380ac58cd60e01b6040518263ffffffff1660e01b81526004016111769190612fad565b602060405180830381865afa158015611193573d6000803e3d6000fd5b505050506040513d601f19601f820116820180604052508101906111b79190612ff4565b156113575760008490503373ffffffffffffffffffffffffffffffffffffffff168173ffffffffffffffffffffffffffffffffffffffff16636352211e866040518263ffffffff1660e01b81526004016112119190612970565b602060405180830381865afa15801561122e573d6000803e3d6000fd5b505050506040513d601f19601f820116820180604052508101906112529190612c90565b73ffffffffffffffffffffffffffffffffffffffff161461129f576040517f30cd747100000000000000000000000000000000000000000000000000000000815260040160405180910390fd5b8073ffffffffffffffffffffffffffffffffffffffff1663e985e9c533306040518363ffffffff1660e01b81526004016112da929190613021565b602060405180830381865afa1580156112f7573d6000803e3d6000fd5b505050506040513d601f19601f8201168201806040525081019061131b9190612ff4565b611351576040517fc278fc7000000000000000000000000000000000000000000000000000000000815260040160405180910390fd5b50611389565b6040517f41b7742500000000000000000000000000000000000000000000000000000000815260040160405180910390fd5b6040518060e001604052803373ffffffffffffffffffffffffffffffffffffffff168152602001600073ffffffffffffffffffffffffffffffffffffffff1681526020018573ffffffffffffffffffffffffffffffffffffffff16815260200183815260200184815260200182815260200160001515815250600360008673ffffffffffffffffffffffffffffffffffffffff1673ffffffffffffffffffffffffffffffffffffffff168152602001908152602001600020600084815260200190815260200160002060008201518160000160006101000a81548173ffffffffffffffffffffffffffffffffffffffff021916908373ffffffffffffffffffffffffffffffffffffffff16021790555060208201518160010160006101000a81548173ffffffffffffffffffffffffffffffffffffffff021916908373ffffffffffffffffffffffffffffffffffffffff16021790555060408201518160020160006101000a81548173ffffffffffffffffffffffffffffffffffffffff021916908373ffffffffffffffffffffffffffffffffffffffff160217905550606082015181600301556080820151816004015560a0820151816005015560c08201518160060160006101000a81548160ff02191690831515021790555090505050505050565b6000600360008473ffffffffffffffffffffffffffffffffffffffff1673ffffffffffffffffffffffffffffffffffffffff168152602001908152602001600020600083815260200190815260200160002060050154905092915050565b606060006115da6001612648565b905060006115e86002612648565b6115f26001612648565b6115fc919061304a565b90506000808267ffffffffffffffff81111561161b5761161a612eb4565b5b60405190808252806020026020018201604052801561165457816020015b61164161266c565b8152602001906001900390816116395790505b50905060005b84811015611904573073ffffffffffffffffffffffffffffffffffffffff16600360008973ffffffffffffffffffffffffffffffffffffffff1673ffffffffffffffffffffffffffffffffffffffff16815260200190815260200160002060006001846116c79190612e15565b815260200190815260200160002060000160009054906101000a900473ffffffffffffffffffffffffffffffffffffffff1673ffffffffffffffffffffffffffffffffffffffff1614156118f15760006001826117249190612e15565b90506000600360008a73ffffffffffffffffffffffffffffffffffffffff1673ffffffffffffffffffffffffffffffffffffffff16815260200190815260200160002060008381526020019081526020016000209050806040518060e00160405290816000820160009054906101000a900473ffffffffffffffffffffffffffffffffffffffff1673ffffffffffffffffffffffffffffffffffffffff1673ffffffffffffffffffffffffffffffffffffffff1681526020016001820160009054906101000a900473ffffffffffffffffffffffffffffffffffffffff1673ffffffffffffffffffffffffffffffffffffffff1673ffffffffffffffffffffffffffffffffffffffff1681526020016002820160009054906101000a900473ffffffffffffffffffffffffffffffffffffffff1673ffffffffffffffffffffffffffffffffffffffff1673ffffffffffffffffffffffffffffffffffffffff1681526020016003820154815260200160048201548152602001600582015481526020016006820160009054906101000a900460ff1615151515815250508483815181106118d4576118d3612ee3565b5b60200260200101819052506001856118ec9190612e15565b945050505b80806118fc90612e6b565b91505061165a565b5080945050505050919050565b7f000000000000000000000000000000000000000000000000000000000000000081565b6004602052816000526040600020602052806000526040600020600091509150508060000160009054906101000a900473ffffffffffffffffffffffffffffffffffffffff16908060010154908060020154908060030154905084565b7f000000000000000000000000000000000000000000000000000000000000000081565b81816000600360008473ffffffffffffffffffffffffffffffffffffffff1673ffffffffffffffffffffffffffffffffffffffff16815260200190815260200160002060008381526020019081526020016000206040518060e00160405290816000820160009054906101000a900473ffffffffffffffffffffffffffffffffffffffff1673ffffffffffffffffffffffffffffffffffffffff1673ffffffffffffffffffffffffffffffffffffffff1681526020016001820160009054906101000a900473ffffffffffffffffffffffffffffffffffffffff1673ffffffffffffffffffffffffffffffffffffffff1673ffffffffffffffffffffffffffffffffffffffff1681526020016002820160009054906101000a900473ffffffffffffffffffffffffffffffffffffffff1673ffffffffffffffffffffffffffffffffffffffff1673ffffffffffffffffffffffffffffffffffffffff1681526020016003820154815260200160048201548152602001600582015481526020016006820160009054906101000a900460ff161515151581525050905060008160a0015111611b9d5782826040517f6831488c000000000000000000000000000000000000000000000000000000008152600401611b94929190612f12565b60405180910390fd5b60026000541415611be3576040517f08c379a0000000000000000000000000000000000000000000000000000000008152600401611bda90612d1a565b60405180910390fd5b60026000819055506000611bf78686612144565b90506000600360008873ffffffffffffffffffffffffffffffffffffffff1673ffffffffffffffffffffffffffffffffffffffff16815260200190815260200160002060008781526020019081526020016000206040518060e00160405290816000820160009054906101000a900473ffffffffffffffffffffffffffffffffffffffff1673ffffffffffffffffffffffffffffffffffffffff1673ffffffffffffffffffffffffffffffffffffffff1681526020016001820160009054906101000a900473ffffffffffffffffffffffffffffffffffffffff1673ffffffffffffffffffffffffffffffffffffffff1673ffffffffffffffffffffffffffffffffffffffff1681526020016002820160009054906101000a900473ffffffffffffffffffffffffffffffffffffffff1673ffffffffffffffffffffffffffffffffffffffff1673ffffffffffffffffffffffffffffffffffffffff1681526020016003820154815260200160048201548152602001600582015481526020016006820160009054906101000a900460ff161515151581525050905060008160a00151905060008184611daa919061304a565b905060008360000151905060008911158015611dce5750611dcb6001612648565b89115b15611e05576040517f6b559eca00000000000000000000000000000000000000000000000000000000815260040160405180910390fd5b84341015611e4e578989866040517f7c934565000000000000000000000000000000000000000000000000000000008152600401611e4593929190612f3b565b60405180910390fd5b8360c0015115611e8a576040517fdf28fd7b00000000000000000000000000000000000000000000000000000000815260040160405180910390fd5b33846020019073ffffffffffffffffffffffffffffffffffffffff16908173ffffffffffffffffffffffffffffffffffffffff168152505060018460c001901515908115158152505060009050611ee16002612656565b836040015173ffffffffffffffffffffffffffffffffffffffff166342842e0e303387608001516040518463ffffffff1660e01b8152600401611f2693929190612d49565b600060405180830381600087803b158015611f4057600080fd5b505af1158015611f54573d6000803e3d6000fd5b5050505060008173ffffffffffffffffffffffffffffffffffffffff1684604051611f7e906130af565b60006040518083038185875af1925050503d8060008114611fbb576040519150601f19603f3d011682016040523d82523d6000602084013e611fc0565b606091505b5050905080611ffb576040517f90b8ec1800000000000000000000000000000000000000000000000000000000815260040160405180910390fd5b60007f000000000000000000000000000000000000000000000000000000000000000073ffffffffffffffffffffffffffffffffffffffff1684604051612041906130af565b60006040518083038185875af1925050503d806000811461207e576040519150601f19603f3d011682016040523d82523d6000602084013e612083565b606091505b50509050806120be576040517f90b8ec1800000000000000000000000000000000000000000000000000000000815260040160405180910390fd5b3373ffffffffffffffffffffffffffffffffffffffff168373ffffffffffffffffffffffffffffffffffffffff167fa04e7eb58a38f1a24b925e33e5f9fbcba1d38824663865056a23ce8665108c5488608001518e89600160405161212694939291906130c4565b60405180910390a35050505050505060016000819055505050505050565b600060647f000000000000000000000000000000000000000000000000000000000000000060646121759190612e15565b600360008673ffffffffffffffffffffffffffffffffffffffff1673ffffffffffffffffffffffffffffffffffffffff1681526020019081526020016000206000858152602001908152602001600020600501546121d39190613109565b6121dd9190613192565b905092915050565b606060006121f36001612648565b905060008060005b838110156122d9573373ffffffffffffffffffffffffffffffffffffffff16600360008873ffffffffffffffffffffffffffffffffffffffff1673ffffffffffffffffffffffffffffffffffffffff16815260200190815260200160002060006001846122689190612e15565b815260200190815260200160002060000160009054906101000a900473ffffffffffffffffffffffffffffffffffffffff1673ffffffffffffffffffffffffffffffffffffffff1614156122c6576001836122c39190612e15565b92505b80806122d190612e6b565b9150506121fb565b5060008267ffffffffffffffff8111156122f6576122f5612eb4565b5b60405190808252806020026020018201604052801561232f57816020015b61231c61266c565b8152602001906001900390816123145790505b50905060005b848110156125df573373ffffffffffffffffffffffffffffffffffffffff16600360008973ffffffffffffffffffffffffffffffffffffffff1673ffffffffffffffffffffffffffffffffffffffff16815260200190815260200160002060006001846123a29190612e15565b815260200190815260200160002060000160009054906101000a900473ffffffffffffffffffffffffffffffffffffffff1673ffffffffffffffffffffffffffffffffffffffff1614156125cc5760006001826123ff9190612e15565b90506000600360008a73ffffffffffffffffffffffffffffffffffffffff1673ffffffffffffffffffffffffffffffffffffffff16815260200190815260200160002060008381526020019081526020016000209050806040518060e00160405290816000820160009054906101000a900473ffffffffffffffffffffffffffffffffffffffff1673ffffffffffffffffffffffffffffffffffffffff1673ffffffffffffffffffffffffffffffffffffffff1681526020016001820160009054906101000a900473ffffffffffffffffffffffffffffffffffffffff1673ffffffffffffffffffffffffffffffffffffffff1673ffffffffffffffffffffffffffffffffffffffff1681526020016002820160009054906101000a900473ffffffffffffffffffffffffffffffffffffffff1673ffffffffffffffffffffffffffffffffffffffff1673ffffffffffffffffffffffffffffffffffffffff1681526020016003820154815260200160048201548152602001600582015481526020016006820160009054906101000a900460ff1615151515815250508486815181106125af576125ae612ee3565b5b60200260200101819052506001856125c79190612e15565b945050505b80806125d790612e6b565b915050612335565b5080945050505050919050565b60008160000154905060008111612638576040517f08c379a000000000000000000000000000000000000000000000000000000000815260040161262f9061320f565b60405180910390fd5b6001810382600001819055505050565b600081600001549050919050565b6001816000016000828254019250508190555050565b6040518060e00160405280600073ffffffffffffffffffffffffffffffffffffffff168152602001600073ffffffffffffffffffffffffffffffffffffffff168152602001600073ffffffffffffffffffffffffffffffffffffffff1681526020016000815260200160008152602001600081526020016000151581525090565b600080fd5b600073ffffffffffffffffffffffffffffffffffffffff82169050919050565b600061271d826126f2565b9050919050565b61272d81612712565b811461273857600080fd5b50565b60008135905061274a81612724565b92915050565b6000819050919050565b61276381612750565b811461276e57600080fd5b50565b6000813590506127808161275a565b92915050565b6000806040838503121561279d5761279c6126ed565b5b60006127ab8582860161273b565b92505060206127bc85828601612771565b9150509250929050565b60006127d1826126f2565b9050919050565b6127e1816127c6565b82525050565b6000819050919050565b600061280c612807612802846126f2565b6127e7565b6126f2565b9050919050565b600061281e826127f1565b9050919050565b600061283082612813565b9050919050565b61284081612825565b82525050565b61284f81612750565b82525050565b60008115159050919050565b61286a81612855565b82525050565b600060e082019050612885600083018a6127d8565b61289260208301896127d8565b61289f6040830188612837565b6128ac6060830187612846565b6128b96080830186612846565b6128c660a0830185612846565b6128d360c0830184612861565b98975050505050505050565b60006128ea82612712565b9050919050565b6128fa816128df565b811461290557600080fd5b50565b600081359050612917816128f1565b92915050565b600080600060608486031215612936576129356126ed565b5b600061294486828701612908565b935050602061295586828701612771565b925050604061296686828701612771565b9150509250925092565b60006020820190506129856000830184612846565b92915050565b6000602082840312156129a1576129a06126ed565b5b60006129af8482850161273b565b91505092915050565b600081519050919050565b600082825260208201905092915050565b6000819050602082019050919050565b6129ed816127c6565b82525050565b6129fc81612825565b82525050565b612a0b81612750565b82525050565b612a1a81612855565b82525050565b60e082016000820151612a3660008501826129e4565b506020820151612a4960208501826129e4565b506040820151612a5c60408501826129f3565b506060820151612a6f6060850182612a02565b506080820151612a826080850182612a02565b5060a0820151612a9560a0850182612a02565b5060c0820151612aa860c0850182612a11565b50505050565b6000612aba8383612a20565b60e08301905092915050565b6000602082019050919050565b6000612ade826129b8565b612ae881856129c3565b9350612af3836129d4565b8060005b83811015612b24578151612b0b8882612aae565b9750612b1683612ac6565b925050600181019050612af7565b5085935050505092915050565b60006020820190508181036000830152612b4b8184612ad3565b905092915050565b60008060008060808587031215612b6d57612b6c6126ed565b5b6000612b7b8782880161273b565b9450506020612b8c87828801612771565b9350506040612b9d87828801612771565b9250506060612bae87828801612771565b91505092959194509250565b6000602082019050612bcf60008301846127d8565b92915050565b6000612be082612813565b9050919050565b612bf081612bd5565b82525050565b6000608082019050612c0b6000830187612be7565b612c186020830186612846565b612c256040830185612846565b612c326060830184612846565b95945050505050565b60008060408385031215612c5257612c516126ed565b5b6000612c6085828601612908565b9250506020612c7185828601612771565b9150509250929050565b600081519050612c8a81612724565b92915050565b600060208284031215612ca657612ca56126ed565b5b6000612cb484828501612c7b565b91505092915050565b600082825260208201905092915050565b7f5265656e7472616e637947756172643a207265656e7472616e742063616c6c00600082015250565b6000612d04601f83612cbd565b9150612d0f82612cce565b602082019050919050565b60006020820190508181036000830152612d3381612cf7565b9050919050565b612d4381612712565b82525050565b6000606082019050612d5e6000830186612d3a565b612d6b6020830185612d3a565b612d786040830184612846565b949350505050565b6000612d8b82612813565b9050919050565b612d9b81612d80565b82525050565b6000608082019050612db66000830187612d92565b612dc36020830186612d92565b612dd06040830185612846565b612ddd6060830184612861565b95945050505050565b7f4e487b7100000000000000000000000000000000000000000000000000000000600052601160045260246000fd5b6000612e2082612750565b9150612e2b83612750565b9250827fffffffffffffffffffffffffffffffffffffffffffffffffffffffffffffffff03821115612e6057612e5f612de6565b5b828201905092915050565b6000612e7682612750565b91507fffffffffffffffffffffffffffffffffffffffffffffffffffffffffffffffff821415612ea957612ea8612de6565b5b600182019050919050565b7f4e487b7100000000000000000000000000000000000000000000000000000000600052604160045260246000fd5b7f4e487b7100000000000000000000000000000000000000000000000000000000600052603260045260246000fd5b6000604082019050612f276000830185612d3a565b612f346020830184612846565b9392505050565b6000606082019050612f506000830186612d3a565b612f5d6020830185612846565b612f6a6040830184612846565b949350505050565b60007fffffffff0000000000000000000000000000000000000000000000000000000082169050919050565b612fa781612f72565b82525050565b6000602082019050612fc26000830184612f9e565b92915050565b612fd181612855565b8114612fdc57600080fd5b50565b600081519050612fee81612fc8565b92915050565b60006020828403121561300a576130096126ed565b5b600061301884828501612fdf565b91505092915050565b60006040820190506130366000830185612d3a565b6130436020830184612d3a565b9392505050565b600061305582612750565b915061306083612750565b92508282101561307357613072612de6565b5b828203905092915050565b600081905092915050565b50565b600061309960008361307e565b91506130a482613089565b600082019050919050565b60006130ba8261308c565b9150819050919050565b60006080820190506130d96000830187612846565b6130e66020830186612846565b6130f36040830185612846565b6131006060830184612861565b95945050505050565b600061311482612750565b915061311f83612750565b9250817fffffffffffffffffffffffffffffffffffffffffffffffffffffffffffffffff048311821515161561315857613157612de6565b5b828202905092915050565b7f4e487b7100000000000000000000000000000000000000000000000000000000600052601260045260246000fd5b600061319d82612750565b91506131a883612750565b9250826131b8576131b7613163565b5b828204905092915050565b7f436f756e7465723a2064656372656d656e74206f766572666c6f770000000000600082015250565b60006131f9601b83612cbd565b9150613204826131c3565b602082019050919050565b60006020820190508181036000830152613228816131ec565b905091905056fea2646970667358221220de604203c5b7180dbd237f3cf413edf0275f2af74a192e15315bb3e14f275dd164736f6c634300080c0033",
  "linkReferences": {},
  "deployedLinkReferences": {}
}