{"contracts/PriceFeed/PriceConverter.sol":{"PriceConverter":{"abi":[{"inputs":[{"internalType":"address","name":"_base","type":"address"},{"internalType":"address","name":"_quote","type":"address"},{"internalType":"uint8","name":"_decimals","type":"uint8"}],"name":"getDerivedPrice","outputs":[{"internalType":"int256","name":"","type":"int256"}],"stateMutability":"view","type":"function"}],"evm":{"bytecode":{"linkReferences":{},"object":"608060405234801561001057600080fd5b50610630806100206000396000f3fe608060405234801561001057600080fd5b506004361061002b5760003560e01c80639743665514610030575b600080fd5b61004361003e366004610340565b610055565b60405190815260200160405180910390f35b600060ff82161580159061006d5750601260ff831611155b6100b15760405162461bcd60e51b8152602060048201526011602482015270496e76616c6964205f646563696d616c7360781b604482015260640160405180910390fd5b60006100c160ff8416600a610483565b90506000856001600160a01b031663feaf968c6040518163ffffffff1660e01b815260040160a060405180830381865afa158015610103573d6000803e3d6000fd5b505050506040513d601f19601f8201168201806040525081019061012791906104a9565b5050509150506000866001600160a01b031663313ce5676040518163ffffffff1660e01b8152600401602060405180830381865afa15801561016d573d6000803e3d6000fd5b505050506040513d601f19601f8201168201806040525081019061019191906104f9565b905061019e8282876102a1565b91506000866001600160a01b031663feaf968c6040518163ffffffff1660e01b815260040160a060405180830381865afa1580156101e0573d6000803e3d6000fd5b505050506040513d601f19601f8201168201806040525081019061020491906104a9565b5050509150506000876001600160a01b031663313ce5676040518163ffffffff1660e01b8152600401602060405180830381865afa15801561024a573d6000803e3d6000fd5b505050506040513d601f19601f8201168201806040525081019061026e91906104f9565b905061027b8282896102a1565b9150816102888686610516565b610292919061059b565b955050505050505b9392505050565b60008160ff168360ff1610156102da576102bb83836105d7565b6102c99060ff16600a610483565b6102d39085610516565b905061029a565b8160ff168360ff16111561030a576102f282846105d7565b6103009060ff16600a610483565b6102d3908561059b565b509192915050565b80356001600160a01b038116811461032957600080fd5b919050565b60ff8116811461033d57600080fd5b50565b60008060006060848603121561035557600080fd5b61035e84610312565b925061036c60208501610312565b9150604084013561037c8161032e565b809150509250925092565b634e487b7160e01b600052601160045260246000fd5b600181815b808511156103d85781600019048211156103be576103be610387565b808516156103cb57918102915b93841c93908002906103a2565b509250929050565b6000826103ef5750600161047d565b816103fc5750600061047d565b8160018114610412576002811461041c57610438565b600191505061047d565b60ff84111561042d5761042d610387565b50506001821b61047d565b5060208310610133831016604e8410600b841016171561045b575081810a61047d565b610465838361039d565b806000190482111561047957610479610387565b0290505b92915050565b600061029a83836103e0565b805169ffffffffffffffffffff8116811461032957600080fd5b600080600080600060a086880312156104c157600080fd5b6104ca8661048f565b94506020860151935060408601519250606086015191506104ed6080870161048f565b90509295509295909350565b60006020828403121561050b57600080fd5b815161029a8161032e565b60006001600160ff1b038184138284138082168684048611161561053c5761053c610387565b600160ff1b600087128281168783058912161561055b5761055b610387565b6000871292508782058712848416161561057757610577610387565b8785058712818416161561058d5761058d610387565b505050929093029392505050565b6000826105b857634e487b7160e01b600052601260045260246000fd5b600160ff1b8214600019841416156105d2576105d2610387565b500590565b600060ff821660ff8416808210156105f1576105f1610387565b9003939250505056fea2646970667358221220d0f1785b79a88835b0bdab47ba4c7d1c8b6d2b5f8792fa20e20079f65584ec3c64736f6c634300080c0033","opcodes":"PUSH1 0x80 PUSH1 0x40 MSTORE CALLVALUE DUP1 ISZERO PUSH2 0x10 JUMPI PUSH1 0x0 DUP1 REVERT JUMPDEST POP PUSH2 0x630 DUP1 PUSH2 0x20 PUSH1 0x0 CODECOPY PUSH1 0x0 RETURN INVALID PUSH1 0x80 PUSH1 0x40 MSTORE CALLVALUE DUP1 ISZERO PUSH2 0x10 JUMPI PUSH1 0x0 DUP1 REVERT JUMPDEST POP PUSH1 0x4 CALLDATASIZE LT PUSH2 0x2B JUMPI PUSH1 0x0 CALLDATALOAD PUSH1 0xE0 SHR DUP1 PUSH4 0x97436655 EQ PUSH2 0x30 JUMPI JUMPDEST PUSH1 0x0 DUP1 REVERT JUMPDEST PUSH2 0x43 PUSH2 0x3E CALLDATASIZE PUSH1 0x4 PUSH2 0x340 JUMP JUMPDEST PUSH2 0x55 JUMP JUMPDEST PUSH1 0x40 MLOAD SWAP1 DUP2 MSTORE PUSH1 0x20 ADD PUSH1 0x40 MLOAD DUP1 SWAP2 SUB SWAP1 RETURN JUMPDEST PUSH1 0x0 PUSH1 0xFF DUP3 AND ISZERO DUP1 ISZERO SWAP1 PUSH2 0x6D JUMPI POP PUSH1 0x12 PUSH1 0xFF DUP4 AND GT ISZERO JUMPDEST PUSH2 0xB1 JUMPI PUSH1 0x40 MLOAD PUSH3 0x461BCD PUSH1 0xE5 SHL DUP2 MSTORE PUSH1 0x20 PUSH1 0x4 DUP3 ADD MSTORE PUSH1 0x11 PUSH1 0x24 DUP3 ADD MSTORE PUSH17 0x496E76616C6964205F646563696D616C73 PUSH1 0x78 SHL PUSH1 0x44 DUP3 ADD MSTORE PUSH1 0x64 ADD PUSH1 0x40 MLOAD DUP1 SWAP2 SUB SWAP1 REVERT JUMPDEST PUSH1 0x0 PUSH2 0xC1 PUSH1 0xFF DUP5 AND PUSH1 0xA PUSH2 0x483 JUMP JUMPDEST SWAP1 POP PUSH1 0x0 DUP6 PUSH1 0x1 PUSH1 0x1 PUSH1 0xA0 SHL SUB AND PUSH4 0xFEAF968C PUSH1 0x40 MLOAD DUP2 PUSH4 0xFFFFFFFF AND PUSH1 0xE0 SHL DUP2 MSTORE PUSH1 0x4 ADD PUSH1 0xA0 PUSH1 0x40 MLOAD DUP1 DUP4 SUB DUP2 DUP7 GAS STATICCALL ISZERO DUP1 ISZERO PUSH2 0x103 JUMPI RETURNDATASIZE PUSH1 0x0 DUP1 RETURNDATACOPY RETURNDATASIZE PUSH1 0x0 REVERT JUMPDEST POP POP POP POP PUSH1 0x40 MLOAD RETURNDATASIZE PUSH1 0x1F NOT PUSH1 0x1F DUP3 ADD AND DUP3 ADD DUP1 PUSH1 0x40 MSTORE POP DUP2 ADD SWAP1 PUSH2 0x127 SWAP2 SWAP1 PUSH2 0x4A9 JUMP JUMPDEST POP POP POP SWAP2 POP POP PUSH1 0x0 DUP7 PUSH1 0x1 PUSH1 0x1 PUSH1 0xA0 SHL SUB AND PUSH4 0x313CE567 PUSH1 0x40 MLOAD DUP2 PUSH4 0xFFFFFFFF AND PUSH1 0xE0 SHL DUP2 MSTORE PUSH1 0x4 ADD PUSH1 0x20 PUSH1 0x40 MLOAD DUP1 DUP4 SUB DUP2 DUP7 GAS STATICCALL ISZERO DUP1 ISZERO PUSH2 0x16D JUMPI RETURNDATASIZE PUSH1 0x0 DUP1 RETURNDATACOPY RETURNDATASIZE PUSH1 0x0 REVERT JUMPDEST POP POP POP POP PUSH1 0x40 MLOAD RETURNDATASIZE PUSH1 0x1F NOT PUSH1 0x1F DUP3 ADD AND DUP3 ADD DUP1 PUSH1 0x40 MSTORE POP DUP2 ADD SWAP1 PUSH2 0x191 SWAP2 SWAP1 PUSH2 0x4F9 JUMP JUMPDEST SWAP1 POP PUSH2 0x19E DUP3 DUP3 DUP8 PUSH2 0x2A1 JUMP JUMPDEST SWAP2 POP PUSH1 0x0 DUP7 PUSH1 0x1 PUSH1 0x1 PUSH1 0xA0 SHL SUB AND PUSH4 0xFEAF968C PUSH1 0x40 MLOAD DUP2 PUSH4 0xFFFFFFFF AND PUSH1 0xE0 SHL DUP2 MSTORE PUSH1 0x4 ADD PUSH1 0xA0 PUSH1 0x40 MLOAD DUP1 DUP4 SUB DUP2 DUP7 GAS STATICCALL ISZERO DUP1 ISZERO PUSH2 0x1E0 JUMPI RETURNDATASIZE PUSH1 0x0 DUP1 RETURNDATACOPY RETURNDATASIZE PUSH1 0x0 REVERT JUMPDEST POP POP POP POP PUSH1 0x40 MLOAD RETURNDATASIZE PUSH1 0x1F NOT PUSH1 0x1F DUP3 ADD AND DUP3 ADD DUP1 PUSH1 0x40 MSTORE POP DUP2 ADD SWAP1 PUSH2 0x204 SWAP2 SWAP1 PUSH2 0x4A9 JUMP JUMPDEST POP POP POP SWAP2 POP POP PUSH1 0x0 DUP8 PUSH1 0x1 PUSH1 0x1 PUSH1 0xA0 SHL SUB AND PUSH4 0x313CE567 PUSH1 0x40 MLOAD DUP2 PUSH4 0xFFFFFFFF AND PUSH1 0xE0 SHL DUP2 MSTORE PUSH1 0x4 ADD PUSH1 0x20 PUSH1 0x40 MLOAD DUP1 DUP4 SUB DUP2 DUP7 GAS STATICCALL ISZERO DUP1 ISZERO PUSH2 0x24A JUMPI RETURNDATASIZE PUSH1 0x0 DUP1 RETURNDATACOPY RETURNDATASIZE PUSH1 0x0 REVERT JUMPDEST POP POP POP POP PUSH1 0x40 MLOAD RETURNDATASIZE PUSH1 0x1F NOT PUSH1 0x1F DUP3 ADD AND DUP3 ADD DUP1 PUSH1 0x40 MSTORE POP DUP2 ADD SWAP1 PUSH2 0x26E SWAP2 SWAP1 PUSH2 0x4F9 JUMP JUMPDEST SWAP1 POP PUSH2 0x27B DUP3 DUP3 DUP10 PUSH2 0x2A1 JUMP JUMPDEST SWAP2 POP DUP2 PUSH2 0x288 DUP7 DUP7 PUSH2 0x516 JUMP JUMPDEST PUSH2 0x292 SWAP2 SWAP1 PUSH2 0x59B JUMP JUMPDEST SWAP6 POP POP POP POP POP POP JUMPDEST SWAP4 SWAP3 POP POP POP JUMP JUMPDEST PUSH1 0x0 DUP2 PUSH1 0xFF AND DUP4 PUSH1 0xFF AND LT ISZERO PUSH2 0x2DA JUMPI PUSH2 0x2BB DUP4 DUP4 PUSH2 0x5D7 JUMP JUMPDEST PUSH2 0x2C9 SWAP1 PUSH1 0xFF AND PUSH1 0xA PUSH2 0x483 JUMP JUMPDEST PUSH2 0x2D3 SWAP1 DUP6 PUSH2 0x516 JUMP JUMPDEST SWAP1 POP PUSH2 0x29A JUMP JUMPDEST DUP2 PUSH1 0xFF AND DUP4 PUSH1 0xFF AND GT ISZERO PUSH2 0x30A JUMPI PUSH2 0x2F2 DUP3 DUP5 PUSH2 0x5D7 JUMP JUMPDEST PUSH2 0x300 SWAP1 PUSH1 0xFF AND PUSH1 0xA PUSH2 0x483 JUMP JUMPDEST PUSH2 0x2D3 SWAP1 DUP6 PUSH2 0x59B JUMP JUMPDEST POP SWAP2 SWAP3 SWAP2 POP POP JUMP JUMPDEST DUP1 CALLDATALOAD PUSH1 0x1 PUSH1 0x1 PUSH1 0xA0 SHL SUB DUP2 AND DUP2 EQ PUSH2 0x329 JUMPI PUSH1 0x0 DUP1 REVERT JUMPDEST SWAP2 SWAP1 POP JUMP JUMPDEST PUSH1 0xFF DUP2 AND DUP2 EQ PUSH2 0x33D JUMPI PUSH1 0x0 DUP1 REVERT JUMPDEST POP JUMP JUMPDEST PUSH1 0x0 DUP1 PUSH1 0x0 PUSH1 0x60 DUP5 DUP7 SUB SLT ISZERO PUSH2 0x355 JUMPI PUSH1 0x0 DUP1 REVERT JUMPDEST PUSH2 0x35E DUP5 PUSH2 0x312 JUMP JUMPDEST SWAP3 POP PUSH2 0x36C PUSH1 0x20 DUP6 ADD PUSH2 0x312 JUMP JUMPDEST SWAP2 POP PUSH1 0x40 DUP5 ADD CALLDATALOAD PUSH2 0x37C DUP2 PUSH2 0x32E JUMP JUMPDEST DUP1 SWAP2 POP POP SWAP3 POP SWAP3 POP SWAP3 JUMP JUMPDEST PUSH4 0x4E487B71 PUSH1 0xE0 SHL PUSH1 0x0 MSTORE PUSH1 0x11 PUSH1 0x4 MSTORE PUSH1 0x24 PUSH1 0x0 REVERT JUMPDEST PUSH1 0x1 DUP2 DUP2 JUMPDEST DUP1 DUP6 GT ISZERO PUSH2 0x3D8 JUMPI DUP2 PUSH1 0x0 NOT DIV DUP3 GT ISZERO PUSH2 0x3BE JUMPI PUSH2 0x3BE PUSH2 0x387 JUMP JUMPDEST DUP1 DUP6 AND ISZERO PUSH2 0x3CB JUMPI SWAP2 DUP2 MUL SWAP2 JUMPDEST SWAP4 DUP5 SHR SWAP4 SWAP1 DUP1 MUL SWAP1 PUSH2 0x3A2 JUMP JUMPDEST POP SWAP3 POP SWAP3 SWAP1 POP JUMP JUMPDEST PUSH1 0x0 DUP3 PUSH2 0x3EF JUMPI POP PUSH1 0x1 PUSH2 0x47D JUMP JUMPDEST DUP2 PUSH2 0x3FC JUMPI POP PUSH1 0x0 PUSH2 0x47D JUMP JUMPDEST DUP2 PUSH1 0x1 DUP2 EQ PUSH2 0x412 JUMPI PUSH1 0x2 DUP2 EQ PUSH2 0x41C JUMPI PUSH2 0x438 JUMP JUMPDEST PUSH1 0x1 SWAP2 POP POP PUSH2 0x47D JUMP JUMPDEST PUSH1 0xFF DUP5 GT ISZERO PUSH2 0x42D JUMPI PUSH2 0x42D PUSH2 0x387 JUMP JUMPDEST POP POP PUSH1 0x1 DUP3 SHL PUSH2 0x47D JUMP JUMPDEST POP PUSH1 0x20 DUP4 LT PUSH2 0x133 DUP4 LT AND PUSH1 0x4E DUP5 LT PUSH1 0xB DUP5 LT AND OR ISZERO PUSH2 0x45B JUMPI POP DUP2 DUP2 EXP PUSH2 0x47D JUMP JUMPDEST PUSH2 0x465 DUP4 DUP4 PUSH2 0x39D JUMP JUMPDEST DUP1 PUSH1 0x0 NOT DIV DUP3 GT ISZERO PUSH2 0x479 JUMPI PUSH2 0x479 PUSH2 0x387 JUMP JUMPDEST MUL SWAP1 POP JUMPDEST SWAP3 SWAP2 POP POP JUMP JUMPDEST PUSH1 0x0 PUSH2 0x29A DUP4 DUP4 PUSH2 0x3E0 JUMP JUMPDEST DUP1 MLOAD PUSH10 0xFFFFFFFFFFFFFFFFFFFF DUP2 AND DUP2 EQ PUSH2 0x329 JUMPI PUSH1 0x0 DUP1 REVERT JUMPDEST PUSH1 0x0 DUP1 PUSH1 0x0 DUP1 PUSH1 0x0 PUSH1 0xA0 DUP7 DUP9 SUB SLT ISZERO PUSH2 0x4C1 JUMPI PUSH1 0x0 DUP1 REVERT JUMPDEST PUSH2 0x4CA DUP7 PUSH2 0x48F JUMP JUMPDEST SWAP5 POP PUSH1 0x20 DUP7 ADD MLOAD SWAP4 POP PUSH1 0x40 DUP7 ADD MLOAD SWAP3 POP PUSH1 0x60 DUP7 ADD MLOAD SWAP2 POP PUSH2 0x4ED PUSH1 0x80 DUP8 ADD PUSH2 0x48F JUMP JUMPDEST SWAP1 POP SWAP3 SWAP6 POP SWAP3 SWAP6 SWAP1 SWAP4 POP JUMP JUMPDEST PUSH1 0x0 PUSH1 0x20 DUP3 DUP5 SUB SLT ISZERO PUSH2 0x50B JUMPI PUSH1 0x0 DUP1 REVERT JUMPDEST DUP2 MLOAD PUSH2 0x29A DUP2 PUSH2 0x32E JUMP JUMPDEST PUSH1 0x0 PUSH1 0x1 PUSH1 0x1 PUSH1 0xFF SHL SUB DUP2 DUP5 SGT DUP3 DUP5 SGT DUP1 DUP3 AND DUP7 DUP5 DIV DUP7 GT AND ISZERO PUSH2 0x53C JUMPI PUSH2 0x53C PUSH2 0x387 JUMP JUMPDEST PUSH1 0x1 PUSH1 0xFF SHL PUSH1 0x0 DUP8 SLT DUP3 DUP2 AND DUP8 DUP4 SDIV DUP10 SLT AND ISZERO PUSH2 0x55B JUMPI PUSH2 0x55B PUSH2 0x387 JUMP JUMPDEST PUSH1 0x0 DUP8 SLT SWAP3 POP DUP8 DUP3 SDIV DUP8 SLT DUP5 DUP5 AND AND ISZERO PUSH2 0x577 JUMPI PUSH2 0x577 PUSH2 0x387 JUMP JUMPDEST DUP8 DUP6 SDIV DUP8 SLT DUP2 DUP5 AND AND ISZERO PUSH2 0x58D JUMPI PUSH2 0x58D PUSH2 0x387 JUMP JUMPDEST POP POP POP SWAP3 SWAP1 SWAP4 MUL SWAP4 SWAP3 POP POP POP JUMP JUMPDEST PUSH1 0x0 DUP3 PUSH2 0x5B8 JUMPI PUSH4 0x4E487B71 PUSH1 0xE0 SHL PUSH1 0x0 MSTORE PUSH1 0x12 PUSH1 0x4 MSTORE PUSH1 0x24 PUSH1 0x0 REVERT JUMPDEST PUSH1 0x1 PUSH1 0xFF SHL DUP3 EQ PUSH1 0x0 NOT DUP5 EQ AND ISZERO PUSH2 0x5D2 JUMPI PUSH2 0x5D2 PUSH2 0x387 JUMP JUMPDEST POP SDIV SWAP1 JUMP JUMPDEST PUSH1 0x0 PUSH1 0xFF DUP3 AND PUSH1 0xFF DUP5 AND DUP1 DUP3 LT ISZERO PUSH2 0x5F1 JUMPI PUSH2 0x5F1 PUSH2 0x387 JUMP JUMPDEST SWAP1 SUB SWAP4 SWAP3 POP POP POP JUMP INVALID LOG2 PUSH5 0x6970667358 0x22 SLT KECCAK256 0xD0 CALL PUSH25 0x5B79A88835B0BDAB47BA4C7D1C8B6D2B5F8792FA20E20079F6 SSTORE DUP5 0xEC EXTCODECOPY PUSH5 0x736F6C6343 STOP ADDMOD 0xC STOP CALLER "},"methodIdentifiers":{"getDerivedPrice(address,address,uint8)":"97436655"}},"storageLayout":{"storage":[],"types":null}}}}