{"contracts/PriceFeed/PriceSaigonMarket.sol":{"PriceSaigonMarket":{"abi":[{"inputs":[],"stateMutability":"nonpayable","type":"constructor"},{"inputs":[],"name":"getLatestPrice","outputs":[{"internalType":"int256","name":"","type":"int256"}],"stateMutability":"view","type":"function"},{"inputs":[],"name":"usdToWeiExchangeRate","outputs":[{"internalType":"uint256","name":"","type":"uint256"}],"stateMutability":"view","type":"function"}],"evm":{"bytecode":{"linkReferences":{},"object":"608060405234801561001057600080fd5b50600080546001600160a01b03191673d4a33860578de61dbabdc8bfdb98fd742fa7028e179055610575806100466000396000f3fe608060405234801561001057600080fd5b50600436106100365760003560e01c80635903b0d81461003b5780638e15f47314610055575b600080fd5b61004361005d565b60405190815260200160405180910390f35b610043610190565b6000805460408051633fabe5a360e21b8152905183926001600160a01b03169163feaf968c9160048083019260a09291908290030181865afa1580156100a7573d6000803e3d6000fd5b505050506040513d601f19601f820116820180604052508101906100cb9190610322565b50505091505060008060009054906101000a90046001600160a01b03166001600160a01b031663313ce5676040518163ffffffff1660e01b8152600401602060405180830381865afa158015610125573d6000803e3d6000fd5b505050506040513d601f19601f820116820180604052508101906101499190610372565b905061015482610279565b600061018883610182670de0b6b3a76400006101716002876103b2565b61017c90600a6104b9565b906102c1565b906102d6565b949350505050565b60008060008060008060008054906101000a90046001600160a01b03166001600160a01b031663feaf968c6040518163ffffffff1660e01b815260040160a060405180830381865afa1580156101ea573d6000803e3d6000fd5b505050506040513d601f19601f8201168201806040525081019061020e9190610322565b94509450945094509450600082116102615760405162461bcd60e51b8152602060048201526012602482015271526f756e64206e6f7420636f6d706c65746560701b604482015260640160405180910390fd5b61026f6305f5e100856104de565b9550505050505090565b6102be8160405160240161028f91815260200190565b60408051601f198184030181529190526020810180516001600160e01b031663f82c50f160e01b1790526102e2565b50565b60006102cd828461050c565b90505b92915050565b60006102cd828461052b565b80516a636f6e736f6c652e6c6f67602083016000808483855afa5050505050565b805169ffffffffffffffffffff8116811461031d57600080fd5b919050565b600080600080600060a0868803121561033a57600080fd5b61034386610303565b945060208601519350604086015192506060860151915061036660808701610303565b90509295509295909350565b60006020828403121561038457600080fd5b815160ff8116811461039557600080fd5b9392505050565b634e487b7160e01b600052601160045260246000fd5b600060ff821660ff8416808210156103cc576103cc61039c565b90039392505050565b600181815b808511156104105781600019048211156103f6576103f661039c565b8085161561040357918102915b93841c93908002906103da565b509250929050565b600082610427575060016102d0565b81610434575060006102d0565b816001811461044a576002811461045457610470565b60019150506102d0565b60ff8411156104655761046561039c565b50506001821b6102d0565b5060208310610133831016604e8410600b8410161715610493575081810a6102d0565b61049d83836103d5565b80600019048211156104b1576104b161039c565b029392505050565b60006102cd60ff841683610418565b634e487b7160e01b600052601260045260246000fd5b6000826104ed576104ed6104c8565b600160ff1b8214600019841416156105075761050761039c565b500590565b60008160001904831182151516156105265761052661039c565b500290565b60008261053a5761053a6104c8565b50049056fea264697066735822122017eb63ceb71f2d3c07e9ecdfa8f34bcf65d9a23d2e830d55e9b9b1d672071ec964736f6c634300080c0033","opcodes":"PUSH1 0x80 PUSH1 0x40 MSTORE CALLVALUE DUP1 ISZERO PUSH2 0x10 JUMPI PUSH1 0x0 DUP1 REVERT JUMPDEST POP PUSH1 0x0 DUP1 SLOAD PUSH1 0x1 PUSH1 0x1 PUSH1 0xA0 SHL SUB NOT AND PUSH20 0xD4A33860578DE61DBABDC8BFDB98FD742FA7028E OR SWAP1 SSTORE PUSH2 0x575 DUP1 PUSH2 0x46 PUSH1 0x0 CODECOPY PUSH1 0x0 RETURN INVALID PUSH1 0x80 PUSH1 0x40 MSTORE CALLVALUE DUP1 ISZERO PUSH2 0x10 JUMPI PUSH1 0x0 DUP1 REVERT JUMPDEST POP PUSH1 0x4 CALLDATASIZE LT PUSH2 0x36 JUMPI PUSH1 0x0 CALLDATALOAD PUSH1 0xE0 SHR DUP1 PUSH4 0x5903B0D8 EQ PUSH2 0x3B JUMPI DUP1 PUSH4 0x8E15F473 EQ PUSH2 0x55 JUMPI JUMPDEST PUSH1 0x0 DUP1 REVERT JUMPDEST PUSH2 0x43 PUSH2 0x5D JUMP JUMPDEST PUSH1 0x40 MLOAD SWAP1 DUP2 MSTORE PUSH1 0x20 ADD PUSH1 0x40 MLOAD DUP1 SWAP2 SUB SWAP1 RETURN JUMPDEST PUSH2 0x43 PUSH2 0x190 JUMP JUMPDEST PUSH1 0x0 DUP1 SLOAD PUSH1 0x40 DUP1 MLOAD PUSH4 0x3FABE5A3 PUSH1 0xE2 SHL DUP2 MSTORE SWAP1 MLOAD DUP4 SWAP3 PUSH1 0x1 PUSH1 0x1 PUSH1 0xA0 SHL SUB AND SWAP2 PUSH4 0xFEAF968C SWAP2 PUSH1 0x4 DUP1 DUP4 ADD SWAP3 PUSH1 0xA0 SWAP3 SWAP2 SWAP1 DUP3 SWAP1 SUB ADD DUP2 DUP7 GAS STATICCALL ISZERO DUP1 ISZERO PUSH2 0xA7 JUMPI RETURNDATASIZE PUSH1 0x0 DUP1 RETURNDATACOPY RETURNDATASIZE PUSH1 0x0 REVERT JUMPDEST POP POP POP POP PUSH1 0x40 MLOAD RETURNDATASIZE PUSH1 0x1F NOT PUSH1 0x1F DUP3 ADD AND DUP3 ADD DUP1 PUSH1 0x40 MSTORE POP DUP2 ADD SWAP1 PUSH2 0xCB SWAP2 SWAP1 PUSH2 0x322 JUMP JUMPDEST POP POP POP SWAP2 POP POP PUSH1 0x0 DUP1 PUSH1 0x0 SWAP1 SLOAD SWAP1 PUSH2 0x100 EXP SWAP1 DIV PUSH1 0x1 PUSH1 0x1 PUSH1 0xA0 SHL SUB AND PUSH1 0x1 PUSH1 0x1 PUSH1 0xA0 SHL SUB AND PUSH4 0x313CE567 PUSH1 0x40 MLOAD DUP2 PUSH4 0xFFFFFFFF AND PUSH1 0xE0 SHL DUP2 MSTORE PUSH1 0x4 ADD PUSH1 0x20 PUSH1 0x40 MLOAD DUP1 DUP4 SUB DUP2 DUP7 GAS STATICCALL ISZERO DUP1 ISZERO PUSH2 0x125 JUMPI RETURNDATASIZE PUSH1 0x0 DUP1 RETURNDATACOPY RETURNDATASIZE PUSH1 0x0 REVERT JUMPDEST POP POP POP POP PUSH1 0x40 MLOAD RETURNDATASIZE PUSH1 0x1F NOT PUSH1 0x1F DUP3 ADD AND DUP3 ADD DUP1 PUSH1 0x40 MSTORE POP DUP2 ADD SWAP1 PUSH2 0x149 SWAP2 SWAP1 PUSH2 0x372 JUMP JUMPDEST SWAP1 POP PUSH2 0x154 DUP3 PUSH2 0x279 JUMP JUMPDEST PUSH1 0x0 PUSH2 0x188 DUP4 PUSH2 0x182 PUSH8 0xDE0B6B3A7640000 PUSH2 0x171 PUSH1 0x2 DUP8 PUSH2 0x3B2 JUMP JUMPDEST PUSH2 0x17C SWAP1 PUSH1 0xA PUSH2 0x4B9 JUMP JUMPDEST SWAP1 PUSH2 0x2C1 JUMP JUMPDEST SWAP1 PUSH2 0x2D6 JUMP JUMPDEST SWAP5 SWAP4 POP POP POP POP JUMP JUMPDEST PUSH1 0x0 DUP1 PUSH1 0x0 DUP1 PUSH1 0x0 DUP1 PUSH1 0x0 DUP1 SLOAD SWAP1 PUSH2 0x100 EXP SWAP1 DIV PUSH1 0x1 PUSH1 0x1 PUSH1 0xA0 SHL SUB AND PUSH1 0x1 PUSH1 0x1 PUSH1 0xA0 SHL SUB AND PUSH4 0xFEAF968C PUSH1 0x40 MLOAD DUP2 PUSH4 0xFFFFFFFF AND PUSH1 0xE0 SHL DUP2 MSTORE PUSH1 0x4 ADD PUSH1 0xA0 PUSH1 0x40 MLOAD DUP1 DUP4 SUB DUP2 DUP7 GAS STATICCALL ISZERO DUP1 ISZERO PUSH2 0x1EA JUMPI RETURNDATASIZE PUSH1 0x0 DUP1 RETURNDATACOPY RETURNDATASIZE PUSH1 0x0 REVERT JUMPDEST POP POP POP POP PUSH1 0x40 MLOAD RETURNDATASIZE PUSH1 0x1F NOT PUSH1 0x1F DUP3 ADD AND DUP3 ADD DUP1 PUSH1 0x40 MSTORE POP DUP2 ADD SWAP1 PUSH2 0x20E SWAP2 SWAP1 PUSH2 0x322 JUMP JUMPDEST SWAP5 POP SWAP5 POP SWAP5 POP SWAP5 POP SWAP5 POP PUSH1 0x0 DUP3 GT PUSH2 0x261 JUMPI PUSH1 0x40 MLOAD PUSH3 0x461BCD PUSH1 0xE5 SHL DUP2 MSTORE PUSH1 0x20 PUSH1 0x4 DUP3 ADD MSTORE PUSH1 0x12 PUSH1 0x24 DUP3 ADD MSTORE PUSH18 0x526F756E64206E6F7420636F6D706C657465 PUSH1 0x70 SHL PUSH1 0x44 DUP3 ADD MSTORE PUSH1 0x64 ADD PUSH1 0x40 MLOAD DUP1 SWAP2 SUB SWAP1 REVERT JUMPDEST PUSH2 0x26F PUSH4 0x5F5E100 DUP6 PUSH2 0x4DE JUMP JUMPDEST SWAP6 POP POP POP POP POP POP SWAP1 JUMP JUMPDEST PUSH2 0x2BE DUP2 PUSH1 0x40 MLOAD PUSH1 0x24 ADD PUSH2 0x28F SWAP2 DUP2 MSTORE PUSH1 0x20 ADD SWAP1 JUMP JUMPDEST PUSH1 0x40 DUP1 MLOAD PUSH1 0x1F NOT DUP2 DUP5 SUB ADD DUP2 MSTORE SWAP2 SWAP1 MSTORE PUSH1 0x20 DUP2 ADD DUP1 MLOAD PUSH1 0x1 PUSH1 0x1 PUSH1 0xE0 SHL SUB AND PUSH4 0xF82C50F1 PUSH1 0xE0 SHL OR SWAP1 MSTORE PUSH2 0x2E2 JUMP JUMPDEST POP JUMP JUMPDEST PUSH1 0x0 PUSH2 0x2CD DUP3 DUP5 PUSH2 0x50C JUMP JUMPDEST SWAP1 POP JUMPDEST SWAP3 SWAP2 POP POP JUMP JUMPDEST PUSH1 0x0 PUSH2 0x2CD DUP3 DUP5 PUSH2 0x52B JUMP JUMPDEST DUP1 MLOAD PUSH11 0x636F6E736F6C652E6C6F67 PUSH1 0x20 DUP4 ADD PUSH1 0x0 DUP1 DUP5 DUP4 DUP6 GAS STATICCALL POP POP POP POP POP JUMP JUMPDEST DUP1 MLOAD PUSH10 0xFFFFFFFFFFFFFFFFFFFF DUP2 AND DUP2 EQ PUSH2 0x31D JUMPI PUSH1 0x0 DUP1 REVERT JUMPDEST SWAP2 SWAP1 POP JUMP JUMPDEST PUSH1 0x0 DUP1 PUSH1 0x0 DUP1 PUSH1 0x0 PUSH1 0xA0 DUP7 DUP9 SUB SLT ISZERO PUSH2 0x33A JUMPI PUSH1 0x0 DUP1 REVERT JUMPDEST PUSH2 0x343 DUP7 PUSH2 0x303 JUMP JUMPDEST SWAP5 POP PUSH1 0x20 DUP7 ADD MLOAD SWAP4 POP PUSH1 0x40 DUP7 ADD MLOAD SWAP3 POP PUSH1 0x60 DUP7 ADD MLOAD SWAP2 POP PUSH2 0x366 PUSH1 0x80 DUP8 ADD PUSH2 0x303 JUMP JUMPDEST SWAP1 POP SWAP3 SWAP6 POP SWAP3 SWAP6 SWAP1 SWAP4 POP JUMP JUMPDEST PUSH1 0x0 PUSH1 0x20 DUP3 DUP5 SUB SLT ISZERO PUSH2 0x384 JUMPI PUSH1 0x0 DUP1 REVERT JUMPDEST DUP2 MLOAD PUSH1 0xFF DUP2 AND DUP2 EQ PUSH2 0x395 JUMPI PUSH1 0x0 DUP1 REVERT JUMPDEST SWAP4 SWAP3 POP POP POP JUMP JUMPDEST PUSH4 0x4E487B71 PUSH1 0xE0 SHL PUSH1 0x0 MSTORE PUSH1 0x11 PUSH1 0x4 MSTORE PUSH1 0x24 PUSH1 0x0 REVERT JUMPDEST PUSH1 0x0 PUSH1 0xFF DUP3 AND PUSH1 0xFF DUP5 AND DUP1 DUP3 LT ISZERO PUSH2 0x3CC JUMPI PUSH2 0x3CC PUSH2 0x39C JUMP JUMPDEST SWAP1 SUB SWAP4 SWAP3 POP POP POP JUMP JUMPDEST PUSH1 0x1 DUP2 DUP2 JUMPDEST DUP1 DUP6 GT ISZERO PUSH2 0x410 JUMPI DUP2 PUSH1 0x0 NOT DIV DUP3 GT ISZERO PUSH2 0x3F6 JUMPI PUSH2 0x3F6 PUSH2 0x39C JUMP JUMPDEST DUP1 DUP6 AND ISZERO PUSH2 0x403 JUMPI SWAP2 DUP2 MUL SWAP2 JUMPDEST SWAP4 DUP5 SHR SWAP4 SWAP1 DUP1 MUL SWAP1 PUSH2 0x3DA JUMP JUMPDEST POP SWAP3 POP SWAP3 SWAP1 POP JUMP JUMPDEST PUSH1 0x0 DUP3 PUSH2 0x427 JUMPI POP PUSH1 0x1 PUSH2 0x2D0 JUMP JUMPDEST DUP2 PUSH2 0x434 JUMPI POP PUSH1 0x0 PUSH2 0x2D0 JUMP JUMPDEST DUP2 PUSH1 0x1 DUP2 EQ PUSH2 0x44A JUMPI PUSH1 0x2 DUP2 EQ PUSH2 0x454 JUMPI PUSH2 0x470 JUMP JUMPDEST PUSH1 0x1 SWAP2 POP POP PUSH2 0x2D0 JUMP JUMPDEST PUSH1 0xFF DUP5 GT ISZERO PUSH2 0x465 JUMPI PUSH2 0x465 PUSH2 0x39C JUMP JUMPDEST POP POP PUSH1 0x1 DUP3 SHL PUSH2 0x2D0 JUMP JUMPDEST POP PUSH1 0x20 DUP4 LT PUSH2 0x133 DUP4 LT AND PUSH1 0x4E DUP5 LT PUSH1 0xB DUP5 LT AND OR ISZERO PUSH2 0x493 JUMPI POP DUP2 DUP2 EXP PUSH2 0x2D0 JUMP JUMPDEST PUSH2 0x49D DUP4 DUP4 PUSH2 0x3D5 JUMP JUMPDEST DUP1 PUSH1 0x0 NOT DIV DUP3 GT ISZERO PUSH2 0x4B1 JUMPI PUSH2 0x4B1 PUSH2 0x39C JUMP JUMPDEST MUL SWAP4 SWAP3 POP POP POP JUMP JUMPDEST PUSH1 0x0 PUSH2 0x2CD PUSH1 0xFF DUP5 AND DUP4 PUSH2 0x418 JUMP JUMPDEST PUSH4 0x4E487B71 PUSH1 0xE0 SHL PUSH1 0x0 MSTORE PUSH1 0x12 PUSH1 0x4 MSTORE PUSH1 0x24 PUSH1 0x0 REVERT JUMPDEST PUSH1 0x0 DUP3 PUSH2 0x4ED JUMPI PUSH2 0x4ED PUSH2 0x4C8 JUMP JUMPDEST PUSH1 0x1 PUSH1 0xFF SHL DUP3 EQ PUSH1 0x0 NOT DUP5 EQ AND ISZERO PUSH2 0x507 JUMPI PUSH2 0x507 PUSH2 0x39C JUMP JUMPDEST POP SDIV SWAP1 JUMP JUMPDEST PUSH1 0x0 DUP2 PUSH1 0x0 NOT DIV DUP4 GT DUP3 ISZERO ISZERO AND ISZERO PUSH2 0x526 JUMPI PUSH2 0x526 PUSH2 0x39C JUMP JUMPDEST POP MUL SWAP1 JUMP JUMPDEST PUSH1 0x0 DUP3 PUSH2 0x53A JUMPI PUSH2 0x53A PUSH2 0x4C8 JUMP JUMPDEST POP DIV SWAP1 JUMP INVALID LOG2 PUSH5 0x6970667358 0x22 SLT KECCAK256 OR 0xEB PUSH4 0xCEB71F2D EXTCODECOPY SMOD 0xE9 0xEC 0xDF 0xA8 RETURN 0x4B 0xCF PUSH6 0xD9A23D2E830D SSTORE 0xE9 0xB9 0xB1 0xD6 PUSH19 0x71EC964736F6C634300080C00330000000000 "},"methodIdentifiers":{"getLatestPrice()":"8e15f473","usdToWeiExchangeRate()":"5903b0d8"}},"storageLayout":{"storage":[{"astId":2884,"contract":"contracts/PriceFeed/PriceSaigonMarket.sol:PriceSaigonMarket","label":"priceFeed","offset":0,"slot":"0","type":"t_contract(AggregatorV3Interface)45"}],"types":{"t_contract(AggregatorV3Interface)45":{"encoding":"inplace","label":"contract AggregatorV3Interface","numberOfBytes":"20"}}}}}}