{"contracts/SaigonMarket.sol":{"SaigonMarket":{"abi":[{"inputs":[{"internalType":"uint256","name":"_feePercent","type":"uint256"}],"stateMutability":"nonpayable","type":"constructor"},{"inputs":[],"name":"InvalidNftAddress","type":"error"},{"inputs":[],"name":"ListingDoesNotExist","type":"error"},{"inputs":[],"name":"ListingNotAvailable","type":"error"},{"inputs":[],"name":"NotApprovedForMarketplace","type":"error"},{"inputs":[],"name":"NotOwner","type":"error"},{"inputs":[],"name":"PaymentAmountUnmatched","type":"error"},{"inputs":[],"name":"TransferFailed","type":"error"},{"anonymous":false,"inputs":[{"indexed":true,"internalType":"address","name":"nft","type":"address"},{"indexed":false,"internalType":"uint256","name":"tokenId","type":"uint256"}],"name":"ListingCancelled","type":"event"},{"anonymous":false,"inputs":[{"indexed":true,"internalType":"address","name":"seller","type":"address"},{"indexed":true,"internalType":"address","name":"buyer","type":"address"},{"indexed":true,"internalType":"address","name":"nft","type":"address"},{"indexed":false,"internalType":"uint256","name":"tokenId","type":"uint256"},{"indexed":false,"internalType":"uint256","name":"listingId","type":"uint256"},{"indexed":false,"internalType":"uint256","name":"pricePerItem","type":"uint256"},{"indexed":false,"internalType":"bool","name":"sold","type":"bool"}],"name":"ListingSold","type":"event"},{"anonymous":false,"inputs":[{"indexed":false,"internalType":"address","name":"creator","type":"address"},{"indexed":false,"internalType":"address","name":"nft","type":"address"}],"name":"NFTCreated","type":"event"},{"anonymous":false,"inputs":[{"indexed":true,"internalType":"uint256","name":"listingId","type":"uint256"},{"indexed":true,"internalType":"address","name":"nftAddress","type":"address"},{"indexed":true,"internalType":"uint256","name":"tokenId","type":"uint256"},{"indexed":false,"internalType":"address","name":"seller","type":"address"},{"indexed":false,"internalType":"address","name":"owner","type":"address"},{"indexed":false,"internalType":"uint256","name":"pricePerItem","type":"uint256"},{"indexed":false,"internalType":"bool","name":"sold","type":"bool"}],"name":"NFTListed","type":"event"},{"inputs":[{"internalType":"uint256","name":"_listingId","type":"uint256"}],"name":"createMarketSale","outputs":[],"stateMutability":"payable","type":"function"},{"inputs":[{"internalType":"contract IERC721","name":"_nft","type":"address"},{"internalType":"uint256","name":"_tokenId","type":"uint256"},{"internalType":"uint256","name":"_pricePerItem","type":"uint256"}],"name":"createNFTListing","outputs":[],"stateMutability":"payable","type":"function"},{"inputs":[],"name":"feePercent","outputs":[{"internalType":"uint256","name":"","type":"uint256"}],"stateMutability":"view","type":"function"},{"inputs":[],"name":"feeReceiver","outputs":[{"internalType":"address payable","name":"","type":"address"}],"stateMutability":"view","type":"function"},{"inputs":[],"name":"fetchMarketListings","outputs":[{"components":[{"internalType":"address payable","name":"seller","type":"address"},{"internalType":"address payable","name":"owner","type":"address"},{"internalType":"contract IERC721","name":"nft","type":"address"},{"internalType":"uint256","name":"listingId","type":"uint256"},{"internalType":"uint256","name":"tokenId","type":"uint256"},{"internalType":"uint256","name":"pricePerItem","type":"uint256"},{"internalType":"bool","name":"sold","type":"bool"}],"internalType":"struct SaigonMarket.Listing[]","name":"","type":"tuple[]"}],"stateMutability":"view","type":"function"},{"inputs":[],"name":"fetchMyNFTs","outputs":[{"components":[{"internalType":"address payable","name":"seller","type":"address"},{"internalType":"address payable","name":"owner","type":"address"},{"internalType":"contract IERC721","name":"nft","type":"address"},{"internalType":"uint256","name":"listingId","type":"uint256"},{"internalType":"uint256","name":"tokenId","type":"uint256"},{"internalType":"uint256","name":"pricePerItem","type":"uint256"},{"internalType":"bool","name":"sold","type":"bool"}],"internalType":"struct SaigonMarket.Listing[]","name":"","type":"tuple[]"}],"stateMutability":"view","type":"function"},{"inputs":[],"name":"fetchOwnedListings","outputs":[{"components":[{"internalType":"address payable","name":"seller","type":"address"},{"internalType":"address payable","name":"owner","type":"address"},{"internalType":"contract IERC721","name":"nft","type":"address"},{"internalType":"uint256","name":"listingId","type":"uint256"},{"internalType":"uint256","name":"tokenId","type":"uint256"},{"internalType":"uint256","name":"pricePerItem","type":"uint256"},{"internalType":"bool","name":"sold","type":"bool"}],"internalType":"struct SaigonMarket.Listing[]","name":"","type":"tuple[]"}],"stateMutability":"view","type":"function"},{"inputs":[{"internalType":"uint256","name":"_listingId","type":"uint256"}],"name":"getFinalPrice","outputs":[{"internalType":"uint256","name":"","type":"uint256"}],"stateMutability":"view","type":"function"},{"inputs":[{"internalType":"address","name":"_nftAddress","type":"address"},{"internalType":"uint256","name":"_tokenId","type":"uint256"},{"internalType":"uint256","name":"_listingId","type":"uint256"},{"internalType":"uint256","name":"_pricePerItem","type":"uint256"}],"name":"listNFT","outputs":[],"stateMutability":"nonpayable","type":"function"},{"inputs":[{"internalType":"uint256","name":"","type":"uint256"}],"name":"listings","outputs":[{"internalType":"address payable","name":"seller","type":"address"},{"internalType":"address payable","name":"owner","type":"address"},{"internalType":"contract IERC721","name":"nft","type":"address"},{"internalType":"uint256","name":"listingId","type":"uint256"},{"internalType":"uint256","name":"tokenId","type":"uint256"},{"internalType":"uint256","name":"pricePerItem","type":"uint256"},{"internalType":"bool","name":"sold","type":"bool"}],"stateMutability":"view","type":"function"},{"inputs":[{"internalType":"uint256","name":"","type":"uint256"}],"name":"offers","outputs":[{"internalType":"contract IERC20","name":"payToken","type":"address"},{"internalType":"uint256","name":"quantity","type":"uint256"},{"internalType":"uint256","name":"pricePerItem","type":"uint256"},{"internalType":"uint256","name":"deadline","type":"uint256"}],"stateMutability":"view","type":"function"},{"inputs":[{"internalType":"uint256","name":"_listingId","type":"uint256"},{"internalType":"uint256","name":"_pricePerItem","type":"uint256"}],"name":"resellToken","outputs":[],"stateMutability":"payable","type":"function"}],"evm":{"bytecode":{"linkReferences":{},"object":"60c060405234801561001057600080fd5b5060405161163b38038061163b83398101604081905261002f91610054565b6001600055600380546001600160a01b0319163390811790915560805260a05261006d565b60006020828403121561006657600080fd5b5051919050565b60805160a05161159b6100a06000396000818161013901526109b40152600081816101e30152610c3e015261159b6000f3fe6080604052600436106100a75760003560e01c8063be9af53611610064578063be9af5361461021d578063db80135a14610230578063de74e57b14610243578063e219fc75146102f2578063e75db0d014610305578063f654fc4f1461031a57600080fd5b8063202e3740146100ac5780633c44a5f0146100d75780634b554954146100f95780637fd6f15c146101275780638a72ea6a1461015b578063b3f00674146101d1575b600080fd5b3480156100b857600080fd5b506100c161032f565b6040516100ce91906112c6565b60405180910390f35b3480156100e357600080fd5b506100f76100f2366004611370565b6104fd565b005b34801561010557600080fd5b506101196101143660046113ab565b6109ab565b6040519081526020016100ce565b34801561013357600080fd5b506101197f000000000000000000000000000000000000000000000000000000000000000081565b34801561016757600080fd5b506101a76101763660046113ab565b60056020526000908152604090208054600182015460028301546003909301546001600160a01b0390921692909184565b604080516001600160a01b03909516855260208501939093529183015260608201526080016100ce565b3480156101dd57600080fd5b506102057f000000000000000000000000000000000000000000000000000000000000000081565b6040516001600160a01b0390911681526020016100ce565b6100f761022b3660046113ab565b610a05565b6100f761023e3660046113c4565b610cdd565b34801561024f57600080fd5b506102ac61025e3660046113ab565b600460208190526000918252604090912080546001820154600283015460038401549484015460058501546006909501546001600160a01b0394851696938516959490921693909160ff1687565b604080516001600160a01b039889168152968816602088015294909616938501939093526060840191909152608083015260a082015290151560c082015260e0016100ce565b6100f76103003660046113f9565b610d7a565b34801561031157600080fd5b506100c1610eed565b34801561032657600080fd5b506100c16110b2565b6060600061033c60015490565b905060008060005b8381101561039c57336004600061035c846001611431565b81526020810191909152604001600020546001600160a01b0316141561038a57610387600184611431565b92505b8061039481611449565b915050610344565b5060008267ffffffffffffffff8111156103b8576103b8611464565b6040519080825280602002602001820160405280156103f157816020015b6103de61128a565b8152602001906001900390816103d65790505b50905060005b848110156104f457336004600061040f846001611431565b81526020810191909152604001600020546001600160a01b031614156104e257600061043c826001611431565b600081815260046020818152604092839020835160e08101855281546001600160a01b039081168252600183015481169382019390935260028201549092169382019390935260038301546060820152908201546080820152600582015460a0820152600682015460ff16151560c0820152855192935090918590879081106104c7576104c761147a565b60209081029190910101526104dd600186611431565b945050505b806104ec81611449565b9150506103f7565b50949350505050565b6040516301ffc9a760e01b81526380ac58cd60e01b60048201526001600160a01b038516906301ffc9a790602401602060405180830381865afa158015610548573d6000803e3d6000fd5b505050506040513d601f19601f8201168201806040525081019061056c9190611490565b15610696576040516331a9108f60e11b815260048101849052849033906001600160a01b03831690636352211e90602401602060405180830381865afa1580156105ba573d6000803e3d6000fd5b505050506040513d601f19601f820116820180604052508101906105de91906114b9565b6001600160a01b031614610605576040516330cd747160e01b815260040160405180910390fd5b60405163e985e9c560e01b81523360048201523060248201526001600160a01b0382169063e985e9c590604401602060405180830381865afa15801561064f573d6000803e3d6000fd5b505050506040513d601f19601f820116820180604052508101906106739190611490565b61069057604051634be3a2c560e01b815260040160405180910390fd5b506106af565b6040516341b7742560e01b815260040160405180910390fd5b6040518060e00160405280336001600160a01b0316815260200160006001600160a01b03168152602001856001600160a01b03168152602001838152602001848152602001828152602001600015158152506004600084815260200190815260200160002060008201518160000160006101000a8154816001600160a01b0302191690836001600160a01b0316021790555060208201518160010160006101000a8154816001600160a01b0302191690836001600160a01b0316021790555060408201518160020160006101000a8154816001600160a01b0302191690836001600160a01b03160217905550606082015181600301556080820151816004015560a0820151816005015560c08201518160060160006101000a81548160ff0219169083151502179055509050506000600460008481526020019081526020016000206040518060e00160405290816000820160009054906101000a90046001600160a01b03166001600160a01b03166001600160a01b031681526020016001820160009054906101000a90046001600160a01b03166001600160a01b03166001600160a01b031681526020016002820160009054906101000a90046001600160a01b03166001600160a01b03166001600160a01b031681526020016003820154815260200160048201548152602001600582015481526020016006820160009054906101000a900460ff161515151581525050905080604001516001600160a01b03166323b872dd333084608001516040518463ffffffff1660e01b815260040161091b939291906001600160a01b039384168152919092166020820152604081019190915260600190565b600060405180830381600087803b15801561093557600080fd5b505af1158015610949573d6000803e3d6000fd5b505060408051338152600060208201819052818301879052606082015290518793506001600160a01b038916925086917ff9b8a81a1bb3e12b4a9b295ae3f1d8b0255537c0feaafc43705b6954b5822d5c919081900360800190a45050505050565b600060646109d97f000000000000000000000000000000000000000000000000000000000000000082611431565b6000848152600460205260409020600501546109f591906114d6565b6109ff91906114f5565b92915050565b60026000541415610a315760405162461bcd60e51b8152600401610a2890611517565b60405180910390fd5b60026000908155610a41826109ab565b6000838152600460208181526040808420815160e08101835281546001600160a01b039081168252600183015481169482019490945260028201549093169183019190915260038101546060830152918201546080820152600582015460a0820181905260069092015460ff16151560c082015292935090610ac3828561154e565b835190915085158015610ad7575060015486115b15610af5576040516335aacf6560e11b815260040160405180910390fd5b843414610b1557604051631cbc6a9b60e01b815260040160405180910390fd5b8360c0015115610b385760405163df28fd7b60e01b815260040160405180910390fd5b50336020840152600160c08401526000610b56600280546001019055565b604080850151608086015191516323b872dd60e01b815230600482015233602482015260448101929092526001600160a01b0316906323b872dd90606401600060405180830381600087803b158015610bae57600080fd5b505af1158015610bc2573d6000803e3d6000fd5b505050506000816001600160a01b03168460405160006040518083038185875af1925050503d8060008114610c13576040519150601f19603f3d011682016040523d82523d6000602084013e610c18565b606091505b5050905080610c3a576040516312171d8360e31b815260040160405180910390fd5b60007f00000000000000000000000000000000000000000000000000000000000000006001600160a01b03168460405160006040518083038185875af1925050503d8060008114610ca7576040519150601f19603f3d011682016040523d82523d6000602084013e610cac565b606091505b5050905080610cce576040516312171d8360e31b815260040160405180910390fd5b50506001600055505050505050565b60026000541415610d005760405162461bcd60e51b8152600401610a2890611517565b6002600055610d13600180546001019055565b6000610d1e60015490565b905083610d2d818584866104fd565b604080513381526001600160a01b03831660208201527fe4944a5f0bf5ee82c3c6769e53000a678b52be77b461a2e8f7b3434eff94670e910160405180910390a150506001600055505050565b60026000541415610d9d5760405162461bcd60e51b8152600401610a2890611517565b60026000908155610dad836109ab565b600084815260046020818152604092839020835160e08101855281546001600160a01b039081168252600183015481169382018490526002830154169481019490945260038101546060850152918201546080840152600582015460a084015260069091015460ff16151560c0830152919250903314610e40576040516330cd747160e01b815260040160405180910390fd5b813414610e6057604051631cbc6a9b60e01b815260040160405180910390fd5b600060c082015260a08101839052338152306020820152610e816002611233565b604080820151608083015191516323b872dd60e01b815233600482015230602482015260448101929092526001600160a01b0316906323b872dd90606401600060405180830381600087803b158015610ed957600080fd5b505af1158015610cce573d6000803e3d6000fd5b60606000610efa60015490565b905060008060005b83811015610f5a573360046000610f1a846001611431565b81526020810191909152604001600020546001600160a01b03161415610f4857610f45600184611431565b92505b80610f5281611449565b915050610f02565b5060008267ffffffffffffffff811115610f7657610f76611464565b604051908082528060200260200182016040528015610faf57816020015b610f9c61128a565b815260200190600190039081610f945790505b50905060005b848110156104f4573360046000610fcd846001611431565b81526020810191909152604001600020546001600160a01b031614156110a0576000610ffa826001611431565b600081815260046020818152604092839020835160e08101855281546001600160a01b039081168252600183015481169382019390935260028201549092169382019390935260038301546060820152908201546080820152600582015460a0820152600682015460ff16151560c0820152855192935090918590879081106110855761108561147a565b602090810291909101015261109b600186611431565b945050505b806110aa81611449565b915050610fb5565b606060006110bf60015490565b905060006110cc60025490565b6001546110d9919061154e565b90506000808267ffffffffffffffff8111156110f7576110f7611464565b60405190808252806020026020018201604052801561113057816020015b61111d61128a565b8152602001906001900390816111155790505b50905060005b848110156104f457306004600061114e846001611431565b81526020810191909152604001600020546001600160a01b0316141561122157600061117b826001611431565b600081815260046020818152604092839020835160e08101855281546001600160a01b039081168252600183015481169382019390935260028201549092169382019390935260038301546060820152908201546080820152600582015460a0820152600682015460ff16151560c0820152855192935090918590849081106112065761120661147a565b602090810291909101015261121c600186611431565b945050505b8061122b81611449565b915050611136565b8054806112825760405162461bcd60e51b815260206004820152601b60248201527f436f756e7465723a2064656372656d656e74206f766572666c6f7700000000006044820152606401610a28565b600019019055565b6040805160e081018252600080825260208201819052918101829052606081018290526080810182905260a0810182905260c081019190915290565b602080825282518282018190526000919060409081850190868401855b8281101561134b57815180516001600160a01b03908116865287820151811688870152868201511686860152606080820151908601526080808201519086015260a0808201519086015260c09081015115159085015260e090930192908501906001016112e3565b5091979650505050505050565b6001600160a01b038116811461136d57600080fd5b50565b6000806000806080858703121561138657600080fd5b843561139181611358565b966020860135965060408601359560600135945092505050565b6000602082840312156113bd57600080fd5b5035919050565b6000806000606084860312156113d957600080fd5b83356113e481611358565b95602085013595506040909401359392505050565b6000806040838503121561140c57600080fd5b50508035926020909101359150565b634e487b7160e01b600052601160045260246000fd5b600082198211156114445761144461141b565b500190565b600060001982141561145d5761145d61141b565b5060010190565b634e487b7160e01b600052604160045260246000fd5b634e487b7160e01b600052603260045260246000fd5b6000602082840312156114a257600080fd5b815180151581146114b257600080fd5b9392505050565b6000602082840312156114cb57600080fd5b81516114b281611358565b60008160001904831182151516156114f0576114f061141b565b500290565b60008261151257634e487b7160e01b600052601260045260246000fd5b500490565b6020808252601f908201527f5265656e7472616e637947756172643a207265656e7472616e742063616c6c00604082015260600190565b6000828210156115605761156061141b565b50039056fea2646970667358221220c6d914650ae7625c3e68b8af52786a31032bf00fbf5cdf9357128502496bab9864736f6c634300080c0033","opcodes":"PUSH1 0xC0 PUSH1 0x40 MSTORE CALLVALUE DUP1 ISZERO PUSH2 0x10 JUMPI PUSH1 0x0 DUP1 REVERT JUMPDEST POP PUSH1 0x40 MLOAD PUSH2 0x163B CODESIZE SUB DUP1 PUSH2 0x163B DUP4 CODECOPY DUP2 ADD PUSH1 0x40 DUP2 SWAP1 MSTORE PUSH2 0x2F SWAP2 PUSH2 0x54 JUMP JUMPDEST PUSH1 0x1 PUSH1 0x0 SSTORE PUSH1 0x3 DUP1 SLOAD PUSH1 0x1 PUSH1 0x1 PUSH1 0xA0 SHL SUB NOT AND CALLER SWAP1 DUP2 OR SWAP1 SWAP2 SSTORE PUSH1 0x80 MSTORE PUSH1 0xA0 MSTORE PUSH2 0x6D JUMP JUMPDEST PUSH1 0x0 PUSH1 0x20 DUP3 DUP5 SUB SLT ISZERO PUSH2 0x66 JUMPI PUSH1 0x0 DUP1 REVERT JUMPDEST POP MLOAD SWAP2 SWAP1 POP JUMP JUMPDEST PUSH1 0x80 MLOAD PUSH1 0xA0 MLOAD PUSH2 0x159B PUSH2 0xA0 PUSH1 0x0 CODECOPY PUSH1 0x0 DUP2 DUP2 PUSH2 0x139 ADD MSTORE PUSH2 0x9B4 ADD MSTORE PUSH1 0x0 DUP2 DUP2 PUSH2 0x1E3 ADD MSTORE PUSH2 0xC3E ADD MSTORE PUSH2 0x159B PUSH1 0x0 RETURN INVALID PUSH1 0x80 PUSH1 0x40 MSTORE PUSH1 0x4 CALLDATASIZE LT PUSH2 0xA7 JUMPI PUSH1 0x0 CALLDATALOAD PUSH1 0xE0 SHR DUP1 PUSH4 0xBE9AF536 GT PUSH2 0x64 JUMPI DUP1 PUSH4 0xBE9AF536 EQ PUSH2 0x21D JUMPI DUP1 PUSH4 0xDB80135A EQ PUSH2 0x230 JUMPI DUP1 PUSH4 0xDE74E57B EQ PUSH2 0x243 JUMPI DUP1 PUSH4 0xE219FC75 EQ PUSH2 0x2F2 JUMPI DUP1 PUSH4 0xE75DB0D0 EQ PUSH2 0x305 JUMPI DUP1 PUSH4 0xF654FC4F EQ PUSH2 0x31A JUMPI PUSH1 0x0 DUP1 REVERT JUMPDEST DUP1 PUSH4 0x202E3740 EQ PUSH2 0xAC JUMPI DUP1 PUSH4 0x3C44A5F0 EQ PUSH2 0xD7 JUMPI DUP1 PUSH4 0x4B554954 EQ PUSH2 0xF9 JUMPI DUP1 PUSH4 0x7FD6F15C EQ PUSH2 0x127 JUMPI DUP1 PUSH4 0x8A72EA6A EQ PUSH2 0x15B JUMPI DUP1 PUSH4 0xB3F00674 EQ PUSH2 0x1D1 JUMPI JUMPDEST PUSH1 0x0 DUP1 REVERT JUMPDEST CALLVALUE DUP1 ISZERO PUSH2 0xB8 JUMPI PUSH1 0x0 DUP1 REVERT JUMPDEST POP PUSH2 0xC1 PUSH2 0x32F JUMP JUMPDEST PUSH1 0x40 MLOAD PUSH2 0xCE SWAP2 SWAP1 PUSH2 0x12C6 JUMP JUMPDEST PUSH1 0x40 MLOAD DUP1 SWAP2 SUB SWAP1 RETURN JUMPDEST CALLVALUE DUP1 ISZERO PUSH2 0xE3 JUMPI PUSH1 0x0 DUP1 REVERT JUMPDEST POP PUSH2 0xF7 PUSH2 0xF2 CALLDATASIZE PUSH1 0x4 PUSH2 0x1370 JUMP JUMPDEST PUSH2 0x4FD JUMP JUMPDEST STOP JUMPDEST CALLVALUE DUP1 ISZERO PUSH2 0x105 JUMPI PUSH1 0x0 DUP1 REVERT JUMPDEST POP PUSH2 0x119 PUSH2 0x114 CALLDATASIZE PUSH1 0x4 PUSH2 0x13AB JUMP JUMPDEST PUSH2 0x9AB JUMP JUMPDEST PUSH1 0x40 MLOAD SWAP1 DUP2 MSTORE PUSH1 0x20 ADD PUSH2 0xCE JUMP JUMPDEST CALLVALUE DUP1 ISZERO PUSH2 0x133 JUMPI PUSH1 0x0 DUP1 REVERT JUMPDEST POP PUSH2 0x119 PUSH32 0x0 DUP2 JUMP JUMPDEST CALLVALUE DUP1 ISZERO PUSH2 0x167 JUMPI PUSH1 0x0 DUP1 REVERT JUMPDEST POP PUSH2 0x1A7 PUSH2 0x176 CALLDATASIZE PUSH1 0x4 PUSH2 0x13AB JUMP JUMPDEST PUSH1 0x5 PUSH1 0x20 MSTORE PUSH1 0x0 SWAP1 DUP2 MSTORE PUSH1 0x40 SWAP1 KECCAK256 DUP1 SLOAD PUSH1 0x1 DUP3 ADD SLOAD PUSH1 0x2 DUP4 ADD SLOAD PUSH1 0x3 SWAP1 SWAP4 ADD SLOAD PUSH1 0x1 PUSH1 0x1 PUSH1 0xA0 SHL SUB SWAP1 SWAP3 AND SWAP3 SWAP1 SWAP2 DUP5 JUMP JUMPDEST PUSH1 0x40 DUP1 MLOAD PUSH1 0x1 PUSH1 0x1 PUSH1 0xA0 SHL SUB SWAP1 SWAP6 AND DUP6 MSTORE PUSH1 0x20 DUP6 ADD SWAP4 SWAP1 SWAP4 MSTORE SWAP2 DUP4 ADD MSTORE PUSH1 0x60 DUP3 ADD MSTORE PUSH1 0x80 ADD PUSH2 0xCE JUMP JUMPDEST CALLVALUE DUP1 ISZERO PUSH2 0x1DD JUMPI PUSH1 0x0 DUP1 REVERT JUMPDEST POP PUSH2 0x205 PUSH32 0x0 DUP2 JUMP JUMPDEST PUSH1 0x40 MLOAD PUSH1 0x1 PUSH1 0x1 PUSH1 0xA0 SHL SUB SWAP1 SWAP2 AND DUP2 MSTORE PUSH1 0x20 ADD PUSH2 0xCE JUMP JUMPDEST PUSH2 0xF7 PUSH2 0x22B CALLDATASIZE PUSH1 0x4 PUSH2 0x13AB JUMP JUMPDEST PUSH2 0xA05 JUMP JUMPDEST PUSH2 0xF7 PUSH2 0x23E CALLDATASIZE PUSH1 0x4 PUSH2 0x13C4 JUMP JUMPDEST PUSH2 0xCDD JUMP JUMPDEST CALLVALUE DUP1 ISZERO PUSH2 0x24F JUMPI PUSH1 0x0 DUP1 REVERT JUMPDEST POP PUSH2 0x2AC PUSH2 0x25E CALLDATASIZE PUSH1 0x4 PUSH2 0x13AB JUMP JUMPDEST PUSH1 0x4 PUSH1 0x20 DUP2 SWAP1 MSTORE PUSH1 0x0 SWAP2 DUP3 MSTORE PUSH1 0x40 SWAP1 SWAP2 KECCAK256 DUP1 SLOAD PUSH1 0x1 DUP3 ADD SLOAD PUSH1 0x2 DUP4 ADD SLOAD PUSH1 0x3 DUP5 ADD SLOAD SWAP5 DUP5 ADD SLOAD PUSH1 0x5 DUP6 ADD SLOAD PUSH1 0x6 SWAP1 SWAP6 ADD SLOAD PUSH1 0x1 PUSH1 0x1 PUSH1 0xA0 SHL SUB SWAP5 DUP6 AND SWAP7 SWAP4 DUP6 AND SWAP6 SWAP5 SWAP1 SWAP3 AND SWAP4 SWAP1 SWAP2 PUSH1 0xFF AND DUP8 JUMP JUMPDEST PUSH1 0x40 DUP1 MLOAD PUSH1 0x1 PUSH1 0x1 PUSH1 0xA0 SHL SUB SWAP9 DUP10 AND DUP2 MSTORE SWAP7 DUP9 AND PUSH1 0x20 DUP9 ADD MSTORE SWAP5 SWAP1 SWAP7 AND SWAP4 DUP6 ADD SWAP4 SWAP1 SWAP4 MSTORE PUSH1 0x60 DUP5 ADD SWAP2 SWAP1 SWAP2 MSTORE PUSH1 0x80 DUP4 ADD MSTORE PUSH1 0xA0 DUP3 ADD MSTORE SWAP1 ISZERO ISZERO PUSH1 0xC0 DUP3 ADD MSTORE PUSH1 0xE0 ADD PUSH2 0xCE JUMP JUMPDEST PUSH2 0xF7 PUSH2 0x300 CALLDATASIZE PUSH1 0x4 PUSH2 0x13F9 JUMP JUMPDEST PUSH2 0xD7A JUMP JUMPDEST CALLVALUE DUP1 ISZERO PUSH2 0x311 JUMPI PUSH1 0x0 DUP1 REVERT JUMPDEST POP PUSH2 0xC1 PUSH2 0xEED JUMP JUMPDEST CALLVALUE DUP1 ISZERO PUSH2 0x326 JUMPI PUSH1 0x0 DUP1 REVERT JUMPDEST POP PUSH2 0xC1 PUSH2 0x10B2 JUMP JUMPDEST PUSH1 0x60 PUSH1 0x0 PUSH2 0x33C PUSH1 0x1 SLOAD SWAP1 JUMP JUMPDEST SWAP1 POP PUSH1 0x0 DUP1 PUSH1 0x0 JUMPDEST DUP4 DUP2 LT ISZERO PUSH2 0x39C JUMPI CALLER PUSH1 0x4 PUSH1 0x0 PUSH2 0x35C DUP5 PUSH1 0x1 PUSH2 0x1431 JUMP JUMPDEST DUP2 MSTORE PUSH1 0x20 DUP2 ADD SWAP2 SWAP1 SWAP2 MSTORE PUSH1 0x40 ADD PUSH1 0x0 KECCAK256 SLOAD PUSH1 0x1 PUSH1 0x1 PUSH1 0xA0 SHL SUB AND EQ ISZERO PUSH2 0x38A JUMPI PUSH2 0x387 PUSH1 0x1 DUP5 PUSH2 0x1431 JUMP JUMPDEST SWAP3 POP JUMPDEST DUP1 PUSH2 0x394 DUP2 PUSH2 0x1449 JUMP JUMPDEST SWAP2 POP POP PUSH2 0x344 JUMP JUMPDEST POP PUSH1 0x0 DUP3 PUSH8 0xFFFFFFFFFFFFFFFF DUP2 GT ISZERO PUSH2 0x3B8 JUMPI PUSH2 0x3B8 PUSH2 0x1464 JUMP JUMPDEST PUSH1 0x40 MLOAD SWAP1 DUP1 DUP3 MSTORE DUP1 PUSH1 0x20 MUL PUSH1 0x20 ADD DUP3 ADD PUSH1 0x40 MSTORE DUP1 ISZERO PUSH2 0x3F1 JUMPI DUP2 PUSH1 0x20 ADD JUMPDEST PUSH2 0x3DE PUSH2 0x128A JUMP JUMPDEST DUP2 MSTORE PUSH1 0x20 ADD SWAP1 PUSH1 0x1 SWAP1 SUB SWAP1 DUP2 PUSH2 0x3D6 JUMPI SWAP1 POP JUMPDEST POP SWAP1 POP PUSH1 0x0 JUMPDEST DUP5 DUP2 LT ISZERO PUSH2 0x4F4 JUMPI CALLER PUSH1 0x4 PUSH1 0x0 PUSH2 0x40F DUP5 PUSH1 0x1 PUSH2 0x1431 JUMP JUMPDEST DUP2 MSTORE PUSH1 0x20 DUP2 ADD SWAP2 SWAP1 SWAP2 MSTORE PUSH1 0x40 ADD PUSH1 0x0 KECCAK256 SLOAD PUSH1 0x1 PUSH1 0x1 PUSH1 0xA0 SHL SUB AND EQ ISZERO PUSH2 0x4E2 JUMPI PUSH1 0x0 PUSH2 0x43C DUP3 PUSH1 0x1 PUSH2 0x1431 JUMP JUMPDEST PUSH1 0x0 DUP2 DUP2 MSTORE PUSH1 0x4 PUSH1 0x20 DUP2 DUP2 MSTORE PUSH1 0x40 SWAP3 DUP4 SWAP1 KECCAK256 DUP4 MLOAD PUSH1 0xE0 DUP2 ADD DUP6 MSTORE DUP2 SLOAD PUSH1 0x1 PUSH1 0x1 PUSH1 0xA0 SHL SUB SWAP1 DUP2 AND DUP3 MSTORE PUSH1 0x1 DUP4 ADD SLOAD DUP2 AND SWAP4 DUP3 ADD SWAP4 SWAP1 SWAP4 MSTORE PUSH1 0x2 DUP3 ADD SLOAD SWAP1 SWAP3 AND SWAP4 DUP3 ADD SWAP4 SWAP1 SWAP4 MSTORE PUSH1 0x3 DUP4 ADD SLOAD PUSH1 0x60 DUP3 ADD MSTORE SWAP1 DUP3 ADD SLOAD PUSH1 0x80 DUP3 ADD MSTORE PUSH1 0x5 DUP3 ADD SLOAD PUSH1 0xA0 DUP3 ADD MSTORE PUSH1 0x6 DUP3 ADD SLOAD PUSH1 0xFF AND ISZERO ISZERO PUSH1 0xC0 DUP3 ADD MSTORE DUP6 MLOAD SWAP3 SWAP4 POP SWAP1 SWAP2 DUP6 SWAP1 DUP8 SWAP1 DUP2 LT PUSH2 0x4C7 JUMPI PUSH2 0x4C7 PUSH2 0x147A JUMP JUMPDEST PUSH1 0x20 SWAP1 DUP2 MUL SWAP2 SWAP1 SWAP2 ADD ADD MSTORE PUSH2 0x4DD PUSH1 0x1 DUP7 PUSH2 0x1431 JUMP JUMPDEST SWAP5 POP POP POP JUMPDEST DUP1 PUSH2 0x4EC DUP2 PUSH2 0x1449 JUMP JUMPDEST SWAP2 POP POP PUSH2 0x3F7 JUMP JUMPDEST POP SWAP5 SWAP4 POP POP POP POP JUMP JUMPDEST PUSH1 0x40 MLOAD PUSH4 0x1FFC9A7 PUSH1 0xE0 SHL DUP2 MSTORE PUSH4 0x80AC58CD PUSH1 0xE0 SHL PUSH1 0x4 DUP3 ADD MSTORE PUSH1 0x1 PUSH1 0x1 PUSH1 0xA0 SHL SUB DUP6 AND SWAP1 PUSH4 0x1FFC9A7 SWAP1 PUSH1 0x24 ADD PUSH1 0x20 PUSH1 0x40 MLOAD DUP1 DUP4 SUB DUP2 DUP7 GAS STATICCALL ISZERO DUP1 ISZERO PUSH2 0x548 JUMPI RETURNDATASIZE PUSH1 0x0 DUP1 RETURNDATACOPY RETURNDATASIZE PUSH1 0x0 REVERT JUMPDEST POP POP POP POP PUSH1 0x40 MLOAD RETURNDATASIZE PUSH1 0x1F NOT PUSH1 0x1F DUP3 ADD AND DUP3 ADD DUP1 PUSH1 0x40 MSTORE POP DUP2 ADD SWAP1 PUSH2 0x56C SWAP2 SWAP1 PUSH2 0x1490 JUMP JUMPDEST ISZERO PUSH2 0x696 JUMPI PUSH1 0x40 MLOAD PUSH4 0x31A9108F PUSH1 0xE1 SHL DUP2 MSTORE PUSH1 0x4 DUP2 ADD DUP5 SWAP1 MSTORE DUP5 SWAP1 CALLER SWAP1 PUSH1 0x1 PUSH1 0x1 PUSH1 0xA0 SHL SUB DUP4 AND SWAP1 PUSH4 0x6352211E SWAP1 PUSH1 0x24 ADD PUSH1 0x20 PUSH1 0x40 MLOAD DUP1 DUP4 SUB DUP2 DUP7 GAS STATICCALL ISZERO DUP1 ISZERO PUSH2 0x5BA JUMPI RETURNDATASIZE PUSH1 0x0 DUP1 RETURNDATACOPY RETURNDATASIZE PUSH1 0x0 REVERT JUMPDEST POP POP POP POP PUSH1 0x40 MLOAD RETURNDATASIZE PUSH1 0x1F NOT PUSH1 0x1F DUP3 ADD AND DUP3 ADD DUP1 PUSH1 0x40 MSTORE POP DUP2 ADD SWAP1 PUSH2 0x5DE SWAP2 SWAP1 PUSH2 0x14B9 JUMP JUMPDEST PUSH1 0x1 PUSH1 0x1 PUSH1 0xA0 SHL SUB AND EQ PUSH2 0x605 JUMPI PUSH1 0x40 MLOAD PUSH4 0x30CD7471 PUSH1 0xE0 SHL DUP2 MSTORE PUSH1 0x4 ADD PUSH1 0x40 MLOAD DUP1 SWAP2 SUB SWAP1 REVERT JUMPDEST PUSH1 0x40 MLOAD PUSH4 0xE985E9C5 PUSH1 0xE0 SHL DUP2 MSTORE CALLER PUSH1 0x4 DUP3 ADD MSTORE ADDRESS PUSH1 0x24 DUP3 ADD MSTORE PUSH1 0x1 PUSH1 0x1 PUSH1 0xA0 SHL SUB DUP3 AND SWAP1 PUSH4 0xE985E9C5 SWAP1 PUSH1 0x44 ADD PUSH1 0x20 PUSH1 0x40 MLOAD DUP1 DUP4 SUB DUP2 DUP7 GAS STATICCALL ISZERO DUP1 ISZERO PUSH2 0x64F JUMPI RETURNDATASIZE PUSH1 0x0 DUP1 RETURNDATACOPY RETURNDATASIZE PUSH1 0x0 REVERT JUMPDEST POP POP POP POP PUSH1 0x40 MLOAD RETURNDATASIZE PUSH1 0x1F NOT PUSH1 0x1F DUP3 ADD AND DUP3 ADD DUP1 PUSH1 0x40 MSTORE POP DUP2 ADD SWAP1 PUSH2 0x673 SWAP2 SWAP1 PUSH2 0x1490 JUMP JUMPDEST PUSH2 0x690 JUMPI PUSH1 0x40 MLOAD PUSH4 0x4BE3A2C5 PUSH1 0xE0 SHL DUP2 MSTORE PUSH1 0x4 ADD PUSH1 0x40 MLOAD DUP1 SWAP2 SUB SWAP1 REVERT JUMPDEST POP PUSH2 0x6AF JUMP JUMPDEST PUSH1 0x40 MLOAD PUSH4 0x41B77425 PUSH1 0xE0 SHL DUP2 MSTORE PUSH1 0x4 ADD PUSH1 0x40 MLOAD DUP1 SWAP2 SUB SWAP1 REVERT JUMPDEST PUSH1 0x40 MLOAD DUP1 PUSH1 0xE0 ADD PUSH1 0x40 MSTORE DUP1 CALLER PUSH1 0x1 PUSH1 0x1 PUSH1 0xA0 SHL SUB AND DUP2 MSTORE PUSH1 0x20 ADD PUSH1 0x0 PUSH1 0x1 PUSH1 0x1 PUSH1 0xA0 SHL SUB AND DUP2 MSTORE PUSH1 0x20 ADD DUP6 PUSH1 0x1 PUSH1 0x1 PUSH1 0xA0 SHL SUB AND DUP2 MSTORE PUSH1 0x20 ADD DUP4 DUP2 MSTORE PUSH1 0x20 ADD DUP5 DUP2 MSTORE PUSH1 0x20 ADD DUP3 DUP2 MSTORE PUSH1 0x20 ADD PUSH1 0x0 ISZERO ISZERO DUP2 MSTORE POP PUSH1 0x4 PUSH1 0x0 DUP5 DUP2 MSTORE PUSH1 0x20 ADD SWAP1 DUP2 MSTORE PUSH1 0x20 ADD PUSH1 0x0 KECCAK256 PUSH1 0x0 DUP3 ADD MLOAD DUP2 PUSH1 0x0 ADD PUSH1 0x0 PUSH2 0x100 EXP DUP2 SLOAD DUP2 PUSH1 0x1 PUSH1 0x1 PUSH1 0xA0 SHL SUB MUL NOT AND SWAP1 DUP4 PUSH1 0x1 PUSH1 0x1 PUSH1 0xA0 SHL SUB AND MUL OR SWAP1 SSTORE POP PUSH1 0x20 DUP3 ADD MLOAD DUP2 PUSH1 0x1 ADD PUSH1 0x0 PUSH2 0x100 EXP DUP2 SLOAD DUP2 PUSH1 0x1 PUSH1 0x1 PUSH1 0xA0 SHL SUB MUL NOT AND SWAP1 DUP4 PUSH1 0x1 PUSH1 0x1 PUSH1 0xA0 SHL SUB AND MUL OR SWAP1 SSTORE POP PUSH1 0x40 DUP3 ADD MLOAD DUP2 PUSH1 0x2 ADD PUSH1 0x0 PUSH2 0x100 EXP DUP2 SLOAD DUP2 PUSH1 0x1 PUSH1 0x1 PUSH1 0xA0 SHL SUB MUL NOT AND SWAP1 DUP4 PUSH1 0x1 PUSH1 0x1 PUSH1 0xA0 SHL SUB AND MUL OR SWAP1 SSTORE POP PUSH1 0x60 DUP3 ADD MLOAD DUP2 PUSH1 0x3 ADD SSTORE PUSH1 0x80 DUP3 ADD MLOAD DUP2 PUSH1 0x4 ADD SSTORE PUSH1 0xA0 DUP3 ADD MLOAD DUP2 PUSH1 0x5 ADD SSTORE PUSH1 0xC0 DUP3 ADD MLOAD DUP2 PUSH1 0x6 ADD PUSH1 0x0 PUSH2 0x100 EXP DUP2 SLOAD DUP2 PUSH1 0xFF MUL NOT AND SWAP1 DUP4 ISZERO ISZERO MUL OR SWAP1 SSTORE POP SWAP1 POP POP PUSH1 0x0 PUSH1 0x4 PUSH1 0x0 DUP5 DUP2 MSTORE PUSH1 0x20 ADD SWAP1 DUP2 MSTORE PUSH1 0x20 ADD PUSH1 0x0 KECCAK256 PUSH1 0x40 MLOAD DUP1 PUSH1 0xE0 ADD PUSH1 0x40 MSTORE SWAP1 DUP2 PUSH1 0x0 DUP3 ADD PUSH1 0x0 SWAP1 SLOAD SWAP1 PUSH2 0x100 EXP SWAP1 DIV PUSH1 0x1 PUSH1 0x1 PUSH1 0xA0 SHL SUB AND PUSH1 0x1 PUSH1 0x1 PUSH1 0xA0 SHL SUB AND PUSH1 0x1 PUSH1 0x1 PUSH1 0xA0 SHL SUB AND DUP2 MSTORE PUSH1 0x20 ADD PUSH1 0x1 DUP3 ADD PUSH1 0x0 SWAP1 SLOAD SWAP1 PUSH2 0x100 EXP SWAP1 DIV PUSH1 0x1 PUSH1 0x1 PUSH1 0xA0 SHL SUB AND PUSH1 0x1 PUSH1 0x1 PUSH1 0xA0 SHL SUB AND PUSH1 0x1 PUSH1 0x1 PUSH1 0xA0 SHL SUB AND DUP2 MSTORE PUSH1 0x20 ADD PUSH1 0x2 DUP3 ADD PUSH1 0x0 SWAP1 SLOAD SWAP1 PUSH2 0x100 EXP SWAP1 DIV PUSH1 0x1 PUSH1 0x1 PUSH1 0xA0 SHL SUB AND PUSH1 0x1 PUSH1 0x1 PUSH1 0xA0 SHL SUB AND PUSH1 0x1 PUSH1 0x1 PUSH1 0xA0 SHL SUB AND DUP2 MSTORE PUSH1 0x20 ADD PUSH1 0x3 DUP3 ADD SLOAD DUP2 MSTORE PUSH1 0x20 ADD PUSH1 0x4 DUP3 ADD SLOAD DUP2 MSTORE PUSH1 0x20 ADD PUSH1 0x5 DUP3 ADD SLOAD DUP2 MSTORE PUSH1 0x20 ADD PUSH1 0x6 DUP3 ADD PUSH1 0x0 SWAP1 SLOAD SWAP1 PUSH2 0x100 EXP SWAP1 DIV PUSH1 0xFF AND ISZERO ISZERO ISZERO ISZERO DUP2 MSTORE POP POP SWAP1 POP DUP1 PUSH1 0x40 ADD MLOAD PUSH1 0x1 PUSH1 0x1 PUSH1 0xA0 SHL SUB AND PUSH4 0x23B872DD CALLER ADDRESS DUP5 PUSH1 0x80 ADD MLOAD PUSH1 0x40 MLOAD DUP5 PUSH4 0xFFFFFFFF AND PUSH1 0xE0 SHL DUP2 MSTORE PUSH1 0x4 ADD PUSH2 0x91B SWAP4 SWAP3 SWAP2 SWAP1 PUSH1 0x1 PUSH1 0x1 PUSH1 0xA0 SHL SUB SWAP4 DUP5 AND DUP2 MSTORE SWAP2 SWAP1 SWAP3 AND PUSH1 0x20 DUP3 ADD MSTORE PUSH1 0x40 DUP2 ADD SWAP2 SWAP1 SWAP2 MSTORE PUSH1 0x60 ADD SWAP1 JUMP JUMPDEST PUSH1 0x0 PUSH1 0x40 MLOAD DUP1 DUP4 SUB DUP2 PUSH1 0x0 DUP8 DUP1 EXTCODESIZE ISZERO DUP1 ISZERO PUSH2 0x935 JUMPI PUSH1 0x0 DUP1 REVERT JUMPDEST POP GAS CALL ISZERO DUP1 ISZERO PUSH2 0x949 JUMPI RETURNDATASIZE PUSH1 0x0 DUP1 RETURNDATACOPY RETURNDATASIZE PUSH1 0x0 REVERT JUMPDEST POP POP PUSH1 0x40 DUP1 MLOAD CALLER DUP2 MSTORE PUSH1 0x0 PUSH1 0x20 DUP3 ADD DUP2 SWAP1 MSTORE DUP2 DUP4 ADD DUP8 SWAP1 MSTORE PUSH1 0x60 DUP3 ADD MSTORE SWAP1 MLOAD DUP8 SWAP4 POP PUSH1 0x1 PUSH1 0x1 PUSH1 0xA0 SHL SUB DUP10 AND SWAP3 POP DUP7 SWAP2 PUSH32 0xF9B8A81A1BB3E12B4A9B295AE3F1D8B0255537C0FEAAFC43705B6954B5822D5C SWAP2 SWAP1 DUP2 SWAP1 SUB PUSH1 0x80 ADD SWAP1 LOG4 POP POP POP POP POP JUMP JUMPDEST PUSH1 0x0 PUSH1 0x64 PUSH2 0x9D9 PUSH32 0x0 DUP3 PUSH2 0x1431 JUMP JUMPDEST PUSH1 0x0 DUP5 DUP2 MSTORE PUSH1 0x4 PUSH1 0x20 MSTORE PUSH1 0x40 SWAP1 KECCAK256 PUSH1 0x5 ADD SLOAD PUSH2 0x9F5 SWAP2 SWAP1 PUSH2 0x14D6 JUMP JUMPDEST PUSH2 0x9FF SWAP2 SWAP1 PUSH2 0x14F5 JUMP JUMPDEST SWAP3 SWAP2 POP POP JUMP JUMPDEST PUSH1 0x2 PUSH1 0x0 SLOAD EQ ISZERO PUSH2 0xA31 JUMPI PUSH1 0x40 MLOAD PUSH3 0x461BCD PUSH1 0xE5 SHL DUP2 MSTORE PUSH1 0x4 ADD PUSH2 0xA28 SWAP1 PUSH2 0x1517 JUMP JUMPDEST PUSH1 0x40 MLOAD DUP1 SWAP2 SUB SWAP1 REVERT JUMPDEST PUSH1 0x2 PUSH1 0x0 SWAP1 DUP2 SSTORE PUSH2 0xA41 DUP3 PUSH2 0x9AB JUMP JUMPDEST PUSH1 0x0 DUP4 DUP2 MSTORE PUSH1 0x4 PUSH1 0x20 DUP2 DUP2 MSTORE PUSH1 0x40 DUP1 DUP5 KECCAK256 DUP2 MLOAD PUSH1 0xE0 DUP2 ADD DUP4 MSTORE DUP2 SLOAD PUSH1 0x1 PUSH1 0x1 PUSH1 0xA0 SHL SUB SWAP1 DUP2 AND DUP3 MSTORE PUSH1 0x1 DUP4 ADD SLOAD DUP2 AND SWAP5 DUP3 ADD SWAP5 SWAP1 SWAP5 MSTORE PUSH1 0x2 DUP3 ADD SLOAD SWAP1 SWAP4 AND SWAP2 DUP4 ADD SWAP2 SWAP1 SWAP2 MSTORE PUSH1 0x3 DUP2 ADD SLOAD PUSH1 0x60 DUP4 ADD MSTORE SWAP2 DUP3 ADD SLOAD PUSH1 0x80 DUP3 ADD MSTORE PUSH1 0x5 DUP3 ADD SLOAD PUSH1 0xA0 DUP3 ADD DUP2 SWAP1 MSTORE PUSH1 0x6 SWAP1 SWAP3 ADD SLOAD PUSH1 0xFF AND ISZERO ISZERO PUSH1 0xC0 DUP3 ADD MSTORE SWAP3 SWAP4 POP SWAP1 PUSH2 0xAC3 DUP3 DUP6 PUSH2 0x154E JUMP JUMPDEST DUP4 MLOAD SWAP1 SWAP2 POP DUP6 ISZERO DUP1 ISZERO PUSH2 0xAD7 JUMPI POP PUSH1 0x1 SLOAD DUP7 GT JUMPDEST ISZERO PUSH2 0xAF5 JUMPI PUSH1 0x40 MLOAD PUSH4 0x35AACF65 PUSH1 0xE1 SHL DUP2 MSTORE PUSH1 0x4 ADD PUSH1 0x40 MLOAD DUP1 SWAP2 SUB SWAP1 REVERT JUMPDEST DUP5 CALLVALUE EQ PUSH2 0xB15 JUMPI PUSH1 0x40 MLOAD PUSH4 0x1CBC6A9B PUSH1 0xE0 SHL DUP2 MSTORE PUSH1 0x4 ADD PUSH1 0x40 MLOAD DUP1 SWAP2 SUB SWAP1 REVERT JUMPDEST DUP4 PUSH1 0xC0 ADD MLOAD ISZERO PUSH2 0xB38 JUMPI PUSH1 0x40 MLOAD PUSH4 0xDF28FD7B PUSH1 0xE0 SHL DUP2 MSTORE PUSH1 0x4 ADD PUSH1 0x40 MLOAD DUP1 SWAP2 SUB SWAP1 REVERT JUMPDEST POP CALLER PUSH1 0x20 DUP5 ADD MSTORE PUSH1 0x1 PUSH1 0xC0 DUP5 ADD MSTORE PUSH1 0x0 PUSH2 0xB56 PUSH1 0x2 DUP1 SLOAD PUSH1 0x1 ADD SWAP1 SSTORE JUMP JUMPDEST PUSH1 0x40 DUP1 DUP6 ADD MLOAD PUSH1 0x80 DUP7 ADD MLOAD SWAP2 MLOAD PUSH4 0x23B872DD PUSH1 0xE0 SHL DUP2 MSTORE ADDRESS PUSH1 0x4 DUP3 ADD MSTORE CALLER PUSH1 0x24 DUP3 ADD MSTORE PUSH1 0x44 DUP2 ADD SWAP3 SWAP1 SWAP3 MSTORE PUSH1 0x1 PUSH1 0x1 PUSH1 0xA0 SHL SUB AND SWAP1 PUSH4 0x23B872DD SWAP1 PUSH1 0x64 ADD PUSH1 0x0 PUSH1 0x40 MLOAD DUP1 DUP4 SUB DUP2 PUSH1 0x0 DUP8 DUP1 EXTCODESIZE ISZERO DUP1 ISZERO PUSH2 0xBAE JUMPI PUSH1 0x0 DUP1 REVERT JUMPDEST POP GAS CALL ISZERO DUP1 ISZERO PUSH2 0xBC2 JUMPI RETURNDATASIZE PUSH1 0x0 DUP1 RETURNDATACOPY RETURNDATASIZE PUSH1 0x0 REVERT JUMPDEST POP POP POP POP PUSH1 0x0 DUP2 PUSH1 0x1 PUSH1 0x1 PUSH1 0xA0 SHL SUB AND DUP5 PUSH1 0x40 MLOAD PUSH1 0x0 PUSH1 0x40 MLOAD DUP1 DUP4 SUB DUP2 DUP6 DUP8 GAS CALL SWAP3 POP POP POP RETURNDATASIZE DUP1 PUSH1 0x0 DUP2 EQ PUSH2 0xC13 JUMPI PUSH1 0x40 MLOAD SWAP2 POP PUSH1 0x1F NOT PUSH1 0x3F RETURNDATASIZE ADD AND DUP3 ADD PUSH1 0x40 MSTORE RETURNDATASIZE DUP3 MSTORE RETURNDATASIZE PUSH1 0x0 PUSH1 0x20 DUP5 ADD RETURNDATACOPY PUSH2 0xC18 JUMP JUMPDEST PUSH1 0x60 SWAP2 POP JUMPDEST POP POP SWAP1 POP DUP1 PUSH2 0xC3A JUMPI PUSH1 0x40 MLOAD PUSH4 0x12171D83 PUSH1 0xE3 SHL DUP2 MSTORE PUSH1 0x4 ADD PUSH1 0x40 MLOAD DUP1 SWAP2 SUB SWAP1 REVERT JUMPDEST PUSH1 0x0 PUSH32 0x0 PUSH1 0x1 PUSH1 0x1 PUSH1 0xA0 SHL SUB AND DUP5 PUSH1 0x40 MLOAD PUSH1 0x0 PUSH1 0x40 MLOAD DUP1 DUP4 SUB DUP2 DUP6 DUP8 GAS CALL SWAP3 POP POP POP RETURNDATASIZE DUP1 PUSH1 0x0 DUP2 EQ PUSH2 0xCA7 JUMPI PUSH1 0x40 MLOAD SWAP2 POP PUSH1 0x1F NOT PUSH1 0x3F RETURNDATASIZE ADD AND DUP3 ADD PUSH1 0x40 MSTORE RETURNDATASIZE DUP3 MSTORE RETURNDATASIZE PUSH1 0x0 PUSH1 0x20 DUP5 ADD RETURNDATACOPY PUSH2 0xCAC JUMP JUMPDEST PUSH1 0x60 SWAP2 POP JUMPDEST POP POP SWAP1 POP DUP1 PUSH2 0xCCE JUMPI PUSH1 0x40 MLOAD PUSH4 0x12171D83 PUSH1 0xE3 SHL DUP2 MSTORE PUSH1 0x4 ADD PUSH1 0x40 MLOAD DUP1 SWAP2 SUB SWAP1 REVERT JUMPDEST POP POP PUSH1 0x1 PUSH1 0x0 SSTORE POP POP POP POP POP POP JUMP JUMPDEST PUSH1 0x2 PUSH1 0x0 SLOAD EQ ISZERO PUSH2 0xD00 JUMPI PUSH1 0x40 MLOAD PUSH3 0x461BCD PUSH1 0xE5 SHL DUP2 MSTORE PUSH1 0x4 ADD PUSH2 0xA28 SWAP1 PUSH2 0x1517 JUMP JUMPDEST PUSH1 0x2 PUSH1 0x0 SSTORE PUSH2 0xD13 PUSH1 0x1 DUP1 SLOAD PUSH1 0x1 ADD SWAP1 SSTORE JUMP JUMPDEST PUSH1 0x0 PUSH2 0xD1E PUSH1 0x1 SLOAD SWAP1 JUMP JUMPDEST SWAP1 POP DUP4 PUSH2 0xD2D DUP2 DUP6 DUP5 DUP7 PUSH2 0x4FD JUMP JUMPDEST PUSH1 0x40 DUP1 MLOAD CALLER DUP2 MSTORE PUSH1 0x1 PUSH1 0x1 PUSH1 0xA0 SHL SUB DUP4 AND PUSH1 0x20 DUP3 ADD MSTORE PUSH32 0xE4944A5F0BF5EE82C3C6769E53000A678B52BE77B461A2E8F7B3434EFF94670E SWAP2 ADD PUSH1 0x40 MLOAD DUP1 SWAP2 SUB SWAP1 LOG1 POP POP PUSH1 0x1 PUSH1 0x0 SSTORE POP POP POP JUMP JUMPDEST PUSH1 0x2 PUSH1 0x0 SLOAD EQ ISZERO PUSH2 0xD9D JUMPI PUSH1 0x40 MLOAD PUSH3 0x461BCD PUSH1 0xE5 SHL DUP2 MSTORE PUSH1 0x4 ADD PUSH2 0xA28 SWAP1 PUSH2 0x1517 JUMP JUMPDEST PUSH1 0x2 PUSH1 0x0 SWAP1 DUP2 SSTORE PUSH2 0xDAD DUP4 PUSH2 0x9AB JUMP JUMPDEST PUSH1 0x0 DUP5 DUP2 MSTORE PUSH1 0x4 PUSH1 0x20 DUP2 DUP2 MSTORE PUSH1 0x40 SWAP3 DUP4 SWAP1 KECCAK256 DUP4 MLOAD PUSH1 0xE0 DUP2 ADD DUP6 MSTORE DUP2 SLOAD PUSH1 0x1 PUSH1 0x1 PUSH1 0xA0 SHL SUB SWAP1 DUP2 AND DUP3 MSTORE PUSH1 0x1 DUP4 ADD SLOAD DUP2 AND SWAP4 DUP3 ADD DUP5 SWAP1 MSTORE PUSH1 0x2 DUP4 ADD SLOAD AND SWAP5 DUP2 ADD SWAP5 SWAP1 SWAP5 MSTORE PUSH1 0x3 DUP2 ADD SLOAD PUSH1 0x60 DUP6 ADD MSTORE SWAP2 DUP3 ADD SLOAD PUSH1 0x80 DUP5 ADD MSTORE PUSH1 0x5 DUP3 ADD SLOAD PUSH1 0xA0 DUP5 ADD MSTORE PUSH1 0x6 SWAP1 SWAP2 ADD SLOAD PUSH1 0xFF AND ISZERO ISZERO PUSH1 0xC0 DUP4 ADD MSTORE SWAP2 SWAP3 POP SWAP1 CALLER EQ PUSH2 0xE40 JUMPI PUSH1 0x40 MLOAD PUSH4 0x30CD7471 PUSH1 0xE0 SHL DUP2 MSTORE PUSH1 0x4 ADD PUSH1 0x40 MLOAD DUP1 SWAP2 SUB SWAP1 REVERT JUMPDEST DUP2 CALLVALUE EQ PUSH2 0xE60 JUMPI PUSH1 0x40 MLOAD PUSH4 0x1CBC6A9B PUSH1 0xE0 SHL DUP2 MSTORE PUSH1 0x4 ADD PUSH1 0x40 MLOAD DUP1 SWAP2 SUB SWAP1 REVERT JUMPDEST PUSH1 0x0 PUSH1 0xC0 DUP3 ADD MSTORE PUSH1 0xA0 DUP2 ADD DUP4 SWAP1 MSTORE CALLER DUP2 MSTORE ADDRESS PUSH1 0x20 DUP3 ADD MSTORE PUSH2 0xE81 PUSH1 0x2 PUSH2 0x1233 JUMP JUMPDEST PUSH1 0x40 DUP1 DUP3 ADD MLOAD PUSH1 0x80 DUP4 ADD MLOAD SWAP2 MLOAD PUSH4 0x23B872DD PUSH1 0xE0 SHL DUP2 MSTORE CALLER PUSH1 0x4 DUP3 ADD MSTORE ADDRESS PUSH1 0x24 DUP3 ADD MSTORE PUSH1 0x44 DUP2 ADD SWAP3 SWAP1 SWAP3 MSTORE PUSH1 0x1 PUSH1 0x1 PUSH1 0xA0 SHL SUB AND SWAP1 PUSH4 0x23B872DD SWAP1 PUSH1 0x64 ADD PUSH1 0x0 PUSH1 0x40 MLOAD DUP1 DUP4 SUB DUP2 PUSH1 0x0 DUP8 DUP1 EXTCODESIZE ISZERO DUP1 ISZERO PUSH2 0xED9 JUMPI PUSH1 0x0 DUP1 REVERT JUMPDEST POP GAS CALL ISZERO DUP1 ISZERO PUSH2 0xCCE JUMPI RETURNDATASIZE PUSH1 0x0 DUP1 RETURNDATACOPY RETURNDATASIZE PUSH1 0x0 REVERT JUMPDEST PUSH1 0x60 PUSH1 0x0 PUSH2 0xEFA PUSH1 0x1 SLOAD SWAP1 JUMP JUMPDEST SWAP1 POP PUSH1 0x0 DUP1 PUSH1 0x0 JUMPDEST DUP4 DUP2 LT ISZERO PUSH2 0xF5A JUMPI CALLER PUSH1 0x4 PUSH1 0x0 PUSH2 0xF1A DUP5 PUSH1 0x1 PUSH2 0x1431 JUMP JUMPDEST DUP2 MSTORE PUSH1 0x20 DUP2 ADD SWAP2 SWAP1 SWAP2 MSTORE PUSH1 0x40 ADD PUSH1 0x0 KECCAK256 SLOAD PUSH1 0x1 PUSH1 0x1 PUSH1 0xA0 SHL SUB AND EQ ISZERO PUSH2 0xF48 JUMPI PUSH2 0xF45 PUSH1 0x1 DUP5 PUSH2 0x1431 JUMP JUMPDEST SWAP3 POP JUMPDEST DUP1 PUSH2 0xF52 DUP2 PUSH2 0x1449 JUMP JUMPDEST SWAP2 POP POP PUSH2 0xF02 JUMP JUMPDEST POP PUSH1 0x0 DUP3 PUSH8 0xFFFFFFFFFFFFFFFF DUP2 GT ISZERO PUSH2 0xF76 JUMPI PUSH2 0xF76 PUSH2 0x1464 JUMP JUMPDEST PUSH1 0x40 MLOAD SWAP1 DUP1 DUP3 MSTORE DUP1 PUSH1 0x20 MUL PUSH1 0x20 ADD DUP3 ADD PUSH1 0x40 MSTORE DUP1 ISZERO PUSH2 0xFAF JUMPI DUP2 PUSH1 0x20 ADD JUMPDEST PUSH2 0xF9C PUSH2 0x128A JUMP JUMPDEST DUP2 MSTORE PUSH1 0x20 ADD SWAP1 PUSH1 0x1 SWAP1 SUB SWAP1 DUP2 PUSH2 0xF94 JUMPI SWAP1 POP JUMPDEST POP SWAP1 POP PUSH1 0x0 JUMPDEST DUP5 DUP2 LT ISZERO PUSH2 0x4F4 JUMPI CALLER PUSH1 0x4 PUSH1 0x0 PUSH2 0xFCD DUP5 PUSH1 0x1 PUSH2 0x1431 JUMP JUMPDEST DUP2 MSTORE PUSH1 0x20 DUP2 ADD SWAP2 SWAP1 SWAP2 MSTORE PUSH1 0x40 ADD PUSH1 0x0 KECCAK256 SLOAD PUSH1 0x1 PUSH1 0x1 PUSH1 0xA0 SHL SUB AND EQ ISZERO PUSH2 0x10A0 JUMPI PUSH1 0x0 PUSH2 0xFFA DUP3 PUSH1 0x1 PUSH2 0x1431 JUMP JUMPDEST PUSH1 0x0 DUP2 DUP2 MSTORE PUSH1 0x4 PUSH1 0x20 DUP2 DUP2 MSTORE PUSH1 0x40 SWAP3 DUP4 SWAP1 KECCAK256 DUP4 MLOAD PUSH1 0xE0 DUP2 ADD DUP6 MSTORE DUP2 SLOAD PUSH1 0x1 PUSH1 0x1 PUSH1 0xA0 SHL SUB SWAP1 DUP2 AND DUP3 MSTORE PUSH1 0x1 DUP4 ADD SLOAD DUP2 AND SWAP4 DUP3 ADD SWAP4 SWAP1 SWAP4 MSTORE PUSH1 0x2 DUP3 ADD SLOAD SWAP1 SWAP3 AND SWAP4 DUP3 ADD SWAP4 SWAP1 SWAP4 MSTORE PUSH1 0x3 DUP4 ADD SLOAD PUSH1 0x60 DUP3 ADD MSTORE SWAP1 DUP3 ADD SLOAD PUSH1 0x80 DUP3 ADD MSTORE PUSH1 0x5 DUP3 ADD SLOAD PUSH1 0xA0 DUP3 ADD MSTORE PUSH1 0x6 DUP3 ADD SLOAD PUSH1 0xFF AND ISZERO ISZERO PUSH1 0xC0 DUP3 ADD MSTORE DUP6 MLOAD SWAP3 SWAP4 POP SWAP1 SWAP2 DUP6 SWAP1 DUP8 SWAP1 DUP2 LT PUSH2 0x1085 JUMPI PUSH2 0x1085 PUSH2 0x147A JUMP JUMPDEST PUSH1 0x20 SWAP1 DUP2 MUL SWAP2 SWAP1 SWAP2 ADD ADD MSTORE PUSH2 0x109B PUSH1 0x1 DUP7 PUSH2 0x1431 JUMP JUMPDEST SWAP5 POP POP POP JUMPDEST DUP1 PUSH2 0x10AA DUP2 PUSH2 0x1449 JUMP JUMPDEST SWAP2 POP POP PUSH2 0xFB5 JUMP JUMPDEST PUSH1 0x60 PUSH1 0x0 PUSH2 0x10BF PUSH1 0x1 SLOAD SWAP1 JUMP JUMPDEST SWAP1 POP PUSH1 0x0 PUSH2 0x10CC PUSH1 0x2 SLOAD SWAP1 JUMP JUMPDEST PUSH1 0x1 SLOAD PUSH2 0x10D9 SWAP2 SWAP1 PUSH2 0x154E JUMP JUMPDEST SWAP1 POP PUSH1 0x0 DUP1 DUP3 PUSH8 0xFFFFFFFFFFFFFFFF DUP2 GT ISZERO PUSH2 0x10F7 JUMPI PUSH2 0x10F7 PUSH2 0x1464 JUMP JUMPDEST PUSH1 0x40 MLOAD SWAP1 DUP1 DUP3 MSTORE DUP1 PUSH1 0x20 MUL PUSH1 0x20 ADD DUP3 ADD PUSH1 0x40 MSTORE DUP1 ISZERO PUSH2 0x1130 JUMPI DUP2 PUSH1 0x20 ADD JUMPDEST PUSH2 0x111D PUSH2 0x128A JUMP JUMPDEST DUP2 MSTORE PUSH1 0x20 ADD SWAP1 PUSH1 0x1 SWAP1 SUB SWAP1 DUP2 PUSH2 0x1115 JUMPI SWAP1 POP JUMPDEST POP SWAP1 POP PUSH1 0x0 JUMPDEST DUP5 DUP2 LT ISZERO PUSH2 0x4F4 JUMPI ADDRESS PUSH1 0x4 PUSH1 0x0 PUSH2 0x114E DUP5 PUSH1 0x1 PUSH2 0x1431 JUMP JUMPDEST DUP2 MSTORE PUSH1 0x20 DUP2 ADD SWAP2 SWAP1 SWAP2 MSTORE PUSH1 0x40 ADD PUSH1 0x0 KECCAK256 SLOAD PUSH1 0x1 PUSH1 0x1 PUSH1 0xA0 SHL SUB AND EQ ISZERO PUSH2 0x1221 JUMPI PUSH1 0x0 PUSH2 0x117B DUP3 PUSH1 0x1 PUSH2 0x1431 JUMP JUMPDEST PUSH1 0x0 DUP2 DUP2 MSTORE PUSH1 0x4 PUSH1 0x20 DUP2 DUP2 MSTORE PUSH1 0x40 SWAP3 DUP4 SWAP1 KECCAK256 DUP4 MLOAD PUSH1 0xE0 DUP2 ADD DUP6 MSTORE DUP2 SLOAD PUSH1 0x1 PUSH1 0x1 PUSH1 0xA0 SHL SUB SWAP1 DUP2 AND DUP3 MSTORE PUSH1 0x1 DUP4 ADD SLOAD DUP2 AND SWAP4 DUP3 ADD SWAP4 SWAP1 SWAP4 MSTORE PUSH1 0x2 DUP3 ADD SLOAD SWAP1 SWAP3 AND SWAP4 DUP3 ADD SWAP4 SWAP1 SWAP4 MSTORE PUSH1 0x3 DUP4 ADD SLOAD PUSH1 0x60 DUP3 ADD MSTORE SWAP1 DUP3 ADD SLOAD PUSH1 0x80 DUP3 ADD MSTORE PUSH1 0x5 DUP3 ADD SLOAD PUSH1 0xA0 DUP3 ADD MSTORE PUSH1 0x6 DUP3 ADD SLOAD PUSH1 0xFF AND ISZERO ISZERO PUSH1 0xC0 DUP3 ADD MSTORE DUP6 MLOAD SWAP3 SWAP4 POP SWAP1 SWAP2 DUP6 SWAP1 DUP5 SWAP1 DUP2 LT PUSH2 0x1206 JUMPI PUSH2 0x1206 PUSH2 0x147A JUMP JUMPDEST PUSH1 0x20 SWAP1 DUP2 MUL SWAP2 SWAP1 SWAP2 ADD ADD MSTORE PUSH2 0x121C PUSH1 0x1 DUP7 PUSH2 0x1431 JUMP JUMPDEST SWAP5 POP POP POP JUMPDEST DUP1 PUSH2 0x122B DUP2 PUSH2 0x1449 JUMP JUMPDEST SWAP2 POP POP PUSH2 0x1136 JUMP JUMPDEST DUP1 SLOAD DUP1 PUSH2 0x1282 JUMPI PUSH1 0x40 MLOAD PUSH3 0x461BCD PUSH1 0xE5 SHL DUP2 MSTORE PUSH1 0x20 PUSH1 0x4 DUP3 ADD MSTORE PUSH1 0x1B PUSH1 0x24 DUP3 ADD MSTORE PUSH32 0x436F756E7465723A2064656372656D656E74206F766572666C6F770000000000 PUSH1 0x44 DUP3 ADD MSTORE PUSH1 0x64 ADD PUSH2 0xA28 JUMP JUMPDEST PUSH1 0x0 NOT ADD SWAP1 SSTORE JUMP JUMPDEST PUSH1 0x40 DUP1 MLOAD PUSH1 0xE0 DUP2 ADD DUP3 MSTORE PUSH1 0x0 DUP1 DUP3 MSTORE PUSH1 0x20 DUP3 ADD DUP2 SWAP1 MSTORE SWAP2 DUP2 ADD DUP3 SWAP1 MSTORE PUSH1 0x60 DUP2 ADD DUP3 SWAP1 MSTORE PUSH1 0x80 DUP2 ADD DUP3 SWAP1 MSTORE PUSH1 0xA0 DUP2 ADD DUP3 SWAP1 MSTORE PUSH1 0xC0 DUP2 ADD SWAP2 SWAP1 SWAP2 MSTORE SWAP1 JUMP JUMPDEST PUSH1 0x20 DUP1 DUP3 MSTORE DUP3 MLOAD DUP3 DUP3 ADD DUP2 SWAP1 MSTORE PUSH1 0x0 SWAP2 SWAP1 PUSH1 0x40 SWAP1 DUP2 DUP6 ADD SWAP1 DUP7 DUP5 ADD DUP6 JUMPDEST DUP3 DUP2 LT ISZERO PUSH2 0x134B JUMPI DUP2 MLOAD DUP1 MLOAD PUSH1 0x1 PUSH1 0x1 PUSH1 0xA0 SHL SUB SWAP1 DUP2 AND DUP7 MSTORE DUP8 DUP3 ADD MLOAD DUP2 AND DUP9 DUP8 ADD MSTORE DUP7 DUP3 ADD MLOAD AND DUP7 DUP7 ADD MSTORE PUSH1 0x60 DUP1 DUP3 ADD MLOAD SWAP1 DUP7 ADD MSTORE PUSH1 0x80 DUP1 DUP3 ADD MLOAD SWAP1 DUP7 ADD MSTORE PUSH1 0xA0 DUP1 DUP3 ADD MLOAD SWAP1 DUP7 ADD MSTORE PUSH1 0xC0 SWAP1 DUP2 ADD MLOAD ISZERO ISZERO SWAP1 DUP6 ADD MSTORE PUSH1 0xE0 SWAP1 SWAP4 ADD SWAP3 SWAP1 DUP6 ADD SWAP1 PUSH1 0x1 ADD PUSH2 0x12E3 JUMP JUMPDEST POP SWAP2 SWAP8 SWAP7 POP POP POP POP POP POP POP JUMP JUMPDEST PUSH1 0x1 PUSH1 0x1 PUSH1 0xA0 SHL SUB DUP2 AND DUP2 EQ PUSH2 0x136D JUMPI PUSH1 0x0 DUP1 REVERT JUMPDEST POP JUMP JUMPDEST PUSH1 0x0 DUP1 PUSH1 0x0 DUP1 PUSH1 0x80 DUP6 DUP8 SUB SLT ISZERO PUSH2 0x1386 JUMPI PUSH1 0x0 DUP1 REVERT JUMPDEST DUP5 CALLDATALOAD PUSH2 0x1391 DUP2 PUSH2 0x1358 JUMP JUMPDEST SWAP7 PUSH1 0x20 DUP7 ADD CALLDATALOAD SWAP7 POP PUSH1 0x40 DUP7 ADD CALLDATALOAD SWAP6 PUSH1 0x60 ADD CALLDATALOAD SWAP5 POP SWAP3 POP POP POP JUMP JUMPDEST PUSH1 0x0 PUSH1 0x20 DUP3 DUP5 SUB SLT ISZERO PUSH2 0x13BD JUMPI PUSH1 0x0 DUP1 REVERT JUMPDEST POP CALLDATALOAD SWAP2 SWAP1 POP JUMP JUMPDEST PUSH1 0x0 DUP1 PUSH1 0x0 PUSH1 0x60 DUP5 DUP7 SUB SLT ISZERO PUSH2 0x13D9 JUMPI PUSH1 0x0 DUP1 REVERT JUMPDEST DUP4 CALLDATALOAD PUSH2 0x13E4 DUP2 PUSH2 0x1358 JUMP JUMPDEST SWAP6 PUSH1 0x20 DUP6 ADD CALLDATALOAD SWAP6 POP PUSH1 0x40 SWAP1 SWAP5 ADD CALLDATALOAD SWAP4 SWAP3 POP POP POP JUMP JUMPDEST PUSH1 0x0 DUP1 PUSH1 0x40 DUP4 DUP6 SUB SLT ISZERO PUSH2 0x140C JUMPI PUSH1 0x0 DUP1 REVERT JUMPDEST POP POP DUP1 CALLDATALOAD SWAP3 PUSH1 0x20 SWAP1 SWAP2 ADD CALLDATALOAD SWAP2 POP JUMP JUMPDEST PUSH4 0x4E487B71 PUSH1 0xE0 SHL PUSH1 0x0 MSTORE PUSH1 0x11 PUSH1 0x4 MSTORE PUSH1 0x24 PUSH1 0x0 REVERT JUMPDEST PUSH1 0x0 DUP3 NOT DUP3 GT ISZERO PUSH2 0x1444 JUMPI PUSH2 0x1444 PUSH2 0x141B JUMP JUMPDEST POP ADD SWAP1 JUMP JUMPDEST PUSH1 0x0 PUSH1 0x0 NOT DUP3 EQ ISZERO PUSH2 0x145D JUMPI PUSH2 0x145D PUSH2 0x141B JUMP JUMPDEST POP PUSH1 0x1 ADD SWAP1 JUMP JUMPDEST PUSH4 0x4E487B71 PUSH1 0xE0 SHL PUSH1 0x0 MSTORE PUSH1 0x41 PUSH1 0x4 MSTORE PUSH1 0x24 PUSH1 0x0 REVERT JUMPDEST PUSH4 0x4E487B71 PUSH1 0xE0 SHL PUSH1 0x0 MSTORE PUSH1 0x32 PUSH1 0x4 MSTORE PUSH1 0x24 PUSH1 0x0 REVERT JUMPDEST PUSH1 0x0 PUSH1 0x20 DUP3 DUP5 SUB SLT ISZERO PUSH2 0x14A2 JUMPI PUSH1 0x0 DUP1 REVERT JUMPDEST DUP2 MLOAD DUP1 ISZERO ISZERO DUP2 EQ PUSH2 0x14B2 JUMPI PUSH1 0x0 DUP1 REVERT JUMPDEST SWAP4 SWAP3 POP POP POP JUMP JUMPDEST PUSH1 0x0 PUSH1 0x20 DUP3 DUP5 SUB SLT ISZERO PUSH2 0x14CB JUMPI PUSH1 0x0 DUP1 REVERT JUMPDEST DUP2 MLOAD PUSH2 0x14B2 DUP2 PUSH2 0x1358 JUMP JUMPDEST PUSH1 0x0 DUP2 PUSH1 0x0 NOT DIV DUP4 GT DUP3 ISZERO ISZERO AND ISZERO PUSH2 0x14F0 JUMPI PUSH2 0x14F0 PUSH2 0x141B JUMP JUMPDEST POP MUL SWAP1 JUMP JUMPDEST PUSH1 0x0 DUP3 PUSH2 0x1512 JUMPI PUSH4 0x4E487B71 PUSH1 0xE0 SHL PUSH1 0x0 MSTORE PUSH1 0x12 PUSH1 0x4 MSTORE PUSH1 0x24 PUSH1 0x0 REVERT JUMPDEST POP DIV SWAP1 JUMP JUMPDEST PUSH1 0x20 DUP1 DUP3 MSTORE PUSH1 0x1F SWAP1 DUP3 ADD MSTORE PUSH32 0x5265656E7472616E637947756172643A207265656E7472616E742063616C6C00 PUSH1 0x40 DUP3 ADD MSTORE PUSH1 0x60 ADD SWAP1 JUMP JUMPDEST PUSH1 0x0 DUP3 DUP3 LT ISZERO PUSH2 0x1560 JUMPI PUSH2 0x1560 PUSH2 0x141B JUMP JUMPDEST POP SUB SWAP1 JUMP INVALID LOG2 PUSH5 0x6970667358 0x22 SLT KECCAK256 0xC6 0xD9 EQ PUSH6 0xAE7625C3E68 0xB8 0xAF MSTORE PUSH25 0x6A31032BF00FBF5CDF9357128502496BAB9864736F6C634300 ADDMOD 0xC STOP CALLER "},"methodIdentifiers":{"createMarketSale(uint256)":"be9af536","createNFTListing(address,uint256,uint256)":"db80135a","feePercent()":"7fd6f15c","feeReceiver()":"b3f00674","fetchMarketListings()":"f654fc4f","fetchMyNFTs()":"202e3740","fetchOwnedListings()":"e75db0d0","getFinalPrice(uint256)":"4b554954","listNFT(address,uint256,uint256,uint256)":"3c44a5f0","listings(uint256)":"de74e57b","offers(uint256)":"8a72ea6a","resellToken(uint256,uint256)":"e219fc75"}},"storageLayout":{"storage":[{"astId":10,"contract":"contracts/SaigonMarket.sol:SaigonMarket","label":"_status","offset":0,"slot":"0","type":"t_uint256"},{"astId":2719,"contract":"contracts/SaigonMarket.sol:SaigonMarket","label":"_listingIds","offset":0,"slot":"1","type":"t_struct(Counter)2032_storage"},{"astId":2722,"contract":"contracts/SaigonMarket.sol:SaigonMarket","label":"_listingsSold","offset":0,"slot":"2","type":"t_struct(Counter)2032_storage"},{"astId":2807,"contract":"contracts/SaigonMarket.sol:SaigonMarket","label":"owner","offset":0,"slot":"3","type":"t_address_payable"},{"astId":2817,"contract":"contracts/SaigonMarket.sol:SaigonMarket","label":"listings","offset":0,"slot":"4","type":"t_mapping(t_uint256,t_struct(Listing)2782_storage)"},{"astId":2823,"contract":"contracts/SaigonMarket.sol:SaigonMarket","label":"offers","offset":0,"slot":"5","type":"t_mapping(t_uint256,t_struct(Offer)2792_storage)"}],"types":{"t_address_payable":{"encoding":"inplace","label":"address payable","numberOfBytes":"20"},"t_bool":{"encoding":"inplace","label":"bool","numberOfBytes":"1"},"t_contract(IERC20)239":{"encoding":"inplace","label":"contract IERC20","numberOfBytes":"20"},"t_contract(IERC721)1539":{"encoding":"inplace","label":"contract IERC721","numberOfBytes":"20"},"t_mapping(t_uint256,t_struct(Listing)2782_storage)":{"encoding":"mapping","key":"t_uint256","label":"mapping(uint256 => struct SaigonMarket.Listing)","numberOfBytes":"32","value":"t_struct(Listing)2782_storage"},"t_mapping(t_uint256,t_struct(Offer)2792_storage)":{"encoding":"mapping","key":"t_uint256","label":"mapping(uint256 => struct SaigonMarket.Offer)","numberOfBytes":"32","value":"t_struct(Offer)2792_storage"},"t_struct(Counter)2032_storage":{"encoding":"inplace","label":"struct Counters.Counter","members":[{"astId":2031,"contract":"contracts/SaigonMarket.sol:SaigonMarket","label":"_value","offset":0,"slot":"0","type":"t_uint256"}],"numberOfBytes":"32"},"t_struct(Listing)2782_storage":{"encoding":"inplace","label":"struct SaigonMarket.Listing","members":[{"astId":2768,"contract":"contracts/SaigonMarket.sol:SaigonMarket","label":"seller","offset":0,"slot":"0","type":"t_address_payable"},{"astId":2770,"contract":"contracts/SaigonMarket.sol:SaigonMarket","label":"owner","offset":0,"slot":"1","type":"t_address_payable"},{"astId":2773,"contract":"contracts/SaigonMarket.sol:SaigonMarket","label":"nft","offset":0,"slot":"2","type":"t_contract(IERC721)1539"},{"astId":2775,"contract":"contracts/SaigonMarket.sol:SaigonMarket","label":"listingId","offset":0,"slot":"3","type":"t_uint256"},{"astId":2777,"contract":"contracts/SaigonMarket.sol:SaigonMarket","label":"tokenId","offset":0,"slot":"4","type":"t_uint256"},{"astId":2779,"contract":"contracts/SaigonMarket.sol:SaigonMarket","label":"pricePerItem","offset":0,"slot":"5","type":"t_uint256"},{"astId":2781,"contract":"contracts/SaigonMarket.sol:SaigonMarket","label":"sold","offset":0,"slot":"6","type":"t_bool"}],"numberOfBytes":"224"},"t_struct(Offer)2792_storage":{"encoding":"inplace","label":"struct SaigonMarket.Offer","members":[{"astId":2785,"contract":"contracts/SaigonMarket.sol:SaigonMarket","label":"payToken","offset":0,"slot":"0","type":"t_contract(IERC20)239"},{"astId":2787,"contract":"contracts/SaigonMarket.sol:SaigonMarket","label":"quantity","offset":0,"slot":"1","type":"t_uint256"},{"astId":2789,"contract":"contracts/SaigonMarket.sol:SaigonMarket","label":"pricePerItem","offset":0,"slot":"2","type":"t_uint256"},{"astId":2791,"contract":"contracts/SaigonMarket.sol:SaigonMarket","label":"deadline","offset":0,"slot":"3","type":"t_uint256"}],"numberOfBytes":"128"},"t_uint256":{"encoding":"inplace","label":"uint256","numberOfBytes":"32"}}}}}}