{
  "_format": "hh-sol-artifact-1",
  "contractName": "PriceConsumerV3",
  "sourceName": "contracts/PriceFeed/PriceconsumerV3.sol",
  "abi": [
    {
      "inputs": [],
      "stateMutability": "nonpayable",
      "type": "constructor"
    },
    {
      "inputs": [],
      "name": "getLatestPrice",
      "outputs": [
        {
          "internalType": "int256",
          "name": "",
          "type": "int256"
        }
      ],
      "stateMutability": "view",
      "type": "function"
    }
  ],
  "bytecode": "0x608060405234801561001057600080fd5b50600080546001600160a01b03191673d4a33860578de61dbabdc8bfdb98fd742fa7028e1790556101c3806100466000396000f3fe608060405234801561001057600080fd5b506004361061002b5760003560e01c80638e15f47314610030575b600080fd5b61003861004a565b60405190815260200160405180910390f35b6000805460408051633fabe5a360e21b8152905183926001600160a01b03169163feaf968c9160048083019260a09291908290030181865afa158015610094573d6000803e3d6000fd5b505050506040513d601f19601f820116820180604052508101906100b891906100f3565b5050509150506305f5e100816100ce9190610143565b91505090565b805169ffffffffffffffffffff811681146100ee57600080fd5b919050565b600080600080600060a0868803121561010b57600080fd5b610114866100d4565b9450602086015193506040860151925060608601519150610137608087016100d4565b90509295509295909350565b60008261016057634e487b7160e01b600052601260045260246000fd5b600160ff1b82146000198414161561018857634e487b7160e01b600052601160045260246000fd5b50059056fea264697066735822122016ba9ce20bb8eb333eb909e37ef6e6e83cdf221cc90b4a08e5080eeffd8443a364736f6c634300080c0033",
  "linkReferences": {},
  "deployedLinkReferences": {}
}