{
  "_format": "hh-sol-artifact-1",
  "contractName": "PriceConverter",
  "sourceName": "contracts/PriceFeed/PriceConverter.sol",
  "abi": [
    {
      "inputs": [
        {
          "internalType": "address",
          "name": "_base",
          "type": "address"
        },
        {
          "internalType": "address",
          "name": "_quote",
          "type": "address"
        },
        {
          "internalType": "uint8",
          "name": "_decimals",
          "type": "uint8"
        }
      ],
      "name": "getDerivedPrice",
      "outputs": [
        {
          "internalType": "int256",
          "name": "",
          "type": "int256"
        }
      ],
      "stateMutability": "view",
      "type": "function"
    }
  ],
  "bytecode": "0x608060405234801561001057600080fd5b50610a2f806100206000396000f3fe608060405234801561001057600080fd5b506004361061002b5760003560e01c80639743665514610030575b600080fd5b61004a60048036038101906100459190610403565b610060565b604051610057919061046f565b60405180910390f35b60008060ff168260ff1611801561007e5750601260ff168260ff1611155b6100bd576040517f08c379a00000000000000000000000000000000000000000000000000000000081526004016100b4906104e7565b60405180910390fd5b60008260ff16600a6100cf9190610673565b905060008573ffffffffffffffffffffffffffffffffffffffff1663feaf968c6040518163ffffffff1660e01b815260040160a060405180830381865afa15801561011e573d6000803e3d6000fd5b505050506040513d601f19601f820116820180604052508101906101429190610758565b50505091505060008673ffffffffffffffffffffffffffffffffffffffff1663313ce5676040518163ffffffff1660e01b8152600401602060405180830381865afa158015610195573d6000803e3d6000fd5b505050506040513d601f19601f820116820180604052508101906101b991906107e8565b90506101c68282876102e4565b915060008673ffffffffffffffffffffffffffffffffffffffff1663feaf968c6040518163ffffffff1660e01b815260040160a060405180830381865afa158015610215573d6000803e3d6000fd5b505050506040513d601f19601f820116820180604052508101906102399190610758565b50505091505060008773ffffffffffffffffffffffffffffffffffffffff1663313ce5676040518163ffffffff1660e01b8152600401602060405180830381865afa15801561028c573d6000803e3d6000fd5b505050506040513d601f19601f820116820180604052508101906102b091906107e8565b90506102bd8282896102e4565b91508185856102cc9190610815565b6102d6919061095b565b955050505050509392505050565b60008160ff168360ff16101561032157828261030091906109c5565b60ff16600a61030f9190610673565b8461031a9190610815565b9050610360565b8160ff168360ff16111561035c57818361033b91906109c5565b60ff16600a61034a9190610673565b84610355919061095b565b9050610360565b8390505b9392505050565b600080fd5b600073ffffffffffffffffffffffffffffffffffffffff82169050919050565b60006103978261036c565b9050919050565b6103a78161038c565b81146103b257600080fd5b50565b6000813590506103c48161039e565b92915050565b600060ff82169050919050565b6103e0816103ca565b81146103eb57600080fd5b50565b6000813590506103fd816103d7565b92915050565b60008060006060848603121561041c5761041b610367565b5b600061042a868287016103b5565b935050602061043b868287016103b5565b925050604061044c868287016103ee565b9150509250925092565b6000819050919050565b61046981610456565b82525050565b60006020820190506104846000830184610460565b92915050565b600082825260208201905092915050565b7f496e76616c6964205f646563696d616c73000000000000000000000000000000600082015250565b60006104d160118361048a565b91506104dc8261049b565b602082019050919050565b60006020820190508181036000830152610500816104c4565b9050919050565b7f4e487b7100000000000000000000000000000000000000000000000000000000600052601160045260246000fd5b60008160011c9050919050565b6000808291508390505b600185111561058d5780860481111561056957610568610507565b5b60018516156105785780820291505b808102905061058685610536565b945061054d565b94509492505050565b6000826105a65760019050610662565b816105b45760009050610662565b81600181146105ca57600281146105d457610603565b6001915050610662565b60ff8411156105e6576105e5610507565b5b8360020a9150848211156105fd576105fc610507565b5b50610662565b5060208310610133831016604e8410600b84101617156106385782820a90508381111561063357610632610507565b5b610662565b6106458484846001610543565b9250905081840481111561065c5761065b610507565b5b81810290505b9392505050565b6000819050919050565b600061067e82610669565b915061068983610669565b92506106b67fffffffffffffffffffffffffffffffffffffffffffffffffffffffffffffffff8484610596565b905092915050565b600069ffffffffffffffffffff82169050919050565b6106dd816106be565b81146106e857600080fd5b50565b6000815190506106fa816106d4565b92915050565b61070981610456565b811461071457600080fd5b50565b60008151905061072681610700565b92915050565b61073581610669565b811461074057600080fd5b50565b6000815190506107528161072c565b92915050565b600080600080600060a0868803121561077457610773610367565b5b6000610782888289016106eb565b955050602061079388828901610717565b94505060406107a488828901610743565b93505060606107b588828901610743565b92505060806107c6888289016106eb565b9150509295509295909350565b6000815190506107e2816103d7565b92915050565b6000602082840312156107fe576107fd610367565b5b600061080c848285016107d3565b91505092915050565b600061082082610456565b915061082b83610456565b9250827f7fffffffffffffffffffffffffffffffffffffffffffffffffffffffffffffff048211600084136000841316161561086a57610869610507565b5b817f800000000000000000000000000000000000000000000000000000000000000005831260008412600084131616156108a7576108a6610507565b5b827f800000000000000000000000000000000000000000000000000000000000000005821260008413600084121616156108e4576108e3610507565b5b827f7fffffffffffffffffffffffffffffffffffffffffffffffffffffffffffffff058212600084126000841216161561092157610920610507565b5b828202905092915050565b7f4e487b7100000000000000000000000000000000000000000000000000000000600052601260045260246000fd5b600061096682610456565b915061097183610456565b9250826109815761098061092c565b5b600160000383147f8000000000000000000000000000000000000000000000000000000000000000831416156109ba576109b9610507565b5b828205905092915050565b60006109d0826103ca565b91506109db836103ca565b9250828210156109ee576109ed610507565b5b82820390509291505056fea2646970667358221220f1dde38cf0c3189f717e9590f1683bb4612930fcff0abc603b336647bd2f46b964736f6c634300080c0033",
  "linkReferences": {},
  "deployedLinkReferences": {}
}