{
  "_format": "hh-sol-artifact-1",
  "contractName": "PriceConverter",
  "sourceName": "contracts/PriceFeed/PriceConverter.sol",
  "abi": [
    {
      "inputs": [
        {
          "internalType": "address",
          "name": "_base",
          "type": "address"
        },
        {
          "internalType": "address",
          "name": "_quote",
          "type": "address"
        },
        {
          "internalType": "uint8",
          "name": "_decimals",
          "type": "uint8"
        }
      ],
      "name": "getDerivedPrice",
      "outputs": [
        {
          "internalType": "int256",
          "name": "",
          "type": "int256"
        }
      ],
      "stateMutability": "view",
      "type": "function"
    }
  ],
  "bytecode": "0x608060405234801561001057600080fd5b50610630806100206000396000f3fe608060405234801561001057600080fd5b506004361061002b5760003560e01c80639743665514610030575b600080fd5b61004361003e366004610340565b610055565b60405190815260200160405180910390f35b600060ff82161580159061006d5750601260ff831611155b6100b15760405162461bcd60e51b8152602060048201526011602482015270496e76616c6964205f646563696d616c7360781b604482015260640160405180910390fd5b60006100c160ff8416600a610483565b90506000856001600160a01b031663feaf968c6040518163ffffffff1660e01b815260040160a060405180830381865afa158015610103573d6000803e3d6000fd5b505050506040513d601f19601f8201168201806040525081019061012791906104a9565b5050509150506000866001600160a01b031663313ce5676040518163ffffffff1660e01b8152600401602060405180830381865afa15801561016d573d6000803e3d6000fd5b505050506040513d601f19601f8201168201806040525081019061019191906104f9565b905061019e8282876102a1565b91506000866001600160a01b031663feaf968c6040518163ffffffff1660e01b815260040160a060405180830381865afa1580156101e0573d6000803e3d6000fd5b505050506040513d601f19601f8201168201806040525081019061020491906104a9565b5050509150506000876001600160a01b031663313ce5676040518163ffffffff1660e01b8152600401602060405180830381865afa15801561024a573d6000803e3d6000fd5b505050506040513d601f19601f8201168201806040525081019061026e91906104f9565b905061027b8282896102a1565b9150816102888686610516565b610292919061059b565b955050505050505b9392505050565b60008160ff168360ff1610156102da576102bb83836105d7565b6102c99060ff16600a610483565b6102d39085610516565b905061029a565b8160ff168360ff16111561030a576102f282846105d7565b6103009060ff16600a610483565b6102d3908561059b565b509192915050565b80356001600160a01b038116811461032957600080fd5b919050565b60ff8116811461033d57600080fd5b50565b60008060006060848603121561035557600080fd5b61035e84610312565b925061036c60208501610312565b9150604084013561037c8161032e565b809150509250925092565b634e487b7160e01b600052601160045260246000fd5b600181815b808511156103d85781600019048211156103be576103be610387565b808516156103cb57918102915b93841c93908002906103a2565b509250929050565b6000826103ef5750600161047d565b816103fc5750600061047d565b8160018114610412576002811461041c57610438565b600191505061047d565b60ff84111561042d5761042d610387565b50506001821b61047d565b5060208310610133831016604e8410600b841016171561045b575081810a61047d565b610465838361039d565b806000190482111561047957610479610387565b0290505b92915050565b600061029a83836103e0565b805169ffffffffffffffffffff8116811461032957600080fd5b600080600080600060a086880312156104c157600080fd5b6104ca8661048f565b94506020860151935060408601519250606086015191506104ed6080870161048f565b90509295509295909350565b60006020828403121561050b57600080fd5b815161029a8161032e565b60006001600160ff1b038184138284138082168684048611161561053c5761053c610387565b600160ff1b600087128281168783058912161561055b5761055b610387565b6000871292508782058712848416161561057757610577610387565b8785058712818416161561058d5761058d610387565b505050929093029392505050565b6000826105b857634e487b7160e01b600052601260045260246000fd5b600160ff1b8214600019841416156105d2576105d2610387565b500590565b600060ff821660ff8416808210156105f1576105f1610387565b9003939250505056fea2646970667358221220d0f1785b79a88835b0bdab47ba4c7d1c8b6d2b5f8792fa20e20079f65584ec3c64736f6c634300080c0033",
  "linkReferences": {},
  "deployedLinkReferences": {}
}