{
  "_format": "hh-sol-artifact-1",
  "contractName": "SaigonNFT",
  "sourceName": "contracts/SaigonNftFactory.sol",
  "abi": [
    {
      "inputs": [],
      "stateMutability": "nonpayable",
      "type": "constructor"
    },
    {
      "anonymous": false,
      "inputs": [
        {
          "indexed": true,
          "internalType": "address",
          "name": "owner",
          "type": "address"
        },
        {
          "indexed": true,
          "internalType": "address",
          "name": "approved",
          "type": "address"
        },
        {
          "indexed": true,
          "internalType": "uint256",
          "name": "tokenId",
          "type": "uint256"
        }
      ],
      "name": "Approval",
      "type": "event"
    },
    {
      "anonymous": false,
      "inputs": [
        {
          "indexed": true,
          "internalType": "address",
          "name": "owner",
          "type": "address"
        },
        {
          "indexed": true,
          "internalType": "address",
          "name": "operator",
          "type": "address"
        },
        {
          "indexed": false,
          "internalType": "bool",
          "name": "approved",
          "type": "bool"
        }
      ],
      "name": "ApprovalForAll",
      "type": "event"
    },
    {
      "anonymous": false,
      "inputs": [
        {
          "indexed": false,
          "internalType": "string",
          "name": "tokenUri",
          "type": "string"
        }
      ],
      "name": "Minted",
      "type": "event"
    },
    {
      "anonymous": false,
      "inputs": [
        {
          "indexed": true,
          "internalType": "address",
          "name": "from",
          "type": "address"
        },
        {
          "indexed": true,
          "internalType": "address",
          "name": "to",
          "type": "address"
        },
        {
          "indexed": true,
          "internalType": "uint256",
          "name": "tokenId",
          "type": "uint256"
        }
      ],
      "name": "Transfer",
      "type": "event"
    },
    {
      "inputs": [],
      "name": "_tokenIds",
      "outputs": [
        {
          "internalType": "uint256",
          "name": "_value",
          "type": "uint256"
        }
      ],
      "stateMutability": "view",
      "type": "function"
    },
    {
      "inputs": [
        {
          "internalType": "address",
          "name": "to",
          "type": "address"
        },
        {
          "internalType": "uint256",
          "name": "tokenId",
          "type": "uint256"
        }
      ],
      "name": "approve",
      "outputs": [],
      "stateMutability": "nonpayable",
      "type": "function"
    },
    {
      "inputs": [
        {
          "internalType": "address",
          "name": "owner",
          "type": "address"
        }
      ],
      "name": "balanceOf",
      "outputs": [
        {
          "internalType": "uint256",
          "name": "",
          "type": "uint256"
        }
      ],
      "stateMutability": "view",
      "type": "function"
    },
    {
      "inputs": [
        {
          "internalType": "uint256",
          "name": "tokenId",
          "type": "uint256"
        }
      ],
      "name": "getApproved",
      "outputs": [
        {
          "internalType": "address",
          "name": "",
          "type": "address"
        }
      ],
      "stateMutability": "view",
      "type": "function"
    },
    {
      "inputs": [
        {
          "internalType": "address",
          "name": "owner",
          "type": "address"
        },
        {
          "internalType": "address",
          "name": "operator",
          "type": "address"
        }
      ],
      "name": "isApprovedForAll",
      "outputs": [
        {
          "internalType": "bool",
          "name": "",
          "type": "bool"
        }
      ],
      "stateMutability": "view",
      "type": "function"
    },
    {
      "inputs": [
        {
          "internalType": "string",
          "name": "_tokenURI",
          "type": "string"
        }
      ],
      "name": "mint",
      "outputs": [
        {
          "internalType": "uint256",
          "name": "",
          "type": "uint256"
        }
      ],
      "stateMutability": "nonpayable",
      "type": "function"
    },
    {
      "inputs": [],
      "name": "name",
      "outputs": [
        {
          "internalType": "string",
          "name": "",
          "type": "string"
        }
      ],
      "stateMutability": "view",
      "type": "function"
    },
    {
      "inputs": [
        {
          "internalType": "uint256",
          "name": "tokenId",
          "type": "uint256"
        }
      ],
      "name": "ownerOf",
      "outputs": [
        {
          "internalType": "address",
          "name": "",
          "type": "address"
        }
      ],
      "stateMutability": "view",
      "type": "function"
    },
    {
      "inputs": [
        {
          "internalType": "address",
          "name": "from",
          "type": "address"
        },
        {
          "internalType": "address",
          "name": "to",
          "type": "address"
        },
        {
          "internalType": "uint256",
          "name": "tokenId",
          "type": "uint256"
        }
      ],
      "name": "safeTransferFrom",
      "outputs": [],
      "stateMutability": "nonpayable",
      "type": "function"
    },
    {
      "inputs": [
        {
          "internalType": "address",
          "name": "from",
          "type": "address"
        },
        {
          "internalType": "address",
          "name": "to",
          "type": "address"
        },
        {
          "internalType": "uint256",
          "name": "tokenId",
          "type": "uint256"
        },
        {
          "internalType": "bytes",
          "name": "data",
          "type": "bytes"
        }
      ],
      "name": "safeTransferFrom",
      "outputs": [],
      "stateMutability": "nonpayable",
      "type": "function"
    },
    {
      "inputs": [
        {
          "internalType": "address",
          "name": "operator",
          "type": "address"
        },
        {
          "internalType": "bool",
          "name": "approved",
          "type": "bool"
        }
      ],
      "name": "setApprovalForAll",
      "outputs": [],
      "stateMutability": "nonpayable",
      "type": "function"
    },
    {
      "inputs": [
        {
          "internalType": "bytes4",
          "name": "interfaceId",
          "type": "bytes4"
        }
      ],
      "name": "supportsInterface",
      "outputs": [
        {
          "internalType": "bool",
          "name": "",
          "type": "bool"
        }
      ],
      "stateMutability": "view",
      "type": "function"
    },
    {
      "inputs": [],
      "name": "symbol",
      "outputs": [
        {
          "internalType": "string",
          "name": "",
          "type": "string"
        }
      ],
      "stateMutability": "view",
      "type": "function"
    },
    {
      "inputs": [
        {
          "internalType": "uint256",
          "name": "tokenId",
          "type": "uint256"
        }
      ],
      "name": "tokenURI",
      "outputs": [
        {
          "internalType": "string",
          "name": "",
          "type": "string"
        }
      ],
      "stateMutability": "view",
      "type": "function"
    },
    {
      "inputs": [
        {
          "internalType": "address",
          "name": "from",
          "type": "address"
        },
        {
          "internalType": "address",
          "name": "to",
          "type": "address"
        },
        {
          "internalType": "uint256",
          "name": "tokenId",
          "type": "uint256"
        }
      ],
      "name": "transferFrom",
      "outputs": [],
      "stateMutability": "nonpayable",
      "type": "function"
    }
  ],
  "bytecode": "0x60806040523480156200001157600080fd5b50604080518082018252600681526529b0b4a3b7b760d11b60208083019182528351808501909452600384526229a3a760e91b9084015281519192916200005b916000916200007a565b508051620000719060019060208401906200007a565b5050506200015d565b828054620000889062000120565b90600052602060002090601f016020900481019282620000ac5760008555620000f7565b82601f10620000c757805160ff1916838001178555620000f7565b82800160010185558215620000f7579182015b82811115620000f7578251825591602001919060010190620000da565b506200010592915062000109565b5090565b5b808211156200010557600081556001016200010a565b600181811c908216806200013557607f821691505b602082108114156200015757634e487b7160e01b600052602260045260246000fd5b50919050565b611693806200016d6000396000f3fe608060405234801561001057600080fd5b50600436106100f55760003560e01c806370a0823111610097578063b88d4fde11610066578063b88d4fde146101f6578063c87b56dd14610209578063d85d3d271461021c578063e985e9c51461022f57600080fd5b806370a08231146101b057806395d89b41146101d1578063a22cb465146101d9578063aa46a400146101ec57600080fd5b8063095ea7b3116100d3578063095ea7b31461016257806323b872dd1461017757806342842e0e1461018a5780636352211e1461019d57600080fd5b806301ffc9a7146100fa57806306fdde0314610122578063081812fc14610137575b600080fd5b61010d610108366004611105565b61026b565b60405190151581526020015b60405180910390f35b61012a6102bd565b604051610119919061117a565b61014a61014536600461118d565b61034f565b6040516001600160a01b039091168152602001610119565b6101756101703660046111c2565b610376565b005b6101756101853660046111ec565b610491565b6101756101983660046111ec565b6104c2565b61014a6101ab36600461118d565b6104dd565b6101c36101be366004611228565b61053d565b604051908152602001610119565b61012a6105c3565b6101756101e7366004611243565b6105d2565b6007546101c39081565b610175610204366004611295565b6105e1565b61012a61021736600461118d565b610619565b6101c361022a366004611371565b61072a565b61010d61023d3660046113e3565b6001600160a01b03918216600090815260056020908152604080832093909416825291909152205460ff1690565b60006001600160e01b031982166380ac58cd60e01b148061029c57506001600160e01b03198216635b5e139f60e01b145b806102b757506301ffc9a760e01b6001600160e01b03198316145b92915050565b6060600080546102cc90611416565b80601f01602080910402602001604051908101604052809291908181526020018280546102f890611416565b80156103455780601f1061031a57610100808354040283529160200191610345565b820191906000526020600020905b81548152906001019060200180831161032857829003601f168201915b5050505050905090565b600061035a826107d1565b506000908152600460205260409020546001600160a01b031690565b6000610381826104dd565b9050806001600160a01b0316836001600160a01b031614156103f45760405162461bcd60e51b815260206004820152602160248201527f4552433732313a20617070726f76616c20746f2063757272656e74206f776e656044820152603960f91b60648201526084015b60405180910390fd5b336001600160a01b03821614806104105750610410813361023d565b6104825760405162461bcd60e51b815260206004820152603e60248201527f4552433732313a20617070726f76652063616c6c6572206973206e6f7420746f60448201527f6b656e206f776e6572206e6f7220617070726f76656420666f7220616c6c000060648201526084016103eb565b61048c8383610833565b505050565b61049b33826108a1565b6104b75760405162461bcd60e51b81526004016103eb90611451565b61048c83838361091f565b61048c838383604051806020016040528060008152506105e1565b6000818152600260205260408120546001600160a01b0316806102b75760405162461bcd60e51b8152602060048201526018602482015277115490cdcc8c4e881a5b9d985b1a59081d1bdad95b88125160421b60448201526064016103eb565b60006001600160a01b0382166105a75760405162461bcd60e51b815260206004820152602960248201527f4552433732313a2061646472657373207a65726f206973206e6f7420612076616044820152683634b21037bbb732b960b91b60648201526084016103eb565b506001600160a01b031660009081526003602052604090205490565b6060600180546102cc90611416565b6105dd338383610abb565b5050565b6105eb33836108a1565b6106075760405162461bcd60e51b81526004016103eb90611451565b61061384848484610b8a565b50505050565b6060610624826107d1565b6000828152600660205260408120805461063d90611416565b80601f016020809104026020016040519081016040528092919081815260200182805461066990611416565b80156106b65780601f1061068b576101008083540402835291602001916106b6565b820191906000526020600020905b81548152906001019060200180831161069957829003601f168201915b5050505050905060006106d460408051602081019091526000815290565b90508051600014156106e7575092915050565b81511561071957808260405160200161070192919061149f565b60405160208183030381529060405292505050919050565b61072284610bbd565b949350505050565b600061073a600780546001019055565b600061074560075490565b90506107513382610c31565b6107918185858080601f016020809104026020016040519081016040528093929190818152602001838380828437600092019190915250610c4b92505050565b7f845020906442ad0651b44a75d9767153912bfa586416784cf8ead41b37b1dbf584846040516107c29291906114ce565b60405180910390a19392505050565b6000818152600260205260409020546001600160a01b03166108305760405162461bcd60e51b8152602060048201526018602482015277115490cdcc8c4e881a5b9d985b1a59081d1bdad95b88125160421b60448201526064016103eb565b50565b600081815260046020526040902080546001600160a01b0319166001600160a01b0384169081179091558190610868826104dd565b6001600160a01b03167f8c5be1e5ebec7d5bd14f71427d1e84f3dd0314c0f7b2291e5b200ac8c7c3b92560405160405180910390a45050565b6000806108ad836104dd565b9050806001600160a01b0316846001600160a01b031614806108f457506001600160a01b0380821660009081526005602090815260408083209388168352929052205460ff165b806107225750836001600160a01b031661090d8461034f565b6001600160a01b031614949350505050565b826001600160a01b0316610932826104dd565b6001600160a01b0316146109965760405162461bcd60e51b815260206004820152602560248201527f4552433732313a207472616e736665722066726f6d20696e636f72726563742060448201526437bbb732b960d91b60648201526084016103eb565b6001600160a01b0382166109f85760405162461bcd60e51b8152602060048201526024808201527f4552433732313a207472616e7366657220746f20746865207a65726f206164646044820152637265737360e01b60648201526084016103eb565b610a03600082610833565b6001600160a01b0383166000908152600360205260408120805460019290610a2c908490611513565b90915550506001600160a01b0382166000908152600360205260408120805460019290610a5a90849061152a565b909155505060008181526002602052604080822080546001600160a01b0319166001600160a01b0386811691821790925591518493918716917fddf252ad1be2c89b69c2b068fc378daa952ba7f163c4a11628f55a4df523b3ef91a4505050565b816001600160a01b0316836001600160a01b03161415610b1d5760405162461bcd60e51b815260206004820152601960248201527f4552433732313a20617070726f766520746f2063616c6c65720000000000000060448201526064016103eb565b6001600160a01b03838116600081815260056020908152604080832094871680845294825291829020805460ff191686151590811790915591519182527f17307eab39ab6107e8899845ad3d59bd9653f200f220920489ca2b5937696c31910160405180910390a3505050565b610b9584848461091f565b610ba184848484610ce5565b6106135760405162461bcd60e51b81526004016103eb90611542565b6060610bc8826107d1565b6000610bdf60408051602081019091526000815290565b90506000815111610bff5760405180602001604052806000815250610c2a565b80610c0984610de3565b604051602001610c1a92919061149f565b6040516020818303038152906040525b9392505050565b6105dd828260405180602001604052806000815250610ee1565b6000828152600260205260409020546001600160a01b0316610cc65760405162461bcd60e51b815260206004820152602e60248201527f45524337323155524953746f726167653a2055524920736574206f66206e6f6e60448201526d32bc34b9ba32b73a103a37b5b2b760911b60648201526084016103eb565b6000828152600660209081526040909120825161048c92840190611056565b60006001600160a01b0384163b15610dd857604051630a85bd0160e11b81526001600160a01b0385169063150b7a0290610d29903390899088908890600401611594565b6020604051808303816000875af1925050508015610d64575060408051601f3d908101601f19168201909252610d61918101906115d1565b60015b610dbe573d808015610d92576040519150601f19603f3d011682016040523d82523d6000602084013e610d97565b606091505b508051610db65760405162461bcd60e51b81526004016103eb90611542565b805181602001fd5b6001600160e01b031916630a85bd0160e11b149050610722565b506001949350505050565b606081610e075750506040805180820190915260018152600360fc1b602082015290565b8160005b8115610e315780610e1b816115ee565b9150610e2a9050600a8361161f565b9150610e0b565b60008167ffffffffffffffff811115610e4c57610e4c61127f565b6040519080825280601f01601f191660200182016040528015610e76576020820181803683370190505b5090505b841561072257610e8b600183611513565b9150610e98600a86611633565b610ea390603061152a565b60f81b818381518110610eb857610eb8611647565b60200101906001600160f81b031916908160001a905350610eda600a8661161f565b9450610e7a565b610eeb8383610f14565b610ef86000848484610ce5565b61048c5760405162461bcd60e51b81526004016103eb90611542565b6001600160a01b038216610f6a5760405162461bcd60e51b815260206004820181905260248201527f4552433732313a206d696e7420746f20746865207a65726f206164647265737360448201526064016103eb565b6000818152600260205260409020546001600160a01b031615610fcf5760405162461bcd60e51b815260206004820152601c60248201527f4552433732313a20746f6b656e20616c7265616479206d696e7465640000000060448201526064016103eb565b6001600160a01b0382166000908152600360205260408120805460019290610ff890849061152a565b909155505060008181526002602052604080822080546001600160a01b0319166001600160a01b03861690811790915590518392907fddf252ad1be2c89b69c2b068fc378daa952ba7f163c4a11628f55a4df523b3ef908290a45050565b82805461106290611416565b90600052602060002090601f01602090048101928261108457600085556110ca565b82601f1061109d57805160ff19168380011785556110ca565b828001600101855582156110ca579182015b828111156110ca5782518255916020019190600101906110af565b506110d69291506110da565b5090565b5b808211156110d657600081556001016110db565b6001600160e01b03198116811461083057600080fd5b60006020828403121561111757600080fd5b8135610c2a816110ef565b60005b8381101561113d578181015183820152602001611125565b838111156106135750506000910152565b60008151808452611166816020860160208601611122565b601f01601f19169290920160200192915050565b602081526000610c2a602083018461114e565b60006020828403121561119f57600080fd5b5035919050565b80356001600160a01b03811681146111bd57600080fd5b919050565b600080604083850312156111d557600080fd5b6111de836111a6565b946020939093013593505050565b60008060006060848603121561120157600080fd5b61120a846111a6565b9250611218602085016111a6565b9150604084013590509250925092565b60006020828403121561123a57600080fd5b610c2a826111a6565b6000806040838503121561125657600080fd5b61125f836111a6565b91506020830135801515811461127457600080fd5b809150509250929050565b634e487b7160e01b600052604160045260246000fd5b600080600080608085870312156112ab57600080fd5b6112b4856111a6565b93506112c2602086016111a6565b925060408501359150606085013567ffffffffffffffff808211156112e657600080fd5b818701915087601f8301126112fa57600080fd5b81358181111561130c5761130c61127f565b604051601f8201601f19908116603f011681019083821181831017156113345761133461127f565b816040528281528a602084870101111561134d57600080fd5b82602086016020830137600060208483010152809550505050505092959194509250565b6000806020838503121561138457600080fd5b823567ffffffffffffffff8082111561139c57600080fd5b818501915085601f8301126113b057600080fd5b8135818111156113bf57600080fd5b8660208285010111156113d157600080fd5b60209290920196919550909350505050565b600080604083850312156113f657600080fd5b6113ff836111a6565b915061140d602084016111a6565b90509250929050565b600181811c9082168061142a57607f821691505b6020821081141561144b57634e487b7160e01b600052602260045260246000fd5b50919050565b6020808252602e908201527f4552433732313a2063616c6c6572206973206e6f7420746f6b656e206f776e6560408201526d1c881b9bdc88185c1c1c9bdd995960921b606082015260800190565b600083516114b1818460208801611122565b8351908301906114c5818360208801611122565b01949350505050565b60208152816020820152818360408301376000818301604090810191909152601f909201601f19160101919050565b634e487b7160e01b600052601160045260246000fd5b600082821015611525576115256114fd565b500390565b6000821982111561153d5761153d6114fd565b500190565b60208082526032908201527f4552433732313a207472616e7366657220746f206e6f6e20455243373231526560408201527131b2b4bb32b91034b6b83632b6b2b73a32b960711b606082015260800190565b6001600160a01b03858116825284166020820152604081018390526080606082018190526000906115c79083018461114e565b9695505050505050565b6000602082840312156115e357600080fd5b8151610c2a816110ef565b6000600019821415611602576116026114fd565b5060010190565b634e487b7160e01b600052601260045260246000fd5b60008261162e5761162e611609565b500490565b60008261164257611642611609565b500690565b634e487b7160e01b600052603260045260246000fdfea2646970667358221220ebac64545dba442673fdf819200ae54d6e08922359f748444c427e6b7f70b19e64736f6c634300080c0033",
  "linkReferences": {},
  "deployedLinkReferences": {}
}