{
  "_format": "hh-sol-artifact-1",
  "contractName": "NFT",
  "sourceName": "contracts/NftFactory.sol",
  "abi": [
    {
      "inputs": [
        {
          "internalType": "string",
          "name": "_name",
          "type": "string"
        },
        {
          "internalType": "string",
          "name": "_symbol",
          "type": "string"
        }
      ],
      "stateMutability": "nonpayable",
      "type": "constructor"
    },
    {
      "anonymous": false,
      "inputs": [
        {
          "indexed": true,
          "internalType": "address",
          "name": "owner",
          "type": "address"
        },
        {
          "indexed": true,
          "internalType": "address",
          "name": "approved",
          "type": "address"
        },
        {
          "indexed": true,
          "internalType": "uint256",
          "name": "tokenId",
          "type": "uint256"
        }
      ],
      "name": "Approval",
      "type": "event"
    },
    {
      "anonymous": false,
      "inputs": [
        {
          "indexed": true,
          "internalType": "address",
          "name": "owner",
          "type": "address"
        },
        {
          "indexed": true,
          "internalType": "address",
          "name": "operator",
          "type": "address"
        },
        {
          "indexed": false,
          "internalType": "bool",
          "name": "approved",
          "type": "bool"
        }
      ],
      "name": "ApprovalForAll",
      "type": "event"
    },
    {
      "anonymous": false,
      "inputs": [
        {
          "indexed": true,
          "internalType": "address",
          "name": "previousOwner",
          "type": "address"
        },
        {
          "indexed": true,
          "internalType": "address",
          "name": "newOwner",
          "type": "address"
        }
      ],
      "name": "OwnershipTransferred",
      "type": "event"
    },
    {
      "anonymous": false,
      "inputs": [
        {
          "indexed": true,
          "internalType": "address",
          "name": "from",
          "type": "address"
        },
        {
          "indexed": true,
          "internalType": "address",
          "name": "to",
          "type": "address"
        },
        {
          "indexed": true,
          "internalType": "uint256",
          "name": "tokenId",
          "type": "uint256"
        }
      ],
      "name": "Transfer",
      "type": "event"
    },
    {
      "inputs": [
        {
          "internalType": "address",
          "name": "to",
          "type": "address"
        },
        {
          "internalType": "uint256",
          "name": "tokenId",
          "type": "uint256"
        }
      ],
      "name": "approve",
      "outputs": [],
      "stateMutability": "nonpayable",
      "type": "function"
    },
    {
      "inputs": [
        {
          "internalType": "address",
          "name": "owner",
          "type": "address"
        }
      ],
      "name": "balanceOf",
      "outputs": [
        {
          "internalType": "uint256",
          "name": "",
          "type": "uint256"
        }
      ],
      "stateMutability": "view",
      "type": "function"
    },
    {
      "inputs": [
        {
          "internalType": "uint256",
          "name": "tokenId",
          "type": "uint256"
        }
      ],
      "name": "getApproved",
      "outputs": [
        {
          "internalType": "address",
          "name": "",
          "type": "address"
        }
      ],
      "stateMutability": "view",
      "type": "function"
    },
    {
      "inputs": [
        {
          "internalType": "address",
          "name": "owner",
          "type": "address"
        },
        {
          "internalType": "address",
          "name": "operator",
          "type": "address"
        }
      ],
      "name": "isApprovedForAll",
      "outputs": [
        {
          "internalType": "bool",
          "name": "",
          "type": "bool"
        }
      ],
      "stateMutability": "view",
      "type": "function"
    },
    {
      "inputs": [],
      "name": "name",
      "outputs": [
        {
          "internalType": "string",
          "name": "",
          "type": "string"
        }
      ],
      "stateMutability": "view",
      "type": "function"
    },
    {
      "inputs": [],
      "name": "owner",
      "outputs": [
        {
          "internalType": "address",
          "name": "",
          "type": "address"
        }
      ],
      "stateMutability": "view",
      "type": "function"
    },
    {
      "inputs": [
        {
          "internalType": "uint256",
          "name": "tokenId",
          "type": "uint256"
        }
      ],
      "name": "ownerOf",
      "outputs": [
        {
          "internalType": "address",
          "name": "",
          "type": "address"
        }
      ],
      "stateMutability": "view",
      "type": "function"
    },
    {
      "inputs": [],
      "name": "renounceOwnership",
      "outputs": [],
      "stateMutability": "nonpayable",
      "type": "function"
    },
    {
      "inputs": [
        {
          "internalType": "address",
          "name": "from",
          "type": "address"
        },
        {
          "internalType": "address",
          "name": "to",
          "type": "address"
        },
        {
          "internalType": "uint256",
          "name": "tokenId",
          "type": "uint256"
        }
      ],
      "name": "safeTransferFrom",
      "outputs": [],
      "stateMutability": "nonpayable",
      "type": "function"
    },
    {
      "inputs": [
        {
          "internalType": "address",
          "name": "from",
          "type": "address"
        },
        {
          "internalType": "address",
          "name": "to",
          "type": "address"
        },
        {
          "internalType": "uint256",
          "name": "tokenId",
          "type": "uint256"
        },
        {
          "internalType": "bytes",
          "name": "data",
          "type": "bytes"
        }
      ],
      "name": "safeTransferFrom",
      "outputs": [],
      "stateMutability": "nonpayable",
      "type": "function"
    },
    {
      "inputs": [
        {
          "internalType": "address",
          "name": "operator",
          "type": "address"
        },
        {
          "internalType": "bool",
          "name": "approved",
          "type": "bool"
        }
      ],
      "name": "setApprovalForAll",
      "outputs": [],
      "stateMutability": "nonpayable",
      "type": "function"
    },
    {
      "inputs": [
        {
          "internalType": "bytes4",
          "name": "interfaceId",
          "type": "bytes4"
        }
      ],
      "name": "supportsInterface",
      "outputs": [
        {
          "internalType": "bool",
          "name": "",
          "type": "bool"
        }
      ],
      "stateMutability": "view",
      "type": "function"
    },
    {
      "inputs": [],
      "name": "symbol",
      "outputs": [
        {
          "internalType": "string",
          "name": "",
          "type": "string"
        }
      ],
      "stateMutability": "view",
      "type": "function"
    },
    {
      "inputs": [
        {
          "internalType": "uint256",
          "name": "tokenId",
          "type": "uint256"
        }
      ],
      "name": "tokenURI",
      "outputs": [
        {
          "internalType": "string",
          "name": "",
          "type": "string"
        }
      ],
      "stateMutability": "view",
      "type": "function"
    },
    {
      "inputs": [
        {
          "internalType": "address",
          "name": "from",
          "type": "address"
        },
        {
          "internalType": "address",
          "name": "to",
          "type": "address"
        },
        {
          "internalType": "uint256",
          "name": "tokenId",
          "type": "uint256"
        }
      ],
      "name": "transferFrom",
      "outputs": [],
      "stateMutability": "nonpayable",
      "type": "function"
    },
    {
      "inputs": [
        {
          "internalType": "address",
          "name": "newOwner",
          "type": "address"
        }
      ],
      "name": "transferOwnership",
      "outputs": [],
      "stateMutability": "nonpayable",
      "type": "function"
    }
  ],
  "bytecode": "0x60806040523480156200001157600080fd5b50604051620016f0380380620016f083398101604081905262000034916200023b565b8151829082906200004d906000906020850190620000de565b50805162000063906001906020840190620000de565b505050620000806200007a6200008860201b60201c565b6200008c565b5050620002f8565b3390565b600780546001600160a01b038381166001600160a01b0319831681179093556040519116919082907f8be0079c531659141344cd1fd0a4f28419497f9722a3daafe3b4186f6b6457e090600090a35050565b828054620000ec90620002a5565b90600052602060002090601f0160209004810192826200011057600085556200015b565b82601f106200012b57805160ff19168380011785556200015b565b828001600101855582156200015b579182015b828111156200015b5782518255916020019190600101906200013e565b50620001699291506200016d565b5090565b5b808211156200016957600081556001016200016e565b600082601f8301126200019657600080fd5b81516001600160401b0380821115620001b357620001b3620002e2565b604051601f8301601f19908116603f01168101908282118183101715620001de57620001de620002e2565b81604052838152602092508683858801011115620001fb57600080fd5b600091505b838210156200021f578582018301518183018401529082019062000200565b83821115620002315760008385830101525b9695505050505050565b600080604083850312156200024f57600080fd5b82516001600160401b03808211156200026757600080fd5b620002758683870162000184565b935060208501519150808211156200028c57600080fd5b506200029b8582860162000184565b9150509250929050565b600181811c90821680620002ba57607f821691505b60208210811415620002dc57634e487b7160e01b600052602260045260246000fd5b50919050565b634e487b7160e01b600052604160045260246000fd5b6113e880620003086000396000f3fe608060405234801561001057600080fd5b50600436106101005760003560e01c8063715018a611610097578063b88d4fde11610066578063b88d4fde14610210578063c87b56dd14610223578063e985e9c514610236578063f2fde38b1461027257600080fd5b8063715018a6146101dc5780638da5cb5b146101e457806395d89b41146101f5578063a22cb465146101fd57600080fd5b806323b872dd116100d357806323b872dd1461018257806342842e0e146101955780636352211e146101a857806370a08231146101bb57600080fd5b806301ffc9a71461010557806306fdde031461012d578063081812fc14610142578063095ea7b31461016d575b600080fd5b6101186101133660046110cd565b610285565b60405190151581526020015b60405180910390f35b6101356102d7565b60405161012491906111b8565b610155610150366004611107565b610369565b6040516001600160a01b039091168152602001610124565b61018061017b3660046110a3565b610390565b005b610180610190366004610f4f565b6104ab565b6101806101a3366004610f4f565b6104dc565b6101556101b6366004611107565b6104f7565b6101ce6101c9366004610f01565b610557565b604051908152602001610124565b6101806105dd565b6007546001600160a01b0316610155565b6101356105f1565b61018061020b366004611067565b610600565b61018061021e366004610f8b565b61060f565b610135610231366004611107565b610647565b610118610244366004610f1c565b6001600160a01b03918216600090815260056020908152604080832093909416825291909152205460ff1690565b610180610280366004610f01565b610758565b60006001600160e01b031982166380ac58cd60e01b14806102b657506001600160e01b03198216635b5e139f60e01b145b806102d157506301ffc9a760e01b6001600160e01b03198316145b92915050565b6060600080546102e6906112da565b80601f0160208091040260200160405190810160405280929190818152602001828054610312906112da565b801561035f5780601f106103345761010080835404028352916020019161035f565b820191906000526020600020905b81548152906001019060200180831161034257829003601f168201915b5050505050905090565b6000610374826107d1565b506000908152600460205260409020546001600160a01b031690565b600061039b826104f7565b9050806001600160a01b0316836001600160a01b0316141561040e5760405162461bcd60e51b815260206004820152602160248201527f4552433732313a20617070726f76616c20746f2063757272656e74206f776e656044820152603960f91b60648201526084015b60405180910390fd5b336001600160a01b038216148061042a575061042a8133610244565b61049c5760405162461bcd60e51b815260206004820152603e60248201527f4552433732313a20617070726f76652063616c6c6572206973206e6f7420746f60448201527f6b656e206f776e6572206e6f7220617070726f76656420666f7220616c6c00006064820152608401610405565b6104a68383610830565b505050565b6104b5338261089e565b6104d15760405162461bcd60e51b81526004016104059061121d565b6104a683838361091c565b6104a68383836040518060200160405280600081525061060f565b6000818152600260205260408120546001600160a01b0316806102d15760405162461bcd60e51b8152602060048201526018602482015277115490cdcc8c4e881a5b9d985b1a59081d1bdad95b88125160421b6044820152606401610405565b60006001600160a01b0382166105c15760405162461bcd60e51b815260206004820152602960248201527f4552433732313a2061646472657373207a65726f206973206e6f7420612076616044820152683634b21037bbb732b960b91b6064820152608401610405565b506001600160a01b031660009081526003602052604090205490565b6105e5610ab8565b6105ef6000610b12565b565b6060600180546102e6906112da565b61060b338383610b64565b5050565b610619338361089e565b6106355760405162461bcd60e51b81526004016104059061121d565b61064184848484610c33565b50505050565b6060610652826107d1565b6000828152600660205260408120805461066b906112da565b80601f0160208091040260200160405190810160405280929190818152602001828054610697906112da565b80156106e45780601f106106b9576101008083540402835291602001916106e4565b820191906000526020600020905b8154815290600101906020018083116106c757829003601f168201915b50505050509050600061070260408051602081019091526000815290565b9050805160001415610715575092915050565b81511561074757808260405160200161072f92919061114c565b60405160208183030381529060405292505050919050565b61075084610c66565b949350505050565b610760610ab8565b6001600160a01b0381166107c55760405162461bcd60e51b815260206004820152602660248201527f4f776e61626c653a206e6577206f776e657220697320746865207a65726f206160448201526564647265737360d01b6064820152608401610405565b6107ce81610b12565b50565b6000818152600260205260409020546001600160a01b03166107ce5760405162461bcd60e51b8152602060048201526018602482015277115490cdcc8c4e881a5b9d985b1a59081d1bdad95b88125160421b6044820152606401610405565b600081815260046020526040902080546001600160a01b0319166001600160a01b0384169081179091558190610865826104f7565b6001600160a01b03167f8c5be1e5ebec7d5bd14f71427d1e84f3dd0314c0f7b2291e5b200ac8c7c3b92560405160405180910390a45050565b6000806108aa836104f7565b9050806001600160a01b0316846001600160a01b031614806108f157506001600160a01b0380821660009081526005602090815260408083209388168352929052205460ff165b806107505750836001600160a01b031661090a84610369565b6001600160a01b031614949350505050565b826001600160a01b031661092f826104f7565b6001600160a01b0316146109935760405162461bcd60e51b815260206004820152602560248201527f4552433732313a207472616e736665722066726f6d20696e636f72726563742060448201526437bbb732b960d91b6064820152608401610405565b6001600160a01b0382166109f55760405162461bcd60e51b8152602060048201526024808201527f4552433732313a207472616e7366657220746f20746865207a65726f206164646044820152637265737360e01b6064820152608401610405565b610a00600082610830565b6001600160a01b0383166000908152600360205260408120805460019290610a29908490611297565b90915550506001600160a01b0382166000908152600360205260408120805460019290610a5790849061126b565b909155505060008181526002602052604080822080546001600160a01b0319166001600160a01b0386811691821790925591518493918716917fddf252ad1be2c89b69c2b068fc378daa952ba7f163c4a11628f55a4df523b3ef91a4505050565b6007546001600160a01b031633146105ef5760405162461bcd60e51b815260206004820181905260248201527f4f776e61626c653a2063616c6c6572206973206e6f7420746865206f776e65726044820152606401610405565b600780546001600160a01b038381166001600160a01b0319831681179093556040519116919082907f8be0079c531659141344cd1fd0a4f28419497f9722a3daafe3b4186f6b6457e090600090a35050565b816001600160a01b0316836001600160a01b03161415610bc65760405162461bcd60e51b815260206004820152601960248201527f4552433732313a20617070726f766520746f2063616c6c6572000000000000006044820152606401610405565b6001600160a01b03838116600081815260056020908152604080832094871680845294825291829020805460ff191686151590811790915591519182527f17307eab39ab6107e8899845ad3d59bd9653f200f220920489ca2b5937696c31910160405180910390a3505050565b610c3e84848461091c565b610c4a84848484610cda565b6106415760405162461bcd60e51b8152600401610405906111cb565b6060610c71826107d1565b6000610c8860408051602081019091526000815290565b90506000815111610ca85760405180602001604052806000815250610cd3565b80610cb284610de7565b604051602001610cc392919061114c565b6040516020818303038152906040525b9392505050565b60006001600160a01b0384163b15610ddc57604051630a85bd0160e11b81526001600160a01b0385169063150b7a0290610d1e90339089908890889060040161117b565b602060405180830381600087803b158015610d3857600080fd5b505af1925050508015610d68575060408051601f3d908101601f19168201909252610d65918101906110ea565b60015b610dc2573d808015610d96576040519150601f19603f3d011682016040523d82523d6000602084013e610d9b565b606091505b508051610dba5760405162461bcd60e51b8152600401610405906111cb565b805181602001fd5b6001600160e01b031916630a85bd0160e11b149050610750565b506001949350505050565b606081610e0b5750506040805180820190915260018152600360fc1b602082015290565b8160005b8115610e355780610e1f81611315565b9150610e2e9050600a83611283565b9150610e0f565b60008167ffffffffffffffff811115610e5057610e50611386565b6040519080825280601f01601f191660200182016040528015610e7a576020820181803683370190505b5090505b841561075057610e8f600183611297565b9150610e9c600a86611330565b610ea790603061126b565b60f81b818381518110610ebc57610ebc611370565b60200101906001600160f81b031916908160001a905350610ede600a86611283565b9450610e7e565b80356001600160a01b0381168114610efc57600080fd5b919050565b600060208284031215610f1357600080fd5b610cd382610ee5565b60008060408385031215610f2f57600080fd5b610f3883610ee5565b9150610f4660208401610ee5565b90509250929050565b600080600060608486031215610f6457600080fd5b610f6d84610ee5565b9250610f7b60208501610ee5565b9150604084013590509250925092565b60008060008060808587031215610fa157600080fd5b610faa85610ee5565b9350610fb860208601610ee5565b925060408501359150606085013567ffffffffffffffff80821115610fdc57600080fd5b818701915087601f830112610ff057600080fd5b81358181111561100257611002611386565b604051601f8201601f19908116603f0116810190838211818310171561102a5761102a611386565b816040528281528a602084870101111561104357600080fd5b82602086016020830137600060208483010152809550505050505092959194509250565b6000806040838503121561107a57600080fd5b61108383610ee5565b91506020830135801515811461109857600080fd5b809150509250929050565b600080604083850312156110b657600080fd5b6110bf83610ee5565b946020939093013593505050565b6000602082840312156110df57600080fd5b8135610cd38161139c565b6000602082840312156110fc57600080fd5b8151610cd38161139c565b60006020828403121561111957600080fd5b5035919050565b600081518084526111388160208601602086016112ae565b601f01601f19169290920160200192915050565b6000835161115e8184602088016112ae565b8351908301906111728183602088016112ae565b01949350505050565b6001600160a01b03858116825284166020820152604081018390526080606082018190526000906111ae90830184611120565b9695505050505050565b602081526000610cd36020830184611120565b60208082526032908201527f4552433732313a207472616e7366657220746f206e6f6e20455243373231526560408201527131b2b4bb32b91034b6b83632b6b2b73a32b960711b606082015260800190565b6020808252602e908201527f4552433732313a2063616c6c6572206973206e6f7420746f6b656e206f776e6560408201526d1c881b9bdc88185c1c1c9bdd995960921b606082015260800190565b6000821982111561127e5761127e611344565b500190565b6000826112925761129261135a565b500490565b6000828210156112a9576112a9611344565b500390565b60005b838110156112c95781810151838201526020016112b1565b838111156106415750506000910152565b600181811c908216806112ee57607f821691505b6020821081141561130f57634e487b7160e01b600052602260045260246000fd5b50919050565b600060001982141561132957611329611344565b5060010190565b60008261133f5761133f61135a565b500690565b634e487b7160e01b600052601160045260246000fd5b634e487b7160e01b600052601260045260246000fd5b634e487b7160e01b600052603260045260246000fd5b634e487b7160e01b600052604160045260246000fd5b6001600160e01b0319811681146107ce57600080fdfea2646970667358221220f1ad4c98764a18a4c2e093bb776970c7dd48793fff01d49b69badea3d44ba23164736f6c63430008070033",
  "linkReferences": {},
  "deployedLinkReferences": {}
}