{
  "_format": "hh-sol-artifact-1",
  "contractName": "SaigonMarket",
  "sourceName": "contracts/SaigonMarket.sol",
  "abi": [
    {
      "inputs": [
        {
          "internalType": "uint256",
          "name": "_feeBps",
          "type": "uint256"
        }
      ],
      "stateMutability": "nonpayable",
      "type": "constructor"
    },
    {
      "inputs": [],
      "name": "AlreadyListed",
      "type": "error"
    },
    {
      "inputs": [],
      "name": "InvalidNftAddress",
      "type": "error"
    },
    {
      "inputs": [],
      "name": "ListingNotExist",
      "type": "error"
    },
    {
      "inputs": [],
      "name": "ListingSold",
      "type": "error"
    },
    {
      "inputs": [],
      "name": "NFTNotApprovedForMarketplace",
      "type": "error"
    },
    {
      "inputs": [],
      "name": "NotOwner",
      "type": "error"
    },
    {
      "inputs": [],
      "name": "PriceMustBeAboveZero",
      "type": "error"
    },
    {
      "inputs": [
        {
          "internalType": "address",
          "name": "nftAddress",
          "type": "address"
        },
        {
          "internalType": "uint256",
          "name": "tokenId",
          "type": "uint256"
        },
        {
          "internalType": "uint256",
          "name": "price",
          "type": "uint256"
        }
      ],
      "name": "PriceNotMet",
      "type": "error"
    },
    {
      "inputs": [],
      "name": "TransferFailed",
      "type": "error"
    },
    {
      "anonymous": false,
      "inputs": [
        {
          "indexed": true,
          "internalType": "address",
          "name": "seller",
          "type": "address"
        },
        {
          "indexed": true,
          "internalType": "address",
          "name": "buyer",
          "type": "address"
        },
        {
          "indexed": false,
          "internalType": "uint256",
          "name": "tokenId",
          "type": "uint256"
        },
        {
          "indexed": false,
          "internalType": "uint256",
          "name": "pricePerItem",
          "type": "uint256"
        },
        {
          "indexed": false,
          "internalType": "bool",
          "name": "sold",
          "type": "bool"
        }
      ],
      "name": "ListingPurchased",
      "type": "event"
    },
    {
      "anonymous": false,
      "inputs": [
        {
          "indexed": true,
          "internalType": "address",
          "name": "nftAddress",
          "type": "address"
        },
        {
          "indexed": true,
          "internalType": "uint256",
          "name": "tokenId",
          "type": "uint256"
        },
        {
          "indexed": false,
          "internalType": "address",
          "name": "seller",
          "type": "address"
        },
        {
          "indexed": false,
          "internalType": "address",
          "name": "owner",
          "type": "address"
        },
        {
          "indexed": false,
          "internalType": "uint256",
          "name": "pricePerItem",
          "type": "uint256"
        },
        {
          "indexed": false,
          "internalType": "bool",
          "name": "sold",
          "type": "bool"
        }
      ],
      "name": "NFTListed",
      "type": "event"
    },
    {
      "anonymous": false,
      "inputs": [
        {
          "indexed": true,
          "internalType": "address",
          "name": "nftAddress",
          "type": "address"
        },
        {
          "indexed": true,
          "internalType": "uint256",
          "name": "tokenId",
          "type": "uint256"
        },
        {
          "indexed": false,
          "internalType": "address",
          "name": "seller",
          "type": "address"
        },
        {
          "indexed": false,
          "internalType": "address",
          "name": "owner",
          "type": "address"
        },
        {
          "indexed": false,
          "internalType": "uint256",
          "name": "pricePerItem",
          "type": "uint256"
        },
        {
          "indexed": false,
          "internalType": "bool",
          "name": "sold",
          "type": "bool"
        }
      ],
      "name": "NFTListedForResell",
      "type": "event"
    },
    {
      "anonymous": false,
      "inputs": [
        {
          "indexed": true,
          "internalType": "address",
          "name": "nftAddress",
          "type": "address"
        }
      ],
      "name": "TokenCreated",
      "type": "event"
    },
    {
      "inputs": [],
      "name": "_listingIds",
      "outputs": [
        {
          "internalType": "uint256",
          "name": "_value",
          "type": "uint256"
        }
      ],
      "stateMutability": "view",
      "type": "function"
    },
    {
      "inputs": [
        {
          "internalType": "uint256",
          "name": "_tokenId",
          "type": "uint256"
        },
        {
          "internalType": "uint256",
          "name": "_pricePerItem",
          "type": "uint256"
        }
      ],
      "name": "createListing",
      "outputs": [],
      "stateMutability": "payable",
      "type": "function"
    },
    {
      "inputs": [
        {
          "internalType": "uint256",
          "name": "_listingId",
          "type": "uint256"
        }
      ],
      "name": "createMarketSale",
      "outputs": [],
      "stateMutability": "payable",
      "type": "function"
    },
    {
      "inputs": [
        {
          "internalType": "string",
          "name": "_tokenURI",
          "type": "string"
        }
      ],
      "name": "createToken",
      "outputs": [
        {
          "internalType": "address",
          "name": "",
          "type": "address"
        }
      ],
      "stateMutability": "nonpayable",
      "type": "function"
    },
    {
      "inputs": [],
      "name": "feeBps",
      "outputs": [
        {
          "internalType": "uint256",
          "name": "",
          "type": "uint256"
        }
      ],
      "stateMutability": "view",
      "type": "function"
    },
    {
      "inputs": [],
      "name": "fetchMarketListings",
      "outputs": [
        {
          "components": [
            {
              "internalType": "address payable",
              "name": "seller",
              "type": "address"
            },
            {
              "internalType": "address payable",
              "name": "owner",
              "type": "address"
            },
            {
              "internalType": "uint256",
              "name": "listingId",
              "type": "uint256"
            },
            {
              "internalType": "uint256",
              "name": "tokenId",
              "type": "uint256"
            },
            {
              "internalType": "uint256",
              "name": "pricePerItem",
              "type": "uint256"
            },
            {
              "internalType": "bool",
              "name": "sold",
              "type": "bool"
            }
          ],
          "internalType": "struct SaigonMarket.Listing[]",
          "name": "",
          "type": "tuple[]"
        }
      ],
      "stateMutability": "view",
      "type": "function"
    },
    {
      "inputs": [],
      "name": "fetchMyNFTs",
      "outputs": [
        {
          "components": [
            {
              "internalType": "address payable",
              "name": "seller",
              "type": "address"
            },
            {
              "internalType": "address payable",
              "name": "owner",
              "type": "address"
            },
            {
              "internalType": "uint256",
              "name": "listingId",
              "type": "uint256"
            },
            {
              "internalType": "uint256",
              "name": "tokenId",
              "type": "uint256"
            },
            {
              "internalType": "uint256",
              "name": "pricePerItem",
              "type": "uint256"
            },
            {
              "internalType": "bool",
              "name": "sold",
              "type": "bool"
            }
          ],
          "internalType": "struct SaigonMarket.Listing[]",
          "name": "",
          "type": "tuple[]"
        }
      ],
      "stateMutability": "view",
      "type": "function"
    },
    {
      "inputs": [],
      "name": "fetchOwnedListings",
      "outputs": [
        {
          "components": [
            {
              "internalType": "address payable",
              "name": "seller",
              "type": "address"
            },
            {
              "internalType": "address payable",
              "name": "owner",
              "type": "address"
            },
            {
              "internalType": "uint256",
              "name": "listingId",
              "type": "uint256"
            },
            {
              "internalType": "uint256",
              "name": "tokenId",
              "type": "uint256"
            },
            {
              "internalType": "uint256",
              "name": "pricePerItem",
              "type": "uint256"
            },
            {
              "internalType": "bool",
              "name": "sold",
              "type": "bool"
            }
          ],
          "internalType": "struct SaigonMarket.Listing[]",
          "name": "",
          "type": "tuple[]"
        }
      ],
      "stateMutability": "view",
      "type": "function"
    },
    {
      "inputs": [
        {
          "internalType": "uint256",
          "name": "_listingId",
          "type": "uint256"
        }
      ],
      "name": "getFinalPrice",
      "outputs": [
        {
          "internalType": "uint256",
          "name": "",
          "type": "uint256"
        }
      ],
      "stateMutability": "view",
      "type": "function"
    },
    {
      "inputs": [
        {
          "internalType": "uint256",
          "name": "_listingId",
          "type": "uint256"
        }
      ],
      "name": "getPricePerItem",
      "outputs": [
        {
          "internalType": "uint256",
          "name": "",
          "type": "uint256"
        }
      ],
      "stateMutability": "view",
      "type": "function"
    },
    {
      "inputs": [
        {
          "internalType": "uint256",
          "name": "_tokenId",
          "type": "uint256"
        },
        {
          "internalType": "uint256",
          "name": "_listingId",
          "type": "uint256"
        },
        {
          "internalType": "uint256",
          "name": "_pricePerItem",
          "type": "uint256"
        }
      ],
      "name": "listNFT",
      "outputs": [],
      "stateMutability": "nonpayable",
      "type": "function"
    },
    {
      "inputs": [
        {
          "internalType": "address",
          "name": "",
          "type": "address"
        },
        {
          "internalType": "uint256",
          "name": "",
          "type": "uint256"
        }
      ],
      "name": "listings",
      "outputs": [
        {
          "internalType": "address payable",
          "name": "seller",
          "type": "address"
        },
        {
          "internalType": "address payable",
          "name": "owner",
          "type": "address"
        },
        {
          "internalType": "uint256",
          "name": "listingId",
          "type": "uint256"
        },
        {
          "internalType": "uint256",
          "name": "tokenId",
          "type": "uint256"
        },
        {
          "internalType": "uint256",
          "name": "pricePerItem",
          "type": "uint256"
        },
        {
          "internalType": "bool",
          "name": "sold",
          "type": "bool"
        }
      ],
      "stateMutability": "view",
      "type": "function"
    },
    {
      "inputs": [],
      "name": "operator",
      "outputs": [
        {
          "internalType": "address payable",
          "name": "",
          "type": "address"
        }
      ],
      "stateMutability": "view",
      "type": "function"
    },
    {
      "inputs": [
        {
          "internalType": "uint256",
          "name": "_listingId",
          "type": "uint256"
        },
        {
          "internalType": "uint256",
          "name": "_newPrice",
          "type": "uint256"
        }
      ],
      "name": "resellNFT",
      "outputs": [],
      "stateMutability": "payable",
      "type": "function"
    }
  ],
  "bytecode": "0x60c06040523480156200001157600080fd5b506040516200697b3803806200697b8339818101604052810190620000379190620000c2565b60016000819055503373ffffffffffffffffffffffffffffffffffffffff1660808173ffffffffffffffffffffffffffffffffffffffff16815250508060a0818152505050620000f4565b600080fd5b6000819050919050565b6200009c8162000087565b8114620000a857600080fd5b50565b600081519050620000bc8162000091565b92915050565b600060208284031215620000db57620000da62000082565b5b6000620000eb84828501620000ab565b91505092915050565b60805160a05161685362000128600039600081816109110152610ac0015260008181610b840152611f8f01526168536000f3fe608060405260043610620000f15760003560e01c8063570ca735116200008b578063b0136c8d1162000061578063b0136c8d146200030b578063be9af5361462000339578063e75db0d01462000359578063f654fc4f146200038957620000f1565b8063570ca735146200029b578063a79123a914620002cb578063ac3dfc7314620002eb57620000f1565b8063202e374011620000cd578063202e374014620001b357806324a9d85314620001e357806345576f9414620002135780634b554954146200025757620000f1565b806207df3014620000f657806305b826a8146200013f57806313e2ba57146200016f575b600080fd5b3480156200010357600080fd5b506200012260048036038101906200011c919062002a2c565b620003b9565b604051620001369695949392919062002ac6565b60405180910390f35b3480156200014c57600080fd5b50620001576200044f565b60405162000166919062002b33565b60405180910390f35b3480156200017c57600080fd5b506200019b600480360381019062000195919062002b50565b6200045b565b604051620001aa919062002b33565b60405180910390f35b348015620001c057600080fd5b50620001cb620004da565b604051620001da919062002cf9565b60405180910390f35b348015620001f057600080fd5b50620001fb6200090f565b6040516200020a919062002b33565b60405180910390f35b3480156200022057600080fd5b506200023f600480360381019062000239919062002d8b565b62000933565b6040516200024e919062002df1565b60405180910390f35b3480156200026457600080fd5b506200028360048036038101906200027d919062002b50565b62000aba565b60405162000292919062002b33565b60405180910390f35b348015620002a857600080fd5b50620002b362000b82565b604051620002c2919062002e0e565b60405180910390f35b620002e96004803603810190620002e3919062002e2b565b62000ba6565b005b62000309600480360381019062000303919062002e2b565b62001118565b005b3480156200031857600080fd5b5062000337600480360381019062000331919062002e72565b62001767565b005b62000357600480360381019062000351919062002b50565b62001bb3565b005b3480156200036657600080fd5b50620003716200210a565b60405162000380919062002cf9565b60405180910390f35b3480156200039657600080fd5b50620003a16200253f565b604051620003b0919062002cf9565b60405180910390f35b6004602052816000526040600020602052806000526040600020600091509150508060000160009054906101000a900473ffffffffffffffffffffffffffffffffffffffff16908060010160009054906101000a900473ffffffffffffffffffffffffffffffffffffffff16908060020154908060030154908060040154908060050160009054906101000a900460ff16905086565b60018060000154905081565b600060046000600360009054906101000a900473ffffffffffffffffffffffffffffffffffffffff1673ffffffffffffffffffffffffffffffffffffffff1673ffffffffffffffffffffffffffffffffffffffff1681526020019081526020016000206000838152602001908152602001600020600401549050919050565b60606000620004ea60016200288d565b905060008060005b83811015620005fb573373ffffffffffffffffffffffffffffffffffffffff1660046000600360009054906101000a900473ffffffffffffffffffffffffffffffffffffffff1673ffffffffffffffffffffffffffffffffffffffff1673ffffffffffffffffffffffffffffffffffffffff168152602001908152602001600020600060018462000584919062002efd565b815260200190815260200160002060000160009054906101000a900473ffffffffffffffffffffffffffffffffffffffff1673ffffffffffffffffffffffffffffffffffffffff161415620005e557600183620005e2919062002efd565b92505b8080620005f29062002f5a565b915050620004f2565b5060008267ffffffffffffffff8111156200061b576200061a62002fa8565b5b6040519080825280602002602001820160405280156200065857816020015b6200064462002910565b8152602001906001900390816200063a5790505b50905060005b8481101562000904573373ffffffffffffffffffffffffffffffffffffffff1660046000600360009054906101000a900473ffffffffffffffffffffffffffffffffffffffff1673ffffffffffffffffffffffffffffffffffffffff1673ffffffffffffffffffffffffffffffffffffffff1681526020019081526020016000206000600184620006f0919062002efd565b815260200190815260200160002060000160009054906101000a900473ffffffffffffffffffffffffffffffffffffffff1673ffffffffffffffffffffffffffffffffffffffff161415620008ee57600060018262000750919062002efd565b9050600060046000600360009054906101000a900473ffffffffffffffffffffffffffffffffffffffff1673ffffffffffffffffffffffffffffffffffffffff1673ffffffffffffffffffffffffffffffffffffffff16815260200190815260200160002060008381526020019081526020016000209050806040518060c00160405290816000820160009054906101000a900473ffffffffffffffffffffffffffffffffffffffff1673ffffffffffffffffffffffffffffffffffffffff1673ffffffffffffffffffffffffffffffffffffffff1681526020016001820160009054906101000a900473ffffffffffffffffffffffffffffffffffffffff1673ffffffffffffffffffffffffffffffffffffffff1673ffffffffffffffffffffffffffffffffffffffff1681526020016002820154815260200160038201548152602001600482015481526020016005820160009054906101000a900460ff161515151581525050848681518110620008cf57620008ce62002fd7565b5b6020026020010181905250600185620008e9919062002efd565b945050505b8080620008fb9062002f5a565b9150506200065e565b508094505050505090565b7f000000000000000000000000000000000000000000000000000000000000000081565b600080604051620009449062002974565b604051809103906000f08015801562000961573d6000803e3d6000fd5b5090508073ffffffffffffffffffffffffffffffffffffffff1663d85d3d2785856040518363ffffffff1660e01b8152600401620009a19291906200306a565b6020604051808303816000875af1158015620009c1573d6000803e3d6000fd5b505050506040513d601f19601f82011682018060405250810190620009e79190620030a7565b5080600360006101000a81548173ffffffffffffffffffffffffffffffffffffffff021916908373ffffffffffffffffffffffffffffffffffffffff160217905550600360009054906101000a900473ffffffffffffffffffffffffffffffffffffffff1673ffffffffffffffffffffffffffffffffffffffff167f2e2b3f61b70d2d131b2a807371103cc98d51adcaa5e9a8f9c32658ad8426e74e60405160405180910390a2600360009054906101000a900473ffffffffffffffffffffffffffffffffffffffff1691505092915050565b600060647f0000000000000000000000000000000000000000000000000000000000000000606462000aed919062002efd565b60046000600360009054906101000a900473ffffffffffffffffffffffffffffffffffffffff1673ffffffffffffffffffffffffffffffffffffffff1673ffffffffffffffffffffffffffffffffffffffff16815260200190815260200160002060008581526020019081526020016000206004015462000b6f9190620030d9565b62000b7b919062003169565b9050919050565b7f000000000000000000000000000000000000000000000000000000000000000081565b81336000600360009054906101000a900473ffffffffffffffffffffffffffffffffffffffff16905060008173ffffffffffffffffffffffffffffffffffffffff16636352211e856040518263ffffffff1660e01b815260040162000c0c919062002b33565b602060405180830381865afa15801562000c2a573d6000803e3d6000fd5b505050506040513d601f19601f8201168201806040525081019062000c509190620031b8565b90508073ffffffffffffffffffffffffffffffffffffffff168373ffffffffffffffffffffffffffffffffffffffff161462000cb8576040517f30cd747100000000000000000000000000000000000000000000000000000000815260040160405180910390fd5b856000600360009054906101000a900473ffffffffffffffffffffffffffffffffffffffff16905060008173ffffffffffffffffffffffffffffffffffffffff16636352211e846040518263ffffffff1660e01b815260040162000d1d919062002b33565b602060405180830381865afa15801562000d3b573d6000803e3d6000fd5b505050506040513d601f19601f8201168201806040525081019062000d619190620031b8565b90508073ffffffffffffffffffffffffffffffffffffffff163073ffffffffffffffffffffffffffffffffffffffff16141562000dca576040517fa3d582ec00000000000000000000000000000000000000000000000000000000815260040160405180910390fd5b6002600054141562000e13576040517f08c379a000000000000000000000000000000000000000000000000000000000815260040162000e0a906200323a565b60405180910390fd5b60026000819055506000881162000e56576040517fe1abbfc500000000000000000000000000000000000000000000000000000000815260040160405180910390fd5b62000e6260016200289b565b600062000e7060016200288d565b905062000e7f8a828b62001767565b600360009054906101000a900473ffffffffffffffffffffffffffffffffffffffff1673ffffffffffffffffffffffffffffffffffffffff166323b872dd33308d6040518463ffffffff1660e01b815260040162000ee0939291906200325c565b600060405180830381600087803b15801562000efb57600080fd5b505af115801562000f10573d6000803e3d6000fd5b50505050600060046000600360009054906101000a900473ffffffffffffffffffffffffffffffffffffffff1673ffffffffffffffffffffffffffffffffffffffff1673ffffffffffffffffffffffffffffffffffffffff16815260200190815260200160002060008381526020019081526020016000206040518060c00160405290816000820160009054906101000a900473ffffffffffffffffffffffffffffffffffffffff1673ffffffffffffffffffffffffffffffffffffffff1673ffffffffffffffffffffffffffffffffffffffff1681526020016001820160009054906101000a900473ffffffffffffffffffffffffffffffffffffffff1673ffffffffffffffffffffffffffffffffffffffff1673ffffffffffffffffffffffffffffffffffffffff1681526020016002820154815260200160038201548152602001600482015481526020016005820160009054906101000a900460ff16151515158152505090508a600360009054906101000a900473ffffffffffffffffffffffffffffffffffffffff1673ffffffffffffffffffffffffffffffffffffffff167fa32537b3445e8d7bf368b526f53200c5a0f1cc087c14445c6386453febdb01098360000151846020015185608001518660a00151604051620010fb949392919062003304565b60405180910390a350506001600081905550505050505050505050565b60046000600360009054906101000a900473ffffffffffffffffffffffffffffffffffffffff1673ffffffffffffffffffffffffffffffffffffffff1673ffffffffffffffffffffffffffffffffffffffff168152602001908152602001600020600083815260200190815260200160002060030154336000600360009054906101000a900473ffffffffffffffffffffffffffffffffffffffff16905060008173ffffffffffffffffffffffffffffffffffffffff16636352211e856040518263ffffffff1660e01b8152600401620011f3919062002b33565b602060405180830381865afa15801562001211573d6000803e3d6000fd5b505050506040513d601f19601f82011682018060405250810190620012379190620031b8565b90508073ffffffffffffffffffffffffffffffffffffffff168373ffffffffffffffffffffffffffffffffffffffff16146200129f576040517f30cd747100000000000000000000000000000000000000000000000000000000815260040160405180910390fd5b60046000600360009054906101000a900473ffffffffffffffffffffffffffffffffffffffff1673ffffffffffffffffffffffffffffffffffffffff1673ffffffffffffffffffffffffffffffffffffffff1681526020019081526020016000206000878152602001908152602001600020600301546000600360009054906101000a900473ffffffffffffffffffffffffffffffffffffffff16905060008173ffffffffffffffffffffffffffffffffffffffff16636352211e846040518263ffffffff1660e01b815260040162001379919062002b33565b602060405180830381865afa15801562001397573d6000803e3d6000fd5b505050506040513d601f19601f82011682018060405250810190620013bd9190620031b8565b90508073ffffffffffffffffffffffffffffffffffffffff163073ffffffffffffffffffffffffffffffffffffffff16141562001426576040517fa3d582ec00000000000000000000000000000000000000000000000000000000815260040160405180910390fd5b600260005414156200146f576040517f08c379a000000000000000000000000000000000000000000000000000000000815260040162001466906200323a565b60405180910390fd5b600260008190555060008811620014b2576040517fe1abbfc500000000000000000000000000000000000000000000000000000000815260040160405180910390fd5b600060046000600360009054906101000a900473ffffffffffffffffffffffffffffffffffffffff1673ffffffffffffffffffffffffffffffffffffffff1673ffffffffffffffffffffffffffffffffffffffff16815260200190815260200160002060008b8152602001908152602001600020905060008160050160006101000a81548160ff021916908315150217905550888160040181905550338160000160006101000a81548173ffffffffffffffffffffffffffffffffffffffff021916908373ffffffffffffffffffffffffffffffffffffffff160217905550308160010160006101000a81548173ffffffffffffffffffffffffffffffffffffffff021916908373ffffffffffffffffffffffffffffffffffffffff160217905550620015e06002620028b1565b600360009054906101000a900473ffffffffffffffffffffffffffffffffffffffff1673ffffffffffffffffffffffffffffffffffffffff166323b872dd333084600301546040518463ffffffff1660e01b815260040162001645939291906200325c565b600060405180830381600087803b1580156200166057600080fd5b505af115801562001675573d6000803e3d6000fd5b505050508060030154600360009054906101000a900473ffffffffffffffffffffffffffffffffffffffff1673ffffffffffffffffffffffffffffffffffffffff167fafd7b131c900b2911104a35c344bd27df9588e569fc4bd4d823f3602436b52158360000160009054906101000a900473ffffffffffffffffffffffffffffffffffffffff168460010160009054906101000a900473ffffffffffffffffffffffffffffffffffffffff1685600401548660050160009054906101000a900460ff166040516200174b949392919062003304565b60405180910390a3506001600081905550505050505050505050565b600360009054906101000a900473ffffffffffffffffffffffffffffffffffffffff1673ffffffffffffffffffffffffffffffffffffffff166301ffc9a76380ac58cd60e01b6040518263ffffffff1660e01b8152600401620017cb91906200338e565b602060405180830381865afa158015620017e9573d6000803e3d6000fd5b505050506040513d601f19601f820116820180604052508101906200180f9190620033dc565b15620019df576000600360009054906101000a900473ffffffffffffffffffffffffffffffffffffffff1690503373ffffffffffffffffffffffffffffffffffffffff168173ffffffffffffffffffffffffffffffffffffffff16636352211e866040518263ffffffff1660e01b81526004016200188e919062002b33565b602060405180830381865afa158015620018ac573d6000803e3d6000fd5b505050506040513d601f19601f82011682018060405250810190620018d29190620031b8565b73ffffffffffffffffffffffffffffffffffffffff161462001920576040517f30cd747100000000000000000000000000000000000000000000000000000000815260040160405180910390fd5b8073ffffffffffffffffffffffffffffffffffffffff1663e985e9c533306040518363ffffffff1660e01b81526004016200195d9291906200340e565b602060405180830381865afa1580156200197b573d6000803e3d6000fd5b505050506040513d601f19601f82011682018060405250810190620019a19190620033dc565b620019d8576040517fc278fc7000000000000000000000000000000000000000000000000000000000815260040160405180910390fd5b5062001a11565b6040517f41b7742500000000000000000000000000000000000000000000000000000000815260040160405180910390fd5b6040518060c001604052803373ffffffffffffffffffffffffffffffffffffffff1681526020013073ffffffffffffffffffffffffffffffffffffffff1681526020018381526020018481526020018281526020016000151581525060046000600360009054906101000a900473ffffffffffffffffffffffffffffffffffffffff1673ffffffffffffffffffffffffffffffffffffffff1673ffffffffffffffffffffffffffffffffffffffff168152602001908152602001600020600084815260200190815260200160002060008201518160000160006101000a81548173ffffffffffffffffffffffffffffffffffffffff021916908373ffffffffffffffffffffffffffffffffffffffff16021790555060208201518160010160006101000a81548173ffffffffffffffffffffffffffffffffffffffff021916908373ffffffffffffffffffffffffffffffffffffffff16021790555060408201518160020155606082015181600301556080820151816004015560a08201518160050160006101000a81548160ff021916908315150217905550905050505050565b806000811115801562001bd0575062001bcd60016200288d565b81115b1562001c08576040517fbf8b3d3e00000000000000000000000000000000000000000000000000000000815260040160405180910390fd5b6002600054141562001c51576040517f08c379a000000000000000000000000000000000000000000000000000000000815260040162001c48906200323a565b60405180910390fd5b6002600081905550600062001c668362000aba565b9050600060046000600360009054906101000a900473ffffffffffffffffffffffffffffffffffffffff1673ffffffffffffffffffffffffffffffffffffffff1673ffffffffffffffffffffffffffffffffffffffff168152602001908152602001600020600085815260200190815260200160002090506000816004015490506000818462001cf791906200343b565b905060008360000160009054906101000a900473ffffffffffffffffffffffffffffffffffffffff1690508434101562001d9457600360009054906101000a900473ffffffffffffffffffffffffffffffffffffffff168460030154866040517f7c93456500000000000000000000000000000000000000000000000000000000815260040162001d8b9392919062003476565b60405180910390fd5b8360050160009054906101000a900460ff161562001dde576040517fb413c50200000000000000000000000000000000000000000000000000000000815260040160405180910390fd5b338460010160006101000a81548173ffffffffffffffffffffffffffffffffffffffff021916908373ffffffffffffffffffffffffffffffffffffffff16021790555060018460050160006101000a81548160ff02191690831515021790555062001e4a60026200289b565b600360009054906101000a900473ffffffffffffffffffffffffffffffffffffffff1673ffffffffffffffffffffffffffffffffffffffff166342842e0e303387600301546040518463ffffffff1660e01b815260040162001eaf939291906200325c565b600060405180830381600087803b15801562001eca57600080fd5b505af115801562001edf573d6000803e3d6000fd5b5050505060008173ffffffffffffffffffffffffffffffffffffffff168460405162001f0b90620034e8565b60006040518083038185875af1925050503d806000811462001f4a576040519150601f19603f3d011682016040523d82523d6000602084013e62001f4f565b606091505b505090508062001f8b576040517f90b8ec1800000000000000000000000000000000000000000000000000000000815260040160405180910390fd5b60007f000000000000000000000000000000000000000000000000000000000000000073ffffffffffffffffffffffffffffffffffffffff168460405162001fd390620034e8565b60006040518083038185875af1925050503d806000811462002012576040519150601f19603f3d011682016040523d82523d6000602084013e62002017565b606091505b505090508062002053576040517f90b8ec1800000000000000000000000000000000000000000000000000000000815260040160405180910390fd5b8560010160009054906101000a900473ffffffffffffffffffffffffffffffffffffffff1673ffffffffffffffffffffffffffffffffffffffff168373ffffffffffffffffffffffffffffffffffffffff167f7a294cf6442b01d7fdf4d752b780452e81d214cde05a4b638531a455fdc34c798860030154888a60050160009054906101000a900460ff16604051620020ef93929190620034ff565b60405180910390a35050505050505060016000819055505050565b606060006200211a60016200288d565b905060008060005b838110156200222b573373ffffffffffffffffffffffffffffffffffffffff1660046000600360009054906101000a900473ffffffffffffffffffffffffffffffffffffffff1673ffffffffffffffffffffffffffffffffffffffff1673ffffffffffffffffffffffffffffffffffffffff1681526020019081526020016000206000600184620021b4919062002efd565b815260200190815260200160002060000160009054906101000a900473ffffffffffffffffffffffffffffffffffffffff1673ffffffffffffffffffffffffffffffffffffffff161415620022155760018362002212919062002efd565b92505b8080620022229062002f5a565b91505062002122565b5060008267ffffffffffffffff8111156200224b576200224a62002fa8565b5b6040519080825280602002602001820160405280156200228857816020015b6200227462002910565b8152602001906001900390816200226a5790505b50905060005b8481101562002534573373ffffffffffffffffffffffffffffffffffffffff1660046000600360009054906101000a900473ffffffffffffffffffffffffffffffffffffffff1673ffffffffffffffffffffffffffffffffffffffff1673ffffffffffffffffffffffffffffffffffffffff168152602001908152602001600020600060018462002320919062002efd565b815260200190815260200160002060000160009054906101000a900473ffffffffffffffffffffffffffffffffffffffff1673ffffffffffffffffffffffffffffffffffffffff1614156200251e57600060018262002380919062002efd565b9050600060046000600360009054906101000a900473ffffffffffffffffffffffffffffffffffffffff1673ffffffffffffffffffffffffffffffffffffffff1673ffffffffffffffffffffffffffffffffffffffff16815260200190815260200160002060008381526020019081526020016000209050806040518060c00160405290816000820160009054906101000a900473ffffffffffffffffffffffffffffffffffffffff1673ffffffffffffffffffffffffffffffffffffffff1673ffffffffffffffffffffffffffffffffffffffff1681526020016001820160009054906101000a900473ffffffffffffffffffffffffffffffffffffffff1673ffffffffffffffffffffffffffffffffffffffff1673ffffffffffffffffffffffffffffffffffffffff1681526020016002820154815260200160038201548152602001600482015481526020016005820160009054906101000a900460ff161515151581525050848681518110620024ff57620024fe62002fd7565b5b602002602001018190525060018562002519919062002efd565b945050505b80806200252b9062002f5a565b9150506200228e565b508094505050505090565b606060006200254f60016200288d565b905060006200255f60026200288d565b6200256b60016200288d565b6200257791906200343b565b90506000808267ffffffffffffffff81111562002599576200259862002fa8565b5b604051908082528060200260200182016040528015620025d657816020015b620025c262002910565b815260200190600190039081620025b85790505b50905060005b8481101562002882573073ffffffffffffffffffffffffffffffffffffffff1660046000600360009054906101000a900473ffffffffffffffffffffffffffffffffffffffff1673ffffffffffffffffffffffffffffffffffffffff1673ffffffffffffffffffffffffffffffffffffffff16815260200190815260200160002060006001846200266e919062002efd565b815260200190815260200160002060000160009054906101000a900473ffffffffffffffffffffffffffffffffffffffff1673ffffffffffffffffffffffffffffffffffffffff1614156200286c576000600182620026ce919062002efd565b9050600060046000600360009054906101000a900473ffffffffffffffffffffffffffffffffffffffff1673ffffffffffffffffffffffffffffffffffffffff1673ffffffffffffffffffffffffffffffffffffffff16815260200190815260200160002060008381526020019081526020016000209050806040518060c00160405290816000820160009054906101000a900473ffffffffffffffffffffffffffffffffffffffff1673ffffffffffffffffffffffffffffffffffffffff1673ffffffffffffffffffffffffffffffffffffffff1681526020016001820160009054906101000a900473ffffffffffffffffffffffffffffffffffffffff1673ffffffffffffffffffffffffffffffffffffffff1673ffffffffffffffffffffffffffffffffffffffff1681526020016002820154815260200160038201548152602001600482015481526020016005820160009054906101000a900460ff1615151515815250508483815181106200284d576200284c62002fd7565b5b602002602001018190525060018562002867919062002efd565b945050505b8080620028799062002f5a565b915050620025dc565b508094505050505090565b600081600001549050919050565b6001816000016000828254019250508190555050565b6000816000015490506000811162002900576040517f08c379a0000000000000000000000000000000000000000000000000000000008152600401620028f7906200358c565b60405180910390fd5b6001810382600001819055505050565b6040518060c00160405280600073ffffffffffffffffffffffffffffffffffffffff168152602001600073ffffffffffffffffffffffffffffffffffffffff1681526020016000815260200160008152602001600081526020016000151581525090565b61326f80620035af83390190565b600080fd5b600080fd5b600073ffffffffffffffffffffffffffffffffffffffff82169050919050565b6000620029b9826200298c565b9050919050565b620029cb81620029ac565b8114620029d757600080fd5b50565b600081359050620029eb81620029c0565b92915050565b6000819050919050565b62002a0681620029f1565b811462002a1257600080fd5b50565b60008135905062002a2681620029fb565b92915050565b6000806040838503121562002a465762002a4562002982565b5b600062002a5685828601620029da565b925050602062002a698582860162002a15565b9150509250929050565b600062002a80826200298c565b9050919050565b62002a928162002a73565b82525050565b62002aa381620029f1565b82525050565b60008115159050919050565b62002ac08162002aa9565b82525050565b600060c08201905062002add600083018962002a87565b62002aec602083018862002a87565b62002afb604083018762002a98565b62002b0a606083018662002a98565b62002b19608083018562002a98565b62002b2860a083018462002ab5565b979650505050505050565b600060208201905062002b4a600083018462002a98565b92915050565b60006020828403121562002b695762002b6862002982565b5b600062002b798482850162002a15565b91505092915050565b600081519050919050565b600082825260208201905092915050565b6000819050602082019050919050565b62002bb98162002a73565b82525050565b62002bca81620029f1565b82525050565b62002bdb8162002aa9565b82525050565b60c08201600082015162002bf9600085018262002bae565b50602082015162002c0e602085018262002bae565b50604082015162002c23604085018262002bbf565b50606082015162002c38606085018262002bbf565b50608082015162002c4d608085018262002bbf565b5060a082015162002c6260a085018262002bd0565b50505050565b600062002c76838362002be1565b60c08301905092915050565b6000602082019050919050565b600062002c9c8262002b82565b62002ca8818562002b8d565b935062002cb58362002b9e565b8060005b8381101562002cec57815162002cd0888262002c68565b975062002cdd8362002c82565b92505060018101905062002cb9565b5085935050505092915050565b6000602082019050818103600083015262002d15818462002c8f565b905092915050565b600080fd5b600080fd5b600080fd5b60008083601f84011262002d455762002d4462002d1d565b5b8235905067ffffffffffffffff81111562002d655762002d6462002d22565b5b60208301915083600182028301111562002d845762002d8362002d27565b5b9250929050565b6000806020838503121562002da55762002da462002982565b5b600083013567ffffffffffffffff81111562002dc65762002dc562002987565b5b62002dd48582860162002d2c565b92509250509250929050565b62002deb81620029ac565b82525050565b600060208201905062002e08600083018462002de0565b92915050565b600060208201905062002e25600083018462002a87565b92915050565b6000806040838503121562002e455762002e4462002982565b5b600062002e558582860162002a15565b925050602062002e688582860162002a15565b9150509250929050565b60008060006060848603121562002e8e5762002e8d62002982565b5b600062002e9e8682870162002a15565b935050602062002eb18682870162002a15565b925050604062002ec48682870162002a15565b9150509250925092565b7f4e487b7100000000000000000000000000000000000000000000000000000000600052601160045260246000fd5b600062002f0a82620029f1565b915062002f1783620029f1565b9250827fffffffffffffffffffffffffffffffffffffffffffffffffffffffffffffffff0382111562002f4f5762002f4e62002ece565b5b828201905092915050565b600062002f6782620029f1565b91507fffffffffffffffffffffffffffffffffffffffffffffffffffffffffffffffff82141562002f9d5762002f9c62002ece565b5b600182019050919050565b7f4e487b7100000000000000000000000000000000000000000000000000000000600052604160045260246000fd5b7f4e487b7100000000000000000000000000000000000000000000000000000000600052603260045260246000fd5b600082825260208201905092915050565b82818337600083830152505050565b6000601f19601f8301169050919050565b600062003045838562003006565b93506200305483858462003017565b6200305f8362003026565b840190509392505050565b600060208201905081810360008301526200308781848662003037565b90509392505050565b600081519050620030a181620029fb565b92915050565b600060208284031215620030c057620030bf62002982565b5b6000620030d08482850162003090565b91505092915050565b6000620030e682620029f1565b9150620030f383620029f1565b9250817fffffffffffffffffffffffffffffffffffffffffffffffffffffffffffffffff04831182151516156200312f576200312e62002ece565b5b828202905092915050565b7f4e487b7100000000000000000000000000000000000000000000000000000000600052601260045260246000fd5b60006200317682620029f1565b91506200318383620029f1565b9250826200319657620031956200313a565b5b828204905092915050565b600081519050620031b281620029c0565b92915050565b600060208284031215620031d157620031d062002982565b5b6000620031e184828501620031a1565b91505092915050565b7f5265656e7472616e637947756172643a207265656e7472616e742063616c6c00600082015250565b600062003222601f8362003006565b91506200322f82620031ea565b602082019050919050565b60006020820190508181036000830152620032558162003213565b9050919050565b600060608201905062003273600083018662002de0565b62003282602083018562002de0565b62003291604083018462002a98565b949350505050565b6000819050919050565b6000620032c4620032be620032b8846200298c565b62003299565b6200298c565b9050919050565b6000620032d882620032a3565b9050919050565b6000620032ec82620032cb565b9050919050565b620032fe81620032df565b82525050565b60006080820190506200331b6000830187620032f3565b6200332a6020830186620032f3565b62003339604083018562002a98565b62003348606083018462002ab5565b95945050505050565b60007fffffffff0000000000000000000000000000000000000000000000000000000082169050919050565b620033888162003351565b82525050565b6000602082019050620033a560008301846200337d565b92915050565b620033b68162002aa9565b8114620033c257600080fd5b50565b600081519050620033d681620033ab565b92915050565b600060208284031215620033f557620033f462002982565b5b60006200340584828501620033c5565b91505092915050565b600060408201905062003425600083018562002de0565b62003434602083018462002de0565b9392505050565b60006200344882620029f1565b91506200345583620029f1565b9250828210156200346b576200346a62002ece565b5b828203905092915050565b60006060820190506200348d600083018662002de0565b6200349c602083018562002a98565b620034ab604083018462002a98565b949350505050565b600081905092915050565b50565b6000620034d0600083620034b3565b9150620034dd82620034be565b600082019050919050565b6000620034f582620034c1565b9150819050919050565b600060608201905062003516600083018662002a98565b62003525602083018562002a98565b62003534604083018462002ab5565b949350505050565b7f436f756e7465723a2064656372656d656e74206f766572666c6f770000000000600082015250565b600062003574601b8362003006565b915062003581826200353c565b602082019050919050565b60006020820190508181036000830152620035a78162003565565b905091905056fe60806040523480156200001157600080fd5b506040518060400160405280601081526020017f536169476f6e20446973747269637473000000000000000000000000000000008152506040518060400160405280600381526020017f53474e0000000000000000000000000000000000000000000000000000000000815250816000908051906020019062000096929190620000b8565b508060019080519060200190620000af929190620000b8565b505050620001cd565b828054620000c69062000197565b90600052602060002090601f016020900481019282620000ea576000855562000136565b82601f106200010557805160ff191683800117855562000136565b8280016001018555821562000136579182015b828111156200013557825182559160200191906001019062000118565b5b50905062000145919062000149565b5090565b5b80821115620001645760008160009055506001016200014a565b5090565b7f4e487b7100000000000000000000000000000000000000000000000000000000600052602260045260246000fd5b60006002820490506001821680620001b057607f821691505b60208210811415620001c757620001c662000168565b5b50919050565b61309280620001dd6000396000f3fe608060405234801561001057600080fd5b506004361061010b5760003560e01c80636352211e116100a2578063aa46a40011610071578063aa46a400146102c9578063b88d4fde146102e7578063c87b56dd14610303578063d85d3d2714610333578063e985e9c5146103635761010b565b80636352211e1461022f57806370a082311461025f57806395d89b411461028f578063a22cb465146102ad5761010b565b8063095ea7b3116100de578063095ea7b3146101aa57806323b872dd146101c65780632a55205a146101e257806342842e0e146102135761010b565b806301ffc9a71461011057806302fa7c471461014057806306fdde031461015c578063081812fc1461017a575b600080fd5b61012a60048036038101906101259190611e1c565b610393565b6040516101379190611e64565b60405180910390f35b61015a60048036038101906101559190611f21565b6103a5565b005b6101646103b3565b6040516101719190611ffa565b60405180910390f35b610194600480360381019061018f9190612052565b610445565b6040516101a1919061208e565b60405180910390f35b6101c460048036038101906101bf91906120a9565b61048b565b005b6101e060048036038101906101db91906120e9565b6105a3565b005b6101fc60048036038101906101f7919061213c565b610603565b60405161020a92919061218b565b60405180910390f35b61022d600480360381019061022891906120e9565b6107ee565b005b61024960048036038101906102449190612052565b61080e565b604051610256919061208e565b60405180910390f35b610279600480360381019061027491906121b4565b6108c0565b60405161028691906121e1565b60405180910390f35b610297610978565b6040516102a49190611ffa565b60405180910390f35b6102c760048036038101906102c29190612228565b610a0a565b005b6102d1610a20565b6040516102de91906121e1565b60405180910390f35b61030160048036038101906102fc919061239d565b610a2c565b005b61031d60048036038101906103189190612052565b610a8e565b60405161032a9190611ffa565b60405180910390f35b61034d60048036038101906103489190612480565b610ba1565b60405161035a91906121e1565b60405180910390f35b61037d600480360381019061037891906124cd565b610c56565b60405161038a9190611e64565b60405180910390f35b600061039e82610cea565b9050919050565b6103af8282610d64565b5050565b6060600080546103c29061253c565b80601f01602080910402602001604051908101604052809291908181526020018280546103ee9061253c565b801561043b5780601f106104105761010080835404028352916020019161043b565b820191906000526020600020905b81548152906001019060200180831161041e57829003601f168201915b5050505050905090565b600061045082610efa565b6004600083815260200190815260200160002060009054906101000a900473ffffffffffffffffffffffffffffffffffffffff169050919050565b60006104968261080e565b90508073ffffffffffffffffffffffffffffffffffffffff168373ffffffffffffffffffffffffffffffffffffffff161415610507576040517f08c379a00000000000000000000000000000000000000000000000000000000081526004016104fe906125e0565b60405180910390fd5b8073ffffffffffffffffffffffffffffffffffffffff16610526610f45565b73ffffffffffffffffffffffffffffffffffffffff16148061055557506105548161054f610f45565b610c56565b5b610594576040517f08c379a000000000000000000000000000000000000000000000000000000000815260040161058b90612672565b60405180910390fd5b61059e8383610f4d565b505050565b6105b46105ae610f45565b82611006565b6105f3576040517f08c379a00000000000000000000000000000000000000000000000000000000081526004016105ea90612704565b60405180910390fd5b6105fe83838361109b565b505050565b6000806000600860008681526020019081526020016000206040518060400160405290816000820160009054906101000a900473ffffffffffffffffffffffffffffffffffffffff1673ffffffffffffffffffffffffffffffffffffffff1673ffffffffffffffffffffffffffffffffffffffff1681526020016000820160149054906101000a90046bffffffffffffffffffffffff166bffffffffffffffffffffffff166bffffffffffffffffffffffff16815250509050600073ffffffffffffffffffffffffffffffffffffffff16816000015173ffffffffffffffffffffffffffffffffffffffff1614156107995760076040518060400160405290816000820160009054906101000a900473ffffffffffffffffffffffffffffffffffffffff1673ffffffffffffffffffffffffffffffffffffffff1673ffffffffffffffffffffffffffffffffffffffff1681526020016000820160149054906101000a90046bffffffffffffffffffffffff166bffffffffffffffffffffffff166bffffffffffffffffffffffff168152505090505b60006107a3611302565b6bffffffffffffffffffffffff1682602001516bffffffffffffffffffffffff16866107cf9190612753565b6107d991906127dc565b90508160000151819350935050509250929050565b61080983838360405180602001604052806000815250610a2c565b505050565b6000806002600084815260200190815260200160002060009054906101000a900473ffffffffffffffffffffffffffffffffffffffff169050600073ffffffffffffffffffffffffffffffffffffffff168173ffffffffffffffffffffffffffffffffffffffff1614156108b7576040517f08c379a00000000000000000000000000000000000000000000000000000000081526004016108ae90612859565b60405180910390fd5b80915050919050565b60008073ffffffffffffffffffffffffffffffffffffffff168273ffffffffffffffffffffffffffffffffffffffff161415610931576040517f08c379a0000000000000000000000000000000000000000000000000000000008152600401610928906128eb565b60405180910390fd5b600360008373ffffffffffffffffffffffffffffffffffffffff1673ffffffffffffffffffffffffffffffffffffffff168152602001908152602001600020549050919050565b6060600180546109879061253c565b80601f01602080910402602001604051908101604052809291908181526020018280546109b39061253c565b8015610a005780601f106109d557610100808354040283529160200191610a00565b820191906000526020600020905b8154815290600101906020018083116109e357829003601f168201915b5050505050905090565b610a1c610a15610f45565b838361130c565b5050565b60098060000154905081565b610a3d610a37610f45565b83611006565b610a7c576040517f08c379a0000000000000000000000000000000000000000000000000000000008152600401610a7390612704565b60405180910390fd5b610a8884848484611479565b50505050565b6060610a9982610efa565b6000600660008481526020019081526020016000208054610ab99061253c565b80601f0160208091040260200160405190810160405280929190818152602001828054610ae59061253c565b8015610b325780601f10610b0757610100808354040283529160200191610b32565b820191906000526020600020905b815481529060010190602001808311610b1557829003601f168201915b505050505090506000610b436114d5565b9050600081511415610b59578192505050610b9c565b600082511115610b8e578082604051602001610b76929190612947565b60405160208183030381529060405292505050610b9c565b610b97846114ec565b925050505b919050565b6000610bad6009611554565b6000610bb9600961156a565b9050610c098185858080601f016020809104026020016040519081016040528093929190818152602001838380828437600081840152601f19601f82011690508083019250505050505050611578565b7f845020906442ad0651b44a75d9767153912bfa586416784cf8ead41b37b1dbf58484604051610c3a929190612998565b60405180910390a1610c4c33826115ec565b8091505092915050565b6000600560008473ffffffffffffffffffffffffffffffffffffffff1673ffffffffffffffffffffffffffffffffffffffff16815260200190815260200160002060008373ffffffffffffffffffffffffffffffffffffffff1673ffffffffffffffffffffffffffffffffffffffff16815260200190815260200160002060009054906101000a900460ff16905092915050565b60007f2a55205a000000000000000000000000000000000000000000000000000000007bffffffffffffffffffffffffffffffffffffffffffffffffffffffff1916827bffffffffffffffffffffffffffffffffffffffffffffffffffffffff19161480610d5d5750610d5c8261160a565b5b9050919050565b610d6c611302565b6bffffffffffffffffffffffff16816bffffffffffffffffffffffff161115610dca576040517f08c379a0000000000000000000000000000000000000000000000000000000008152600401610dc190612a2e565b60405180910390fd5b600073ffffffffffffffffffffffffffffffffffffffff168273ffffffffffffffffffffffffffffffffffffffff161415610e3a576040517f08c379a0000000000000000000000000000000000000000000000000000000008152600401610e3190612a9a565b60405180910390fd5b60405180604001604052808373ffffffffffffffffffffffffffffffffffffffff168152602001826bffffffffffffffffffffffff16815250600760008201518160000160006101000a81548173ffffffffffffffffffffffffffffffffffffffff021916908373ffffffffffffffffffffffffffffffffffffffff16021790555060208201518160000160146101000a8154816bffffffffffffffffffffffff02191690836bffffffffffffffffffffffff1602179055509050505050565b610f03816116ec565b610f42576040517f08c379a0000000000000000000000000000000000000000000000000000000008152600401610f3990612859565b60405180910390fd5b50565b600033905090565b816004600083815260200190815260200160002060006101000a81548173ffffffffffffffffffffffffffffffffffffffff021916908373ffffffffffffffffffffffffffffffffffffffff160217905550808273ffffffffffffffffffffffffffffffffffffffff16610fc08361080e565b73ffffffffffffffffffffffffffffffffffffffff167f8c5be1e5ebec7d5bd14f71427d1e84f3dd0314c0f7b2291e5b200ac8c7c3b92560405160405180910390a45050565b6000806110128361080e565b90508073ffffffffffffffffffffffffffffffffffffffff168473ffffffffffffffffffffffffffffffffffffffff16148061105457506110538185610c56565b5b8061109257508373ffffffffffffffffffffffffffffffffffffffff1661107a84610445565b73ffffffffffffffffffffffffffffffffffffffff16145b91505092915050565b8273ffffffffffffffffffffffffffffffffffffffff166110bb8261080e565b73ffffffffffffffffffffffffffffffffffffffff1614611111576040517f08c379a000000000000000000000000000000000000000000000000000000000815260040161110890612b2c565b60405180910390fd5b600073ffffffffffffffffffffffffffffffffffffffff168273ffffffffffffffffffffffffffffffffffffffff161415611181576040517f08c379a000000000000000000000000000000000000000000000000000000000815260040161117890612bbe565b60405180910390fd5b61118c838383611758565b611197600082610f4d565b6001600360008573ffffffffffffffffffffffffffffffffffffffff1673ffffffffffffffffffffffffffffffffffffffff16815260200190815260200160002060008282546111e79190612bde565b925050819055506001600360008473ffffffffffffffffffffffffffffffffffffffff1673ffffffffffffffffffffffffffffffffffffffff168152602001908152602001600020600082825461123e9190612c12565b92505081905550816002600083815260200190815260200160002060006101000a81548173ffffffffffffffffffffffffffffffffffffffff021916908373ffffffffffffffffffffffffffffffffffffffff160217905550808273ffffffffffffffffffffffffffffffffffffffff168473ffffffffffffffffffffffffffffffffffffffff167fddf252ad1be2c89b69c2b068fc378daa952ba7f163c4a11628f55a4df523b3ef60405160405180910390a46112fd83838361175d565b505050565b6000612710905090565b8173ffffffffffffffffffffffffffffffffffffffff168373ffffffffffffffffffffffffffffffffffffffff16141561137b576040517f08c379a000000000000000000000000000000000000000000000000000000000815260040161137290612cb4565b60405180910390fd5b80600560008573ffffffffffffffffffffffffffffffffffffffff1673ffffffffffffffffffffffffffffffffffffffff16815260200190815260200160002060008473ffffffffffffffffffffffffffffffffffffffff1673ffffffffffffffffffffffffffffffffffffffff16815260200190815260200160002060006101000a81548160ff0219169083151502179055508173ffffffffffffffffffffffffffffffffffffffff168373ffffffffffffffffffffffffffffffffffffffff167f17307eab39ab6107e8899845ad3d59bd9653f200f220920489ca2b5937696c318360405161146c9190611e64565b60405180910390a3505050565b61148484848461109b565b61149084848484611762565b6114cf576040517f08c379a00000000000000000000000000000000000000000000000000000000081526004016114c690612d46565b60405180910390fd5b50505050565b606060405180602001604052806000815250905090565b60606114f782610efa565b60006115016114d5565b90506000815111611521576040518060200160405280600081525061154c565b8061152b846118ea565b60405160200161153c929190612947565b6040516020818303038152906040525b915050919050565b6001816000016000828254019250508190555050565b600081600001549050919050565b611581826116ec565b6115c0576040517f08c379a00000000000000000000000000000000000000000000000000000000081526004016115b790612dd8565b60405180910390fd5b806006600084815260200190815260200160002090805190602001906115e7929190611d0d565b505050565b611606828260405180602001604052806000815250611a4b565b5050565b60007f80ac58cd000000000000000000000000000000000000000000000000000000007bffffffffffffffffffffffffffffffffffffffffffffffffffffffff1916827bffffffffffffffffffffffffffffffffffffffffffffffffffffffff191614806116d557507f5b5e139f000000000000000000000000000000000000000000000000000000007bffffffffffffffffffffffffffffffffffffffffffffffffffffffff1916827bffffffffffffffffffffffffffffffffffffffffffffffffffffffff1916145b806116e557506116e482611aa6565b5b9050919050565b60008073ffffffffffffffffffffffffffffffffffffffff166002600084815260200190815260200160002060009054906101000a900473ffffffffffffffffffffffffffffffffffffffff1673ffffffffffffffffffffffffffffffffffffffff1614159050919050565b505050565b505050565b60006117838473ffffffffffffffffffffffffffffffffffffffff16611b10565b156118dd578373ffffffffffffffffffffffffffffffffffffffff1663150b7a026117ac610f45565b8786866040518563ffffffff1660e01b81526004016117ce9493929190612e4d565b6020604051808303816000875af192505050801561180a57506040513d601f19601f820116820180604052508101906118079190612eae565b60015b61188d573d806000811461183a576040519150601f19603f3d011682016040523d82523d6000602084013e61183f565b606091505b50600081511415611885576040517f08c379a000000000000000000000000000000000000000000000000000000000815260040161187c90612d46565b60405180910390fd5b805181602001fd5b63150b7a0260e01b7bffffffffffffffffffffffffffffffffffffffffffffffffffffffff1916817bffffffffffffffffffffffffffffffffffffffffffffffffffffffff1916149150506118e2565b600190505b949350505050565b60606000821415611932576040518060400160405280600181526020017f30000000000000000000000000000000000000000000000000000000000000008152509050611a46565b600082905060005b6000821461196457808061194d90612edb565b915050600a8261195d91906127dc565b915061193a565b60008167ffffffffffffffff8111156119805761197f612272565b5b6040519080825280601f01601f1916602001820160405280156119b25781602001600182028036833780820191505090505b5090505b60008514611a3f576001826119cb9190612bde565b9150600a856119da9190612f24565b60306119e69190612c12565b60f81b8183815181106119fc576119fb612f55565b5b60200101907effffffffffffffffffffffffffffffffffffffffffffffffffffffffffffff1916908160001a905350600a85611a3891906127dc565b94506119b6565b8093505050505b919050565b611a558383611b33565b611a626000848484611762565b611aa1576040517f08c379a0000000000000000000000000000000000000000000000000000000008152600401611a9890612d46565b60405180910390fd5b505050565b60007f01ffc9a7000000000000000000000000000000000000000000000000000000007bffffffffffffffffffffffffffffffffffffffffffffffffffffffff1916827bffffffffffffffffffffffffffffffffffffffffffffffffffffffff1916149050919050565b6000808273ffffffffffffffffffffffffffffffffffffffff163b119050919050565b600073ffffffffffffffffffffffffffffffffffffffff168273ffffffffffffffffffffffffffffffffffffffff161415611ba3576040517f08c379a0000000000000000000000000000000000000000000000000000000008152600401611b9a90612fd0565b60405180910390fd5b611bac816116ec565b15611bec576040517f08c379a0000000000000000000000000000000000000000000000000000000008152600401611be39061303c565b60405180910390fd5b611bf860008383611758565b6001600360008473ffffffffffffffffffffffffffffffffffffffff1673ffffffffffffffffffffffffffffffffffffffff1681526020019081526020016000206000828254611c489190612c12565b92505081905550816002600083815260200190815260200160002060006101000a81548173ffffffffffffffffffffffffffffffffffffffff021916908373ffffffffffffffffffffffffffffffffffffffff160217905550808273ffffffffffffffffffffffffffffffffffffffff16600073ffffffffffffffffffffffffffffffffffffffff167fddf252ad1be2c89b69c2b068fc378daa952ba7f163c4a11628f55a4df523b3ef60405160405180910390a4611d096000838361175d565b5050565b828054611d199061253c565b90600052602060002090601f016020900481019282611d3b5760008555611d82565b82601f10611d5457805160ff1916838001178555611d82565b82800160010185558215611d82579182015b82811115611d81578251825591602001919060010190611d66565b5b509050611d8f9190611d93565b5090565b5b80821115611dac576000816000905550600101611d94565b5090565b6000604051905090565b600080fd5b600080fd5b60007fffffffff0000000000000000000000000000000000000000000000000000000082169050919050565b611df981611dc4565b8114611e0457600080fd5b50565b600081359050611e1681611df0565b92915050565b600060208284031215611e3257611e31611dba565b5b6000611e4084828501611e07565b91505092915050565b60008115159050919050565b611e5e81611e49565b82525050565b6000602082019050611e796000830184611e55565b92915050565b600073ffffffffffffffffffffffffffffffffffffffff82169050919050565b6000611eaa82611e7f565b9050919050565b611eba81611e9f565b8114611ec557600080fd5b50565b600081359050611ed781611eb1565b92915050565b60006bffffffffffffffffffffffff82169050919050565b611efe81611edd565b8114611f0957600080fd5b50565b600081359050611f1b81611ef5565b92915050565b60008060408385031215611f3857611f37611dba565b5b6000611f4685828601611ec8565b9250506020611f5785828601611f0c565b9150509250929050565b600081519050919050565b600082825260208201905092915050565b60005b83811015611f9b578082015181840152602081019050611f80565b83811115611faa576000848401525b50505050565b6000601f19601f8301169050919050565b6000611fcc82611f61565b611fd68185611f6c565b9350611fe6818560208601611f7d565b611fef81611fb0565b840191505092915050565b600060208201905081810360008301526120148184611fc1565b905092915050565b6000819050919050565b61202f8161201c565b811461203a57600080fd5b50565b60008135905061204c81612026565b92915050565b60006020828403121561206857612067611dba565b5b60006120768482850161203d565b91505092915050565b61208881611e9f565b82525050565b60006020820190506120a3600083018461207f565b92915050565b600080604083850312156120c0576120bf611dba565b5b60006120ce85828601611ec8565b92505060206120df8582860161203d565b9150509250929050565b60008060006060848603121561210257612101611dba565b5b600061211086828701611ec8565b935050602061212186828701611ec8565b92505060406121328682870161203d565b9150509250925092565b6000806040838503121561215357612152611dba565b5b60006121618582860161203d565b92505060206121728582860161203d565b9150509250929050565b6121858161201c565b82525050565b60006040820190506121a0600083018561207f565b6121ad602083018461217c565b9392505050565b6000602082840312156121ca576121c9611dba565b5b60006121d884828501611ec8565b91505092915050565b60006020820190506121f6600083018461217c565b92915050565b61220581611e49565b811461221057600080fd5b50565b600081359050612222816121fc565b92915050565b6000806040838503121561223f5761223e611dba565b5b600061224d85828601611ec8565b925050602061225e85828601612213565b9150509250929050565b600080fd5b600080fd5b7f4e487b7100000000000000000000000000000000000000000000000000000000600052604160045260246000fd5b6122aa82611fb0565b810181811067ffffffffffffffff821117156122c9576122c8612272565b5b80604052505050565b60006122dc611db0565b90506122e882826122a1565b919050565b600067ffffffffffffffff82111561230857612307612272565b5b61231182611fb0565b9050602081019050919050565b82818337600083830152505050565b600061234061233b846122ed565b6122d2565b90508281526020810184848401111561235c5761235b61226d565b5b61236784828561231e565b509392505050565b600082601f83011261238457612383612268565b5b813561239484826020860161232d565b91505092915050565b600080600080608085870312156123b7576123b6611dba565b5b60006123c587828801611ec8565b94505060206123d687828801611ec8565b93505060406123e78782880161203d565b925050606085013567ffffffffffffffff81111561240857612407611dbf565b5b6124148782880161236f565b91505092959194509250565b600080fd5b600080fd5b60008083601f8401126124405761243f612268565b5b8235905067ffffffffffffffff81111561245d5761245c612420565b5b60208301915083600182028301111561247957612478612425565b5b9250929050565b6000806020838503121561249757612496611dba565b5b600083013567ffffffffffffffff8111156124b5576124b4611dbf565b5b6124c18582860161242a565b92509250509250929050565b600080604083850312156124e4576124e3611dba565b5b60006124f285828601611ec8565b925050602061250385828601611ec8565b9150509250929050565b7f4e487b7100000000000000000000000000000000000000000000000000000000600052602260045260246000fd5b6000600282049050600182168061255457607f821691505b602082108114156125685761256761250d565b5b50919050565b7f4552433732313a20617070726f76616c20746f2063757272656e74206f776e6560008201527f7200000000000000000000000000000000000000000000000000000000000000602082015250565b60006125ca602183611f6c565b91506125d58261256e565b604082019050919050565b600060208201905081810360008301526125f9816125bd565b9050919050565b7f4552433732313a20617070726f76652063616c6c6572206973206e6f7420746f60008201527f6b656e206f776e6572206e6f7220617070726f76656420666f7220616c6c0000602082015250565b600061265c603e83611f6c565b915061266782612600565b604082019050919050565b6000602082019050818103600083015261268b8161264f565b9050919050565b7f4552433732313a2063616c6c6572206973206e6f7420746f6b656e206f776e6560008201527f72206e6f7220617070726f766564000000000000000000000000000000000000602082015250565b60006126ee602e83611f6c565b91506126f982612692565b604082019050919050565b6000602082019050818103600083015261271d816126e1565b9050919050565b7f4e487b7100000000000000000000000000000000000000000000000000000000600052601160045260246000fd5b600061275e8261201c565b91506127698361201c565b9250817fffffffffffffffffffffffffffffffffffffffffffffffffffffffffffffffff04831182151516156127a2576127a1612724565b5b828202905092915050565b7f4e487b7100000000000000000000000000000000000000000000000000000000600052601260045260246000fd5b60006127e78261201c565b91506127f28361201c565b925082612802576128016127ad565b5b828204905092915050565b7f4552433732313a20696e76616c696420746f6b656e2049440000000000000000600082015250565b6000612843601883611f6c565b915061284e8261280d565b602082019050919050565b6000602082019050818103600083015261287281612836565b9050919050565b7f4552433732313a2061646472657373207a65726f206973206e6f74206120766160008201527f6c6964206f776e65720000000000000000000000000000000000000000000000602082015250565b60006128d5602983611f6c565b91506128e082612879565b604082019050919050565b60006020820190508181036000830152612904816128c8565b9050919050565b600081905092915050565b600061292182611f61565b61292b818561290b565b935061293b818560208601611f7d565b80840191505092915050565b60006129538285612916565b915061295f8284612916565b91508190509392505050565b60006129778385611f6c565b935061298483858461231e565b61298d83611fb0565b840190509392505050565b600060208201905081810360008301526129b381848661296b565b90509392505050565b7f455243323938313a20726f79616c7479206665652077696c6c2065786365656460008201527f2073616c65507269636500000000000000000000000000000000000000000000602082015250565b6000612a18602a83611f6c565b9150612a23826129bc565b604082019050919050565b60006020820190508181036000830152612a4781612a0b565b9050919050565b7f455243323938313a20696e76616c696420726563656976657200000000000000600082015250565b6000612a84601983611f6c565b9150612a8f82612a4e565b602082019050919050565b60006020820190508181036000830152612ab381612a77565b9050919050565b7f4552433732313a207472616e736665722066726f6d20696e636f72726563742060008201527f6f776e6572000000000000000000000000000000000000000000000000000000602082015250565b6000612b16602583611f6c565b9150612b2182612aba565b604082019050919050565b60006020820190508181036000830152612b4581612b09565b9050919050565b7f4552433732313a207472616e7366657220746f20746865207a65726f2061646460008201527f7265737300000000000000000000000000000000000000000000000000000000602082015250565b6000612ba8602483611f6c565b9150612bb382612b4c565b604082019050919050565b60006020820190508181036000830152612bd781612b9b565b9050919050565b6000612be98261201c565b9150612bf48361201c565b925082821015612c0757612c06612724565b5b828203905092915050565b6000612c1d8261201c565b9150612c288361201c565b9250827fffffffffffffffffffffffffffffffffffffffffffffffffffffffffffffffff03821115612c5d57612c5c612724565b5b828201905092915050565b7f4552433732313a20617070726f766520746f2063616c6c657200000000000000600082015250565b6000612c9e601983611f6c565b9150612ca982612c68565b602082019050919050565b60006020820190508181036000830152612ccd81612c91565b9050919050565b7f4552433732313a207472616e7366657220746f206e6f6e20455243373231526560008201527f63656976657220696d706c656d656e7465720000000000000000000000000000602082015250565b6000612d30603283611f6c565b9150612d3b82612cd4565b604082019050919050565b60006020820190508181036000830152612d5f81612d23565b9050919050565b7f45524337323155524953746f726167653a2055524920736574206f66206e6f6e60008201527f6578697374656e7420746f6b656e000000000000000000000000000000000000602082015250565b6000612dc2602e83611f6c565b9150612dcd82612d66565b604082019050919050565b60006020820190508181036000830152612df181612db5565b9050919050565b600081519050919050565b600082825260208201905092915050565b6000612e1f82612df8565b612e298185612e03565b9350612e39818560208601611f7d565b612e4281611fb0565b840191505092915050565b6000608082019050612e62600083018761207f565b612e6f602083018661207f565b612e7c604083018561217c565b8181036060830152612e8e8184612e14565b905095945050505050565b600081519050612ea881611df0565b92915050565b600060208284031215612ec457612ec3611dba565b5b6000612ed284828501612e99565b91505092915050565b6000612ee68261201c565b91507fffffffffffffffffffffffffffffffffffffffffffffffffffffffffffffffff821415612f1957612f18612724565b5b600182019050919050565b6000612f2f8261201c565b9150612f3a8361201c565b925082612f4a57612f496127ad565b5b828206905092915050565b7f4e487b7100000000000000000000000000000000000000000000000000000000600052603260045260246000fd5b7f4552433732313a206d696e7420746f20746865207a65726f2061646472657373600082015250565b6000612fba602083611f6c565b9150612fc582612f84565b602082019050919050565b60006020820190508181036000830152612fe981612fad565b9050919050565b7f4552433732313a20746f6b656e20616c7265616479206d696e74656400000000600082015250565b6000613026601c83611f6c565b915061303182612ff0565b602082019050919050565b6000602082019050818103600083015261305581613019565b905091905056fea26469706673582212204f81cf224698bebebcc753cc2ed0f5299d6d3781677da28028abf8520ecf7b7064736f6c634300080c0033a2646970667358221220d1066611656ee36d8d525a58b6c15676d4a4099152b63b27690678cbf06ce4ea64736f6c634300080c0033",
  "linkReferences": {},
  "deployedLinkReferences": {}
}