{
  "_format": "hh-sol-artifact-1",
  "contractName": "SaigonMarket",
  "sourceName": "contracts/SaigonMarket.sol",
  "abi": [
    {
      "inputs": [
        {
          "internalType": "uint8",
          "name": "_feeBps",
          "type": "uint8"
        },
        {
          "internalType": "contract SaigonNFTFactory",
          "name": "_saigonNFTFactory",
          "type": "address"
        }
      ],
      "stateMutability": "nonpayable",
      "type": "constructor"
    },
    {
      "inputs": [],
      "name": "AlreadyListed",
      "type": "error"
    },
    {
      "inputs": [],
      "name": "InvalidNftAddress",
      "type": "error"
    },
    {
      "inputs": [],
      "name": "ListingNotExist",
      "type": "error"
    },
    {
      "inputs": [],
      "name": "ListingSold",
      "type": "error"
    },
    {
      "inputs": [],
      "name": "NFTNotApprovedForMarketplace",
      "type": "error"
    },
    {
      "inputs": [],
      "name": "NotOwner",
      "type": "error"
    },
    {
      "inputs": [],
      "name": "PriceMustBeAboveZero",
      "type": "error"
    },
    {
      "inputs": [
        {
          "internalType": "address",
          "name": "nftAddress",
          "type": "address"
        },
        {
          "internalType": "uint256",
          "name": "tokenId",
          "type": "uint256"
        },
        {
          "internalType": "uint256",
          "name": "price",
          "type": "uint256"
        }
      ],
      "name": "PriceNotMet",
      "type": "error"
    },
    {
      "inputs": [],
      "name": "TransferFailed",
      "type": "error"
    },
    {
      "anonymous": false,
      "inputs": [
        {
          "indexed": true,
          "internalType": "address",
          "name": "seller",
          "type": "address"
        },
        {
          "indexed": true,
          "internalType": "address",
          "name": "buyer",
          "type": "address"
        },
        {
          "indexed": false,
          "internalType": "uint256",
          "name": "tokenId",
          "type": "uint256"
        },
        {
          "indexed": false,
          "internalType": "uint256",
          "name": "pricePerItem",
          "type": "uint256"
        },
        {
          "indexed": false,
          "internalType": "bool",
          "name": "sold",
          "type": "bool"
        }
      ],
      "name": "ListingPurchased",
      "type": "event"
    },
    {
      "anonymous": false,
      "inputs": [
        {
          "indexed": true,
          "internalType": "address",
          "name": "nftAddress",
          "type": "address"
        },
        {
          "indexed": true,
          "internalType": "uint256",
          "name": "tokenId",
          "type": "uint256"
        },
        {
          "indexed": false,
          "internalType": "address",
          "name": "seller",
          "type": "address"
        },
        {
          "indexed": false,
          "internalType": "address",
          "name": "owner",
          "type": "address"
        },
        {
          "indexed": false,
          "internalType": "uint256",
          "name": "pricePerItem",
          "type": "uint256"
        },
        {
          "indexed": false,
          "internalType": "bool",
          "name": "sold",
          "type": "bool"
        }
      ],
      "name": "NFTListed",
      "type": "event"
    },
    {
      "anonymous": false,
      "inputs": [
        {
          "indexed": true,
          "internalType": "address",
          "name": "nftAddress",
          "type": "address"
        },
        {
          "indexed": true,
          "internalType": "uint256",
          "name": "tokenId",
          "type": "uint256"
        },
        {
          "indexed": false,
          "internalType": "address",
          "name": "seller",
          "type": "address"
        },
        {
          "indexed": false,
          "internalType": "address",
          "name": "owner",
          "type": "address"
        },
        {
          "indexed": false,
          "internalType": "uint256",
          "name": "pricePerItem",
          "type": "uint256"
        },
        {
          "indexed": false,
          "internalType": "bool",
          "name": "sold",
          "type": "bool"
        }
      ],
      "name": "NFTListedForResell",
      "type": "event"
    },
    {
      "anonymous": false,
      "inputs": [
        {
          "indexed": true,
          "internalType": "address",
          "name": "nftAddress",
          "type": "address"
        }
      ],
      "name": "TokenCreated",
      "type": "event"
    },
    {
      "inputs": [],
      "name": "_listingIds",
      "outputs": [
        {
          "internalType": "uint256",
          "name": "_value",
          "type": "uint256"
        }
      ],
      "stateMutability": "view",
      "type": "function"
    },
    {
      "inputs": [
        {
          "internalType": "uint256",
          "name": "_tokenId",
          "type": "uint256"
        },
        {
          "internalType": "uint256",
          "name": "_pricePerItem",
          "type": "uint256"
        }
      ],
      "name": "createListing",
      "outputs": [],
      "stateMutability": "payable",
      "type": "function"
    },
    {
      "inputs": [
        {
          "internalType": "uint256",
          "name": "_listingId",
          "type": "uint256"
        }
      ],
      "name": "createMarketSale",
      "outputs": [],
      "stateMutability": "payable",
      "type": "function"
    },
    {
      "inputs": [
        {
          "internalType": "string",
          "name": "_tokenURI",
          "type": "string"
        }
      ],
      "name": "createToken",
      "outputs": [
        {
          "internalType": "address",
          "name": "",
          "type": "address"
        }
      ],
      "stateMutability": "nonpayable",
      "type": "function"
    },
    {
      "inputs": [],
      "name": "feeBps",
      "outputs": [
        {
          "internalType": "uint8",
          "name": "",
          "type": "uint8"
        }
      ],
      "stateMutability": "view",
      "type": "function"
    },
    {
      "inputs": [],
      "name": "fetchMarketListings",
      "outputs": [
        {
          "components": [
            {
              "internalType": "address payable",
              "name": "seller",
              "type": "address"
            },
            {
              "internalType": "address payable",
              "name": "owner",
              "type": "address"
            },
            {
              "internalType": "uint256",
              "name": "listingId",
              "type": "uint256"
            },
            {
              "internalType": "uint256",
              "name": "tokenId",
              "type": "uint256"
            },
            {
              "internalType": "uint256",
              "name": "pricePerItem",
              "type": "uint256"
            },
            {
              "internalType": "bool",
              "name": "sold",
              "type": "bool"
            }
          ],
          "internalType": "struct SaigonMarket.Listing[]",
          "name": "",
          "type": "tuple[]"
        }
      ],
      "stateMutability": "view",
      "type": "function"
    },
    {
      "inputs": [],
      "name": "fetchMyNFTs",
      "outputs": [
        {
          "components": [
            {
              "internalType": "address payable",
              "name": "seller",
              "type": "address"
            },
            {
              "internalType": "address payable",
              "name": "owner",
              "type": "address"
            },
            {
              "internalType": "uint256",
              "name": "listingId",
              "type": "uint256"
            },
            {
              "internalType": "uint256",
              "name": "tokenId",
              "type": "uint256"
            },
            {
              "internalType": "uint256",
              "name": "pricePerItem",
              "type": "uint256"
            },
            {
              "internalType": "bool",
              "name": "sold",
              "type": "bool"
            }
          ],
          "internalType": "struct SaigonMarket.Listing[]",
          "name": "",
          "type": "tuple[]"
        }
      ],
      "stateMutability": "view",
      "type": "function"
    },
    {
      "inputs": [],
      "name": "fetchOwnedListings",
      "outputs": [
        {
          "components": [
            {
              "internalType": "address payable",
              "name": "seller",
              "type": "address"
            },
            {
              "internalType": "address payable",
              "name": "owner",
              "type": "address"
            },
            {
              "internalType": "uint256",
              "name": "listingId",
              "type": "uint256"
            },
            {
              "internalType": "uint256",
              "name": "tokenId",
              "type": "uint256"
            },
            {
              "internalType": "uint256",
              "name": "pricePerItem",
              "type": "uint256"
            },
            {
              "internalType": "bool",
              "name": "sold",
              "type": "bool"
            }
          ],
          "internalType": "struct SaigonMarket.Listing[]",
          "name": "",
          "type": "tuple[]"
        }
      ],
      "stateMutability": "view",
      "type": "function"
    },
    {
      "inputs": [
        {
          "internalType": "uint256",
          "name": "_listingId",
          "type": "uint256"
        }
      ],
      "name": "getFinalPrice",
      "outputs": [
        {
          "internalType": "uint256",
          "name": "",
          "type": "uint256"
        }
      ],
      "stateMutability": "view",
      "type": "function"
    },
    {
      "inputs": [
        {
          "internalType": "uint256",
          "name": "_listingId",
          "type": "uint256"
        }
      ],
      "name": "getPricePerItem",
      "outputs": [
        {
          "internalType": "uint256",
          "name": "",
          "type": "uint256"
        }
      ],
      "stateMutability": "view",
      "type": "function"
    },
    {
      "inputs": [
        {
          "internalType": "address",
          "name": "",
          "type": "address"
        },
        {
          "internalType": "uint256",
          "name": "",
          "type": "uint256"
        }
      ],
      "name": "listings",
      "outputs": [
        {
          "internalType": "address payable",
          "name": "seller",
          "type": "address"
        },
        {
          "internalType": "address payable",
          "name": "owner",
          "type": "address"
        },
        {
          "internalType": "uint256",
          "name": "listingId",
          "type": "uint256"
        },
        {
          "internalType": "uint256",
          "name": "tokenId",
          "type": "uint256"
        },
        {
          "internalType": "uint256",
          "name": "pricePerItem",
          "type": "uint256"
        },
        {
          "internalType": "bool",
          "name": "sold",
          "type": "bool"
        }
      ],
      "stateMutability": "view",
      "type": "function"
    },
    {
      "inputs": [],
      "name": "operator",
      "outputs": [
        {
          "internalType": "address payable",
          "name": "",
          "type": "address"
        }
      ],
      "stateMutability": "view",
      "type": "function"
    },
    {
      "inputs": [
        {
          "internalType": "uint256",
          "name": "_listingId",
          "type": "uint256"
        },
        {
          "internalType": "uint256",
          "name": "_newPrice",
          "type": "uint256"
        }
      ],
      "name": "resellNFT",
      "outputs": [],
      "stateMutability": "payable",
      "type": "function"
    }
  ],
  "bytecode": "0x60c06040523480156200001157600080fd5b506040516200365838038062003658833981810160405281019062000037919062000186565b60016000819055503373ffffffffffffffffffffffffffffffffffffffff1660808173ffffffffffffffffffffffffffffffffffffffff16815250508160ff1660a08160ff168152505080600360006101000a81548173ffffffffffffffffffffffffffffffffffffffff021916908373ffffffffffffffffffffffffffffffffffffffff1602179055505050620001cd565b600080fd5b600060ff82169050919050565b620000e781620000cf565b8114620000f357600080fd5b50565b6000815190506200010781620000dc565b92915050565b600073ffffffffffffffffffffffffffffffffffffffff82169050919050565b60006200013a826200010d565b9050919050565b60006200014e826200012d565b9050919050565b620001608162000141565b81146200016c57600080fd5b50565b600081519050620001808162000155565b92915050565b60008060408385031215620001a0576200019f620000ca565b5b6000620001b085828601620000f6565b9250506020620001c3858286016200016f565b9150509250929050565b60805160a051613457620002016000396000818161084d0152610a5e015260008181610b1f0152611a9001526134576000f3fe6080604052600436106100c15760003560e01c80634b5549541161007f578063ac3dfc7311610059578063ac3dfc7314610287578063be9af536146102a3578063e75db0d0146102bf578063f654fc4f146102ea576100c1565b80634b55495414610203578063570ca73514610240578063a79123a91461026b576100c1565b806207df30146100c657806305b826a81461010857806313e2ba5714610133578063202e37401461017057806324a9d8531461019b57806345576f94146101c6575b600080fd5b3480156100d257600080fd5b506100ed60048036038101906100e89190612905565b610315565b6040516100ff96959493929190612990565b60405180910390f35b34801561011457600080fd5b5061011d6103ab565b60405161012a91906129f1565b60405180910390f35b34801561013f57600080fd5b5061015a60048036038101906101559190612a0c565b6103b7565b60405161016791906129f1565b60405180910390f35b34801561017c57600080fd5b50610185610436565b6040516101929190612b90565b60405180910390f35b3480156101a757600080fd5b506101b061084b565b6040516101bd9190612bce565b60405180910390f35b3480156101d257600080fd5b506101ed60048036038101906101e89190612c4e565b61086f565b6040516101fa9190612caa565b60405180910390f35b34801561020f57600080fd5b5061022a60048036038101906102259190612a0c565b610a58565b60405161023791906129f1565b60405180910390f35b34801561024c57600080fd5b50610255610b1d565b6040516102629190612cc5565b60405180910390f35b61028560048036038101906102809190612ce0565b610b41565b005b6102a1600480360381019061029c9190612ce0565b611097565b005b6102bd60048036038101906102b89190612a0c565b6116ce565b005b3480156102cb57600080fd5b506102d4611c04565b6040516102e19190612b90565b60405180910390f35b3480156102f657600080fd5b506102ff612019565b60405161030c9190612b90565b60405180910390f35b6005602052816000526040600020602052806000526040600020600091509150508060000160009054906101000a900473ffffffffffffffffffffffffffffffffffffffff16908060010160009054906101000a900473ffffffffffffffffffffffffffffffffffffffff16908060020154908060030154908060040154908060050160009054906101000a900460ff16905086565b60018060000154905081565b600060056000600460009054906101000a900473ffffffffffffffffffffffffffffffffffffffff1673ffffffffffffffffffffffffffffffffffffffff1673ffffffffffffffffffffffffffffffffffffffff1681526020019081526020016000206000838152602001908152602001600020600401549050919050565b60606000610444600161234a565b905060008060005b8381101561054c573373ffffffffffffffffffffffffffffffffffffffff1660056000600460009054906101000a900473ffffffffffffffffffffffffffffffffffffffff1673ffffffffffffffffffffffffffffffffffffffff1673ffffffffffffffffffffffffffffffffffffffff16815260200190815260200160002060006001846104db9190612d4f565b815260200190815260200160002060000160009054906101000a900473ffffffffffffffffffffffffffffffffffffffff1673ffffffffffffffffffffffffffffffffffffffff161415610539576001836105369190612d4f565b92505b808061054490612da5565b91505061044c565b5060008267ffffffffffffffff81111561056957610568612dee565b5b6040519080825280602002602001820160405280156105a257816020015b61058f612803565b8152602001906001900390816105875790505b50905060005b84811015610840573373ffffffffffffffffffffffffffffffffffffffff1660056000600460009054906101000a900473ffffffffffffffffffffffffffffffffffffffff1673ffffffffffffffffffffffffffffffffffffffff1673ffffffffffffffffffffffffffffffffffffffff16815260200190815260200160002060006001846106379190612d4f565b815260200190815260200160002060000160009054906101000a900473ffffffffffffffffffffffffffffffffffffffff1673ffffffffffffffffffffffffffffffffffffffff16141561082d5760006001826106949190612d4f565b9050600060056000600460009054906101000a900473ffffffffffffffffffffffffffffffffffffffff1673ffffffffffffffffffffffffffffffffffffffff1673ffffffffffffffffffffffffffffffffffffffff16815260200190815260200160002060008381526020019081526020016000209050806040518060c00160405290816000820160009054906101000a900473ffffffffffffffffffffffffffffffffffffffff1673ffffffffffffffffffffffffffffffffffffffff1673ffffffffffffffffffffffffffffffffffffffff1681526020016001820160009054906101000a900473ffffffffffffffffffffffffffffffffffffffff1673ffffffffffffffffffffffffffffffffffffffff1673ffffffffffffffffffffffffffffffffffffffff1681526020016002820154815260200160038201548152602001600482015481526020016005820160009054906101000a900460ff1615151515815250508486815181106108105761080f612e1d565b5b60200260200101819052506001856108289190612d4f565b945050505b808061083890612da5565b9150506105a8565b508094505050505090565b7f000000000000000000000000000000000000000000000000000000000000000081565b600080600360009054906101000a900473ffffffffffffffffffffffffffffffffffffffff1673ffffffffffffffffffffffffffffffffffffffff16638a97ec2a6040518163ffffffff1660e01b81526004016020604051808303816000875af11580156108e1573d6000803e3d6000fd5b505050506040513d601f19601f820116820180604052508101906109059190612e8a565b90508073ffffffffffffffffffffffffffffffffffffffff1663d85d3d2785856040518363ffffffff1660e01b8152600401610942929190612f15565b6020604051808303816000875af1158015610961573d6000803e3d6000fd5b505050506040513d601f19601f820116820180604052508101906109859190612f4e565b5080600460006101000a81548173ffffffffffffffffffffffffffffffffffffffff021916908373ffffffffffffffffffffffffffffffffffffffff160217905550600460009054906101000a900473ffffffffffffffffffffffffffffffffffffffff1673ffffffffffffffffffffffffffffffffffffffff167f2e2b3f61b70d2d131b2a807371103cc98d51adcaa5e9a8f9c32658ad8426e74e60405160405180910390a2600460009054906101000a900473ffffffffffffffffffffffffffffffffffffffff1691505092915050565b600060647f00000000000000000000000000000000000000000000000000000000000000006064610a899190612f7b565b60ff1660056000600460009054906101000a900473ffffffffffffffffffffffffffffffffffffffff1673ffffffffffffffffffffffffffffffffffffffff1673ffffffffffffffffffffffffffffffffffffffff168152602001908152602001600020600085815260200190815260200160002060040154610b0c9190612fb2565b610b16919061303b565b9050919050565b7f000000000000000000000000000000000000000000000000000000000000000081565b81336000600460009054906101000a900473ffffffffffffffffffffffffffffffffffffffff16905060008173ffffffffffffffffffffffffffffffffffffffff16636352211e856040518263ffffffff1660e01b8152600401610ba591906129f1565b602060405180830381865afa158015610bc2573d6000803e3d6000fd5b505050506040513d601f19601f82011682018060405250810190610be69190613081565b90508073ffffffffffffffffffffffffffffffffffffffff168373ffffffffffffffffffffffffffffffffffffffff1614610c4d576040517f30cd747100000000000000000000000000000000000000000000000000000000815260040160405180910390fd5b856000600460009054906101000a900473ffffffffffffffffffffffffffffffffffffffff16905060008173ffffffffffffffffffffffffffffffffffffffff16636352211e846040518263ffffffff1660e01b8152600401610cb091906129f1565b602060405180830381865afa158015610ccd573d6000803e3d6000fd5b505050506040513d601f19601f82011682018060405250810190610cf19190613081565b90508073ffffffffffffffffffffffffffffffffffffffff163073ffffffffffffffffffffffffffffffffffffffff161415610d59576040517fa3d582ec00000000000000000000000000000000000000000000000000000000815260040160405180910390fd5b60026000541415610d9f576040517f08c379a0000000000000000000000000000000000000000000000000000000008152600401610d96906130fa565b60405180910390fd5b600260008190555060008811610de1576040517fe1abbfc500000000000000000000000000000000000000000000000000000000815260040160405180910390fd5b610deb6001612358565b6000610df7600161234a565b9050610e048a828b61236e565b600460009054906101000a900473ffffffffffffffffffffffffffffffffffffffff1673ffffffffffffffffffffffffffffffffffffffff166323b872dd33308d6040518463ffffffff1660e01b8152600401610e639392919061311a565b600060405180830381600087803b158015610e7d57600080fd5b505af1158015610e91573d6000803e3d6000fd5b50505050600060056000600460009054906101000a900473ffffffffffffffffffffffffffffffffffffffff1673ffffffffffffffffffffffffffffffffffffffff1673ffffffffffffffffffffffffffffffffffffffff16815260200190815260200160002060008381526020019081526020016000206040518060c00160405290816000820160009054906101000a900473ffffffffffffffffffffffffffffffffffffffff1673ffffffffffffffffffffffffffffffffffffffff1673ffffffffffffffffffffffffffffffffffffffff1681526020016001820160009054906101000a900473ffffffffffffffffffffffffffffffffffffffff1673ffffffffffffffffffffffffffffffffffffffff1673ffffffffffffffffffffffffffffffffffffffff1681526020016002820154815260200160038201548152602001600482015481526020016005820160009054906101000a900460ff16151515158152505090508a600460009054906101000a900473ffffffffffffffffffffffffffffffffffffffff1673ffffffffffffffffffffffffffffffffffffffff167fa32537b3445e8d7bf368b526f53200c5a0f1cc087c14445c6386453febdb01098360000151846020015185608001518660a0015160405161107a94939291906131b0565b60405180910390a350506001600081905550505050505050505050565b60056000600460009054906101000a900473ffffffffffffffffffffffffffffffffffffffff1673ffffffffffffffffffffffffffffffffffffffff1673ffffffffffffffffffffffffffffffffffffffff168152602001908152602001600020600083815260200190815260200160002060030154336000600460009054906101000a900473ffffffffffffffffffffffffffffffffffffffff16905060008173ffffffffffffffffffffffffffffffffffffffff16636352211e856040518263ffffffff1660e01b815260040161117091906129f1565b602060405180830381865afa15801561118d573d6000803e3d6000fd5b505050506040513d601f19601f820116820180604052508101906111b19190613081565b90508073ffffffffffffffffffffffffffffffffffffffff168373ffffffffffffffffffffffffffffffffffffffff1614611218576040517f30cd747100000000000000000000000000000000000000000000000000000000815260040160405180910390fd5b60056000600460009054906101000a900473ffffffffffffffffffffffffffffffffffffffff1673ffffffffffffffffffffffffffffffffffffffff1673ffffffffffffffffffffffffffffffffffffffff1681526020019081526020016000206000878152602001908152602001600020600301546000600460009054906101000a900473ffffffffffffffffffffffffffffffffffffffff16905060008173ffffffffffffffffffffffffffffffffffffffff16636352211e846040518263ffffffff1660e01b81526004016112f091906129f1565b602060405180830381865afa15801561130d573d6000803e3d6000fd5b505050506040513d601f19601f820116820180604052508101906113319190613081565b90508073ffffffffffffffffffffffffffffffffffffffff163073ffffffffffffffffffffffffffffffffffffffff161415611399576040517fa3d582ec00000000000000000000000000000000000000000000000000000000815260040160405180910390fd5b600260005414156113df576040517f08c379a00000000000000000000000000000000000000000000000000000000081526004016113d6906130fa565b60405180910390fd5b600260008190555060008811611421576040517fe1abbfc500000000000000000000000000000000000000000000000000000000815260040160405180910390fd5b600060056000600460009054906101000a900473ffffffffffffffffffffffffffffffffffffffff1673ffffffffffffffffffffffffffffffffffffffff1673ffffffffffffffffffffffffffffffffffffffff16815260200190815260200160002060008b8152602001908152602001600020905060008160050160006101000a81548160ff021916908315150217905550888160040181905550338160000160006101000a81548173ffffffffffffffffffffffffffffffffffffffff021916908373ffffffffffffffffffffffffffffffffffffffff160217905550308160010160006101000a81548173ffffffffffffffffffffffffffffffffffffffff021916908373ffffffffffffffffffffffffffffffffffffffff16021790555061154d60026127a7565b600460009054906101000a900473ffffffffffffffffffffffffffffffffffffffff1673ffffffffffffffffffffffffffffffffffffffff166323b872dd333084600301546040518463ffffffff1660e01b81526004016115b09392919061311a565b600060405180830381600087803b1580156115ca57600080fd5b505af11580156115de573d6000803e3d6000fd5b505050508060030154600460009054906101000a900473ffffffffffffffffffffffffffffffffffffffff1673ffffffffffffffffffffffffffffffffffffffff167fafd7b131c900b2911104a35c344bd27df9588e569fc4bd4d823f3602436b52158360000160009054906101000a900473ffffffffffffffffffffffffffffffffffffffff168460010160009054906101000a900473ffffffffffffffffffffffffffffffffffffffff1685600401548660050160009054906101000a900460ff166040516116b294939291906131b0565b60405180910390a3506001600081905550505050505050505050565b80600081111580156116e857506116e5600161234a565b81115b1561171f576040517fbf8b3d3e00000000000000000000000000000000000000000000000000000000815260040160405180910390fd5b60026000541415611765576040517f08c379a000000000000000000000000000000000000000000000000000000000815260040161175c906130fa565b60405180910390fd5b6002600081905550600061177883610a58565b9050600060056000600460009054906101000a900473ffffffffffffffffffffffffffffffffffffffff1673ffffffffffffffffffffffffffffffffffffffff1673ffffffffffffffffffffffffffffffffffffffff168152602001908152602001600020600085815260200190815260200160002090506000816004015490506000818461180791906131f5565b905060008360000160009054906101000a900473ffffffffffffffffffffffffffffffffffffffff169050843410156118a157600460009054906101000a900473ffffffffffffffffffffffffffffffffffffffff168460030154866040517f7c93456500000000000000000000000000000000000000000000000000000000815260040161189893929190613229565b60405180910390fd5b8360050160009054906101000a900460ff16156118ea576040517fb413c50200000000000000000000000000000000000000000000000000000000815260040160405180910390fd5b338460010160006101000a81548173ffffffffffffffffffffffffffffffffffffffff021916908373ffffffffffffffffffffffffffffffffffffffff16021790555060018460050160006101000a81548160ff0219169083151502179055506119546002612358565b600460009054906101000a900473ffffffffffffffffffffffffffffffffffffffff1673ffffffffffffffffffffffffffffffffffffffff166342842e0e303387600301546040518463ffffffff1660e01b81526004016119b79392919061311a565b600060405180830381600087803b1580156119d157600080fd5b505af11580156119e5573d6000803e3d6000fd5b5050505060008173ffffffffffffffffffffffffffffffffffffffff1684604051611a0f90613291565b60006040518083038185875af1925050503d8060008114611a4c576040519150601f19603f3d011682016040523d82523d6000602084013e611a51565b606091505b5050905080611a8c576040517f90b8ec1800000000000000000000000000000000000000000000000000000000815260040160405180910390fd5b60007f000000000000000000000000000000000000000000000000000000000000000073ffffffffffffffffffffffffffffffffffffffff1684604051611ad290613291565b60006040518083038185875af1925050503d8060008114611b0f576040519150601f19603f3d011682016040523d82523d6000602084013e611b14565b606091505b5050905080611b4f576040517f90b8ec1800000000000000000000000000000000000000000000000000000000815260040160405180910390fd5b8560010160009054906101000a900473ffffffffffffffffffffffffffffffffffffffff1673ffffffffffffffffffffffffffffffffffffffff168373ffffffffffffffffffffffffffffffffffffffff167f7a294cf6442b01d7fdf4d752b780452e81d214cde05a4b638531a455fdc34c798860030154888a60050160009054906101000a900460ff16604051611be9939291906132a6565b60405180910390a35050505050505060016000819055505050565b60606000611c12600161234a565b905060008060005b83811015611d1a573373ffffffffffffffffffffffffffffffffffffffff1660056000600460009054906101000a900473ffffffffffffffffffffffffffffffffffffffff1673ffffffffffffffffffffffffffffffffffffffff1673ffffffffffffffffffffffffffffffffffffffff1681526020019081526020016000206000600184611ca99190612d4f565b815260200190815260200160002060000160009054906101000a900473ffffffffffffffffffffffffffffffffffffffff1673ffffffffffffffffffffffffffffffffffffffff161415611d0757600183611d049190612d4f565b92505b8080611d1290612da5565b915050611c1a565b5060008267ffffffffffffffff811115611d3757611d36612dee565b5b604051908082528060200260200182016040528015611d7057816020015b611d5d612803565b815260200190600190039081611d555790505b50905060005b8481101561200e573373ffffffffffffffffffffffffffffffffffffffff1660056000600460009054906101000a900473ffffffffffffffffffffffffffffffffffffffff1673ffffffffffffffffffffffffffffffffffffffff1673ffffffffffffffffffffffffffffffffffffffff1681526020019081526020016000206000600184611e059190612d4f565b815260200190815260200160002060000160009054906101000a900473ffffffffffffffffffffffffffffffffffffffff1673ffffffffffffffffffffffffffffffffffffffff161415611ffb576000600182611e629190612d4f565b9050600060056000600460009054906101000a900473ffffffffffffffffffffffffffffffffffffffff1673ffffffffffffffffffffffffffffffffffffffff1673ffffffffffffffffffffffffffffffffffffffff16815260200190815260200160002060008381526020019081526020016000209050806040518060c00160405290816000820160009054906101000a900473ffffffffffffffffffffffffffffffffffffffff1673ffffffffffffffffffffffffffffffffffffffff1673ffffffffffffffffffffffffffffffffffffffff1681526020016001820160009054906101000a900473ffffffffffffffffffffffffffffffffffffffff1673ffffffffffffffffffffffffffffffffffffffff1673ffffffffffffffffffffffffffffffffffffffff1681526020016002820154815260200160038201548152602001600482015481526020016005820160009054906101000a900460ff161515151581525050848681518110611fde57611fdd612e1d565b5b6020026020010181905250600185611ff69190612d4f565b945050505b808061200690612da5565b915050611d76565b508094505050505090565b60606000612027600161234a565b90506000612035600261234a565b61203f600161234a565b61204991906131f5565b90506000808267ffffffffffffffff81111561206857612067612dee565b5b6040519080825280602002602001820160405280156120a157816020015b61208e612803565b8152602001906001900390816120865790505b50905060005b8481101561233f573073ffffffffffffffffffffffffffffffffffffffff1660056000600460009054906101000a900473ffffffffffffffffffffffffffffffffffffffff1673ffffffffffffffffffffffffffffffffffffffff1673ffffffffffffffffffffffffffffffffffffffff16815260200190815260200160002060006001846121369190612d4f565b815260200190815260200160002060000160009054906101000a900473ffffffffffffffffffffffffffffffffffffffff1673ffffffffffffffffffffffffffffffffffffffff16141561232c5760006001826121939190612d4f565b9050600060056000600460009054906101000a900473ffffffffffffffffffffffffffffffffffffffff1673ffffffffffffffffffffffffffffffffffffffff1673ffffffffffffffffffffffffffffffffffffffff16815260200190815260200160002060008381526020019081526020016000209050806040518060c00160405290816000820160009054906101000a900473ffffffffffffffffffffffffffffffffffffffff1673ffffffffffffffffffffffffffffffffffffffff1673ffffffffffffffffffffffffffffffffffffffff1681526020016001820160009054906101000a900473ffffffffffffffffffffffffffffffffffffffff1673ffffffffffffffffffffffffffffffffffffffff1673ffffffffffffffffffffffffffffffffffffffff1681526020016002820154815260200160038201548152602001600482015481526020016005820160009054906101000a900460ff16151515158152505084838151811061230f5761230e612e1d565b5b60200260200101819052506001856123279190612d4f565b945050505b808061233790612da5565b9150506120a7565b508094505050505090565b600081600001549050919050565b6001816000016000828254019250508190555050565b600460009054906101000a900473ffffffffffffffffffffffffffffffffffffffff1673ffffffffffffffffffffffffffffffffffffffff166301ffc9a76380ac58cd60e01b6040518263ffffffff1660e01b81526004016123d09190613318565b602060405180830381865afa1580156123ed573d6000803e3d6000fd5b505050506040513d601f19601f82011682018060405250810190612411919061335f565b156125d3576000600460009054906101000a900473ffffffffffffffffffffffffffffffffffffffff1690503373ffffffffffffffffffffffffffffffffffffffff168173ffffffffffffffffffffffffffffffffffffffff16636352211e866040518263ffffffff1660e01b815260040161248d91906129f1565b602060405180830381865afa1580156124aa573d6000803e3d6000fd5b505050506040513d601f19601f820116820180604052508101906124ce9190613081565b73ffffffffffffffffffffffffffffffffffffffff161461251b576040517f30cd747100000000000000000000000000000000000000000000000000000000815260040160405180910390fd5b8073ffffffffffffffffffffffffffffffffffffffff1663e985e9c533306040518363ffffffff1660e01b815260040161255692919061338c565b602060405180830381865afa158015612573573d6000803e3d6000fd5b505050506040513d601f19601f82011682018060405250810190612597919061335f565b6125cd576040517fc278fc7000000000000000000000000000000000000000000000000000000000815260040160405180910390fd5b50612605565b6040517f41b7742500000000000000000000000000000000000000000000000000000000815260040160405180910390fd5b6040518060c001604052803373ffffffffffffffffffffffffffffffffffffffff1681526020013073ffffffffffffffffffffffffffffffffffffffff1681526020018381526020018481526020018281526020016000151581525060056000600460009054906101000a900473ffffffffffffffffffffffffffffffffffffffff1673ffffffffffffffffffffffffffffffffffffffff1673ffffffffffffffffffffffffffffffffffffffff168152602001908152602001600020600084815260200190815260200160002060008201518160000160006101000a81548173ffffffffffffffffffffffffffffffffffffffff021916908373ffffffffffffffffffffffffffffffffffffffff16021790555060208201518160010160006101000a81548173ffffffffffffffffffffffffffffffffffffffff021916908373ffffffffffffffffffffffffffffffffffffffff16021790555060408201518160020155606082015181600301556080820151816004015560a08201518160050160006101000a81548160ff021916908315150217905550905050505050565b600081600001549050600081116127f3576040517f08c379a00000000000000000000000000000000000000000000000000000000081526004016127ea90613401565b60405180910390fd5b6001810382600001819055505050565b6040518060c00160405280600073ffffffffffffffffffffffffffffffffffffffff168152602001600073ffffffffffffffffffffffffffffffffffffffff1681526020016000815260200160008152602001600081526020016000151581525090565b600080fd5b600080fd5b600073ffffffffffffffffffffffffffffffffffffffff82169050919050565b600061289c82612871565b9050919050565b6128ac81612891565b81146128b757600080fd5b50565b6000813590506128c9816128a3565b92915050565b6000819050919050565b6128e2816128cf565b81146128ed57600080fd5b50565b6000813590506128ff816128d9565b92915050565b6000806040838503121561291c5761291b612867565b5b600061292a858286016128ba565b925050602061293b858286016128f0565b9150509250929050565b600061295082612871565b9050919050565b61296081612945565b82525050565b61296f816128cf565b82525050565b60008115159050919050565b61298a81612975565b82525050565b600060c0820190506129a56000830189612957565b6129b26020830188612957565b6129bf6040830187612966565b6129cc6060830186612966565b6129d96080830185612966565b6129e660a0830184612981565b979650505050505050565b6000602082019050612a066000830184612966565b92915050565b600060208284031215612a2257612a21612867565b5b6000612a30848285016128f0565b91505092915050565b600081519050919050565b600082825260208201905092915050565b6000819050602082019050919050565b612a6e81612945565b82525050565b612a7d816128cf565b82525050565b612a8c81612975565b82525050565b60c082016000820151612aa86000850182612a65565b506020820151612abb6020850182612a65565b506040820151612ace6040850182612a74565b506060820151612ae16060850182612a74565b506080820151612af46080850182612a74565b5060a0820151612b0760a0850182612a83565b50505050565b6000612b198383612a92565b60c08301905092915050565b6000602082019050919050565b6000612b3d82612a39565b612b478185612a44565b9350612b5283612a55565b8060005b83811015612b83578151612b6a8882612b0d565b9750612b7583612b25565b925050600181019050612b56565b5085935050505092915050565b60006020820190508181036000830152612baa8184612b32565b905092915050565b600060ff82169050919050565b612bc881612bb2565b82525050565b6000602082019050612be36000830184612bbf565b92915050565b600080fd5b600080fd5b600080fd5b60008083601f840112612c0e57612c0d612be9565b5b8235905067ffffffffffffffff811115612c2b57612c2a612bee565b5b602083019150836001820283011115612c4757612c46612bf3565b5b9250929050565b60008060208385031215612c6557612c64612867565b5b600083013567ffffffffffffffff811115612c8357612c8261286c565b5b612c8f85828601612bf8565b92509250509250929050565b612ca481612891565b82525050565b6000602082019050612cbf6000830184612c9b565b92915050565b6000602082019050612cda6000830184612957565b92915050565b60008060408385031215612cf757612cf6612867565b5b6000612d05858286016128f0565b9250506020612d16858286016128f0565b9150509250929050565b7f4e487b7100000000000000000000000000000000000000000000000000000000600052601160045260246000fd5b6000612d5a826128cf565b9150612d65836128cf565b9250827fffffffffffffffffffffffffffffffffffffffffffffffffffffffffffffffff03821115612d9a57612d99612d20565b5b828201905092915050565b6000612db0826128cf565b91507fffffffffffffffffffffffffffffffffffffffffffffffffffffffffffffffff821415612de357612de2612d20565b5b600182019050919050565b7f4e487b7100000000000000000000000000000000000000000000000000000000600052604160045260246000fd5b7f4e487b7100000000000000000000000000000000000000000000000000000000600052603260045260246000fd5b6000612e5782612891565b9050919050565b612e6781612e4c565b8114612e7257600080fd5b50565b600081519050612e8481612e5e565b92915050565b600060208284031215612ea057612e9f612867565b5b6000612eae84828501612e75565b91505092915050565b600082825260208201905092915050565b82818337600083830152505050565b6000601f19601f8301169050919050565b6000612ef48385612eb7565b9350612f01838584612ec8565b612f0a83612ed7565b840190509392505050565b60006020820190508181036000830152612f30818486612ee8565b90509392505050565b600081519050612f48816128d9565b92915050565b600060208284031215612f6457612f63612867565b5b6000612f7284828501612f39565b91505092915050565b6000612f8682612bb2565b9150612f9183612bb2565b92508260ff03821115612fa757612fa6612d20565b5b828201905092915050565b6000612fbd826128cf565b9150612fc8836128cf565b9250817fffffffffffffffffffffffffffffffffffffffffffffffffffffffffffffffff048311821515161561300157613000612d20565b5b828202905092915050565b7f4e487b7100000000000000000000000000000000000000000000000000000000600052601260045260246000fd5b6000613046826128cf565b9150613051836128cf565b9250826130615761306061300c565b5b828204905092915050565b60008151905061307b816128a3565b92915050565b60006020828403121561309757613096612867565b5b60006130a58482850161306c565b91505092915050565b7f5265656e7472616e637947756172643a207265656e7472616e742063616c6c00600082015250565b60006130e4601f83612eb7565b91506130ef826130ae565b602082019050919050565b60006020820190508181036000830152613113816130d7565b9050919050565b600060608201905061312f6000830186612c9b565b61313c6020830185612c9b565b6131496040830184612966565b949350505050565b6000819050919050565b600061317661317161316c84612871565b613151565b612871565b9050919050565b60006131888261315b565b9050919050565b600061319a8261317d565b9050919050565b6131aa8161318f565b82525050565b60006080820190506131c560008301876131a1565b6131d260208301866131a1565b6131df6040830185612966565b6131ec6060830184612981565b95945050505050565b6000613200826128cf565b915061320b836128cf565b92508282101561321e5761321d612d20565b5b828203905092915050565b600060608201905061323e6000830186612c9b565b61324b6020830185612966565b6132586040830184612966565b949350505050565b600081905092915050565b50565b600061327b600083613260565b91506132868261326b565b600082019050919050565b600061329c8261326e565b9150819050919050565b60006060820190506132bb6000830186612966565b6132c86020830185612966565b6132d56040830184612981565b949350505050565b60007fffffffff0000000000000000000000000000000000000000000000000000000082169050919050565b613312816132dd565b82525050565b600060208201905061332d6000830184613309565b92915050565b61333c81612975565b811461334757600080fd5b50565b60008151905061335981613333565b92915050565b60006020828403121561337557613374612867565b5b60006133838482850161334a565b91505092915050565b60006040820190506133a16000830185612c9b565b6133ae6020830184612c9b565b9392505050565b7f436f756e7465723a2064656372656d656e74206f766572666c6f770000000000600082015250565b60006133eb601b83612eb7565b91506133f6826133b5565b602082019050919050565b6000602082019050818103600083015261341a816133de565b905091905056fea2646970667358221220f45bb07baafb665f79b2254989d09c9bf172f9bdac4e391530d5549488be728764736f6c634300080c0033",
  "linkReferences": {},
  "deployedLinkReferences": {}
}