{
  "_format": "hh-sol-artifact-1",
  "contractName": "SaigonMarket",
  "sourceName": "contracts/SaigonMarket.sol",
  "abi": [
    {
      "inputs": [
        {
          "internalType": "uint256",
          "name": "_feeBps",
          "type": "uint256"
        }
      ],
      "stateMutability": "nonpayable",
      "type": "constructor"
    },
    {
      "inputs": [],
      "name": "AlreadyListed",
      "type": "error"
    },
    {
      "inputs": [],
      "name": "InvalidNftAddress",
      "type": "error"
    },
    {
      "inputs": [],
      "name": "ListingNotExist",
      "type": "error"
    },
    {
      "inputs": [],
      "name": "ListingSold",
      "type": "error"
    },
    {
      "inputs": [],
      "name": "NFTNotApprovedForMarketplace",
      "type": "error"
    },
    {
      "inputs": [],
      "name": "NotOwner",
      "type": "error"
    },
    {
      "inputs": [],
      "name": "PriceMustBeAboveZero",
      "type": "error"
    },
    {
      "inputs": [
        {
          "internalType": "address",
          "name": "nftAddress",
          "type": "address"
        },
        {
          "internalType": "uint256",
          "name": "tokenId",
          "type": "uint256"
        },
        {
          "internalType": "uint256",
          "name": "price",
          "type": "uint256"
        }
      ],
      "name": "PriceNotMet",
      "type": "error"
    },
    {
      "inputs": [],
      "name": "TransferFailed",
      "type": "error"
    },
    {
      "anonymous": false,
      "inputs": [
        {
          "indexed": true,
          "internalType": "address",
          "name": "seller",
          "type": "address"
        },
        {
          "indexed": true,
          "internalType": "address",
          "name": "buyer",
          "type": "address"
        },
        {
          "indexed": false,
          "internalType": "uint256",
          "name": "tokenId",
          "type": "uint256"
        },
        {
          "indexed": false,
          "internalType": "uint256",
          "name": "pricePerItem",
          "type": "uint256"
        },
        {
          "indexed": false,
          "internalType": "bool",
          "name": "sold",
          "type": "bool"
        }
      ],
      "name": "ListingPurchased",
      "type": "event"
    },
    {
      "anonymous": false,
      "inputs": [
        {
          "indexed": true,
          "internalType": "address",
          "name": "nftAddress",
          "type": "address"
        },
        {
          "indexed": true,
          "internalType": "uint256",
          "name": "tokenId",
          "type": "uint256"
        },
        {
          "indexed": false,
          "internalType": "address",
          "name": "seller",
          "type": "address"
        },
        {
          "indexed": false,
          "internalType": "address",
          "name": "owner",
          "type": "address"
        },
        {
          "indexed": false,
          "internalType": "uint256",
          "name": "pricePerItem",
          "type": "uint256"
        },
        {
          "indexed": false,
          "internalType": "bool",
          "name": "sold",
          "type": "bool"
        }
      ],
      "name": "NFTListed",
      "type": "event"
    },
    {
      "anonymous": false,
      "inputs": [
        {
          "indexed": true,
          "internalType": "address",
          "name": "nftAddress",
          "type": "address"
        },
        {
          "indexed": true,
          "internalType": "uint256",
          "name": "tokenId",
          "type": "uint256"
        },
        {
          "indexed": false,
          "internalType": "address",
          "name": "seller",
          "type": "address"
        },
        {
          "indexed": false,
          "internalType": "address",
          "name": "owner",
          "type": "address"
        },
        {
          "indexed": false,
          "internalType": "uint256",
          "name": "pricePerItem",
          "type": "uint256"
        },
        {
          "indexed": false,
          "internalType": "bool",
          "name": "sold",
          "type": "bool"
        }
      ],
      "name": "NFTListedForResell",
      "type": "event"
    },
    {
      "inputs": [],
      "name": "_listingIds",
      "outputs": [
        {
          "internalType": "uint256",
          "name": "_value",
          "type": "uint256"
        }
      ],
      "stateMutability": "view",
      "type": "function"
    },
    {
      "inputs": [
        {
          "internalType": "contract IERC721",
          "name": "_nft",
          "type": "address"
        },
        {
          "internalType": "uint256",
          "name": "_tokenId",
          "type": "uint256"
        },
        {
          "internalType": "uint256",
          "name": "_pricePerItem",
          "type": "uint256"
        }
      ],
      "name": "createListing",
      "outputs": [],
      "stateMutability": "payable",
      "type": "function"
    },
    {
      "inputs": [
        {
          "internalType": "contract IERC721",
          "name": "_nft",
          "type": "address"
        },
        {
          "internalType": "uint256",
          "name": "_listingId",
          "type": "uint256"
        }
      ],
      "name": "createMarketSale",
      "outputs": [],
      "stateMutability": "payable",
      "type": "function"
    },
    {
      "inputs": [],
      "name": "feeBps",
      "outputs": [
        {
          "internalType": "uint256",
          "name": "",
          "type": "uint256"
        }
      ],
      "stateMutability": "view",
      "type": "function"
    },
    {
      "inputs": [
        {
          "internalType": "address",
          "name": "_nftAddress",
          "type": "address"
        }
      ],
      "name": "fetchMarketListings",
      "outputs": [
        {
          "components": [
            {
              "internalType": "address payable",
              "name": "seller",
              "type": "address"
            },
            {
              "internalType": "address payable",
              "name": "owner",
              "type": "address"
            },
            {
              "internalType": "contract IERC721",
              "name": "nft",
              "type": "address"
            },
            {
              "internalType": "uint256",
              "name": "listingId",
              "type": "uint256"
            },
            {
              "internalType": "uint256",
              "name": "tokenId",
              "type": "uint256"
            },
            {
              "internalType": "uint256",
              "name": "pricePerItem",
              "type": "uint256"
            },
            {
              "internalType": "bool",
              "name": "sold",
              "type": "bool"
            }
          ],
          "internalType": "struct SaigonMarket.Listing[]",
          "name": "",
          "type": "tuple[]"
        }
      ],
      "stateMutability": "view",
      "type": "function"
    },
    {
      "inputs": [
        {
          "internalType": "address",
          "name": "_nftAddress",
          "type": "address"
        }
      ],
      "name": "fetchMyNFTs",
      "outputs": [
        {
          "components": [
            {
              "internalType": "address payable",
              "name": "seller",
              "type": "address"
            },
            {
              "internalType": "address payable",
              "name": "owner",
              "type": "address"
            },
            {
              "internalType": "contract IERC721",
              "name": "nft",
              "type": "address"
            },
            {
              "internalType": "uint256",
              "name": "listingId",
              "type": "uint256"
            },
            {
              "internalType": "uint256",
              "name": "tokenId",
              "type": "uint256"
            },
            {
              "internalType": "uint256",
              "name": "pricePerItem",
              "type": "uint256"
            },
            {
              "internalType": "bool",
              "name": "sold",
              "type": "bool"
            }
          ],
          "internalType": "struct SaigonMarket.Listing[]",
          "name": "",
          "type": "tuple[]"
        }
      ],
      "stateMutability": "view",
      "type": "function"
    },
    {
      "inputs": [
        {
          "internalType": "address",
          "name": "_nftAddress",
          "type": "address"
        }
      ],
      "name": "fetchOwnedListings",
      "outputs": [
        {
          "components": [
            {
              "internalType": "address payable",
              "name": "seller",
              "type": "address"
            },
            {
              "internalType": "address payable",
              "name": "owner",
              "type": "address"
            },
            {
              "internalType": "contract IERC721",
              "name": "nft",
              "type": "address"
            },
            {
              "internalType": "uint256",
              "name": "listingId",
              "type": "uint256"
            },
            {
              "internalType": "uint256",
              "name": "tokenId",
              "type": "uint256"
            },
            {
              "internalType": "uint256",
              "name": "pricePerItem",
              "type": "uint256"
            },
            {
              "internalType": "bool",
              "name": "sold",
              "type": "bool"
            }
          ],
          "internalType": "struct SaigonMarket.Listing[]",
          "name": "",
          "type": "tuple[]"
        }
      ],
      "stateMutability": "view",
      "type": "function"
    },
    {
      "inputs": [
        {
          "internalType": "address",
          "name": "_nftAddress",
          "type": "address"
        },
        {
          "internalType": "uint256",
          "name": "_listingId",
          "type": "uint256"
        }
      ],
      "name": "getFinalPrice",
      "outputs": [
        {
          "internalType": "uint256",
          "name": "",
          "type": "uint256"
        }
      ],
      "stateMutability": "view",
      "type": "function"
    },
    {
      "inputs": [
        {
          "internalType": "address",
          "name": "_nftAddress",
          "type": "address"
        },
        {
          "internalType": "uint256",
          "name": "_listingId",
          "type": "uint256"
        }
      ],
      "name": "getPricePerItem",
      "outputs": [
        {
          "internalType": "uint256",
          "name": "",
          "type": "uint256"
        }
      ],
      "stateMutability": "view",
      "type": "function"
    },
    {
      "inputs": [
        {
          "internalType": "address",
          "name": "_nftAddress",
          "type": "address"
        },
        {
          "internalType": "uint256",
          "name": "_tokenId",
          "type": "uint256"
        },
        {
          "internalType": "uint256",
          "name": "_listingId",
          "type": "uint256"
        },
        {
          "internalType": "uint256",
          "name": "_pricePerItem",
          "type": "uint256"
        }
      ],
      "name": "listNFT",
      "outputs": [],
      "stateMutability": "nonpayable",
      "type": "function"
    },
    {
      "inputs": [
        {
          "internalType": "address",
          "name": "",
          "type": "address"
        },
        {
          "internalType": "uint256",
          "name": "",
          "type": "uint256"
        }
      ],
      "name": "listings",
      "outputs": [
        {
          "internalType": "address payable",
          "name": "seller",
          "type": "address"
        },
        {
          "internalType": "address payable",
          "name": "owner",
          "type": "address"
        },
        {
          "internalType": "contract IERC721",
          "name": "nft",
          "type": "address"
        },
        {
          "internalType": "uint256",
          "name": "listingId",
          "type": "uint256"
        },
        {
          "internalType": "uint256",
          "name": "tokenId",
          "type": "uint256"
        },
        {
          "internalType": "uint256",
          "name": "pricePerItem",
          "type": "uint256"
        },
        {
          "internalType": "bool",
          "name": "sold",
          "type": "bool"
        }
      ],
      "stateMutability": "view",
      "type": "function"
    },
    {
      "inputs": [],
      "name": "operator",
      "outputs": [
        {
          "internalType": "address payable",
          "name": "",
          "type": "address"
        }
      ],
      "stateMutability": "view",
      "type": "function"
    },
    {
      "inputs": [
        {
          "internalType": "contract IERC721",
          "name": "_nft",
          "type": "address"
        },
        {
          "internalType": "uint256",
          "name": "_listingId",
          "type": "uint256"
        },
        {
          "internalType": "uint256",
          "name": "_pricePerItem",
          "type": "uint256"
        }
      ],
      "name": "resellNFT",
      "outputs": [],
      "stateMutability": "payable",
      "type": "function"
    }
  ],
  "bytecode": "0x60c06040523480156200001157600080fd5b5060405162002fc438038062002fc48339818101604052810190620000379190620000c2565b60016000819055503373ffffffffffffffffffffffffffffffffffffffff1660808173ffffffffffffffffffffffffffffffffffffffff16815250508060a0818152505050620000f4565b600080fd5b6000819050919050565b6200009c8162000087565b8114620000a857600080fd5b50565b600081519050620000bc8162000091565b92915050565b600060208284031215620000db57620000da62000082565b5b6000620000eb84828501620000ab565b91505092915050565b60805160a051612e9c620001286000396000818161104f0152611e1e0152600081816115090152611cd70152612e9c6000f3fe6080604052600436106100c15760003560e01c80633c44a5f01161007f578063631749cf11610059578063631749cf14610265578063c23b139e146102a2578063d9db220d146102be578063f792d45d146102fb576100c1565b80633c44a5f0146101d45780633f2c4e45146101fd578063570ca7351461023a576100c1565b806207df30146100c6578063049356941461010957806305b826a81461012557806310afee1e1461015057806324780c561461018d57806324a9d853146101a9575b600080fd5b3480156100d257600080fd5b506100ed60048036038101906100e8919061245a565b610338565b6040516101009796959493929190612544565b60405180910390f35b610123600480360381019061011e91906125f1565b6103f4565b005b34801561013157600080fd5b5061013a6108dc565b6040516101479190612644565b60405180910390f35b34801561015c57600080fd5b506101776004803603810190610172919061265f565b6108e8565b6040516101849190612805565b60405180910390f35b6101a760048036038101906101a291906125f1565b610cef565b005b3480156101b557600080fd5b506101be61104d565b6040516101cb9190612644565b60405180910390f35b3480156101e057600080fd5b506101fb60048036038101906101f69190612827565b611071565b005b34801561020957600080fd5b50610224600480360381019061021f919061245a565b6114a9565b6040516102319190612644565b60405180910390f35b34801561024657600080fd5b5061024f611507565b60405161025c919061288e565b60405180910390f35b34801561027157600080fd5b5061028c6004803603810190610287919061265f565b61152b565b6040516102999190612805565b60405180910390f35b6102bc60048036038101906102b791906128a9565b611870565b005b3480156102ca57600080fd5b506102e560048036038101906102e0919061245a565b611e18565b6040516102f29190612644565b60405180910390f35b34801561030757600080fd5b50610322600480360381019061031d919061265f565b611eb9565b60405161032f9190612805565b60405180910390f35b6003602052816000526040600020602052806000526040600020600091509150508060000160009054906101000a900473ffffffffffffffffffffffffffffffffffffffff16908060010160009054906101000a900473ffffffffffffffffffffffffffffffffffffffff16908060020160009054906101000a900473ffffffffffffffffffffffffffffffffffffffff16908060030154908060040154908060050154908060060160009054906101000a900460ff16905087565b82600360008573ffffffffffffffffffffffffffffffffffffffff1673ffffffffffffffffffffffffffffffffffffffff16815260200190815260200160002060008481526020019081526020016000206004015433600083905060008173ffffffffffffffffffffffffffffffffffffffff16636352211e856040518263ffffffff1660e01b815260040161048a9190612644565b602060405180830381865afa1580156104a7573d6000803e3d6000fd5b505050506040513d601f19601f820116820180604052508101906104cb91906128fe565b90508073ffffffffffffffffffffffffffffffffffffffff168373ffffffffffffffffffffffffffffffffffffffff1614610532576040517f30cd747100000000000000000000000000000000000000000000000000000000815260040160405180910390fd5b60026000541415610578576040517f08c379a000000000000000000000000000000000000000000000000000000000815260040161056f90612988565b60405180910390fd5b6002600081905550600086116105ba576040517fe1abbfc500000000000000000000000000000000000000000000000000000000815260040160405180910390fd5b60006105c68989611e18565b90506000600360008b73ffffffffffffffffffffffffffffffffffffffff1673ffffffffffffffffffffffffffffffffffffffff16815260200190815260200160002060008a81526020019081526020016000206040518060e00160405290816000820160009054906101000a900473ffffffffffffffffffffffffffffffffffffffff1673ffffffffffffffffffffffffffffffffffffffff1673ffffffffffffffffffffffffffffffffffffffff1681526020016001820160009054906101000a900473ffffffffffffffffffffffffffffffffffffffff1673ffffffffffffffffffffffffffffffffffffffff1673ffffffffffffffffffffffffffffffffffffffff1681526020016002820160009054906101000a900473ffffffffffffffffffffffffffffffffffffffff1673ffffffffffffffffffffffffffffffffffffffff1673ffffffffffffffffffffffffffffffffffffffff1681526020016003820154815260200160048201548152602001600582015481526020016006820160009054906101000a900460ff161515151581525050905060008160c0019015159081151581525050878160a001818152505033816000019073ffffffffffffffffffffffffffffffffffffffff16908173ffffffffffffffffffffffffffffffffffffffff168152505030816020019073ffffffffffffffffffffffffffffffffffffffff16908173ffffffffffffffffffffffffffffffffffffffff16815250506107f760026122c0565b806040015173ffffffffffffffffffffffffffffffffffffffff166323b872dd333084608001516040518463ffffffff1660e01b815260040161083c939291906129b7565b600060405180830381600087803b15801561085657600080fd5b505af115801561086a573d6000803e3d6000fd5b5050505080608001518a73ffffffffffffffffffffffffffffffffffffffff167fafd7b131c900b2911104a35c344bd27df9588e569fc4bd4d823f3602436b521533308c60006040516108c09493929190612a0f565b60405180910390a3505060016000819055505050505050505050565b60018060000154905081565b606060006108f6600161231c565b905060008060005b838110156109dc573373ffffffffffffffffffffffffffffffffffffffff16600360008873ffffffffffffffffffffffffffffffffffffffff1673ffffffffffffffffffffffffffffffffffffffff168152602001908152602001600020600060018461096b9190612a83565b815260200190815260200160002060000160009054906101000a900473ffffffffffffffffffffffffffffffffffffffff1673ffffffffffffffffffffffffffffffffffffffff1614156109c9576001836109c69190612a83565b92505b80806109d490612ad9565b9150506108fe565b5060008267ffffffffffffffff8111156109f9576109f8612b22565b5b604051908082528060200260200182016040528015610a3257816020015b610a1f612340565b815260200190600190039081610a175790505b50905060005b84811015610ce2573373ffffffffffffffffffffffffffffffffffffffff16600360008973ffffffffffffffffffffffffffffffffffffffff1673ffffffffffffffffffffffffffffffffffffffff1681526020019081526020016000206000600184610aa59190612a83565b815260200190815260200160002060000160009054906101000a900473ffffffffffffffffffffffffffffffffffffffff1673ffffffffffffffffffffffffffffffffffffffff161415610ccf576000600182610b029190612a83565b90506000600360008a73ffffffffffffffffffffffffffffffffffffffff1673ffffffffffffffffffffffffffffffffffffffff16815260200190815260200160002060008381526020019081526020016000209050806040518060e00160405290816000820160009054906101000a900473ffffffffffffffffffffffffffffffffffffffff1673ffffffffffffffffffffffffffffffffffffffff1673ffffffffffffffffffffffffffffffffffffffff1681526020016001820160009054906101000a900473ffffffffffffffffffffffffffffffffffffffff1673ffffffffffffffffffffffffffffffffffffffff1673ffffffffffffffffffffffffffffffffffffffff1681526020016002820160009054906101000a900473ffffffffffffffffffffffffffffffffffffffff1673ffffffffffffffffffffffffffffffffffffffff1673ffffffffffffffffffffffffffffffffffffffff1681526020016003820154815260200160048201548152602001600582015481526020016006820160009054906101000a900460ff161515151581525050848681518110610cb257610cb1612b51565b5b6020026020010181905250600185610cca9190612a83565b945050505b8080610cda90612ad9565b915050610a38565b5080945050505050919050565b828233600083905060008173ffffffffffffffffffffffffffffffffffffffff16636352211e856040518263ffffffff1660e01b8152600401610d329190612644565b602060405180830381865afa158015610d4f573d6000803e3d6000fd5b505050506040513d601f19601f82011682018060405250810190610d7391906128fe565b90508073ffffffffffffffffffffffffffffffffffffffff168373ffffffffffffffffffffffffffffffffffffffff1614610dda576040517f30cd747100000000000000000000000000000000000000000000000000000000815260040160405180910390fd5b8787600082905060008173ffffffffffffffffffffffffffffffffffffffff16636352211e846040518263ffffffff1660e01b8152600401610e1c9190612644565b602060405180830381865afa158015610e39573d6000803e3d6000fd5b505050506040513d601f19601f82011682018060405250810190610e5d91906128fe565b90508073ffffffffffffffffffffffffffffffffffffffff163073ffffffffffffffffffffffffffffffffffffffff161415610ec5576040517fa3d582ec00000000000000000000000000000000000000000000000000000000815260040160405180910390fd5b60026000541415610f0b576040517f08c379a0000000000000000000000000000000000000000000000000000000008152600401610f0290612988565b60405180910390fd5b600260008190555060008a11610f4d576040517fe1abbfc500000000000000000000000000000000000000000000000000000000815260040160405180910390fd5b610f57600161232a565b6000610f63600161231c565b9050610f718d8d838e611071565b8c73ffffffffffffffffffffffffffffffffffffffff166323b872dd33308f6040518463ffffffff1660e01b8152600401610fae939291906129b7565b600060405180830381600087803b158015610fc857600080fd5b505af1158015610fdc573d6000803e3d6000fd5b505050508b8d73ffffffffffffffffffffffffffffffffffffffff167fa32537b3445e8d7bf368b526f53200c5a0f1cc087c14445c6386453febdb010933308f600060405161102e9493929190612a0f565b60405180910390a3506001600081905550505050505050505050505050565b7f000000000000000000000000000000000000000000000000000000000000000081565b8373ffffffffffffffffffffffffffffffffffffffff166301ffc9a76380ac58cd60e01b6040518263ffffffff1660e01b81526004016110b19190612bbb565b602060405180830381865afa1580156110ce573d6000803e3d6000fd5b505050506040513d601f19601f820116820180604052508101906110f29190612c02565b156112925760008490503373ffffffffffffffffffffffffffffffffffffffff168173ffffffffffffffffffffffffffffffffffffffff16636352211e866040518263ffffffff1660e01b815260040161114c9190612644565b602060405180830381865afa158015611169573d6000803e3d6000fd5b505050506040513d601f19601f8201168201806040525081019061118d91906128fe565b73ffffffffffffffffffffffffffffffffffffffff16146111da576040517f30cd747100000000000000000000000000000000000000000000000000000000815260040160405180910390fd5b8073ffffffffffffffffffffffffffffffffffffffff1663e985e9c533306040518363ffffffff1660e01b8152600401611215929190612c2f565b602060405180830381865afa158015611232573d6000803e3d6000fd5b505050506040513d601f19601f820116820180604052508101906112569190612c02565b61128c576040517fc278fc7000000000000000000000000000000000000000000000000000000000815260040160405180910390fd5b506112c4565b6040517f41b7742500000000000000000000000000000000000000000000000000000000815260040160405180910390fd5b6040518060e001604052803373ffffffffffffffffffffffffffffffffffffffff168152602001600073ffffffffffffffffffffffffffffffffffffffff1681526020018573ffffffffffffffffffffffffffffffffffffffff16815260200183815260200184815260200182815260200160001515815250600360008673ffffffffffffffffffffffffffffffffffffffff1673ffffffffffffffffffffffffffffffffffffffff168152602001908152602001600020600084815260200190815260200160002060008201518160000160006101000a81548173ffffffffffffffffffffffffffffffffffffffff021916908373ffffffffffffffffffffffffffffffffffffffff16021790555060208201518160010160006101000a81548173ffffffffffffffffffffffffffffffffffffffff021916908373ffffffffffffffffffffffffffffffffffffffff16021790555060408201518160020160006101000a81548173ffffffffffffffffffffffffffffffffffffffff021916908373ffffffffffffffffffffffffffffffffffffffff160217905550606082015181600301556080820151816004015560a0820151816005015560c08201518160060160006101000a81548160ff02191690831515021790555090505050505050565b6000600360008473ffffffffffffffffffffffffffffffffffffffff1673ffffffffffffffffffffffffffffffffffffffff168152602001908152602001600020600083815260200190815260200160002060050154905092915050565b7f000000000000000000000000000000000000000000000000000000000000000081565b60606000611539600161231c565b90506000611547600261231c565b611551600161231c565b61155b9190612c58565b90506000808267ffffffffffffffff81111561157a57611579612b22565b5b6040519080825280602002602001820160405280156115b357816020015b6115a0612340565b8152602001906001900390816115985790505b50905060005b84811015611863573073ffffffffffffffffffffffffffffffffffffffff16600360008973ffffffffffffffffffffffffffffffffffffffff1673ffffffffffffffffffffffffffffffffffffffff16815260200190815260200160002060006001846116269190612a83565b815260200190815260200160002060000160009054906101000a900473ffffffffffffffffffffffffffffffffffffffff1673ffffffffffffffffffffffffffffffffffffffff1614156118505760006001826116839190612a83565b90506000600360008a73ffffffffffffffffffffffffffffffffffffffff1673ffffffffffffffffffffffffffffffffffffffff16815260200190815260200160002060008381526020019081526020016000209050806040518060e00160405290816000820160009054906101000a900473ffffffffffffffffffffffffffffffffffffffff1673ffffffffffffffffffffffffffffffffffffffff1673ffffffffffffffffffffffffffffffffffffffff1681526020016001820160009054906101000a900473ffffffffffffffffffffffffffffffffffffffff1673ffffffffffffffffffffffffffffffffffffffff1673ffffffffffffffffffffffffffffffffffffffff1681526020016002820160009054906101000a900473ffffffffffffffffffffffffffffffffffffffff1673ffffffffffffffffffffffffffffffffffffffff1673ffffffffffffffffffffffffffffffffffffffff1681526020016003820154815260200160048201548152602001600582015481526020016006820160009054906101000a900460ff16151515158152505084838151811061183357611832612b51565b5b602002602001018190525060018561184b9190612a83565b945050505b808061185b90612ad9565b9150506115b9565b5080945050505050919050565b806000811115801561188a5750611887600161231c565b81115b156118c1576040517fbf8b3d3e00000000000000000000000000000000000000000000000000000000815260040160405180910390fd5b60026000541415611907576040517f08c379a00000000000000000000000000000000000000000000000000000000081526004016118fe90612988565b60405180910390fd5b6002600081905550600061191b8484611e18565b90506000600360008673ffffffffffffffffffffffffffffffffffffffff1673ffffffffffffffffffffffffffffffffffffffff16815260200190815260200160002060008581526020019081526020016000206040518060e00160405290816000820160009054906101000a900473ffffffffffffffffffffffffffffffffffffffff1673ffffffffffffffffffffffffffffffffffffffff1673ffffffffffffffffffffffffffffffffffffffff1681526020016001820160009054906101000a900473ffffffffffffffffffffffffffffffffffffffff1673ffffffffffffffffffffffffffffffffffffffff1673ffffffffffffffffffffffffffffffffffffffff1681526020016002820160009054906101000a900473ffffffffffffffffffffffffffffffffffffffff1673ffffffffffffffffffffffffffffffffffffffff1673ffffffffffffffffffffffffffffffffffffffff1681526020016003820154815260200160048201548152602001600582015481526020016006820160009054906101000a900460ff161515151581525050905060008160a00151905060008184611ace9190612c58565b905060008360000151905084341015611b2657878460800151866040517f7c934565000000000000000000000000000000000000000000000000000000008152600401611b1d93929190612c8c565b60405180910390fd5b8360c0015115611b62576040517fb413c50200000000000000000000000000000000000000000000000000000000815260040160405180910390fd5b33846020019073ffffffffffffffffffffffffffffffffffffffff16908173ffffffffffffffffffffffffffffffffffffffff168152505060018460c001901515908115158152505060009050611bb9600261232a565b836040015173ffffffffffffffffffffffffffffffffffffffff166342842e0e303387608001516040518463ffffffff1660e01b8152600401611bfe939291906129b7565b600060405180830381600087803b158015611c1857600080fd5b505af1158015611c2c573d6000803e3d6000fd5b5050505060008173ffffffffffffffffffffffffffffffffffffffff1684604051611c5690612cf4565b60006040518083038185875af1925050503d8060008114611c93576040519150601f19603f3d011682016040523d82523d6000602084013e611c98565b606091505b5050905080611cd3576040517f90b8ec1800000000000000000000000000000000000000000000000000000000815260040160405180910390fd5b60007f000000000000000000000000000000000000000000000000000000000000000073ffffffffffffffffffffffffffffffffffffffff1684604051611d1990612cf4565b60006040518083038185875af1925050503d8060008114611d56576040519150601f19603f3d011682016040523d82523d6000602084013e611d5b565b606091505b5050905080611d96576040517f90b8ec1800000000000000000000000000000000000000000000000000000000815260040160405180910390fd5b3373ffffffffffffffffffffffffffffffffffffffff168373ffffffffffffffffffffffffffffffffffffffff167f7a294cf6442b01d7fdf4d752b780452e81d214cde05a4b638531a455fdc34c798860800151886001604051611dfc93929190612d09565b60405180910390a3505050505050506001600081905550505050565b600060647f00000000000000000000000000000000000000000000000000000000000000006064611e499190612a83565b600360008673ffffffffffffffffffffffffffffffffffffffff1673ffffffffffffffffffffffffffffffffffffffff168152602001908152602001600020600085815260200190815260200160002060050154611ea79190612d40565b611eb19190612dc9565b905092915050565b60606000611ec7600161231c565b905060008060005b83811015611fad573373ffffffffffffffffffffffffffffffffffffffff16600360008873ffffffffffffffffffffffffffffffffffffffff1673ffffffffffffffffffffffffffffffffffffffff1681526020019081526020016000206000600184611f3c9190612a83565b815260200190815260200160002060000160009054906101000a900473ffffffffffffffffffffffffffffffffffffffff1673ffffffffffffffffffffffffffffffffffffffff161415611f9a57600183611f979190612a83565b92505b8080611fa590612ad9565b915050611ecf565b5060008267ffffffffffffffff811115611fca57611fc9612b22565b5b60405190808252806020026020018201604052801561200357816020015b611ff0612340565b815260200190600190039081611fe85790505b50905060005b848110156122b3573373ffffffffffffffffffffffffffffffffffffffff16600360008973ffffffffffffffffffffffffffffffffffffffff1673ffffffffffffffffffffffffffffffffffffffff16815260200190815260200160002060006001846120769190612a83565b815260200190815260200160002060000160009054906101000a900473ffffffffffffffffffffffffffffffffffffffff1673ffffffffffffffffffffffffffffffffffffffff1614156122a05760006001826120d39190612a83565b90506000600360008a73ffffffffffffffffffffffffffffffffffffffff1673ffffffffffffffffffffffffffffffffffffffff16815260200190815260200160002060008381526020019081526020016000209050806040518060e00160405290816000820160009054906101000a900473ffffffffffffffffffffffffffffffffffffffff1673ffffffffffffffffffffffffffffffffffffffff1673ffffffffffffffffffffffffffffffffffffffff1681526020016001820160009054906101000a900473ffffffffffffffffffffffffffffffffffffffff1673ffffffffffffffffffffffffffffffffffffffff1673ffffffffffffffffffffffffffffffffffffffff1681526020016002820160009054906101000a900473ffffffffffffffffffffffffffffffffffffffff1673ffffffffffffffffffffffffffffffffffffffff1673ffffffffffffffffffffffffffffffffffffffff1681526020016003820154815260200160048201548152602001600582015481526020016006820160009054906101000a900460ff16151515158152505084868151811061228357612282612b51565b5b602002602001018190525060018561229b9190612a83565b945050505b80806122ab90612ad9565b915050612009565b5080945050505050919050565b6000816000015490506000811161230c576040517f08c379a000000000000000000000000000000000000000000000000000000000815260040161230390612e46565b60405180910390fd5b6001810382600001819055505050565b600081600001549050919050565b6001816000016000828254019250508190555050565b6040518060e00160405280600073ffffffffffffffffffffffffffffffffffffffff168152602001600073ffffffffffffffffffffffffffffffffffffffff168152602001600073ffffffffffffffffffffffffffffffffffffffff1681526020016000815260200160008152602001600081526020016000151581525090565b600080fd5b600073ffffffffffffffffffffffffffffffffffffffff82169050919050565b60006123f1826123c6565b9050919050565b612401816123e6565b811461240c57600080fd5b50565b60008135905061241e816123f8565b92915050565b6000819050919050565b61243781612424565b811461244257600080fd5b50565b6000813590506124548161242e565b92915050565b60008060408385031215612471576124706123c1565b5b600061247f8582860161240f565b925050602061249085828601612445565b9150509250929050565b60006124a5826123c6565b9050919050565b6124b58161249a565b82525050565b6000819050919050565b60006124e06124db6124d6846123c6565b6124bb565b6123c6565b9050919050565b60006124f2826124c5565b9050919050565b6000612504826124e7565b9050919050565b612514816124f9565b82525050565b61252381612424565b82525050565b60008115159050919050565b61253e81612529565b82525050565b600060e082019050612559600083018a6124ac565b61256660208301896124ac565b612573604083018861250b565b612580606083018761251a565b61258d608083018661251a565b61259a60a083018561251a565b6125a760c0830184612535565b98975050505050505050565b60006125be826123e6565b9050919050565b6125ce816125b3565b81146125d957600080fd5b50565b6000813590506125eb816125c5565b92915050565b60008060006060848603121561260a576126096123c1565b5b6000612618868287016125dc565b935050602061262986828701612445565b925050604061263a86828701612445565b9150509250925092565b6000602082019050612659600083018461251a565b92915050565b600060208284031215612675576126746123c1565b5b60006126838482850161240f565b91505092915050565b600081519050919050565b600082825260208201905092915050565b6000819050602082019050919050565b6126c18161249a565b82525050565b6126d0816124f9565b82525050565b6126df81612424565b82525050565b6126ee81612529565b82525050565b60e08201600082015161270a60008501826126b8565b50602082015161271d60208501826126b8565b50604082015161273060408501826126c7565b50606082015161274360608501826126d6565b50608082015161275660808501826126d6565b5060a082015161276960a08501826126d6565b5060c082015161277c60c08501826126e5565b50505050565b600061278e83836126f4565b60e08301905092915050565b6000602082019050919050565b60006127b28261268c565b6127bc8185612697565b93506127c7836126a8565b8060005b838110156127f85781516127df8882612782565b97506127ea8361279a565b9250506001810190506127cb565b5085935050505092915050565b6000602082019050818103600083015261281f81846127a7565b905092915050565b60008060008060808587031215612841576128406123c1565b5b600061284f8782880161240f565b945050602061286087828801612445565b935050604061287187828801612445565b925050606061288287828801612445565b91505092959194509250565b60006020820190506128a360008301846124ac565b92915050565b600080604083850312156128c0576128bf6123c1565b5b60006128ce858286016125dc565b92505060206128df85828601612445565b9150509250929050565b6000815190506128f8816123f8565b92915050565b600060208284031215612914576129136123c1565b5b6000612922848285016128e9565b91505092915050565b600082825260208201905092915050565b7f5265656e7472616e637947756172643a207265656e7472616e742063616c6c00600082015250565b6000612972601f8361292b565b915061297d8261293c565b602082019050919050565b600060208201905081810360008301526129a181612965565b9050919050565b6129b1816123e6565b82525050565b60006060820190506129cc60008301866129a8565b6129d960208301856129a8565b6129e6604083018461251a565b949350505050565b60006129f9826124e7565b9050919050565b612a09816129ee565b82525050565b6000608082019050612a246000830187612a00565b612a316020830186612a00565b612a3e604083018561251a565b612a4b6060830184612535565b95945050505050565b7f4e487b7100000000000000000000000000000000000000000000000000000000600052601160045260246000fd5b6000612a8e82612424565b9150612a9983612424565b9250827fffffffffffffffffffffffffffffffffffffffffffffffffffffffffffffffff03821115612ace57612acd612a54565b5b828201905092915050565b6000612ae482612424565b91507fffffffffffffffffffffffffffffffffffffffffffffffffffffffffffffffff821415612b1757612b16612a54565b5b600182019050919050565b7f4e487b7100000000000000000000000000000000000000000000000000000000600052604160045260246000fd5b7f4e487b7100000000000000000000000000000000000000000000000000000000600052603260045260246000fd5b60007fffffffff0000000000000000000000000000000000000000000000000000000082169050919050565b612bb581612b80565b82525050565b6000602082019050612bd06000830184612bac565b92915050565b612bdf81612529565b8114612bea57600080fd5b50565b600081519050612bfc81612bd6565b92915050565b600060208284031215612c1857612c176123c1565b5b6000612c2684828501612bed565b91505092915050565b6000604082019050612c4460008301856129a8565b612c5160208301846129a8565b9392505050565b6000612c6382612424565b9150612c6e83612424565b925082821015612c8157612c80612a54565b5b828203905092915050565b6000606082019050612ca160008301866129a8565b612cae602083018561251a565b612cbb604083018461251a565b949350505050565b600081905092915050565b50565b6000612cde600083612cc3565b9150612ce982612cce565b600082019050919050565b6000612cff82612cd1565b9150819050919050565b6000606082019050612d1e600083018661251a565b612d2b602083018561251a565b612d386040830184612535565b949350505050565b6000612d4b82612424565b9150612d5683612424565b9250817fffffffffffffffffffffffffffffffffffffffffffffffffffffffffffffffff0483118215151615612d8f57612d8e612a54565b5b828202905092915050565b7f4e487b7100000000000000000000000000000000000000000000000000000000600052601260045260246000fd5b6000612dd482612424565b9150612ddf83612424565b925082612def57612dee612d9a565b5b828204905092915050565b7f436f756e7465723a2064656372656d656e74206f766572666c6f770000000000600082015250565b6000612e30601b8361292b565b9150612e3b82612dfa565b602082019050919050565b60006020820190508181036000830152612e5f81612e23565b905091905056fea264697066735822122098795adafcb4bfe08942487ae509a7282119fb32a502368e1e2a8f8a89078b5064736f6c634300080c0033",
  "linkReferences": {},
  "deployedLinkReferences": {}
}