{
  "_format": "hh-sol-artifact-1",
  "contractName": "SaigonMarket",
  "sourceName": "contracts/SaigonMarket.sol",
  "abi": [
    {
      "inputs": [
        {
          "internalType": "uint256",
          "name": "_feeBps",
          "type": "uint256"
        }
      ],
      "stateMutability": "nonpayable",
      "type": "constructor"
    },
    {
      "inputs": [],
      "name": "AlreadyListed",
      "type": "error"
    },
    {
      "inputs": [],
      "name": "InvalidNftAddress",
      "type": "error"
    },
    {
      "inputs": [],
      "name": "ListingNotExist",
      "type": "error"
    },
    {
      "inputs": [],
      "name": "ListingSold",
      "type": "error"
    },
    {
      "inputs": [],
      "name": "NFTNotApprovedForMarketplace",
      "type": "error"
    },
    {
      "inputs": [],
      "name": "NotOwner",
      "type": "error"
    },
    {
      "inputs": [],
      "name": "PriceMustBeAboveZero",
      "type": "error"
    },
    {
      "inputs": [
        {
          "internalType": "address",
          "name": "nftAddress",
          "type": "address"
        },
        {
          "internalType": "uint256",
          "name": "tokenId",
          "type": "uint256"
        },
        {
          "internalType": "uint256",
          "name": "price",
          "type": "uint256"
        }
      ],
      "name": "PriceNotMet",
      "type": "error"
    },
    {
      "inputs": [],
      "name": "TransferFailed",
      "type": "error"
    },
    {
      "anonymous": false,
      "inputs": [
        {
          "indexed": true,
          "internalType": "address",
          "name": "seller",
          "type": "address"
        },
        {
          "indexed": true,
          "internalType": "address",
          "name": "buyer",
          "type": "address"
        },
        {
          "indexed": false,
          "internalType": "uint256",
          "name": "tokenId",
          "type": "uint256"
        },
        {
          "indexed": false,
          "internalType": "uint256",
          "name": "pricePerItem",
          "type": "uint256"
        },
        {
          "indexed": false,
          "internalType": "bool",
          "name": "sold",
          "type": "bool"
        }
      ],
      "name": "ListingPurchased",
      "type": "event"
    },
    {
      "anonymous": false,
      "inputs": [
        {
          "indexed": true,
          "internalType": "address",
          "name": "nftAddress",
          "type": "address"
        },
        {
          "indexed": true,
          "internalType": "uint256",
          "name": "tokenId",
          "type": "uint256"
        },
        {
          "indexed": false,
          "internalType": "address",
          "name": "seller",
          "type": "address"
        },
        {
          "indexed": false,
          "internalType": "address",
          "name": "owner",
          "type": "address"
        },
        {
          "indexed": false,
          "internalType": "uint256",
          "name": "pricePerItem",
          "type": "uint256"
        },
        {
          "indexed": false,
          "internalType": "bool",
          "name": "sold",
          "type": "bool"
        }
      ],
      "name": "NFTListed",
      "type": "event"
    },
    {
      "anonymous": false,
      "inputs": [
        {
          "indexed": true,
          "internalType": "address",
          "name": "nftAddress",
          "type": "address"
        },
        {
          "indexed": true,
          "internalType": "uint256",
          "name": "tokenId",
          "type": "uint256"
        },
        {
          "indexed": false,
          "internalType": "address",
          "name": "seller",
          "type": "address"
        },
        {
          "indexed": false,
          "internalType": "address",
          "name": "owner",
          "type": "address"
        },
        {
          "indexed": false,
          "internalType": "uint256",
          "name": "pricePerItem",
          "type": "uint256"
        },
        {
          "indexed": false,
          "internalType": "bool",
          "name": "sold",
          "type": "bool"
        }
      ],
      "name": "NFTListedForResell",
      "type": "event"
    },
    {
      "inputs": [],
      "name": "_listingIds",
      "outputs": [
        {
          "internalType": "uint256",
          "name": "_value",
          "type": "uint256"
        }
      ],
      "stateMutability": "view",
      "type": "function"
    },
    {
      "inputs": [
        {
          "internalType": "address",
          "name": "_nftAddress",
          "type": "address"
        },
        {
          "internalType": "uint256",
          "name": "_tokenId",
          "type": "uint256"
        },
        {
          "internalType": "uint256",
          "name": "_pricePerItem",
          "type": "uint256"
        }
      ],
      "name": "createListing",
      "outputs": [],
      "stateMutability": "payable",
      "type": "function"
    },
    {
      "inputs": [
        {
          "internalType": "address",
          "name": "_nftAddress",
          "type": "address"
        },
        {
          "internalType": "uint256",
          "name": "_listingId",
          "type": "uint256"
        }
      ],
      "name": "createMarketSale",
      "outputs": [],
      "stateMutability": "payable",
      "type": "function"
    },
    {
      "inputs": [],
      "name": "feeBps",
      "outputs": [
        {
          "internalType": "uint256",
          "name": "",
          "type": "uint256"
        }
      ],
      "stateMutability": "view",
      "type": "function"
    },
    {
      "inputs": [
        {
          "internalType": "address",
          "name": "_nftAddress",
          "type": "address"
        }
      ],
      "name": "fetchMarketListings",
      "outputs": [
        {
          "components": [
            {
              "internalType": "address payable",
              "name": "seller",
              "type": "address"
            },
            {
              "internalType": "address payable",
              "name": "owner",
              "type": "address"
            },
            {
              "internalType": "contract IERC721",
              "name": "nft",
              "type": "address"
            },
            {
              "internalType": "uint256",
              "name": "listingId",
              "type": "uint256"
            },
            {
              "internalType": "uint256",
              "name": "tokenId",
              "type": "uint256"
            },
            {
              "internalType": "uint256",
              "name": "pricePerItem",
              "type": "uint256"
            },
            {
              "internalType": "bool",
              "name": "sold",
              "type": "bool"
            }
          ],
          "internalType": "struct SaigonMarket.Listing[]",
          "name": "",
          "type": "tuple[]"
        }
      ],
      "stateMutability": "view",
      "type": "function"
    },
    {
      "inputs": [
        {
          "internalType": "address",
          "name": "_nftAddress",
          "type": "address"
        }
      ],
      "name": "fetchMyNFTs",
      "outputs": [
        {
          "components": [
            {
              "internalType": "address payable",
              "name": "seller",
              "type": "address"
            },
            {
              "internalType": "address payable",
              "name": "owner",
              "type": "address"
            },
            {
              "internalType": "contract IERC721",
              "name": "nft",
              "type": "address"
            },
            {
              "internalType": "uint256",
              "name": "listingId",
              "type": "uint256"
            },
            {
              "internalType": "uint256",
              "name": "tokenId",
              "type": "uint256"
            },
            {
              "internalType": "uint256",
              "name": "pricePerItem",
              "type": "uint256"
            },
            {
              "internalType": "bool",
              "name": "sold",
              "type": "bool"
            }
          ],
          "internalType": "struct SaigonMarket.Listing[]",
          "name": "",
          "type": "tuple[]"
        }
      ],
      "stateMutability": "view",
      "type": "function"
    },
    {
      "inputs": [
        {
          "internalType": "address",
          "name": "_nftAddress",
          "type": "address"
        }
      ],
      "name": "fetchOwnedListings",
      "outputs": [
        {
          "components": [
            {
              "internalType": "address payable",
              "name": "seller",
              "type": "address"
            },
            {
              "internalType": "address payable",
              "name": "owner",
              "type": "address"
            },
            {
              "internalType": "contract IERC721",
              "name": "nft",
              "type": "address"
            },
            {
              "internalType": "uint256",
              "name": "listingId",
              "type": "uint256"
            },
            {
              "internalType": "uint256",
              "name": "tokenId",
              "type": "uint256"
            },
            {
              "internalType": "uint256",
              "name": "pricePerItem",
              "type": "uint256"
            },
            {
              "internalType": "bool",
              "name": "sold",
              "type": "bool"
            }
          ],
          "internalType": "struct SaigonMarket.Listing[]",
          "name": "",
          "type": "tuple[]"
        }
      ],
      "stateMutability": "view",
      "type": "function"
    },
    {
      "inputs": [
        {
          "internalType": "address",
          "name": "_nftAddress",
          "type": "address"
        },
        {
          "internalType": "uint256",
          "name": "_listingId",
          "type": "uint256"
        }
      ],
      "name": "getFinalPrice",
      "outputs": [
        {
          "internalType": "uint256",
          "name": "",
          "type": "uint256"
        }
      ],
      "stateMutability": "view",
      "type": "function"
    },
    {
      "inputs": [
        {
          "internalType": "address",
          "name": "_nftAddress",
          "type": "address"
        },
        {
          "internalType": "uint256",
          "name": "_listingId",
          "type": "uint256"
        }
      ],
      "name": "getPricePerItem",
      "outputs": [
        {
          "internalType": "uint256",
          "name": "",
          "type": "uint256"
        }
      ],
      "stateMutability": "view",
      "type": "function"
    },
    {
      "inputs": [
        {
          "internalType": "address",
          "name": "_nftAddress",
          "type": "address"
        },
        {
          "internalType": "uint256",
          "name": "_tokenId",
          "type": "uint256"
        },
        {
          "internalType": "uint256",
          "name": "_listingId",
          "type": "uint256"
        },
        {
          "internalType": "uint256",
          "name": "_pricePerItem",
          "type": "uint256"
        }
      ],
      "name": "listNFT",
      "outputs": [],
      "stateMutability": "nonpayable",
      "type": "function"
    },
    {
      "inputs": [
        {
          "internalType": "address",
          "name": "",
          "type": "address"
        },
        {
          "internalType": "uint256",
          "name": "",
          "type": "uint256"
        }
      ],
      "name": "listings",
      "outputs": [
        {
          "internalType": "address payable",
          "name": "seller",
          "type": "address"
        },
        {
          "internalType": "address payable",
          "name": "owner",
          "type": "address"
        },
        {
          "internalType": "contract IERC721",
          "name": "nft",
          "type": "address"
        },
        {
          "internalType": "uint256",
          "name": "listingId",
          "type": "uint256"
        },
        {
          "internalType": "uint256",
          "name": "tokenId",
          "type": "uint256"
        },
        {
          "internalType": "uint256",
          "name": "pricePerItem",
          "type": "uint256"
        },
        {
          "internalType": "bool",
          "name": "sold",
          "type": "bool"
        }
      ],
      "stateMutability": "view",
      "type": "function"
    },
    {
      "inputs": [],
      "name": "operator",
      "outputs": [
        {
          "internalType": "address payable",
          "name": "",
          "type": "address"
        }
      ],
      "stateMutability": "view",
      "type": "function"
    },
    {
      "inputs": [
        {
          "internalType": "address",
          "name": "_nftAddress",
          "type": "address"
        },
        {
          "internalType": "uint256",
          "name": "_listingId",
          "type": "uint256"
        },
        {
          "internalType": "uint256",
          "name": "_pricePerItem",
          "type": "uint256"
        }
      ],
      "name": "resellNFT",
      "outputs": [],
      "stateMutability": "payable",
      "type": "function"
    }
  ],
  "bytecode": "0x60c06040523480156200001157600080fd5b506040516200308e3803806200308e8339818101604052810190620000379190620000c2565b60016000819055503373ffffffffffffffffffffffffffffffffffffffff1660808173ffffffffffffffffffffffffffffffffffffffff16815250508060a0818152505050620000f4565b600080fd5b6000819050919050565b6200009c8162000087565b8114620000a857600080fd5b50565b600081519050620000bc8162000091565b92915050565b600060208284031215620000db57620000da62000082565b5b6000620000eb84828501620000ab565b91505092915050565b60805160a051612f6662000128600039600081816111970152611f660152600081816116510152611e1f0152612f666000f3fe6080604052600436106100c15760003560e01c80633c44a5f01161007f578063631749cf11610059578063631749cf14610265578063c23b139e146102a2578063d9db220d146102be578063f792d45d146102fb576100c1565b80633c44a5f0146101d45780633f2c4e45146101fd578063570ca7351461023a576100c1565b806207df30146100c6578063049356941461010957806305b826a81461012557806310afee1e1461015057806324780c561461018d57806324a9d853146101a9575b600080fd5b3480156100d257600080fd5b506100ed60048036038101906100e891906125a2565b610338565b604051610100979695949392919061268c565b60405180910390f35b610123600480360381019061011e91906126fb565b6103f4565b005b34801561013157600080fd5b5061013a610a24565b604051610147919061274e565b60405180910390f35b34801561015c57600080fd5b5061017760048036038101906101729190612769565b610a30565b604051610184919061290f565b60405180910390f35b6101a760048036038101906101a291906126fb565b610e37565b005b3480156101b557600080fd5b506101be611195565b6040516101cb919061274e565b60405180910390f35b3480156101e057600080fd5b506101fb60048036038101906101f69190612931565b6111b9565b005b34801561020957600080fd5b50610224600480360381019061021f91906125a2565b6115f1565b604051610231919061274e565b60405180910390f35b34801561024657600080fd5b5061024f61164f565b60405161025c9190612998565b60405180910390f35b34801561027157600080fd5b5061028c60048036038101906102879190612769565b611673565b604051610299919061290f565b60405180910390f35b6102bc60048036038101906102b791906125a2565b6119b8565b005b3480156102ca57600080fd5b506102e560048036038101906102e091906125a2565b611f60565b6040516102f2919061274e565b60405180910390f35b34801561030757600080fd5b50610322600480360381019061031d9190612769565b612001565b60405161032f919061290f565b60405180910390f35b6003602052816000526040600020602052806000526040600020600091509150508060000160009054906101000a900473ffffffffffffffffffffffffffffffffffffffff16908060010160009054906101000a900473ffffffffffffffffffffffffffffffffffffffff16908060020160009054906101000a900473ffffffffffffffffffffffffffffffffffffffff16908060030154908060040154908060050154908060060160009054906101000a900460ff16905087565b82600360008573ffffffffffffffffffffffffffffffffffffffff1673ffffffffffffffffffffffffffffffffffffffff16815260200190815260200160002060008481526020019081526020016000206004015433600083905060008173ffffffffffffffffffffffffffffffffffffffff16636352211e856040518263ffffffff1660e01b815260040161048a919061274e565b602060405180830381865afa1580156104a7573d6000803e3d6000fd5b505050506040513d601f19601f820116820180604052508101906104cb91906129c8565b90508073ffffffffffffffffffffffffffffffffffffffff168373ffffffffffffffffffffffffffffffffffffffff1614610532576040517f30cd747100000000000000000000000000000000000000000000000000000000815260040160405180910390fd5b87600360008a73ffffffffffffffffffffffffffffffffffffffff1673ffffffffffffffffffffffffffffffffffffffff168152602001908152602001600020600089815260200190815260200160002060040154600082905060008173ffffffffffffffffffffffffffffffffffffffff16636352211e846040518263ffffffff1660e01b81526004016105c7919061274e565b602060405180830381865afa1580156105e4573d6000803e3d6000fd5b505050506040513d601f19601f8201168201806040525081019061060891906129c8565b90508073ffffffffffffffffffffffffffffffffffffffff163073ffffffffffffffffffffffffffffffffffffffff161415610670576040517fa3d582ec00000000000000000000000000000000000000000000000000000000815260040160405180910390fd5b600260005414156106b6576040517f08c379a00000000000000000000000000000000000000000000000000000000081526004016106ad90612a52565b60405180910390fd5b600260008190555060008a116106f8576040517fe1abbfc500000000000000000000000000000000000000000000000000000000815260040160405180910390fd5b60006107048d8d611f60565b90506000600360008f73ffffffffffffffffffffffffffffffffffffffff1673ffffffffffffffffffffffffffffffffffffffff16815260200190815260200160002060008e81526020019081526020016000206040518060e00160405290816000820160009054906101000a900473ffffffffffffffffffffffffffffffffffffffff1673ffffffffffffffffffffffffffffffffffffffff1673ffffffffffffffffffffffffffffffffffffffff1681526020016001820160009054906101000a900473ffffffffffffffffffffffffffffffffffffffff1673ffffffffffffffffffffffffffffffffffffffff1673ffffffffffffffffffffffffffffffffffffffff1681526020016002820160009054906101000a900473ffffffffffffffffffffffffffffffffffffffff1673ffffffffffffffffffffffffffffffffffffffff1673ffffffffffffffffffffffffffffffffffffffff1681526020016003820154815260200160048201548152602001600582015481526020016006820160009054906101000a900460ff161515151581525050905060008160c00190151590811515815250508b8160a001818152505033816000019073ffffffffffffffffffffffffffffffffffffffff16908173ffffffffffffffffffffffffffffffffffffffff168152505030816020019073ffffffffffffffffffffffffffffffffffffffff16908173ffffffffffffffffffffffffffffffffffffffff16815250506109356002612408565b806040015173ffffffffffffffffffffffffffffffffffffffff166323b872dd333084608001516040518463ffffffff1660e01b815260040161097a93929190612a81565b600060405180830381600087803b15801561099457600080fd5b505af11580156109a8573d6000803e3d6000fd5b5050505060008c905081608001518f73ffffffffffffffffffffffffffffffffffffffff167fafd7b131c900b2911104a35c344bd27df9588e569fc4bd4d823f3602436b52153330856000604051610a039493929190612ad9565b60405180910390a35050506001600081905550505050505050505050505050565b60018060000154905081565b60606000610a3e6001612464565b905060008060005b83811015610b24573373ffffffffffffffffffffffffffffffffffffffff16600360008873ffffffffffffffffffffffffffffffffffffffff1673ffffffffffffffffffffffffffffffffffffffff1681526020019081526020016000206000600184610ab39190612b4d565b815260200190815260200160002060000160009054906101000a900473ffffffffffffffffffffffffffffffffffffffff1673ffffffffffffffffffffffffffffffffffffffff161415610b1157600183610b0e9190612b4d565b92505b8080610b1c90612ba3565b915050610a46565b5060008267ffffffffffffffff811115610b4157610b40612bec565b5b604051908082528060200260200182016040528015610b7a57816020015b610b67612488565b815260200190600190039081610b5f5790505b50905060005b84811015610e2a573373ffffffffffffffffffffffffffffffffffffffff16600360008973ffffffffffffffffffffffffffffffffffffffff1673ffffffffffffffffffffffffffffffffffffffff1681526020019081526020016000206000600184610bed9190612b4d565b815260200190815260200160002060000160009054906101000a900473ffffffffffffffffffffffffffffffffffffffff1673ffffffffffffffffffffffffffffffffffffffff161415610e17576000600182610c4a9190612b4d565b90506000600360008a73ffffffffffffffffffffffffffffffffffffffff1673ffffffffffffffffffffffffffffffffffffffff16815260200190815260200160002060008381526020019081526020016000209050806040518060e00160405290816000820160009054906101000a900473ffffffffffffffffffffffffffffffffffffffff1673ffffffffffffffffffffffffffffffffffffffff1673ffffffffffffffffffffffffffffffffffffffff1681526020016001820160009054906101000a900473ffffffffffffffffffffffffffffffffffffffff1673ffffffffffffffffffffffffffffffffffffffff1673ffffffffffffffffffffffffffffffffffffffff1681526020016002820160009054906101000a900473ffffffffffffffffffffffffffffffffffffffff1673ffffffffffffffffffffffffffffffffffffffff1673ffffffffffffffffffffffffffffffffffffffff1681526020016003820154815260200160048201548152602001600582015481526020016006820160009054906101000a900460ff161515151581525050848681518110610dfa57610df9612c1b565b5b6020026020010181905250600185610e129190612b4d565b945050505b8080610e2290612ba3565b915050610b80565b5080945050505050919050565b828233600083905060008173ffffffffffffffffffffffffffffffffffffffff16636352211e856040518263ffffffff1660e01b8152600401610e7a919061274e565b602060405180830381865afa158015610e97573d6000803e3d6000fd5b505050506040513d601f19601f82011682018060405250810190610ebb91906129c8565b90508073ffffffffffffffffffffffffffffffffffffffff168373ffffffffffffffffffffffffffffffffffffffff1614610f22576040517f30cd747100000000000000000000000000000000000000000000000000000000815260040160405180910390fd5b8787600082905060008173ffffffffffffffffffffffffffffffffffffffff16636352211e846040518263ffffffff1660e01b8152600401610f64919061274e565b602060405180830381865afa158015610f81573d6000803e3d6000fd5b505050506040513d601f19601f82011682018060405250810190610fa591906129c8565b90508073ffffffffffffffffffffffffffffffffffffffff163073ffffffffffffffffffffffffffffffffffffffff16141561100d576040517fa3d582ec00000000000000000000000000000000000000000000000000000000815260040160405180910390fd5b60026000541415611053576040517f08c379a000000000000000000000000000000000000000000000000000000000815260040161104a90612a52565b60405180910390fd5b600260008190555060008a11611095576040517fe1abbfc500000000000000000000000000000000000000000000000000000000815260040160405180910390fd5b61109f6001612472565b60006110ab6001612464565b90506110b98d8d838e6111b9565b8c73ffffffffffffffffffffffffffffffffffffffff166323b872dd33308f6040518463ffffffff1660e01b81526004016110f693929190612a81565b600060405180830381600087803b15801561111057600080fd5b505af1158015611124573d6000803e3d6000fd5b505050508b8d73ffffffffffffffffffffffffffffffffffffffff167fa32537b3445e8d7bf368b526f53200c5a0f1cc087c14445c6386453febdb010933308f60006040516111769493929190612ad9565b60405180910390a3506001600081905550505050505050505050505050565b7f000000000000000000000000000000000000000000000000000000000000000081565b8373ffffffffffffffffffffffffffffffffffffffff166301ffc9a76380ac58cd60e01b6040518263ffffffff1660e01b81526004016111f99190612c85565b602060405180830381865afa158015611216573d6000803e3d6000fd5b505050506040513d601f19601f8201168201806040525081019061123a9190612ccc565b156113da5760008490503373ffffffffffffffffffffffffffffffffffffffff168173ffffffffffffffffffffffffffffffffffffffff16636352211e866040518263ffffffff1660e01b8152600401611294919061274e565b602060405180830381865afa1580156112b1573d6000803e3d6000fd5b505050506040513d601f19601f820116820180604052508101906112d591906129c8565b73ffffffffffffffffffffffffffffffffffffffff1614611322576040517f30cd747100000000000000000000000000000000000000000000000000000000815260040160405180910390fd5b8073ffffffffffffffffffffffffffffffffffffffff1663e985e9c533306040518363ffffffff1660e01b815260040161135d929190612cf9565b602060405180830381865afa15801561137a573d6000803e3d6000fd5b505050506040513d601f19601f8201168201806040525081019061139e9190612ccc565b6113d4576040517fc278fc7000000000000000000000000000000000000000000000000000000000815260040160405180910390fd5b5061140c565b6040517f41b7742500000000000000000000000000000000000000000000000000000000815260040160405180910390fd5b6040518060e001604052803373ffffffffffffffffffffffffffffffffffffffff168152602001600073ffffffffffffffffffffffffffffffffffffffff1681526020018573ffffffffffffffffffffffffffffffffffffffff16815260200183815260200184815260200182815260200160001515815250600360008673ffffffffffffffffffffffffffffffffffffffff1673ffffffffffffffffffffffffffffffffffffffff168152602001908152602001600020600084815260200190815260200160002060008201518160000160006101000a81548173ffffffffffffffffffffffffffffffffffffffff021916908373ffffffffffffffffffffffffffffffffffffffff16021790555060208201518160010160006101000a81548173ffffffffffffffffffffffffffffffffffffffff021916908373ffffffffffffffffffffffffffffffffffffffff16021790555060408201518160020160006101000a81548173ffffffffffffffffffffffffffffffffffffffff021916908373ffffffffffffffffffffffffffffffffffffffff160217905550606082015181600301556080820151816004015560a0820151816005015560c08201518160060160006101000a81548160ff02191690831515021790555090505050505050565b6000600360008473ffffffffffffffffffffffffffffffffffffffff1673ffffffffffffffffffffffffffffffffffffffff168152602001908152602001600020600083815260200190815260200160002060050154905092915050565b7f000000000000000000000000000000000000000000000000000000000000000081565b606060006116816001612464565b9050600061168f6002612464565b6116996001612464565b6116a39190612d22565b90506000808267ffffffffffffffff8111156116c2576116c1612bec565b5b6040519080825280602002602001820160405280156116fb57816020015b6116e8612488565b8152602001906001900390816116e05790505b50905060005b848110156119ab573073ffffffffffffffffffffffffffffffffffffffff16600360008973ffffffffffffffffffffffffffffffffffffffff1673ffffffffffffffffffffffffffffffffffffffff168152602001908152602001600020600060018461176e9190612b4d565b815260200190815260200160002060000160009054906101000a900473ffffffffffffffffffffffffffffffffffffffff1673ffffffffffffffffffffffffffffffffffffffff1614156119985760006001826117cb9190612b4d565b90506000600360008a73ffffffffffffffffffffffffffffffffffffffff1673ffffffffffffffffffffffffffffffffffffffff16815260200190815260200160002060008381526020019081526020016000209050806040518060e00160405290816000820160009054906101000a900473ffffffffffffffffffffffffffffffffffffffff1673ffffffffffffffffffffffffffffffffffffffff1673ffffffffffffffffffffffffffffffffffffffff1681526020016001820160009054906101000a900473ffffffffffffffffffffffffffffffffffffffff1673ffffffffffffffffffffffffffffffffffffffff1673ffffffffffffffffffffffffffffffffffffffff1681526020016002820160009054906101000a900473ffffffffffffffffffffffffffffffffffffffff1673ffffffffffffffffffffffffffffffffffffffff1673ffffffffffffffffffffffffffffffffffffffff1681526020016003820154815260200160048201548152602001600582015481526020016006820160009054906101000a900460ff16151515158152505084838151811061197b5761197a612c1b565b5b60200260200101819052506001856119939190612b4d565b945050505b80806119a390612ba3565b915050611701565b5080945050505050919050565b80600081111580156119d257506119cf6001612464565b81115b15611a09576040517fbf8b3d3e00000000000000000000000000000000000000000000000000000000815260040160405180910390fd5b60026000541415611a4f576040517f08c379a0000000000000000000000000000000000000000000000000000000008152600401611a4690612a52565b60405180910390fd5b60026000819055506000611a638484611f60565b90506000600360008673ffffffffffffffffffffffffffffffffffffffff1673ffffffffffffffffffffffffffffffffffffffff16815260200190815260200160002060008581526020019081526020016000206040518060e00160405290816000820160009054906101000a900473ffffffffffffffffffffffffffffffffffffffff1673ffffffffffffffffffffffffffffffffffffffff1673ffffffffffffffffffffffffffffffffffffffff1681526020016001820160009054906101000a900473ffffffffffffffffffffffffffffffffffffffff1673ffffffffffffffffffffffffffffffffffffffff1673ffffffffffffffffffffffffffffffffffffffff1681526020016002820160009054906101000a900473ffffffffffffffffffffffffffffffffffffffff1673ffffffffffffffffffffffffffffffffffffffff1673ffffffffffffffffffffffffffffffffffffffff1681526020016003820154815260200160048201548152602001600582015481526020016006820160009054906101000a900460ff161515151581525050905060008160a00151905060008184611c169190612d22565b905060008360000151905084341015611c6e57878460800151866040517f7c934565000000000000000000000000000000000000000000000000000000008152600401611c6593929190612d56565b60405180910390fd5b8360c0015115611caa576040517fb413c50200000000000000000000000000000000000000000000000000000000815260040160405180910390fd5b33846020019073ffffffffffffffffffffffffffffffffffffffff16908173ffffffffffffffffffffffffffffffffffffffff168152505060018460c001901515908115158152505060009050611d016002612472565b836040015173ffffffffffffffffffffffffffffffffffffffff166342842e0e303387608001516040518463ffffffff1660e01b8152600401611d4693929190612a81565b600060405180830381600087803b158015611d6057600080fd5b505af1158015611d74573d6000803e3d6000fd5b5050505060008173ffffffffffffffffffffffffffffffffffffffff1684604051611d9e90612dbe565b60006040518083038185875af1925050503d8060008114611ddb576040519150601f19603f3d011682016040523d82523d6000602084013e611de0565b606091505b5050905080611e1b576040517f90b8ec1800000000000000000000000000000000000000000000000000000000815260040160405180910390fd5b60007f000000000000000000000000000000000000000000000000000000000000000073ffffffffffffffffffffffffffffffffffffffff1684604051611e6190612dbe565b60006040518083038185875af1925050503d8060008114611e9e576040519150601f19603f3d011682016040523d82523d6000602084013e611ea3565b606091505b5050905080611ede576040517f90b8ec1800000000000000000000000000000000000000000000000000000000815260040160405180910390fd5b3373ffffffffffffffffffffffffffffffffffffffff168373ffffffffffffffffffffffffffffffffffffffff167f7a294cf6442b01d7fdf4d752b780452e81d214cde05a4b638531a455fdc34c798860800151886001604051611f4493929190612dd3565b60405180910390a3505050505050506001600081905550505050565b600060647f00000000000000000000000000000000000000000000000000000000000000006064611f919190612b4d565b600360008673ffffffffffffffffffffffffffffffffffffffff1673ffffffffffffffffffffffffffffffffffffffff168152602001908152602001600020600085815260200190815260200160002060050154611fef9190612e0a565b611ff99190612e93565b905092915050565b6060600061200f6001612464565b905060008060005b838110156120f5573373ffffffffffffffffffffffffffffffffffffffff16600360008873ffffffffffffffffffffffffffffffffffffffff1673ffffffffffffffffffffffffffffffffffffffff16815260200190815260200160002060006001846120849190612b4d565b815260200190815260200160002060000160009054906101000a900473ffffffffffffffffffffffffffffffffffffffff1673ffffffffffffffffffffffffffffffffffffffff1614156120e2576001836120df9190612b4d565b92505b80806120ed90612ba3565b915050612017565b5060008267ffffffffffffffff81111561211257612111612bec565b5b60405190808252806020026020018201604052801561214b57816020015b612138612488565b8152602001906001900390816121305790505b50905060005b848110156123fb573373ffffffffffffffffffffffffffffffffffffffff16600360008973ffffffffffffffffffffffffffffffffffffffff1673ffffffffffffffffffffffffffffffffffffffff16815260200190815260200160002060006001846121be9190612b4d565b815260200190815260200160002060000160009054906101000a900473ffffffffffffffffffffffffffffffffffffffff1673ffffffffffffffffffffffffffffffffffffffff1614156123e857600060018261221b9190612b4d565b90506000600360008a73ffffffffffffffffffffffffffffffffffffffff1673ffffffffffffffffffffffffffffffffffffffff16815260200190815260200160002060008381526020019081526020016000209050806040518060e00160405290816000820160009054906101000a900473ffffffffffffffffffffffffffffffffffffffff1673ffffffffffffffffffffffffffffffffffffffff1673ffffffffffffffffffffffffffffffffffffffff1681526020016001820160009054906101000a900473ffffffffffffffffffffffffffffffffffffffff1673ffffffffffffffffffffffffffffffffffffffff1673ffffffffffffffffffffffffffffffffffffffff1681526020016002820160009054906101000a900473ffffffffffffffffffffffffffffffffffffffff1673ffffffffffffffffffffffffffffffffffffffff1673ffffffffffffffffffffffffffffffffffffffff1681526020016003820154815260200160048201548152602001600582015481526020016006820160009054906101000a900460ff1615151515815250508486815181106123cb576123ca612c1b565b5b60200260200101819052506001856123e39190612b4d565b945050505b80806123f390612ba3565b915050612151565b5080945050505050919050565b60008160000154905060008111612454576040517f08c379a000000000000000000000000000000000000000000000000000000000815260040161244b90612f10565b60405180910390fd5b6001810382600001819055505050565b600081600001549050919050565b6001816000016000828254019250508190555050565b6040518060e00160405280600073ffffffffffffffffffffffffffffffffffffffff168152602001600073ffffffffffffffffffffffffffffffffffffffff168152602001600073ffffffffffffffffffffffffffffffffffffffff1681526020016000815260200160008152602001600081526020016000151581525090565b600080fd5b600073ffffffffffffffffffffffffffffffffffffffff82169050919050565b60006125398261250e565b9050919050565b6125498161252e565b811461255457600080fd5b50565b60008135905061256681612540565b92915050565b6000819050919050565b61257f8161256c565b811461258a57600080fd5b50565b60008135905061259c81612576565b92915050565b600080604083850312156125b9576125b8612509565b5b60006125c785828601612557565b92505060206125d88582860161258d565b9150509250929050565b60006125ed8261250e565b9050919050565b6125fd816125e2565b82525050565b6000819050919050565b600061262861262361261e8461250e565b612603565b61250e565b9050919050565b600061263a8261260d565b9050919050565b600061264c8261262f565b9050919050565b61265c81612641565b82525050565b61266b8161256c565b82525050565b60008115159050919050565b61268681612671565b82525050565b600060e0820190506126a1600083018a6125f4565b6126ae60208301896125f4565b6126bb6040830188612653565b6126c86060830187612662565b6126d56080830186612662565b6126e260a0830185612662565b6126ef60c083018461267d565b98975050505050505050565b60008060006060848603121561271457612713612509565b5b600061272286828701612557565b93505060206127338682870161258d565b92505060406127448682870161258d565b9150509250925092565b60006020820190506127636000830184612662565b92915050565b60006020828403121561277f5761277e612509565b5b600061278d84828501612557565b91505092915050565b600081519050919050565b600082825260208201905092915050565b6000819050602082019050919050565b6127cb816125e2565b82525050565b6127da81612641565b82525050565b6127e98161256c565b82525050565b6127f881612671565b82525050565b60e08201600082015161281460008501826127c2565b50602082015161282760208501826127c2565b50604082015161283a60408501826127d1565b50606082015161284d60608501826127e0565b50608082015161286060808501826127e0565b5060a082015161287360a08501826127e0565b5060c082015161288660c08501826127ef565b50505050565b600061289883836127fe565b60e08301905092915050565b6000602082019050919050565b60006128bc82612796565b6128c681856127a1565b93506128d1836127b2565b8060005b838110156129025781516128e9888261288c565b97506128f4836128a4565b9250506001810190506128d5565b5085935050505092915050565b6000602082019050818103600083015261292981846128b1565b905092915050565b6000806000806080858703121561294b5761294a612509565b5b600061295987828801612557565b945050602061296a8782880161258d565b935050604061297b8782880161258d565b925050606061298c8782880161258d565b91505092959194509250565b60006020820190506129ad60008301846125f4565b92915050565b6000815190506129c281612540565b92915050565b6000602082840312156129de576129dd612509565b5b60006129ec848285016129b3565b91505092915050565b600082825260208201905092915050565b7f5265656e7472616e637947756172643a207265656e7472616e742063616c6c00600082015250565b6000612a3c601f836129f5565b9150612a4782612a06565b602082019050919050565b60006020820190508181036000830152612a6b81612a2f565b9050919050565b612a7b8161252e565b82525050565b6000606082019050612a966000830186612a72565b612aa36020830185612a72565b612ab06040830184612662565b949350505050565b6000612ac38261262f565b9050919050565b612ad381612ab8565b82525050565b6000608082019050612aee6000830187612aca565b612afb6020830186612aca565b612b086040830185612662565b612b15606083018461267d565b95945050505050565b7f4e487b7100000000000000000000000000000000000000000000000000000000600052601160045260246000fd5b6000612b588261256c565b9150612b638361256c565b9250827fffffffffffffffffffffffffffffffffffffffffffffffffffffffffffffffff03821115612b9857612b97612b1e565b5b828201905092915050565b6000612bae8261256c565b91507fffffffffffffffffffffffffffffffffffffffffffffffffffffffffffffffff821415612be157612be0612b1e565b5b600182019050919050565b7f4e487b7100000000000000000000000000000000000000000000000000000000600052604160045260246000fd5b7f4e487b7100000000000000000000000000000000000000000000000000000000600052603260045260246000fd5b60007fffffffff0000000000000000000000000000000000000000000000000000000082169050919050565b612c7f81612c4a565b82525050565b6000602082019050612c9a6000830184612c76565b92915050565b612ca981612671565b8114612cb457600080fd5b50565b600081519050612cc681612ca0565b92915050565b600060208284031215612ce257612ce1612509565b5b6000612cf084828501612cb7565b91505092915050565b6000604082019050612d0e6000830185612a72565b612d1b6020830184612a72565b9392505050565b6000612d2d8261256c565b9150612d388361256c565b925082821015612d4b57612d4a612b1e565b5b828203905092915050565b6000606082019050612d6b6000830186612a72565b612d786020830185612662565b612d856040830184612662565b949350505050565b600081905092915050565b50565b6000612da8600083612d8d565b9150612db382612d98565b600082019050919050565b6000612dc982612d9b565b9150819050919050565b6000606082019050612de86000830186612662565b612df56020830185612662565b612e02604083018461267d565b949350505050565b6000612e158261256c565b9150612e208361256c565b9250817fffffffffffffffffffffffffffffffffffffffffffffffffffffffffffffffff0483118215151615612e5957612e58612b1e565b5b828202905092915050565b7f4e487b7100000000000000000000000000000000000000000000000000000000600052601260045260246000fd5b6000612e9e8261256c565b9150612ea98361256c565b925082612eb957612eb8612e64565b5b828204905092915050565b7f436f756e7465723a2064656372656d656e74206f766572666c6f770000000000600082015250565b6000612efa601b836129f5565b9150612f0582612ec4565b602082019050919050565b60006020820190508181036000830152612f2981612eed565b905091905056fea2646970667358221220baed135481dfe8b5b7aee42d20ca091f03fe4cba49705534f81b58666d98ca0964736f6c634300080c0033",
  "linkReferences": {},
  "deployedLinkReferences": {}
}