{
  "_format": "hh-sol-artifact-1",
  "contractName": "SaigonMarket",
  "sourceName": "contracts/SaigonMarket.sol",
  "abi": [
    {
      "inputs": [],
      "stateMutability": "nonpayable",
      "type": "constructor"
    },
    {
      "anonymous": false,
      "inputs": [
        {
          "indexed": true,
          "internalType": "address",
          "name": "owner",
          "type": "address"
        },
        {
          "indexed": true,
          "internalType": "address",
          "name": "approved",
          "type": "address"
        },
        {
          "indexed": true,
          "internalType": "uint256",
          "name": "tokenId",
          "type": "uint256"
        }
      ],
      "name": "Approval",
      "type": "event"
    },
    {
      "anonymous": false,
      "inputs": [
        {
          "indexed": true,
          "internalType": "address",
          "name": "owner",
          "type": "address"
        },
        {
          "indexed": true,
          "internalType": "address",
          "name": "operator",
          "type": "address"
        },
        {
          "indexed": false,
          "internalType": "bool",
          "name": "approved",
          "type": "bool"
        }
      ],
      "name": "ApprovalForAll",
      "type": "event"
    },
    {
      "anonymous": false,
      "inputs": [
        {
          "indexed": true,
          "internalType": "uint256",
          "name": "tokenId",
          "type": "uint256"
        },
        {
          "indexed": false,
          "internalType": "address",
          "name": "seller",
          "type": "address"
        },
        {
          "indexed": false,
          "internalType": "address",
          "name": "owner",
          "type": "address"
        },
        {
          "indexed": false,
          "internalType": "uint256",
          "name": "price",
          "type": "uint256"
        },
        {
          "indexed": false,
          "internalType": "bool",
          "name": "sold",
          "type": "bool"
        }
      ],
      "name": "MarketitemCreated",
      "type": "event"
    },
    {
      "anonymous": false,
      "inputs": [
        {
          "indexed": true,
          "internalType": "address",
          "name": "from",
          "type": "address"
        },
        {
          "indexed": true,
          "internalType": "address",
          "name": "to",
          "type": "address"
        },
        {
          "indexed": true,
          "internalType": "uint256",
          "name": "tokenId",
          "type": "uint256"
        }
      ],
      "name": "Transfer",
      "type": "event"
    },
    {
      "inputs": [
        {
          "internalType": "address",
          "name": "to",
          "type": "address"
        },
        {
          "internalType": "uint256",
          "name": "tokenId",
          "type": "uint256"
        }
      ],
      "name": "approve",
      "outputs": [],
      "stateMutability": "nonpayable",
      "type": "function"
    },
    {
      "inputs": [
        {
          "internalType": "address",
          "name": "owner",
          "type": "address"
        }
      ],
      "name": "balanceOf",
      "outputs": [
        {
          "internalType": "uint256",
          "name": "",
          "type": "uint256"
        }
      ],
      "stateMutability": "view",
      "type": "function"
    },
    {
      "inputs": [
        {
          "internalType": "uint256",
          "name": "tokenId",
          "type": "uint256"
        }
      ],
      "name": "createMarketSale",
      "outputs": [],
      "stateMutability": "payable",
      "type": "function"
    },
    {
      "inputs": [
        {
          "internalType": "string",
          "name": "tokenURI",
          "type": "string"
        },
        {
          "internalType": "uint256",
          "name": "price",
          "type": "uint256"
        }
      ],
      "name": "createToken",
      "outputs": [
        {
          "internalType": "uint256",
          "name": "",
          "type": "uint256"
        }
      ],
      "stateMutability": "payable",
      "type": "function"
    },
    {
      "inputs": [],
      "name": "fetchItemsListed",
      "outputs": [
        {
          "components": [
            {
              "internalType": "uint256",
              "name": "tokenId",
              "type": "uint256"
            },
            {
              "internalType": "address payable",
              "name": "seller",
              "type": "address"
            },
            {
              "internalType": "address payable",
              "name": "owner",
              "type": "address"
            },
            {
              "internalType": "uint256",
              "name": "price",
              "type": "uint256"
            },
            {
              "internalType": "bool",
              "name": "sold",
              "type": "bool"
            }
          ],
          "internalType": "struct SaigonMarket.MarketItem[]",
          "name": "",
          "type": "tuple[]"
        }
      ],
      "stateMutability": "view",
      "type": "function"
    },
    {
      "inputs": [],
      "name": "fetchMarketItems",
      "outputs": [
        {
          "components": [
            {
              "internalType": "uint256",
              "name": "tokenId",
              "type": "uint256"
            },
            {
              "internalType": "address payable",
              "name": "seller",
              "type": "address"
            },
            {
              "internalType": "address payable",
              "name": "owner",
              "type": "address"
            },
            {
              "internalType": "uint256",
              "name": "price",
              "type": "uint256"
            },
            {
              "internalType": "bool",
              "name": "sold",
              "type": "bool"
            }
          ],
          "internalType": "struct SaigonMarket.MarketItem[]",
          "name": "",
          "type": "tuple[]"
        }
      ],
      "stateMutability": "view",
      "type": "function"
    },
    {
      "inputs": [],
      "name": "fetchMyNFTs",
      "outputs": [
        {
          "components": [
            {
              "internalType": "uint256",
              "name": "tokenId",
              "type": "uint256"
            },
            {
              "internalType": "address payable",
              "name": "seller",
              "type": "address"
            },
            {
              "internalType": "address payable",
              "name": "owner",
              "type": "address"
            },
            {
              "internalType": "uint256",
              "name": "price",
              "type": "uint256"
            },
            {
              "internalType": "bool",
              "name": "sold",
              "type": "bool"
            }
          ],
          "internalType": "struct SaigonMarket.MarketItem[]",
          "name": "",
          "type": "tuple[]"
        }
      ],
      "stateMutability": "view",
      "type": "function"
    },
    {
      "inputs": [
        {
          "internalType": "uint256",
          "name": "tokenId",
          "type": "uint256"
        }
      ],
      "name": "getApproved",
      "outputs": [
        {
          "internalType": "address",
          "name": "",
          "type": "address"
        }
      ],
      "stateMutability": "view",
      "type": "function"
    },
    {
      "inputs": [],
      "name": "getListingPrice",
      "outputs": [
        {
          "internalType": "uint256",
          "name": "",
          "type": "uint256"
        }
      ],
      "stateMutability": "view",
      "type": "function"
    },
    {
      "inputs": [
        {
          "internalType": "address",
          "name": "owner",
          "type": "address"
        },
        {
          "internalType": "address",
          "name": "operator",
          "type": "address"
        }
      ],
      "name": "isApprovedForAll",
      "outputs": [
        {
          "internalType": "bool",
          "name": "",
          "type": "bool"
        }
      ],
      "stateMutability": "view",
      "type": "function"
    },
    {
      "inputs": [],
      "name": "listingPrice",
      "outputs": [
        {
          "internalType": "uint256",
          "name": "",
          "type": "uint256"
        }
      ],
      "stateMutability": "view",
      "type": "function"
    },
    {
      "inputs": [],
      "name": "name",
      "outputs": [
        {
          "internalType": "string",
          "name": "",
          "type": "string"
        }
      ],
      "stateMutability": "view",
      "type": "function"
    },
    {
      "inputs": [],
      "name": "owner",
      "outputs": [
        {
          "internalType": "address payable",
          "name": "",
          "type": "address"
        }
      ],
      "stateMutability": "view",
      "type": "function"
    },
    {
      "inputs": [
        {
          "internalType": "uint256",
          "name": "tokenId",
          "type": "uint256"
        }
      ],
      "name": "ownerOf",
      "outputs": [
        {
          "internalType": "address",
          "name": "",
          "type": "address"
        }
      ],
      "stateMutability": "view",
      "type": "function"
    },
    {
      "inputs": [
        {
          "internalType": "uint256",
          "name": "tokenId",
          "type": "uint256"
        },
        {
          "internalType": "uint256",
          "name": "price",
          "type": "uint256"
        }
      ],
      "name": "resellToken",
      "outputs": [],
      "stateMutability": "payable",
      "type": "function"
    },
    {
      "inputs": [
        {
          "internalType": "address",
          "name": "from",
          "type": "address"
        },
        {
          "internalType": "address",
          "name": "to",
          "type": "address"
        },
        {
          "internalType": "uint256",
          "name": "tokenId",
          "type": "uint256"
        }
      ],
      "name": "safeTransferFrom",
      "outputs": [],
      "stateMutability": "nonpayable",
      "type": "function"
    },
    {
      "inputs": [
        {
          "internalType": "address",
          "name": "from",
          "type": "address"
        },
        {
          "internalType": "address",
          "name": "to",
          "type": "address"
        },
        {
          "internalType": "uint256",
          "name": "tokenId",
          "type": "uint256"
        },
        {
          "internalType": "bytes",
          "name": "data",
          "type": "bytes"
        }
      ],
      "name": "safeTransferFrom",
      "outputs": [],
      "stateMutability": "nonpayable",
      "type": "function"
    },
    {
      "inputs": [
        {
          "internalType": "address",
          "name": "operator",
          "type": "address"
        },
        {
          "internalType": "bool",
          "name": "approved",
          "type": "bool"
        }
      ],
      "name": "setApprovalForAll",
      "outputs": [],
      "stateMutability": "nonpayable",
      "type": "function"
    },
    {
      "inputs": [
        {
          "internalType": "bytes4",
          "name": "interfaceId",
          "type": "bytes4"
        }
      ],
      "name": "supportsInterface",
      "outputs": [
        {
          "internalType": "bool",
          "name": "",
          "type": "bool"
        }
      ],
      "stateMutability": "view",
      "type": "function"
    },
    {
      "inputs": [],
      "name": "symbol",
      "outputs": [
        {
          "internalType": "string",
          "name": "",
          "type": "string"
        }
      ],
      "stateMutability": "view",
      "type": "function"
    },
    {
      "inputs": [
        {
          "internalType": "uint256",
          "name": "tokenId",
          "type": "uint256"
        }
      ],
      "name": "tokenURI",
      "outputs": [
        {
          "internalType": "string",
          "name": "",
          "type": "string"
        }
      ],
      "stateMutability": "view",
      "type": "function"
    },
    {
      "inputs": [
        {
          "internalType": "address",
          "name": "from",
          "type": "address"
        },
        {
          "internalType": "address",
          "name": "to",
          "type": "address"
        },
        {
          "internalType": "uint256",
          "name": "tokenId",
          "type": "uint256"
        }
      ],
      "name": "transferFrom",
      "outputs": [],
      "stateMutability": "nonpayable",
      "type": "function"
    },
    {
      "inputs": [
        {
          "internalType": "uint256",
          "name": "_listingPrice",
          "type": "uint256"
        }
      ],
      "name": "updateListingPrice",
      "outputs": [],
      "stateMutability": "payable",
      "type": "function"
    }
  ],
  "bytecode": "0x60806040526703782dace9d900006009553480156200001d57600080fd5b50604080518082018252600981526826b7b4902a37b5b2b760b91b602080830191825283518085019094526004845263444f4e4760e01b9084015281519192916200006b916000916200009c565b508051620000819060019060208401906200009c565b5050600a80546001600160a01b03191633179055506200017f565b828054620000aa9062000142565b90600052602060002090601f016020900481019282620000ce576000855562000119565b82601f10620000e957805160ff191683800117855562000119565b8280016001018555821562000119579182015b8281111562000119578251825591602001919060010190620000fc565b50620001279291506200012b565b5090565b5b808211156200012757600081556001016200012c565b600181811c908216806200015757607f821691505b602082108114156200017957634e487b7160e01b600052602260045260246000fd5b50919050565b6121c4806200018f6000396000f3fe6080604052600436106101405760003560e01c806370a08231116100b6578063b88d4fde1161006f578063b88d4fde1461035c578063be9af5361461037c578063c78f19f91461038f578063c87b56dd146103a5578063e219fc75146103c5578063e985e9c5146103d857600080fd5b806370a08231146102c157806372b3b620146102e15780638da5cb5b146102f457806395d89b4114610314578063a22cb46514610329578063ae677aa31461034957600080fd5b806312e855851161010857806312e8558514610218578063202e37401461023757806323b872dd1461024c57806342842e0e1461026c57806345f8fa801461028c5780636352211e146102a157600080fd5b806301ffc9a71461014557806306fdde031461017a578063081812fc1461019c578063095ea7b3146101d45780630f08efe0146101f6575b600080fd5b34801561015157600080fd5b50610165610160366004611d6e565b610421565b60405190151581526020015b60405180910390f35b34801561018657600080fd5b5061018f610473565b6040516101719190611f50565b3480156101a857600080fd5b506101bc6101b7366004611e01565b610505565b6040516001600160a01b039091168152602001610171565b3480156101e057600080fd5b506101f46101ef366004611d44565b61052c565b005b34801561020257600080fd5b5061020b610647565b6040516101719190611ed4565b34801561022457600080fd5b506009545b604051908152602001610171565b34801561024357600080fd5b5061020b6107df565b34801561025857600080fd5b506101f4610267366004611c50565b6109b5565b34801561027857600080fd5b506101f4610287366004611c50565b6109e6565b34801561029857600080fd5b5061020b610a01565b3480156102ad57600080fd5b506101bc6102bc366004611e01565b610bd7565b3480156102cd57600080fd5b506102296102dc366004611c02565b610c37565b6102296102ef366004611da8565b610cbd565b34801561030057600080fd5b50600a546101bc906001600160a01b031681565b34801561032057600080fd5b5061018f610cff565b34801561033557600080fd5b506101f4610344366004611d08565b610d0e565b6101f4610357366004611e01565b610d1d565b34801561036857600080fd5b506101f4610377366004611c8c565b610d95565b6101f461038a366004611e01565b610dcd565b34801561039b57600080fd5b5061022960095481565b3480156103b157600080fd5b5061018f6103c0366004611e01565b610f32565b6101f46103d3366004611e1a565b611043565b3480156103e457600080fd5b506101656103f3366004611c1d565b6001600160a01b03918216600090815260056020908152604080832093909416825291909152205460ff1690565b60006001600160e01b031982166380ac58cd60e01b148061045257506001600160e01b03198216635b5e139f60e01b145b8061046d57506301ffc9a760e01b6001600160e01b03198316145b92915050565b606060008054610482906120b6565b80601f01602080910402602001604051908101604052809291908181526020018280546104ae906120b6565b80156104fb5780601f106104d0576101008083540402835291602001916104fb565b820191906000526020600020905b8154815290600101906020018083116104de57829003601f168201915b5050505050905090565b60006105108261113b565b506000908152600460205260409020546001600160a01b031690565b600061053782610bd7565b9050806001600160a01b0316836001600160a01b031614156105aa5760405162461bcd60e51b815260206004820152602160248201527f4552433732313a20617070726f76616c20746f2063757272656e74206f776e656044820152603960f91b60648201526084015b60405180910390fd5b336001600160a01b03821614806105c657506105c681336103f3565b6106385760405162461bcd60e51b815260206004820152603e60248201527f4552433732313a20617070726f76652063616c6c6572206973206e6f7420746f60448201527f6b656e206f776e6572206e6f7220617070726f76656420666f7220616c6c000060648201526084016105a1565b610642838361119d565b505050565b6060600061065460075490565b9050600061066160085490565b60075461066e9190612073565b90506000808267ffffffffffffffff81111561068c5761068c612162565b6040519080825280602002602001820160405280156106e557816020015b6040805160a0810182526000808252602080830182905292820181905260608201819052608082015282526000199092019101816106aa5790505b50905060005b848110156107d65730600b6000610703846001612047565b81526020810191909152604001600020600201546001600160a01b031614156107c4576000610733826001612047565b6000818152600b6020908152604091829020825160a0810184528154815260018201546001600160a01b039081169382019390935260028201549092169282019290925260038201546060820152600482015460ff1615156080820152855192935090918590849081106107a9576107a961214c565b60209081029190910101526107bf600186612047565b945050505b806107ce816120f1565b9150506106eb565b50949350505050565b606060006107ec60075490565b905060008060005b8381101561084f5733600b600061080c846001612047565b81526020810191909152604001600020600201546001600160a01b0316141561083d5761083a600184612047565b92505b80610847816120f1565b9150506107f4565b5060008267ffffffffffffffff81111561086b5761086b612162565b6040519080825280602002602001820160405280156108c457816020015b6040805160a0810182526000808252602080830182905292820181905260608201819052608082015282526000199092019101816108895790505b50905060005b848110156107d65733600b60006108e2846001612047565b81526020810191909152604001600020600201546001600160a01b031614156109a3576000610912826001612047565b6000818152600b6020908152604091829020825160a0810184528154815260018201546001600160a01b039081169382019390935260028201549092169282019290925260038201546060820152600482015460ff1615156080820152855192935090918590879081106109885761098861214c565b602090810291909101015261099e600186612047565b945050505b806109ad816120f1565b9150506108ca565b6109bf338261120b565b6109db5760405162461bcd60e51b81526004016105a190611ff9565b610642838383611289565b61064283838360405180602001604052806000815250610d95565b60606000610a0e60075490565b905060008060005b83811015610a715733600b6000610a2e846001612047565b81526020810191909152604001600020600101546001600160a01b03161415610a5f57610a5c600184612047565b92505b80610a69816120f1565b915050610a16565b5060008267ffffffffffffffff811115610a8d57610a8d612162565b604051908082528060200260200182016040528015610ae657816020015b6040805160a081018252600080825260208083018290529282018190526060820181905260808201528252600019909201910181610aab5790505b50905060005b848110156107d65733600b6000610b04846001612047565b81526020810191909152604001600020600101546001600160a01b03161415610bc5576000610b34826001612047565b6000818152600b6020908152604091829020825160a0810184528154815260018201546001600160a01b039081169382019390935260028201549092169282019290925260038201546060820152600482015460ff161515608082015285519293509091859087908110610baa57610baa61214c565b6020908102919091010152610bc0600186612047565b945050505b80610bcf816120f1565b915050610aec565b6000818152600260205260408120546001600160a01b03168061046d5760405162461bcd60e51b8152602060048201526018602482015277115490cdcc8c4e881a5b9d985b1a59081d1bdad95b88125160421b60448201526064016105a1565b60006001600160a01b038216610ca15760405162461bcd60e51b815260206004820152602960248201527f4552433732313a2061646472657373207a65726f206973206e6f7420612076616044820152683634b21037bbb732b960b91b60648201526084016105a1565b506001600160a01b031660009081526003602052604090205490565b6000610ccd600780546001019055565b6000610cd860075490565b9050610ce43382611425565b610cee8185611567565b610cf88184611601565b9392505050565b606060018054610482906120b6565b610d19338383611700565b5050565b600a546001600160a01b03163314610d905760405162461bcd60e51b815260206004820152603060248201527f4f6e6c79206d61726b6574706c616365206f776e65722063616e20757064617460448201526f32903634b9ba34b73390383934b1b29760811b60648201526084016105a1565b600955565b610d9f338361120b565b610dbb5760405162461bcd60e51b81526004016105a190611ff9565b610dc7848484846117cf565b50505050565b6000818152600b6020526040902060038101546001909101546001600160a01b0316348214610e66576040805162461bcd60e51b81526020600482015260248101919091527f506c65617365207375626d6974207468652061736b696e67207072696365206960448201527f6e206f7264657220746f20636f6d706c6574652074686520707572636861736560648201526084016105a1565b6000838152600b602052604090206002810180546001600160a01b0319908116331790915560048201805460ff1916600190811790915590910180549091169055610eb5600880546001019055565b610ec0303385611289565b600a546009546040516001600160a01b039092169181156108fc0291906000818181858888f19350505050158015610efc573d6000803e3d6000fd5b506040516001600160a01b038216903480156108fc02916000818181858888f19350505050158015610dc7573d6000803e3d6000fd5b6060610f3d8261113b565b60008281526006602052604081208054610f56906120b6565b80601f0160208091040260200160405190810160405280929190818152602001828054610f82906120b6565b8015610fcf5780601f10610fa457610100808354040283529160200191610fcf565b820191906000526020600020905b815481529060010190602001808311610fb257829003601f168201915b505050505090506000610fed60408051602081019091526000815290565b9050805160001415611000575092915050565b81511561103257808260405160200161101a929190611e68565b60405160208183030381529060405292505050919050565b61103b84611802565b949350505050565b6000828152600b60205260409020600201546001600160a01b031633146110bf5760405162461bcd60e51b815260206004820152602a60248201527f4f6e6c79206974656d206f776e65722063616e20706572666f726d20746869736044820152691037b832b930ba34b7b760b11b60648201526084016105a1565b60095434146110e05760405162461bcd60e51b81526004016105a190611fb5565b6000828152600b6020526040902060048101805460ff19169055600381018290556001810180546001600160a01b0319908116331790915560029091018054909116301790556111306008611875565b610d19333084611289565b6000818152600260205260409020546001600160a01b031661119a5760405162461bcd60e51b8152602060048201526018602482015277115490cdcc8c4e881a5b9d985b1a59081d1bdad95b88125160421b60448201526064016105a1565b50565b600081815260046020526040902080546001600160a01b0319166001600160a01b03841690811790915581906111d282610bd7565b6001600160a01b03167f8c5be1e5ebec7d5bd14f71427d1e84f3dd0314c0f7b2291e5b200ac8c7c3b92560405160405180910390a45050565b60008061121783610bd7565b9050806001600160a01b0316846001600160a01b0316148061125e57506001600160a01b0380821660009081526005602090815260408083209388168352929052205460ff165b8061103b5750836001600160a01b031661127784610505565b6001600160a01b031614949350505050565b826001600160a01b031661129c82610bd7565b6001600160a01b0316146113005760405162461bcd60e51b815260206004820152602560248201527f4552433732313a207472616e736665722066726f6d20696e636f72726563742060448201526437bbb732b960d91b60648201526084016105a1565b6001600160a01b0382166113625760405162461bcd60e51b8152602060048201526024808201527f4552433732313a207472616e7366657220746f20746865207a65726f206164646044820152637265737360e01b60648201526084016105a1565b61136d60008261119d565b6001600160a01b0383166000908152600360205260408120805460019290611396908490612073565b90915550506001600160a01b03821660009081526003602052604081208054600192906113c4908490612047565b909155505060008181526002602052604080822080546001600160a01b0319166001600160a01b0386811691821790925591518493918716917fddf252ad1be2c89b69c2b068fc378daa952ba7f163c4a11628f55a4df523b3ef91a4505050565b6001600160a01b03821661147b5760405162461bcd60e51b815260206004820181905260248201527f4552433732313a206d696e7420746f20746865207a65726f206164647265737360448201526064016105a1565b6000818152600260205260409020546001600160a01b0316156114e05760405162461bcd60e51b815260206004820152601c60248201527f4552433732313a20746f6b656e20616c7265616479206d696e7465640000000060448201526064016105a1565b6001600160a01b0382166000908152600360205260408120805460019290611509908490612047565b909155505060008181526002602052604080822080546001600160a01b0319166001600160a01b03861690811790915590518392907fddf252ad1be2c89b69c2b068fc378daa952ba7f163c4a11628f55a4df523b3ef908290a45050565b6000828152600260205260409020546001600160a01b03166115e25760405162461bcd60e51b815260206004820152602e60248201527f45524337323155524953746f726167653a2055524920736574206f66206e6f6e60448201526d32bc34b9ba32b73a103a37b5b2b760911b60648201526084016105a1565b6000828152600660209081526040909120825161064292840190611ad7565b600081116116515760405162461bcd60e51b815260206004820152601b60248201527f5072696365206d757374206265206174206c656174203120776569000000000060448201526064016105a1565b60095434146116725760405162461bcd60e51b81526004016105a190611fb5565b6040805160a0810182528381523360208083019182523083850190815260608401958652600060808501818152978152600b90925293902091518255516001820180546001600160a01b03199081166001600160a01b039384161790915592516002830180549094169116179091559051600382015590516004909101805460ff1916911515919091179055565b816001600160a01b0316836001600160a01b031614156117625760405162461bcd60e51b815260206004820152601960248201527f4552433732313a20617070726f766520746f2063616c6c65720000000000000060448201526064016105a1565b6001600160a01b03838116600081815260056020908152604080832094871680845294825291829020805460ff191686151590811790915591519182527f17307eab39ab6107e8899845ad3d59bd9653f200f220920489ca2b5937696c31910160405180910390a3505050565b6117da848484611289565b6117e6848484846118cc565b610dc75760405162461bcd60e51b81526004016105a190611f63565b606061180d8261113b565b600061182460408051602081019091526000815290565b905060008151116118445760405180602001604052806000815250610cf8565b8061184e846119d9565b60405160200161185f929190611e68565b6040516020818303038152906040529392505050565b8054806118c45760405162461bcd60e51b815260206004820152601b60248201527f436f756e7465723a2064656372656d656e74206f766572666c6f77000000000060448201526064016105a1565b600019019055565b60006001600160a01b0384163b156119ce57604051630a85bd0160e11b81526001600160a01b0385169063150b7a0290611910903390899088908890600401611e97565b602060405180830381600087803b15801561192a57600080fd5b505af192505050801561195a575060408051601f3d908101601f1916820190925261195791810190611d8b565b60015b6119b4573d808015611988576040519150601f19603f3d011682016040523d82523d6000602084013e61198d565b606091505b5080516119ac5760405162461bcd60e51b81526004016105a190611f63565b805181602001fd5b6001600160e01b031916630a85bd0160e11b14905061103b565b506001949350505050565b6060816119fd5750506040805180820190915260018152600360fc1b602082015290565b8160005b8115611a275780611a11816120f1565b9150611a209050600a8361205f565b9150611a01565b60008167ffffffffffffffff811115611a4257611a42612162565b6040519080825280601f01601f191660200182016040528015611a6c576020820181803683370190505b5090505b841561103b57611a81600183612073565b9150611a8e600a8661210c565b611a99906030612047565b60f81b818381518110611aae57611aae61214c565b60200101906001600160f81b031916908160001a905350611ad0600a8661205f565b9450611a70565b828054611ae3906120b6565b90600052602060002090601f016020900481019282611b055760008555611b4b565b82601f10611b1e57805160ff1916838001178555611b4b565b82800160010185558215611b4b579182015b82811115611b4b578251825591602001919060010190611b30565b50611b57929150611b5b565b5090565b5b80821115611b575760008155600101611b5c565b600067ffffffffffffffff80841115611b8b57611b8b612162565b604051601f8501601f19908116603f01168101908282118183101715611bb357611bb3612162565b81604052809350858152868686011115611bcc57600080fd5b858560208301376000602087830101525050509392505050565b80356001600160a01b0381168114611bfd57600080fd5b919050565b600060208284031215611c1457600080fd5b610cf882611be6565b60008060408385031215611c3057600080fd5b611c3983611be6565b9150611c4760208401611be6565b90509250929050565b600080600060608486031215611c6557600080fd5b611c6e84611be6565b9250611c7c60208501611be6565b9150604084013590509250925092565b60008060008060808587031215611ca257600080fd5b611cab85611be6565b9350611cb960208601611be6565b925060408501359150606085013567ffffffffffffffff811115611cdc57600080fd5b8501601f81018713611ced57600080fd5b611cfc87823560208401611b70565b91505092959194509250565b60008060408385031215611d1b57600080fd5b611d2483611be6565b915060208301358015158114611d3957600080fd5b809150509250929050565b60008060408385031215611d5757600080fd5b611d6083611be6565b946020939093013593505050565b600060208284031215611d8057600080fd5b8135610cf881612178565b600060208284031215611d9d57600080fd5b8151610cf881612178565b60008060408385031215611dbb57600080fd5b823567ffffffffffffffff811115611dd257600080fd5b8301601f81018513611de357600080fd5b611df285823560208401611b70565b95602094909401359450505050565b600060208284031215611e1357600080fd5b5035919050565b60008060408385031215611e2d57600080fd5b50508035926020909101359150565b60008151808452611e5481602086016020860161208a565b601f01601f19169290920160200192915050565b60008351611e7a81846020880161208a565b835190830190611e8e81836020880161208a565b01949350505050565b6001600160a01b0385811682528416602082015260408101839052608060608201819052600090611eca90830184611e3c565b9695505050505050565b602080825282518282018190526000919060409081850190868401855b82811015611f4357815180518552868101516001600160a01b03908116888701528682015116868601526060808201519086015260809081015115159085015260a09093019290850190600101611ef1565b5091979650505050505050565b602081526000610cf86020830184611e3c565b60208082526032908201527f4552433732313a207472616e7366657220746f206e6f6e20455243373231526560408201527131b2b4bb32b91034b6b83632b6b2b73a32b960711b606082015260800190565b60208082526024908201527f5072696365206d75737420626520657175616c20746f206c697374696e6720706040820152637269636560e01b606082015260800190565b6020808252602e908201527f4552433732313a2063616c6c6572206973206e6f7420746f6b656e206f776e6560408201526d1c881b9bdc88185c1c1c9bdd995960921b606082015260800190565b6000821982111561205a5761205a612120565b500190565b60008261206e5761206e612136565b500490565b60008282101561208557612085612120565b500390565b60005b838110156120a557818101518382015260200161208d565b83811115610dc75750506000910152565b600181811c908216806120ca57607f821691505b602082108114156120eb57634e487b7160e01b600052602260045260246000fd5b50919050565b600060001982141561210557612105612120565b5060010190565b60008261211b5761211b612136565b500690565b634e487b7160e01b600052601160045260246000fd5b634e487b7160e01b600052601260045260246000fd5b634e487b7160e01b600052603260045260246000fd5b634e487b7160e01b600052604160045260246000fd5b6001600160e01b03198116811461119a57600080fdfea2646970667358221220e84c622cda59f6356a3b26141526cfc8e0ac3946910e61e52114447fa017b6c164736f6c63430008070033",
  "linkReferences": {},
  "deployedLinkReferences": {}
}